{
	"github/nobi/staking/contracts/MultiRewardsBeefSTEAK.sol": {
		"MultiRewardsStake": {
			"abi": [
				{
					"inputs": [
						{
							"internalType": "address[]",
							"name": "rewardTokens_",
							"type": "address[]"
						},
						{
							"internalType": "address",
							"name": "stakingToken_",
							"type": "address"
						}
					],
					"stateMutability": "nonpayable",
					"type": "constructor"
				},
				{
					"anonymous": false,
					"inputs": [
						{
							"indexed": true,
							"internalType": "address",
							"name": "previousOwner",
							"type": "address"
						},
						{
							"indexed": true,
							"internalType": "address",
							"name": "newOwner",
							"type": "address"
						}
					],
					"name": "OwnershipTransferred",
					"type": "event"
				},
				{
					"anonymous": false,
					"inputs": [
						{
							"indexed": false,
							"internalType": "uint256",
							"name": "reward",
							"type": "uint256"
						}
					],
					"name": "RewardAdded",
					"type": "event"
				},
				{
					"anonymous": false,
					"inputs": [
						{
							"indexed": true,
							"internalType": "address",
							"name": "user",
							"type": "address"
						},
						{
							"indexed": false,
							"internalType": "uint256",
							"name": "reward",
							"type": "uint256"
						}
					],
					"name": "RewardPaid",
					"type": "event"
				},
				{
					"anonymous": false,
					"inputs": [
						{
							"indexed": true,
							"internalType": "address",
							"name": "user",
							"type": "address"
						},
						{
							"indexed": false,
							"internalType": "uint256",
							"name": "amount",
							"type": "uint256"
						}
					],
					"name": "Staked",
					"type": "event"
				},
				{
					"anonymous": false,
					"inputs": [
						{
							"indexed": true,
							"internalType": "address",
							"name": "user",
							"type": "address"
						},
						{
							"indexed": false,
							"internalType": "uint256",
							"name": "amount",
							"type": "uint256"
						}
					],
					"name": "Withdrawn",
					"type": "event"
				},
				{
					"inputs": [
						{
							"internalType": "address",
							"name": "token",
							"type": "address"
						}
					],
					"name": "addRewardToken",
					"outputs": [],
					"stateMutability": "nonpayable",
					"type": "function"
				},
				{
					"inputs": [
						{
							"internalType": "address",
							"name": "account",
							"type": "address"
						}
					],
					"name": "balanceOf",
					"outputs": [
						{
							"internalType": "uint256",
							"name": "",
							"type": "uint256"
						}
					],
					"stateMutability": "view",
					"type": "function"
				},
				{
					"inputs": [
						{
							"internalType": "uint256[]",
							"name": "amount",
							"type": "uint256[]"
						}
					],
					"name": "depositRewardTokens",
					"outputs": [],
					"stateMutability": "nonpayable",
					"type": "function"
				},
				{
					"inputs": [
						{
							"internalType": "address",
							"name": "account",
							"type": "address"
						}
					],
					"name": "earned",
					"outputs": [
						{
							"internalType": "uint256[]",
							"name": "",
							"type": "uint256[]"
						}
					],
					"stateMutability": "view",
					"type": "function"
				},
				{
					"inputs": [
						{
							"internalType": "address",
							"name": "token",
							"type": "address"
						}
					],
					"name": "emergencyWithdrawal",
					"outputs": [],
					"stateMutability": "nonpayable",
					"type": "function"
				},
				{
					"inputs": [],
					"name": "exit",
					"outputs": [],
					"stateMutability": "nonpayable",
					"type": "function"
				},
				{
					"inputs": [],
					"name": "getReward",
					"outputs": [],
					"stateMutability": "nonpayable",
					"type": "function"
				},
				{
					"inputs": [],
					"name": "getRewardForDuration",
					"outputs": [
						{
							"internalType": "uint256[]",
							"name": "",
							"type": "uint256[]"
						}
					],
					"stateMutability": "view",
					"type": "function"
				},
				{
					"inputs": [],
					"name": "getRewardTokens",
					"outputs": [
						{
							"components": [
								{
									"internalType": "address",
									"name": "token",
									"type": "address"
								},
								{
									"internalType": "uint256",
									"name": "rewardRate",
									"type": "uint256"
								},
								{
									"internalType": "uint256",
									"name": "rewardPerTokenStored",
									"type": "uint256"
								}
							],
							"internalType": "struct MultiRewardsStake.RewardToken[]",
							"name": "",
							"type": "tuple[]"
						}
					],
					"stateMutability": "view",
					"type": "function"
				},
				{
					"inputs": [],
					"name": "lastTimeRewardApplicable",
					"outputs": [
						{
							"internalType": "uint256",
							"name": "",
							"type": "uint256"
						}
					],
					"stateMutability": "view",
					"type": "function"
				},
				{
					"inputs": [],
					"name": "lastUpdateTime",
					"outputs": [
						{
							"internalType": "uint256",
							"name": "",
							"type": "uint256"
						}
					],
					"stateMutability": "view",
					"type": "function"
				},
				{
					"inputs": [
						{
							"internalType": "uint256[]",
							"name": "reward",
							"type": "uint256[]"
						}
					],
					"name": "notifyRewardAmount",
					"outputs": [],
					"stateMutability": "nonpayable",
					"type": "function"
				},
				{
					"inputs": [],
					"name": "owner",
					"outputs": [
						{
							"internalType": "address",
							"name": "",
							"type": "address"
						}
					],
					"stateMutability": "view",
					"type": "function"
				},
				{
					"inputs": [],
					"name": "periodFinish",
					"outputs": [
						{
							"internalType": "uint256",
							"name": "",
							"type": "uint256"
						}
					],
					"stateMutability": "view",
					"type": "function"
				},
				{
					"inputs": [
						{
							"internalType": "address",
							"name": "token",
							"type": "address"
						}
					],
					"name": "removeRewardToken",
					"outputs": [],
					"stateMutability": "nonpayable",
					"type": "function"
				},
				{
					"inputs": [],
					"name": "renounceOwnership",
					"outputs": [],
					"stateMutability": "nonpayable",
					"type": "function"
				},
				{
					"inputs": [
						{
							"internalType": "address",
							"name": "token",
							"type": "address"
						}
					],
					"name": "rewardForToken",
					"outputs": [
						{
							"internalType": "uint256",
							"name": "",
							"type": "uint256"
						}
					],
					"stateMutability": "view",
					"type": "function"
				},
				{
					"inputs": [],
					"name": "rewardPerToken",
					"outputs": [
						{
							"internalType": "uint256[]",
							"name": "",
							"type": "uint256[]"
						}
					],
					"stateMutability": "view",
					"type": "function"
				},
				{
					"inputs": [],
					"name": "rewardsDuration",
					"outputs": [
						{
							"internalType": "uint256",
							"name": "",
							"type": "uint256"
						}
					],
					"stateMutability": "view",
					"type": "function"
				},
				{
					"inputs": [
						{
							"internalType": "uint256",
							"name": "amount",
							"type": "uint256"
						}
					],
					"name": "stake",
					"outputs": [],
					"stateMutability": "nonpayable",
					"type": "function"
				},
				{
					"inputs": [],
					"name": "stakingToken",
					"outputs": [
						{
							"internalType": "contract IERC20",
							"name": "",
							"type": "address"
						}
					],
					"stateMutability": "view",
					"type": "function"
				},
				{
					"inputs": [],
					"name": "totalRewardTokens",
					"outputs": [
						{
							"internalType": "uint256",
							"name": "",
							"type": "uint256"
						}
					],
					"stateMutability": "view",
					"type": "function"
				},
				{
					"inputs": [],
					"name": "totalSupply",
					"outputs": [
						{
							"internalType": "uint256",
							"name": "",
							"type": "uint256"
						}
					],
					"stateMutability": "view",
					"type": "function"
				},
				{
					"inputs": [
						{
							"internalType": "address",
							"name": "newOwner",
							"type": "address"
						}
					],
					"name": "transferOwnership",
					"outputs": [],
					"stateMutability": "nonpayable",
					"type": "function"
				},
				{
					"inputs": [
						{
							"internalType": "uint256",
							"name": "amount",
							"type": "uint256"
						}
					],
					"name": "withdraw",
					"outputs": [],
					"stateMutability": "nonpayable",
					"type": "function"
				}
			],
			"devdoc": {
				"kind": "dev",
				"methods": {
					"owner()": {
						"details": "Returns the address of the current owner."
					},
					"renounceOwnership()": {
						"details": "Leaves the contract without owner. It will not be possible to call `onlyOwner` functions anymore. Can only be called by the current owner. NOTE: Renouncing ownership will leave the contract without an owner, thereby removing any functionality that is only available to the owner."
					},
					"transferOwnership(address)": {
						"details": "Transfers ownership of the contract to a new account (`newOwner`). Can only be called by the current owner."
					}
				},
				"version": 1
			},
			"evm": {
				"assembly": "    /* \"github/nobi/staking/contracts/MultiRewardsBeefSTEAK.sol\":301:11934  contract MultiRewardsStake is ReentrancyGuard, Ownable {... */\n  mstore(0x40, 0x80)\n    /* \"github/nobi/staking/contracts/MultiRewardsBeefSTEAK.sol\":1220:1750  constructor(... */\n  callvalue\n  dup1\n  iszero\n  tag_1\n  jumpi\n  0x00\n  dup1\n  revert\ntag_1:\n  pop\n  mload(0x40)\n  sub(codesize, bytecodeSize)\n  dup1\n  bytecodeSize\n  dup4\n  codecopy\n  dup2\n  add\n  0x40\n  dup2\n  swap1\n  mstore\n  tag_2\n  swap2\n  tag_3\n  jump\t// in\ntag_2:\n    /* \"github/nobi/staking/contracts/helpers/ReentrancyGuard.sol\":1701:1702  1 */\n  0x01\n    /* \"github/nobi/staking/contracts/helpers/ReentrancyGuard.sol\":1806:1813  _status */\n  0x00\n    /* \"github/nobi/staking/contracts/helpers/ReentrancyGuard.sol\":1806:1828  _status = _NOT_ENTERED */\n  sstore\n    /* \"github/nobi/staking/contracts/helpers/Ownable.sol\":914:946  _transferOwnership(_msgSender()) */\n  tag_9\n    /* \"github/nobi/staking/contracts/helpers/Context.sol\":719:729  msg.sender */\n  caller\n    /* \"github/nobi/staking/contracts/helpers/Ownable.sol\":914:932  _transferOwnership */\n  tag_12\n    /* \"github/nobi/staking/contracts/helpers/Ownable.sol\":914:946  _transferOwnership(_msgSender()) */\n  jump\t// in\ntag_9:\n    /* \"github/nobi/staking/contracts/MultiRewardsBeefSTEAK.sol\":1319:1331  stakingToken */\n  0x02\n    /* \"github/nobi/staking/contracts/MultiRewardsBeefSTEAK.sol\":1319:1355  stakingToken = IERC20(stakingToken_) */\n  dup1\n  sload\n  not(sub(shl(0xa0, 0x01), 0x01))\n  and\n  sub(shl(0xa0, 0x01), 0x01)\n  dup4\n  and\n  or\n  swap1\n  sstore\n    /* \"github/nobi/staking/contracts/MultiRewardsBeefSTEAK.sol\":1386:1406  rewardTokens_.length */\n  dup2\n  mload\n    /* \"github/nobi/staking/contracts/MultiRewardsBeefSTEAK.sol\":1365:1383  _totalRewardTokens */\n  0x08\n    /* \"github/nobi/staking/contracts/MultiRewardsBeefSTEAK.sol\":1365:1406  _totalRewardTokens = rewardTokens_.length */\n  sstore\n  0x00\n    /* \"github/nobi/staking/contracts/MultiRewardsBeefSTEAK.sol\":1417:1708  for (uint i; i < rewardTokens_.length; i++) {... */\ntag_14:\n    /* \"github/nobi/staking/contracts/MultiRewardsBeefSTEAK.sol\":1434:1447  rewardTokens_ */\n  dup3\n    /* \"github/nobi/staking/contracts/MultiRewardsBeefSTEAK.sol\":1434:1454  rewardTokens_.length */\n  mload\n    /* \"github/nobi/staking/contracts/MultiRewardsBeefSTEAK.sol\":1430:1431  i */\n  dup2\n    /* \"github/nobi/staking/contracts/MultiRewardsBeefSTEAK.sol\":1430:1454  i < rewardTokens_.length */\n  lt\n    /* \"github/nobi/staking/contracts/MultiRewardsBeefSTEAK.sol\":1417:1708  for (uint i; i < rewardTokens_.length; i++) {... */\n  iszero\n  tag_15\n  jumpi\n    /* \"github/nobi/staking/contracts/MultiRewardsBeefSTEAK.sol\":1498:1638  RewardToken({... */\n  mload(0x40)\n  dup1\n  0x60\n  add\n  0x40\n  mstore\n  dup1\n    /* \"github/nobi/staking/contracts/MultiRewardsBeefSTEAK.sol\":1535:1548  rewardTokens_ */\n  dup5\n    /* \"github/nobi/staking/contracts/MultiRewardsBeefSTEAK.sol\":1549:1550  i */\n  dup4\n    /* \"github/nobi/staking/contracts/MultiRewardsBeefSTEAK.sol\":1535:1551  rewardTokens_[i] */\n  dup2\n  mload\n  dup2\n  lt\n  tag_17\n  jumpi\n  mstore(0x00, shl(0xe0, 0x4e487b71))\n  mstore(0x04, 0x32)\n  revert(0x00, 0x24)\ntag_17:\n  0x20\n  mul\n  0x20\n  add\n  add\n  mload\n  sub(shl(0xa0, 0x01), 0x01)\n    /* \"github/nobi/staking/contracts/MultiRewardsBeefSTEAK.sol\":1498:1638  RewardToken({... */\n  and\n  dup2\n  mstore\n  0x20\n  add\n    /* \"github/nobi/staking/contracts/MultiRewardsBeefSTEAK.sol\":1581:1582  0 */\n  0x00\n    /* \"github/nobi/staking/contracts/MultiRewardsBeefSTEAK.sol\":1498:1638  RewardToken({... */\n  dup2\n  mstore\n  0x20\n  add\n    /* \"github/nobi/staking/contracts/MultiRewardsBeefSTEAK.sol\":1622:1623  0 */\n  0x00\n    /* \"github/nobi/staking/contracts/MultiRewardsBeefSTEAK.sol\":1498:1638  RewardToken({... */\n  dup2\n  mstore\n  pop\n    /* \"github/nobi/staking/contracts/MultiRewardsBeefSTEAK.sol\":1475:1488  _rewardTokens */\n  0x09\n    /* \"github/nobi/staking/contracts/MultiRewardsBeefSTEAK.sol\":1475:1495  _rewardTokens[i + 1] */\n  0x00\n    /* \"github/nobi/staking/contracts/MultiRewardsBeefSTEAK.sol\":1489:1490  i */\n  dup4\n    /* \"github/nobi/staking/contracts/MultiRewardsBeefSTEAK.sol\":1493:1494  1 */\n  0x01\n    /* \"github/nobi/staking/contracts/MultiRewardsBeefSTEAK.sol\":1489:1494  i + 1 */\n  tag_18\n  swap2\n  swap1\n  tag_19\n  jump\t// in\ntag_18:\n    /* \"github/nobi/staking/contracts/MultiRewardsBeefSTEAK.sol\":1475:1495  _rewardTokens[i + 1] */\n  dup2\n  mstore\n  0x20\n  dup1\n  dup3\n  add\n  swap3\n  swap1\n  swap3\n  mstore\n  0x40\n  swap1\n  dup2\n  add\n  0x00\n  keccak256\n    /* \"github/nobi/staking/contracts/MultiRewardsBeefSTEAK.sol\":1475:1638  _rewardTokens[i + 1] = RewardToken({... */\n  dup4\n  mload\n  dup2\n  sload\n  not(sub(shl(0xa0, 0x01), 0x01))\n  and\n  sub(shl(0xa0, 0x01), 0x01)\n  swap1\n  swap2\n  and\n  or\n  dup2\n  sstore\n  swap2\n  dup4\n  add\n  mload\n  0x01\n  dup1\n  dup5\n  add\n  swap2\n  swap1\n  swap2\n  sstore\n  swap3\n  add\n  mload\n  0x02\n  swap1\n  swap2\n  add\n  sstore\n    /* \"github/nobi/staking/contracts/MultiRewardsBeefSTEAK.sol\":1692:1697  i + 1 */\n  tag_20\n  swap1\n    /* \"github/nobi/staking/contracts/MultiRewardsBeefSTEAK.sol\":1692:1693  i */\n  dup3\n  swap1\n    /* \"github/nobi/staking/contracts/MultiRewardsBeefSTEAK.sol\":1692:1697  i + 1 */\n  tag_19\n  jump\t// in\ntag_20:\n    /* \"github/nobi/staking/contracts/MultiRewardsBeefSTEAK.sol\":1652:1671  _rewardTokenToIndex */\n  0x0a\n    /* \"github/nobi/staking/contracts/MultiRewardsBeefSTEAK.sol\":1652:1689  _rewardTokenToIndex[rewardTokens_[i]] */\n  0x00\n    /* \"github/nobi/staking/contracts/MultiRewardsBeefSTEAK.sol\":1672:1685  rewardTokens_ */\n  dup6\n    /* \"github/nobi/staking/contracts/MultiRewardsBeefSTEAK.sol\":1686:1687  i */\n  dup5\n    /* \"github/nobi/staking/contracts/MultiRewardsBeefSTEAK.sol\":1672:1688  rewardTokens_[i] */\n  dup2\n  mload\n  dup2\n  lt\n  tag_21\n  jumpi\n  mstore(0x00, shl(0xe0, 0x4e487b71))\n  mstore(0x04, 0x32)\n  revert(0x00, 0x24)\ntag_21:\n  0x20\n  mul\n  0x20\n  add\n  add\n  mload\n  sub(shl(0xa0, 0x01), 0x01)\n    /* \"github/nobi/staking/contracts/MultiRewardsBeefSTEAK.sol\":1652:1689  _rewardTokenToIndex[rewardTokens_[i]] */\n  and\n  sub(shl(0xa0, 0x01), 0x01)\n  and\n  dup2\n  mstore\n  0x20\n  add\n  swap1\n  dup2\n  mstore\n  0x20\n  add\n  0x00\n  keccak256\n    /* \"github/nobi/staking/contracts/MultiRewardsBeefSTEAK.sol\":1652:1697  _rewardTokenToIndex[rewardTokens_[i]] = i + 1 */\n  dup2\n  swap1\n  sstore\n  pop\n    /* \"github/nobi/staking/contracts/MultiRewardsBeefSTEAK.sol\":1456:1459  i++ */\n  dup1\n  dup1\n  tag_22\n  swap1\n  tag_23\n  jump\t// in\ntag_22:\n  swap2\n  pop\n  pop\n    /* \"github/nobi/staking/contracts/MultiRewardsBeefSTEAK.sol\":1417:1708  for (uint i; i < rewardTokens_.length; i++) {... */\n  jump(tag_14)\ntag_15:\n  pop\n  pop\n    /* \"github/nobi/staking/contracts/MultiRewardsBeefSTEAK.sol\":1736:1743  14 days */\n  0x127500\n    /* \"github/nobi/staking/contracts/MultiRewardsBeefSTEAK.sol\":1718:1733  rewardsDuration */\n  0x04\n    /* \"github/nobi/staking/contracts/MultiRewardsBeefSTEAK.sol\":1718:1743  rewardsDuration = 14 days */\n  sstore\n  pop\n    /* \"github/nobi/staking/contracts/MultiRewardsBeefSTEAK.sol\":301:11934  contract MultiRewardsStake is ReentrancyGuard, Ownable {... */\n  jump(tag_27)\n    /* \"github/nobi/staking/contracts/helpers/Ownable.sol\":2263:2450  function _transferOwnership(address newOwner) internal virtual {... */\ntag_12:\n    /* \"github/nobi/staking/contracts/helpers/Ownable.sol\":2355:2361  _owner */\n  0x01\n  dup1\n  sload\n  sub(shl(0xa0, 0x01), 0x01)\n    /* \"github/nobi/staking/contracts/helpers/Ownable.sol\":2371:2388  _owner = newOwner */\n  dup4\n  dup2\n  and\n  not(sub(shl(0xa0, 0x01), 0x01))\n  dup4\n  and\n  dup2\n  or\n  swap1\n  swap4\n  sstore\n    /* \"github/nobi/staking/contracts/helpers/Ownable.sol\":2403:2443  OwnershipTransferred(oldOwner, newOwner) */\n  mload(0x40)\n    /* \"github/nobi/staking/contracts/helpers/Ownable.sol\":2355:2361  _owner */\n  swap2\n  and\n  swap2\n    /* \"github/nobi/staking/contracts/helpers/Ownable.sol\":2371:2388  _owner = newOwner */\n  swap1\n    /* \"github/nobi/staking/contracts/helpers/Ownable.sol\":2355:2361  _owner */\n  dup3\n  swap1\n    /* \"github/nobi/staking/contracts/helpers/Ownable.sol\":2403:2443  OwnershipTransferred(oldOwner, newOwner) */\n  0x8be0079c531659141344cd1fd0a4f28419497f9722a3daafe3b4186f6b6457e0\n  swap1\n    /* \"github/nobi/staking/contracts/helpers/Ownable.sol\":2336:2352  address oldOwner */\n  0x00\n  swap1\n    /* \"github/nobi/staking/contracts/helpers/Ownable.sol\":2403:2443  OwnershipTransferred(oldOwner, newOwner) */\n  log3\n    /* \"github/nobi/staking/contracts/helpers/Ownable.sol\":2263:2450  function _transferOwnership(address newOwner) internal virtual {... */\n  pop\n  pop\n  jump\t// out\n    /* \"#utility.yul\":14:191   */\ntag_28:\n    /* \"#utility.yul\":93:106   */\n  dup1\n  mload\n  sub(shl(0xa0, 0x01), 0x01)\n    /* \"#utility.yul\":135:166   */\n  dup2\n  and\n    /* \"#utility.yul\":125:167   */\n  dup2\n  eq\n    /* \"#utility.yul\":115:117   */\n  tag_30\n  jumpi\n    /* \"#utility.yul\":181:182   */\n  0x00\n    /* \"#utility.yul\":178:179   */\n  dup1\n    /* \"#utility.yul\":171:183   */\n  revert\n    /* \"#utility.yul\":115:117   */\ntag_30:\n    /* \"#utility.yul\":74:191   */\n  swap2\n  swap1\n  pop\n  jump\t// out\n    /* \"#utility.yul\":196:1468   */\ntag_3:\n    /* \"#utility.yul\":300:306   */\n  0x00\n    /* \"#utility.yul\":308:314   */\n  dup1\n    /* \"#utility.yul\":361:363   */\n  0x40\n    /* \"#utility.yul\":349:358   */\n  dup4\n    /* \"#utility.yul\":340:347   */\n  dup6\n    /* \"#utility.yul\":336:359   */\n  sub\n    /* \"#utility.yul\":332:364   */\n  slt\n    /* \"#utility.yul\":329:331   */\n  iszero\n  tag_32\n  jumpi\n    /* \"#utility.yul\":382:388   */\n  dup2\n    /* \"#utility.yul\":374:380   */\n  dup3\n    /* \"#utility.yul\":367:389   */\n  revert\n    /* \"#utility.yul\":329:331   */\ntag_32:\n    /* \"#utility.yul\":414:430   */\n  dup3\n  mload\n  sub(shl(0x40, 0x01), 0x01)\n    /* \"#utility.yul\":479:493   */\n  dup1\n  dup3\n  gt\n    /* \"#utility.yul\":476:478   */\n  iszero\n  tag_33\n  jumpi\n    /* \"#utility.yul\":511:517   */\n  dup4\n    /* \"#utility.yul\":503:509   */\n  dup5\n    /* \"#utility.yul\":496:518   */\n  revert\n    /* \"#utility.yul\":476:478   */\ntag_33:\n    /* \"#utility.yul\":554:560   */\n  dup2\n    /* \"#utility.yul\":543:552   */\n  dup6\n    /* \"#utility.yul\":539:561   */\n  add\n    /* \"#utility.yul\":529:561   */\n  swap2\n  pop\n    /* \"#utility.yul\":599:606   */\n  dup6\n    /* \"#utility.yul\":592:596   */\n  0x1f\n    /* \"#utility.yul\":588:590   */\n  dup4\n    /* \"#utility.yul\":584:597   */\n  add\n    /* \"#utility.yul\":580:607   */\n  slt\n    /* \"#utility.yul\":570:572   */\n  tag_34\n  jumpi\n    /* \"#utility.yul\":626:632   */\n  dup4\n    /* \"#utility.yul\":618:624   */\n  dup5\n    /* \"#utility.yul\":611:633   */\n  revert\n    /* \"#utility.yul\":570:572   */\ntag_34:\n    /* \"#utility.yul\":660:662   */\n  dup2\n    /* \"#utility.yul\":654:663   */\n  mload\n    /* \"#utility.yul\":682:686   */\n  0x20\n    /* \"#utility.yul\":705:707   */\n  dup3\n    /* \"#utility.yul\":701:703   */\n  dup3\n    /* \"#utility.yul\":698:708   */\n  gt\n    /* \"#utility.yul\":695:697   */\n  iszero\n  tag_36\n  jumpi\n    /* \"#utility.yul\":711:729   */\n  tag_36\n  tag_37\n  jump\t// in\ntag_36:\n    /* \"#utility.yul\":757:759   */\n  dup2\n    /* \"#utility.yul\":754:755   */\n  0x05\n    /* \"#utility.yul\":750:760   */\n  shl\n    /* \"#utility.yul\":789:791   */\n  0x40\n    /* \"#utility.yul\":783:792   */\n  mload\n    /* \"#utility.yul\":852:854   */\n  0x1f\n    /* \"#utility.yul\":848:855   */\n  not\n    /* \"#utility.yul\":843:845   */\n  0x3f\n    /* \"#utility.yul\":839:841   */\n  dup4\n    /* \"#utility.yul\":835:846   */\n  add\n    /* \"#utility.yul\":831:856   */\n  and\n    /* \"#utility.yul\":823:829   */\n  dup2\n    /* \"#utility.yul\":819:857   */\n  add\n    /* \"#utility.yul\":907:913   */\n  dup2\n    /* \"#utility.yul\":895:905   */\n  dup2\n    /* \"#utility.yul\":892:914   */\n  lt\n    /* \"#utility.yul\":887:889   */\n  dup7\n    /* \"#utility.yul\":875:885   */\n  dup3\n    /* \"#utility.yul\":872:890   */\n  gt\n    /* \"#utility.yul\":869:915   */\n  or\n    /* \"#utility.yul\":866:868   */\n  iszero\n  tag_39\n  jumpi\n    /* \"#utility.yul\":918:936   */\n  tag_39\n  tag_37\n  jump\t// in\ntag_39:\n    /* \"#utility.yul\":954:956   */\n  0x40\n    /* \"#utility.yul\":947:969   */\n  mstore\n    /* \"#utility.yul\":1004:1022   */\n  dup4\n  dup2\n  mstore\n    /* \"#utility.yul\":1038:1053   */\n  dup3\n  dup2\n  add\n  swap5\n  pop\n    /* \"#utility.yul\":1073:1084   */\n  dup6\n  dup4\n  add\n    /* \"#utility.yul\":1103:1114   */\n  dup3\n  dup8\n  add\n    /* \"#utility.yul\":1099:1119   */\n  dup5\n  add\n    /* \"#utility.yul\":1096:1129   */\n  dup12\n  lt\n    /* \"#utility.yul\":1093:1095   */\n  iszero\n  tag_40\n  jumpi\n    /* \"#utility.yul\":1147:1153   */\n  dup9\n    /* \"#utility.yul\":1139:1145   */\n  dup10\n    /* \"#utility.yul\":1132:1154   */\n  revert\n    /* \"#utility.yul\":1093:1095   */\ntag_40:\n    /* \"#utility.yul\":1174:1180   */\n  dup9\n    /* \"#utility.yul\":1165:1180   */\n  swap7\n  pop\n    /* \"#utility.yul\":1189:1369   */\ntag_41:\n    /* \"#utility.yul\":1203:1205   */\n  dup5\n    /* \"#utility.yul\":1200:1201   */\n  dup8\n    /* \"#utility.yul\":1197:1206   */\n  lt\n    /* \"#utility.yul\":1189:1369   */\n  iszero\n  tag_43\n  jumpi\n    /* \"#utility.yul\":1260:1294   */\n  tag_44\n    /* \"#utility.yul\":1290:1293   */\n  dup2\n    /* \"#utility.yul\":1260:1294   */\n  tag_28\n  jump\t// in\ntag_44:\n    /* \"#utility.yul\":1248:1295   */\n  dup7\n  mstore\n    /* \"#utility.yul\":1221:1222   */\n  0x01\n    /* \"#utility.yul\":1214:1223   */\n  swap7\n  swap1\n  swap7\n  add\n  swap6\n    /* \"#utility.yul\":1315:1327   */\n  swap5\n  dup4\n  add\n  swap5\n    /* \"#utility.yul\":1347:1359   */\n  dup4\n  add\n    /* \"#utility.yul\":1189:1369   */\n  jump(tag_41)\ntag_43:\n  pop\n    /* \"#utility.yul\":1388:1394   */\n  swap7\n  pop\n    /* \"#utility.yul\":1413:1462   */\n  tag_45\n  swap1\n  pop\n    /* \"#utility.yul\":1443:1461   */\n  dup8\n  dup3\n  add\n    /* \"#utility.yul\":1413:1462   */\n  tag_28\n  jump\t// in\ntag_45:\n    /* \"#utility.yul\":1403:1462   */\n  swap5\n  pop\n  pop\n  pop\n  pop\n  pop\n    /* \"#utility.yul\":319:1468   */\n  swap3\n  pop\n  swap3\n  swap1\n  pop\n  jump\t// out\n    /* \"#utility.yul\":1473:1601   */\ntag_19:\n    /* \"#utility.yul\":1513:1516   */\n  0x00\n    /* \"#utility.yul\":1544:1545   */\n  dup3\n    /* \"#utility.yul\":1540:1546   */\n  not\n    /* \"#utility.yul\":1537:1538   */\n  dup3\n    /* \"#utility.yul\":1534:1547   */\n  gt\n    /* \"#utility.yul\":1531:1533   */\n  iszero\n  tag_48\n  jumpi\n    /* \"#utility.yul\":1550:1568   */\n  tag_48\n  tag_49\n  jump\t// in\ntag_48:\n  pop\n    /* \"#utility.yul\":1586:1595   */\n  add\n  swap1\n    /* \"#utility.yul\":1521:1601   */\n  jump\t// out\n    /* \"#utility.yul\":1606:1741   */\ntag_23:\n    /* \"#utility.yul\":1645:1648   */\n  0x00\n  not(0x00)\n    /* \"#utility.yul\":1666:1683   */\n  dup3\n  eq\n    /* \"#utility.yul\":1663:1665   */\n  iszero\n  tag_52\n  jumpi\n    /* \"#utility.yul\":1686:1704   */\n  tag_52\n  tag_49\n  jump\t// in\ntag_52:\n  pop\n    /* \"#utility.yul\":1733:1734   */\n  0x01\n    /* \"#utility.yul\":1722:1735   */\n  add\n  swap1\n    /* \"#utility.yul\":1653:1741   */\n  jump\t// out\n    /* \"#utility.yul\":1746:1873   */\ntag_49:\n    /* \"#utility.yul\":1807:1817   */\n  0x4e487b71\n    /* \"#utility.yul\":1802:1805   */\n  0xe0\n    /* \"#utility.yul\":1798:1818   */\n  shl\n    /* \"#utility.yul\":1795:1796   */\n  0x00\n    /* \"#utility.yul\":1788:1819   */\n  mstore\n    /* \"#utility.yul\":1838:1842   */\n  0x11\n    /* \"#utility.yul\":1835:1836   */\n  0x04\n    /* \"#utility.yul\":1828:1843   */\n  mstore\n    /* \"#utility.yul\":1862:1866   */\n  0x24\n    /* \"#utility.yul\":1859:1860   */\n  0x00\n    /* \"#utility.yul\":1852:1867   */\n  revert\n    /* \"#utility.yul\":1878:2005   */\ntag_37:\n    /* \"#utility.yul\":1939:1949   */\n  0x4e487b71\n    /* \"#utility.yul\":1934:1937   */\n  0xe0\n    /* \"#utility.yul\":1930:1950   */\n  shl\n    /* \"#utility.yul\":1927:1928   */\n  0x00\n    /* \"#utility.yul\":1920:1951   */\n  mstore\n    /* \"#utility.yul\":1970:1974   */\n  0x41\n    /* \"#utility.yul\":1967:1968   */\n  0x04\n    /* \"#utility.yul\":1960:1975   */\n  mstore\n    /* \"#utility.yul\":1994:1998   */\n  0x24\n    /* \"#utility.yul\":1991:1992   */\n  0x00\n    /* \"#utility.yul\":1984:1999   */\n  revert\n    /* \"#utility.yul\":1910:2005   */\ntag_27:\n    /* \"github/nobi/staking/contracts/MultiRewardsBeefSTEAK.sol\":301:11934  contract MultiRewardsStake is ReentrancyGuard, Ownable {... */\n  dataSize(sub_0)\n  dup1\n  dataOffset(sub_0)\n  0x00\n  codecopy\n  0x00\n  return\nstop\n\nsub_0: assembly {\n        /* \"github/nobi/staking/contracts/MultiRewardsBeefSTEAK.sol\":301:11934  contract MultiRewardsStake is ReentrancyGuard, Ownable {... */\n      mstore(0x40, 0x80)\n      callvalue\n      dup1\n      iszero\n      tag_1\n      jumpi\n      0x00\n      dup1\n      revert\n    tag_1:\n      pop\n      jumpi(tag_2, lt(calldatasize, 0x04))\n      shr(0xe0, calldataload(0x00))\n      dup1\n      0x715018a6\n      gt\n      tag_28\n      jumpi\n      dup1\n      0xc4f59f9b\n      gt\n      tag_29\n      jumpi\n      dup1\n      0xe71e7f78\n      gt\n      tag_30\n      jumpi\n      dup1\n      0xe71e7f78\n      eq\n      tag_24\n      jumpi\n      dup1\n      0xe9fad8ee\n      eq\n      tag_25\n      jumpi\n      dup1\n      0xebe2b12b\n      eq\n      tag_26\n      jumpi\n      dup1\n      0xf2fde38b\n      eq\n      tag_27\n      jumpi\n      0x00\n      dup1\n      revert\n    tag_30:\n      dup1\n      0xc4f59f9b\n      eq\n      tag_21\n      jumpi\n      dup1\n      0xc8f33c91\n      eq\n      tag_22\n      jumpi\n      dup1\n      0xcd3daf9d\n      eq\n      tag_23\n      jumpi\n      0x00\n      dup1\n      revert\n    tag_29:\n      dup1\n      0x8da5cb5b\n      gt\n      tag_31\n      jumpi\n      dup1\n      0x8da5cb5b\n      eq\n      tag_18\n      jumpi\n      dup1\n      0xa54f5e0d\n      eq\n      tag_19\n      jumpi\n      dup1\n      0xa694fc3a\n      eq\n      tag_20\n      jumpi\n      0x00\n      dup1\n      revert\n    tag_31:\n      dup1\n      0x715018a6\n      eq\n      tag_15\n      jumpi\n      dup1\n      0x72f702f3\n      eq\n      tag_16\n      jumpi\n      dup1\n      0x80faa57d\n      eq\n      tag_17\n      jumpi\n      0x00\n      dup1\n      revert\n    tag_28:\n      dup1\n      0x386a9525\n      gt\n      tag_32\n      jumpi\n      dup1\n      0x6a1af3b7\n      gt\n      tag_33\n      jumpi\n      dup1\n      0x6a1af3b7\n      eq\n      tag_12\n      jumpi\n      dup1\n      0x6e353a1d\n      eq\n      tag_13\n      jumpi\n      dup1\n      0x70a08231\n      eq\n      tag_14\n      jumpi\n      0x00\n      dup1\n      revert\n    tag_33:\n      dup1\n      0x386a9525\n      eq\n      tag_9\n      jumpi\n      dup1\n      0x3d18b912\n      eq\n      tag_10\n      jumpi\n      dup1\n      0x3d509c97\n      eq\n      tag_11\n      jumpi\n      0x00\n      dup1\n      revert\n    tag_32:\n      dup1\n      0x1c03e6cc\n      gt\n      tag_34\n      jumpi\n      dup1\n      0x1c03e6cc\n      eq\n      tag_6\n      jumpi\n      dup1\n      0x1c1f78eb\n      eq\n      tag_7\n      jumpi\n      dup1\n      0x2e1a7d4d\n      eq\n      tag_8\n      jumpi\n      0x00\n      dup1\n      revert\n    tag_34:\n      dup1\n      0x8cc262\n      eq\n      tag_3\n      jumpi\n      dup1\n      0x18160ddd\n      eq\n      tag_4\n      jumpi\n      dup1\n      0x1b0875a6\n      eq\n      tag_5\n      jumpi\n    tag_2:\n      0x00\n      dup1\n      revert\n        /* \"github/nobi/staking/contracts/MultiRewardsBeefSTEAK.sol\":3955:4565  function earned(address account) public view returns (uint256[] memory) {... */\n    tag_3:\n      tag_35\n      tag_36\n      calldatasize\n      0x04\n      tag_37\n      jump\t// in\n    tag_36:\n      tag_38\n      jump\t// in\n    tag_35:\n      mload(0x40)\n      tag_39\n      swap2\n      swap1\n      tag_40\n      jump\t// in\n    tag_39:\n      mload(0x40)\n      dup1\n      swap2\n      sub\n      swap1\n      return\n        /* \"github/nobi/staking/contracts/MultiRewardsBeefSTEAK.sol\":1773:1864  function totalSupply() external view returns (uint256) {... */\n    tag_4:\n        /* \"github/nobi/staking/contracts/MultiRewardsBeefSTEAK.sol\":1845:1857  _totalSupply */\n      sload(0x0b)\n        /* \"github/nobi/staking/contracts/MultiRewardsBeefSTEAK.sol\":1773:1864  function totalSupply() external view returns (uint256) {... */\n    tag_41:\n      mload(0x40)\n        /* \"#utility.yul\":11308:11333   */\n      swap1\n      dup2\n      mstore\n        /* \"#utility.yul\":11296:11298   */\n      0x20\n        /* \"#utility.yul\":11281:11299   */\n      add\n        /* \"github/nobi/staking/contracts/MultiRewardsBeefSTEAK.sol\":1773:1864  function totalSupply() external view returns (uint256) {... */\n      tag_39\n        /* \"#utility.yul\":11263:11339   */\n      jump\n        /* \"github/nobi/staking/contracts/MultiRewardsBeefSTEAK.sol\":2121:2224  function totalRewardTokens() external view returns (uint256) {... */\n    tag_5:\n        /* \"github/nobi/staking/contracts/MultiRewardsBeefSTEAK.sol\":2199:2217  _totalRewardTokens */\n      sload(0x08)\n        /* \"github/nobi/staking/contracts/MultiRewardsBeefSTEAK.sol\":2121:2224  function totalRewardTokens() external view returns (uint256) {... */\n      jump(tag_41)\n        /* \"github/nobi/staking/contracts/MultiRewardsBeefSTEAK.sol\":8954:9824  function addRewardToken(address token) external onlyOwner {... */\n    tag_6:\n      tag_48\n      tag_49\n      calldatasize\n      0x04\n      tag_37\n      jump\t// in\n    tag_49:\n      tag_50\n      jump\t// in\n    tag_48:\n      stop\n        /* \"github/nobi/staking/contracts/MultiRewardsBeefSTEAK.sol\":4571:4912  function getRewardForDuration() external view returns (uint256[] memory) {... */\n    tag_7:\n      tag_35\n      tag_52\n      jump\t// in\n        /* \"github/nobi/staking/contracts/MultiRewardsBeefSTEAK.sol\":5525:5876  function withdraw(uint256 amount) public nonReentrant updateReward(msg.sender) {... */\n    tag_8:\n      tag_48\n      tag_55\n      calldatasize\n      0x04\n      tag_56\n      jump\t// in\n    tag_55:\n      tag_57\n      jump\t// in\n        /* \"github/nobi/staking/contracts/MultiRewardsBeefSTEAK.sol\":517:547  uint256 public rewardsDuration */\n    tag_9:\n      tag_41\n      sload(0x04)\n      dup2\n      jump\n        /* \"github/nobi/staking/contracts/MultiRewardsBeefSTEAK.sol\":5882:6380  function getReward() public nonReentrant updateReward(msg.sender) {... */\n    tag_10:\n      tag_48\n      tag_62\n      jump\t// in\n        /* \"github/nobi/staking/contracts/MultiRewardsBeefSTEAK.sol\":9830:10679  function removeRewardToken(address token) public onlyOwner updateReward(address(0)) {... */\n    tag_11:\n      tag_48\n      tag_64\n      calldatasize\n      0x04\n      tag_37\n      jump\t// in\n    tag_64:\n      tag_65\n      jump\t// in\n        /* \"github/nobi/staking/contracts/MultiRewardsBeefSTEAK.sol\":6526:7913  function depositRewardTokens(uint256[] memory amount) external onlyOwner {... */\n    tag_12:\n      tag_48\n      tag_67\n      calldatasize\n      0x04\n      tag_68\n      jump\t// in\n    tag_67:\n      tag_69\n      jump\t// in\n        /* \"github/nobi/staking/contracts/MultiRewardsBeefSTEAK.sol\":10685:10988  function emergencyWithdrawal(address token) external onlyOwner updateReward(address(0)) {... */\n    tag_13:\n      tag_48\n      tag_71\n      calldatasize\n      0x04\n      tag_37\n      jump\t// in\n    tag_71:\n      tag_72\n      jump\t// in\n        /* \"github/nobi/staking/contracts/MultiRewardsBeefSTEAK.sol\":1870:1980  function balanceOf(address account) external view returns (uint256) {... */\n    tag_14:\n      tag_41\n      tag_74\n      calldatasize\n      0x04\n      tag_37\n      jump\t// in\n    tag_74:\n        /* \"github/nobi/staking/contracts/MultiRewardsBeefSTEAK.sol\":1955:1973  _balances[account] */\n      0xffffffffffffffffffffffffffffffffffffffff\n      and\n        /* \"github/nobi/staking/contracts/MultiRewardsBeefSTEAK.sol\":1929:1936  uint256 */\n      0x00\n        /* \"github/nobi/staking/contracts/MultiRewardsBeefSTEAK.sol\":1955:1973  _balances[account] */\n      swap1\n      dup2\n      mstore\n        /* \"github/nobi/staking/contracts/MultiRewardsBeefSTEAK.sol\":1955:1964  _balances */\n      0x0c\n        /* \"github/nobi/staking/contracts/MultiRewardsBeefSTEAK.sol\":1955:1973  _balances[account] */\n      0x20\n      mstore\n      0x40\n      swap1\n      keccak256\n      sload\n      swap1\n        /* \"github/nobi/staking/contracts/MultiRewardsBeefSTEAK.sol\":1870:1980  function balanceOf(address account) external view returns (uint256) {... */\n      jump\n        /* \"github/nobi/staking/contracts/helpers/Ownable.sol\":1661:1762  function renounceOwnership() public virtual onlyOwner {... */\n    tag_15:\n      tag_48\n      tag_78\n      jump\t// in\n        /* \"github/nobi/staking/contracts/MultiRewardsBeefSTEAK.sol\":452:478  IERC20 public stakingToken */\n    tag_16:\n      sload(0x02)\n      tag_79\n      swap1\n      0xffffffffffffffffffffffffffffffffffffffff\n      and\n      dup2\n      jump\n    tag_79:\n      mload(0x40)\n        /* \"#utility.yul\":2734:2776   */\n      0xffffffffffffffffffffffffffffffffffffffff\n        /* \"#utility.yul\":2722:2777   */\n      swap1\n      swap2\n      and\n        /* \"#utility.yul\":2704:2778   */\n      dup2\n      mstore\n        /* \"#utility.yul\":2692:2694   */\n      0x20\n        /* \"#utility.yul\":2677:2695   */\n      add\n        /* \"github/nobi/staking/contracts/MultiRewardsBeefSTEAK.sol\":452:478  IERC20 public stakingToken */\n      tag_39\n        /* \"#utility.yul\":2659:2784   */\n      jump\n        /* \"github/nobi/staking/contracts/MultiRewardsBeefSTEAK.sol\":1986:2115  function lastTimeRewardApplicable() public view returns (uint256) {... */\n    tag_17:\n      tag_41\n      tag_84\n      jump\t// in\n        /* \"github/nobi/staking/contracts/helpers/Ownable.sol\":1029:1114  function owner() public view virtual returns (address) {... */\n    tag_18:\n        /* \"github/nobi/staking/contracts/helpers/Ownable.sol\":1101:1107  _owner */\n      and(0xffffffffffffffffffffffffffffffffffffffff, sload(0x01))\n        /* \"github/nobi/staking/contracts/helpers/Ownable.sol\":1029:1114  function owner() public view virtual returns (address) {... */\n      jump(tag_79)\n        /* \"github/nobi/staking/contracts/MultiRewardsBeefSTEAK.sol\":3126:3653  function rewardForToken(address token) public view returns (uint256) {... */\n    tag_19:\n      tag_41\n      tag_91\n      calldatasize\n      0x04\n      tag_37\n      jump\t// in\n    tag_91:\n      tag_92\n      jump\t// in\n        /* \"github/nobi/staking/contracts/MultiRewardsBeefSTEAK.sol\":4947:5519  function stake(uint256 amount) external nonReentrant updateReward(msg.sender) {... */\n    tag_20:\n      tag_48\n      tag_95\n      calldatasize\n      0x04\n      tag_56\n      jump\t// in\n    tag_95:\n      tag_96\n      jump\t// in\n        /* \"github/nobi/staking/contracts/MultiRewardsBeefSTEAK.sol\":3659:3949  function getRewardTokens() public view returns (RewardToken[] memory) {... */\n    tag_21:\n      tag_97\n      tag_98\n      jump\t// in\n    tag_97:\n      mload(0x40)\n      tag_39\n      swap2\n      swap1\n      tag_100\n      jump\t// in\n        /* \"github/nobi/staking/contracts/MultiRewardsBeefSTEAK.sol\":553:582  uint256 public lastUpdateTime */\n    tag_22:\n      tag_41\n      sload(0x05)\n      dup2\n      jump\n        /* \"github/nobi/staking/contracts/MultiRewardsBeefSTEAK.sol\":2268:3076  function rewardPerToken() public view returns (uint256[] memory) {... */\n    tag_23:\n      tag_35\n      tag_105\n      jump\t// in\n        /* \"github/nobi/staking/contracts/MultiRewardsBeefSTEAK.sol\":7919:8948  function notifyRewardAmount(uint256[] memory reward) public onlyOwner updateReward(address(0)) {... */\n    tag_24:\n      tag_48\n      tag_108\n      calldatasize\n      0x04\n      tag_68\n      jump\t// in\n    tag_108:\n      tag_109\n      jump\t// in\n        /* \"github/nobi/staking/contracts/MultiRewardsBeefSTEAK.sol\":6386:6480  function exit() external {... */\n    tag_25:\n      tag_48\n      tag_111\n      jump\t// in\n        /* \"github/nobi/staking/contracts/MultiRewardsBeefSTEAK.sol\":484:511  uint256 public periodFinish */\n    tag_26:\n      tag_41\n      sload(0x03)\n      dup2\n      jump\n        /* \"github/nobi/staking/contracts/helpers/Ownable.sol\":1911:2109  function transferOwnership(address newOwner) public virtual onlyOwner {... */\n    tag_27:\n      tag_48\n      tag_116\n      calldatasize\n      0x04\n      tag_37\n      jump\t// in\n    tag_116:\n      tag_117\n      jump\t// in\n        /* \"github/nobi/staking/contracts/MultiRewardsBeefSTEAK.sol\":3955:4565  function earned(address account) public view returns (uint256[] memory) {... */\n    tag_38:\n        /* \"github/nobi/staking/contracts/MultiRewardsBeefSTEAK.sol\":4009:4025  uint256[] memory */\n      0x60\n        /* \"github/nobi/staking/contracts/MultiRewardsBeefSTEAK.sol\":4037:4062  uint256[] memory earnings */\n      0x00\n        /* \"github/nobi/staking/contracts/MultiRewardsBeefSTEAK.sol\":4079:4097  _totalRewardTokens */\n      sload(0x08)\n        /* \"github/nobi/staking/contracts/MultiRewardsBeefSTEAK.sol\":4065:4098  new uint256[](_totalRewardTokens) */\n      0xffffffffffffffff\n      dup2\n      gt\n      iszero\n      tag_119\n      jumpi\n      mstore(0x00, 0x4e487b7100000000000000000000000000000000000000000000000000000000)\n      mstore(0x04, 0x41)\n      revert(0x00, 0x24)\n    tag_119:\n      mload(0x40)\n      swap1\n      dup1\n      dup3\n      mstore\n      dup1\n      0x20\n      mul\n      0x20\n      add\n      dup3\n      add\n      0x40\n      mstore\n      dup1\n      iszero\n      tag_120\n      jumpi\n      dup2\n      0x20\n      add\n      0x20\n      dup3\n      mul\n      dup1\n      calldatasize\n      dup4\n      calldatacopy\n      add\n      swap1\n      pop\n    tag_120:\n      pop\n        /* \"github/nobi/staking/contracts/MultiRewardsBeefSTEAK.sol\":4037:4098  uint256[] memory earnings = new uint256[](_totalRewardTokens) */\n      swap1\n      pop\n        /* \"github/nobi/staking/contracts/MultiRewardsBeefSTEAK.sol\":4108:4137  uint256[] memory tokenRewards */\n      0x00\n        /* \"github/nobi/staking/contracts/MultiRewardsBeefSTEAK.sol\":4140:4156  rewardPerToken() */\n      tag_121\n        /* \"github/nobi/staking/contracts/MultiRewardsBeefSTEAK.sol\":4140:4154  rewardPerToken */\n      tag_105\n        /* \"github/nobi/staking/contracts/MultiRewardsBeefSTEAK.sol\":4140:4156  rewardPerToken() */\n      jump\t// in\n    tag_121:\n        /* \"github/nobi/staking/contracts/MultiRewardsBeefSTEAK.sol\":4108:4156  uint256[] memory tokenRewards = rewardPerToken() */\n      swap1\n      pop\n        /* \"github/nobi/staking/contracts/MultiRewardsBeefSTEAK.sol\":4171:4177  uint i */\n      0x00\n        /* \"github/nobi/staking/contracts/MultiRewardsBeefSTEAK.sol\":4166:4533  for (uint i = 0; i < _totalRewardTokens; i++) {... */\n    tag_122:\n        /* \"github/nobi/staking/contracts/MultiRewardsBeefSTEAK.sol\":4187:4205  _totalRewardTokens */\n      sload(0x08)\n        /* \"github/nobi/staking/contracts/MultiRewardsBeefSTEAK.sol\":4183:4184  i */\n      dup2\n        /* \"github/nobi/staking/contracts/MultiRewardsBeefSTEAK.sol\":4183:4205  i < _totalRewardTokens */\n      lt\n        /* \"github/nobi/staking/contracts/MultiRewardsBeefSTEAK.sol\":4166:4533  for (uint i = 0; i < _totalRewardTokens; i++) {... */\n      iszero\n      tag_123\n      jumpi\n        /* \"github/nobi/staking/contracts/MultiRewardsBeefSTEAK.sol\":4226:4239  address token */\n      0x00\n        /* \"github/nobi/staking/contracts/MultiRewardsBeefSTEAK.sol\":4242:4255  _rewardTokens */\n      0x09\n        /* \"github/nobi/staking/contracts/MultiRewardsBeefSTEAK.sol\":4226:4239  address token */\n      dup2\n        /* \"github/nobi/staking/contracts/MultiRewardsBeefSTEAK.sol\":4256:4261  i + 1 */\n      tag_125\n        /* \"github/nobi/staking/contracts/MultiRewardsBeefSTEAK.sol\":4256:4257  i */\n      dup5\n        /* \"github/nobi/staking/contracts/MultiRewardsBeefSTEAK.sol\":4260:4261  1 */\n      0x01\n        /* \"github/nobi/staking/contracts/MultiRewardsBeefSTEAK.sol\":4256:4261  i + 1 */\n      tag_126\n      jump\t// in\n    tag_125:\n        /* \"github/nobi/staking/contracts/MultiRewardsBeefSTEAK.sol\":4242:4262  _rewardTokens[i + 1] */\n      dup2\n      mstore\n      0x20\n      dup1\n      dup3\n      add\n      swap3\n      swap1\n      swap3\n      mstore\n      0x40\n      swap1\n      dup2\n      add\n      0x00\n      swap1\n      dup2\n      keccak256\n        /* \"github/nobi/staking/contracts/MultiRewardsBeefSTEAK.sol\":4242:4268  _rewardTokens[i + 1].token */\n      sload\n      0xffffffffffffffffffffffffffffffffffffffff\n        /* \"github/nobi/staking/contracts/MultiRewardsBeefSTEAK.sol\":4484:4501  _rewards[account] */\n      dup11\n      dup2\n      and\n      dup1\n      dup5\n      mstore\n        /* \"github/nobi/staking/contracts/MultiRewardsBeefSTEAK.sol\":4484:4492  _rewards */\n      0x07\n        /* \"github/nobi/staking/contracts/MultiRewardsBeefSTEAK.sol\":4484:4501  _rewards[account] */\n      dup7\n      mstore\n      dup5\n      dup5\n      keccak256\n        /* \"github/nobi/staking/contracts/MultiRewardsBeefSTEAK.sol\":4242:4268  _rewardTokens[i + 1].token */\n      swap2\n      swap1\n      swap3\n      and\n        /* \"github/nobi/staking/contracts/MultiRewardsBeefSTEAK.sol\":4484:4508  _rewards[account][token] */\n      dup1\n      dup5\n      mstore\n      swap1\n      dup6\n      mstore\n      dup4\n      dup4\n      keccak256\n      sload\n        /* \"github/nobi/staking/contracts/MultiRewardsBeefSTEAK.sol\":4377:4409  _userRewardPerTokenPaid[account] */\n      swap2\n      dup4\n      mstore\n        /* \"github/nobi/staking/contracts/MultiRewardsBeefSTEAK.sol\":4377:4400  _userRewardPerTokenPaid */\n      0x06\n        /* \"github/nobi/staking/contracts/MultiRewardsBeefSTEAK.sol\":4377:4409  _userRewardPerTokenPaid[account] */\n      dup6\n      mstore\n      dup4\n      dup4\n      keccak256\n        /* \"github/nobi/staking/contracts/MultiRewardsBeefSTEAK.sol\":4377:4416  _userRewardPerTokenPaid[account][token] */\n      dup2\n      dup5\n      mstore\n      swap1\n      swap5\n      mstore\n      swap2\n      swap1\n      keccak256\n      sload\n        /* \"github/nobi/staking/contracts/MultiRewardsBeefSTEAK.sol\":4336:4351  tokenRewards[i] */\n      dup6\n      mload\n        /* \"github/nobi/staking/contracts/MultiRewardsBeefSTEAK.sol\":4242:4268  _rewardTokens[i + 1].token */\n      swap3\n      swap4\n      pop\n        /* \"github/nobi/staking/contracts/MultiRewardsBeefSTEAK.sol\":4296:4522  _balances[account]... */\n      tag_127\n      swap3\n        /* \"github/nobi/staking/contracts/MultiRewardsBeefSTEAK.sol\":4296:4462  _balances[account]... */\n      tag_128\n      swap2\n        /* \"github/nobi/staking/contracts/MultiRewardsBeefSTEAK.sol\":4457:4461  1e18 */\n      0x0de0b6b3a7640000\n      swap2\n        /* \"github/nobi/staking/contracts/MultiRewardsBeefSTEAK.sol\":4296:4435  _balances[account]... */\n      tag_129\n      swap2\n        /* \"github/nobi/staking/contracts/MultiRewardsBeefSTEAK.sol\":4336:4417  tokenRewards[i]... */\n      tag_130\n      swap2\n        /* \"github/nobi/staking/contracts/MultiRewardsBeefSTEAK.sol\":4336:4348  tokenRewards */\n      dup11\n      swap1\n        /* \"github/nobi/staking/contracts/MultiRewardsBeefSTEAK.sol\":4349:4350  i */\n      dup11\n      swap1\n        /* \"github/nobi/staking/contracts/MultiRewardsBeefSTEAK.sol\":4336:4351  tokenRewards[i] */\n      dup2\n      lt\n      tag_131\n      jumpi\n      mstore(0x00, 0x4e487b7100000000000000000000000000000000000000000000000000000000)\n      mstore(0x04, 0x32)\n      revert(0x00, 0x24)\n    tag_131:\n      0x20\n      mul\n      0x20\n      add\n      add\n      mload\n        /* \"github/nobi/staking/contracts/MultiRewardsBeefSTEAK.sol\":4336:4376  tokenRewards[i]... */\n      tag_132\n      swap1\n        /* \"github/nobi/staking/contracts/MultiRewardsBeefSTEAK.sol\":4336:4417  tokenRewards[i]... */\n      swap2\n      swap1\n      0xffffffff\n      and\n      jump\t// in\n    tag_130:\n        /* \"github/nobi/staking/contracts/MultiRewardsBeefSTEAK.sol\":4296:4314  _balances[account] */\n      0xffffffffffffffffffffffffffffffffffffffff\n      dup13\n      and\n      0x00\n      swap1\n      dup2\n      mstore\n        /* \"github/nobi/staking/contracts/MultiRewardsBeefSTEAK.sol\":4296:4305  _balances */\n      0x0c\n        /* \"github/nobi/staking/contracts/MultiRewardsBeefSTEAK.sol\":4296:4314  _balances[account] */\n      0x20\n      mstore\n      0x40\n      swap1\n      keccak256\n      sload\n      swap1\n        /* \"github/nobi/staking/contracts/MultiRewardsBeefSTEAK.sol\":4296:4335  _balances[account]... */\n      tag_133\n        /* \"github/nobi/staking/contracts/MultiRewardsBeefSTEAK.sol\":4296:4435  _balances[account]... */\n      jump\t// in\n    tag_129:\n        /* \"github/nobi/staking/contracts/MultiRewardsBeefSTEAK.sol\":4296:4456  _balances[account]... */\n      swap1\n      tag_134\n        /* \"github/nobi/staking/contracts/MultiRewardsBeefSTEAK.sol\":4296:4462  _balances[account]... */\n      jump\t// in\n    tag_128:\n        /* \"github/nobi/staking/contracts/MultiRewardsBeefSTEAK.sol\":4296:4483  _balances[account]... */\n      swap1\n      tag_135\n        /* \"github/nobi/staking/contracts/MultiRewardsBeefSTEAK.sol\":4296:4522  _balances[account]... */\n      jump\t// in\n    tag_127:\n        /* \"github/nobi/staking/contracts/MultiRewardsBeefSTEAK.sol\":4282:4290  earnings */\n      dup5\n        /* \"github/nobi/staking/contracts/MultiRewardsBeefSTEAK.sol\":4291:4292  i */\n      dup4\n        /* \"github/nobi/staking/contracts/MultiRewardsBeefSTEAK.sol\":4282:4293  earnings[i] */\n      dup2\n      mload\n      dup2\n      lt\n      tag_136\n      jumpi\n      mstore(0x00, 0x4e487b7100000000000000000000000000000000000000000000000000000000)\n      mstore(0x04, 0x32)\n      revert(0x00, 0x24)\n    tag_136:\n      0x20\n      swap1\n      dup2\n      mul\n      swap2\n      swap1\n      swap2\n      add\n      add\n        /* \"github/nobi/staking/contracts/MultiRewardsBeefSTEAK.sol\":4282:4522  earnings[i] = _balances[account]... */\n      mstore\n      pop\n        /* \"github/nobi/staking/contracts/MultiRewardsBeefSTEAK.sol\":4207:4210  i++ */\n      dup1\n      tag_137\n      dup2\n      tag_138\n      jump\t// in\n    tag_137:\n      swap2\n      pop\n      pop\n        /* \"github/nobi/staking/contracts/MultiRewardsBeefSTEAK.sol\":4166:4533  for (uint i = 0; i < _totalRewardTokens; i++) {... */\n      jump(tag_122)\n    tag_123:\n      pop\n        /* \"github/nobi/staking/contracts/MultiRewardsBeefSTEAK.sol\":4550:4558  earnings */\n      swap1\n      swap4\n        /* \"github/nobi/staking/contracts/MultiRewardsBeefSTEAK.sol\":3955:4565  function earned(address account) public view returns (uint256[] memory) {... */\n      swap3\n      pop\n      pop\n      pop\n      jump\t// out\n        /* \"github/nobi/staking/contracts/MultiRewardsBeefSTEAK.sol\":8954:9824  function addRewardToken(address token) external onlyOwner {... */\n    tag_50:\n        /* \"github/nobi/staking/contracts/helpers/Ownable.sol\":1101:1107  _owner */\n      sload(0x01)\n        /* \"github/nobi/staking/contracts/helpers/Ownable.sol\":1241:1264  owner() == _msgSender() */\n      0xffffffffffffffffffffffffffffffffffffffff\n        /* \"github/nobi/staking/contracts/helpers/Ownable.sol\":1101:1107  _owner */\n      and\n        /* \"github/nobi/staking/contracts/helpers/Context.sol\":719:729  msg.sender */\n      caller\n        /* \"github/nobi/staking/contracts/helpers/Ownable.sol\":1241:1264  owner() == _msgSender() */\n      eq\n        /* \"github/nobi/staking/contracts/helpers/Ownable.sol\":1233:1301  require(owner() == _msgSender(), \"Ownable: caller is not the owner\") */\n      tag_145\n      jumpi\n      mload(0x40)\n      0x08c379a000000000000000000000000000000000000000000000000000000000\n      dup2\n      mstore\n        /* \"#utility.yul\":9177:9179   */\n      0x20\n        /* \"github/nobi/staking/contracts/helpers/Ownable.sol\":1233:1301  require(owner() == _msgSender(), \"Ownable: caller is not the owner\") */\n      0x04\n      dup3\n      add\n        /* \"#utility.yul\":9159:9180   */\n      dup2\n      swap1\n      mstore\n        /* \"#utility.yul\":9196:9214   */\n      0x24\n      dup3\n      add\n        /* \"#utility.yul\":9189:9219   */\n      mstore\n        /* \"#utility.yul\":9255:9289   */\n      0x4f776e61626c653a2063616c6c6572206973206e6f7420746865206f776e6572\n        /* \"#utility.yul\":9235:9253   */\n      0x44\n      dup3\n      add\n        /* \"#utility.yul\":9228:9290   */\n      mstore\n        /* \"#utility.yul\":9307:9325   */\n      0x64\n      add\n        /* \"github/nobi/staking/contracts/helpers/Ownable.sol\":1233:1301  require(owner() == _msgSender(), \"Ownable: caller is not the owner\") */\n    tag_146:\n      mload(0x40)\n      dup1\n      swap2\n      sub\n      swap1\n      revert\n    tag_145:\n        /* \"github/nobi/staking/contracts/MultiRewardsBeefSTEAK.sol\":9051:9052  6 */\n      0x06\n        /* \"github/nobi/staking/contracts/MultiRewardsBeefSTEAK.sol\":9030:9048  _totalRewardTokens */\n      sload(0x08)\n        /* \"github/nobi/staking/contracts/MultiRewardsBeefSTEAK.sol\":9030:9052  _totalRewardTokens < 6 */\n      lt\n        /* \"github/nobi/staking/contracts/MultiRewardsBeefSTEAK.sol\":9022:9072  require(_totalRewardTokens < 6, \"Too many tokens\") */\n      tag_149\n      jumpi\n      mload(0x40)\n      0x08c379a000000000000000000000000000000000000000000000000000000000\n      dup2\n      mstore\n        /* \"#utility.yul\":6340:6342   */\n      0x20\n        /* \"github/nobi/staking/contracts/MultiRewardsBeefSTEAK.sol\":9022:9072  require(_totalRewardTokens < 6, \"Too many tokens\") */\n      0x04\n      dup3\n      add\n        /* \"#utility.yul\":6322:6343   */\n      mstore\n        /* \"#utility.yul\":6379:6381   */\n      0x0f\n        /* \"#utility.yul\":6359:6377   */\n      0x24\n      dup3\n      add\n        /* \"#utility.yul\":6352:6382   */\n      mstore\n        /* \"#utility.yul\":6418:6435   */\n      0x546f6f206d616e7920746f6b656e730000000000000000000000000000000000\n        /* \"#utility.yul\":6398:6416   */\n      0x44\n      dup3\n      add\n        /* \"#utility.yul\":6391:6436   */\n      mstore\n        /* \"#utility.yul\":6453:6471   */\n      0x64\n      add\n        /* \"github/nobi/staking/contracts/MultiRewardsBeefSTEAK.sol\":9022:9072  require(_totalRewardTokens < 6, \"Too many tokens\") */\n      tag_146\n        /* \"#utility.yul\":6312:6477   */\n      jump\n        /* \"github/nobi/staking/contracts/MultiRewardsBeefSTEAK.sol\":9022:9072  require(_totalRewardTokens < 6, \"Too many tokens\") */\n    tag_149:\n        /* \"github/nobi/staking/contracts/MultiRewardsBeefSTEAK.sol\":9090:9128  IERC20(token).balanceOf(address(this)) */\n      mload(0x40)\n      0x70a0823100000000000000000000000000000000000000000000000000000000\n      dup2\n      mstore\n        /* \"github/nobi/staking/contracts/MultiRewardsBeefSTEAK.sol\":9122:9126  this */\n      address\n        /* \"github/nobi/staking/contracts/MultiRewardsBeefSTEAK.sol\":9090:9128  IERC20(token).balanceOf(address(this)) */\n      0x04\n      dup3\n      add\n        /* \"#utility.yul\":2704:2778   */\n      mstore\n        /* \"github/nobi/staking/contracts/MultiRewardsBeefSTEAK.sol\":9131:9132  0 */\n      0x00\n      swap1\n        /* \"github/nobi/staking/contracts/MultiRewardsBeefSTEAK.sol\":9090:9113  IERC20(token).balanceOf */\n      0xffffffffffffffffffffffffffffffffffffffff\n      dup4\n      and\n      swap1\n      0x70a08231\n      swap1\n        /* \"#utility.yul\":2677:2695   */\n      0x24\n      add\n        /* \"github/nobi/staking/contracts/MultiRewardsBeefSTEAK.sol\":9090:9128  IERC20(token).balanceOf(address(this)) */\n      0x20\n      mload(0x40)\n      dup1\n      dup4\n      sub\n      dup2\n      dup7\n      dup1\n      extcodesize\n      iszero\n      dup1\n      iszero\n      tag_153\n      jumpi\n      0x00\n      dup1\n      revert\n    tag_153:\n      pop\n      gas\n      staticcall\n      iszero\n      dup1\n      iszero\n      tag_155\n      jumpi\n      returndatasize\n      0x00\n      dup1\n      returndatacopy\n      revert(0x00, returndatasize)\n    tag_155:\n      pop\n      pop\n      pop\n      pop\n      mload(0x40)\n      returndatasize\n      not(0x1f)\n      0x1f\n      dup3\n      add\n      and\n      dup3\n      add\n      dup1\n      0x40\n      mstore\n      pop\n      dup2\n      add\n      swap1\n      tag_156\n      swap2\n      swap1\n      tag_157\n      jump\t// in\n    tag_156:\n        /* \"github/nobi/staking/contracts/MultiRewardsBeefSTEAK.sol\":9090:9132  IERC20(token).balanceOf(address(this)) > 0 */\n      gt\n        /* \"github/nobi/staking/contracts/MultiRewardsBeefSTEAK.sol\":9082:9158  require(IERC20(token).balanceOf(address(this)) > 0, \"Must prefund contract\") */\n      tag_158\n      jumpi\n      mload(0x40)\n      0x08c379a000000000000000000000000000000000000000000000000000000000\n      dup2\n      mstore\n        /* \"#utility.yul\":7790:7792   */\n      0x20\n        /* \"github/nobi/staking/contracts/MultiRewardsBeefSTEAK.sol\":9082:9158  require(IERC20(token).balanceOf(address(this)) > 0, \"Must prefund contract\") */\n      0x04\n      dup3\n      add\n        /* \"#utility.yul\":7772:7793   */\n      mstore\n        /* \"#utility.yul\":7829:7831   */\n      0x15\n        /* \"#utility.yul\":7809:7827   */\n      0x24\n      dup3\n      add\n        /* \"#utility.yul\":7802:7832   */\n      mstore\n        /* \"#utility.yul\":7868:7891   */\n      0x4d7573742070726566756e6420636f6e74726163740000000000000000000000\n        /* \"#utility.yul\":7848:7866   */\n      0x44\n      dup3\n      add\n        /* \"#utility.yul\":7841:7892   */\n      mstore\n        /* \"#utility.yul\":7909:7927   */\n      0x64\n      add\n        /* \"github/nobi/staking/contracts/MultiRewardsBeefSTEAK.sol\":9082:9158  require(IERC20(token).balanceOf(address(this)) > 0, \"Must prefund contract\") */\n      tag_146\n        /* \"#utility.yul\":7762:7933   */\n      jump\n        /* \"github/nobi/staking/contracts/MultiRewardsBeefSTEAK.sol\":9082:9158  require(IERC20(token).balanceOf(address(this)) > 0, \"Must prefund contract\") */\n    tag_158:\n        /* \"github/nobi/staking/contracts/MultiRewardsBeefSTEAK.sol\":9232:9233  1 */\n      0x01\n        /* \"github/nobi/staking/contracts/MultiRewardsBeefSTEAK.sol\":9210:9228  _totalRewardTokens */\n      0x08\n      0x00\n        /* \"github/nobi/staking/contracts/MultiRewardsBeefSTEAK.sol\":9210:9233  _totalRewardTokens += 1 */\n      dup3\n      dup3\n      sload\n      tag_161\n      swap2\n      swap1\n      tag_126\n      jump\t// in\n    tag_161:\n      swap1\n      swap2\n      sstore\n      pop\n      pop\n        /* \"github/nobi/staking/contracts/MultiRewardsBeefSTEAK.sol\":9322:9435  RewardToken({... */\n      0x40\n      dup1\n      mload\n      0x60\n      dup2\n      add\n      dup3\n      mstore\n      0xffffffffffffffffffffffffffffffffffffffff\n      dup4\n      dup2\n      and\n      dup1\n      dup4\n      mstore\n      0x00\n      0x20\n      dup1\n      dup6\n      add\n      dup3\n      dup2\n      mstore\n      dup6\n      dup8\n      add\n      dup4\n      dup2\n      mstore\n        /* \"github/nobi/staking/contracts/MultiRewardsBeefSTEAK.sol\":9300:9318  _totalRewardTokens */\n      0x08\n      dup1\n      sload\n        /* \"github/nobi/staking/contracts/MultiRewardsBeefSTEAK.sol\":9286:9319  _rewardTokens[_totalRewardTokens] */\n      dup6\n      mstore\n        /* \"github/nobi/staking/contracts/MultiRewardsBeefSTEAK.sol\":9286:9299  _rewardTokens */\n      0x09\n        /* \"github/nobi/staking/contracts/MultiRewardsBeefSTEAK.sol\":9286:9319  _rewardTokens[_totalRewardTokens] */\n      dup5\n      mstore\n      dup9\n      dup6\n      keccak256\n        /* \"github/nobi/staking/contracts/MultiRewardsBeefSTEAK.sol\":9286:9435  _rewardTokens[_totalRewardTokens] = RewardToken({... */\n      swap8\n      mload\n      dup9\n      sload\n      0xffffffffffffffffffffffff0000000000000000000000000000000000000000\n      and\n      swap8\n      and\n      swap7\n      swap1\n      swap7\n      or\n      dup8\n      sstore\n      swap1\n      mload\n      0x01\n      dup8\n      add\n      sstore\n      mload\n      0x02\n      swap1\n      swap6\n      add\n      swap5\n      swap1\n      swap5\n      sstore\n        /* \"github/nobi/staking/contracts/MultiRewardsBeefSTEAK.sol\":9475:9493  _totalRewardTokens */\n      swap2\n      sload\n        /* \"github/nobi/staking/contracts/MultiRewardsBeefSTEAK.sol\":9446:9472  _rewardTokenToIndex[token] */\n      swap1\n      dup3\n      mstore\n        /* \"github/nobi/staking/contracts/MultiRewardsBeefSTEAK.sol\":9446:9465  _rewardTokenToIndex */\n      0x0a\n        /* \"github/nobi/staking/contracts/MultiRewardsBeefSTEAK.sol\":9446:9472  _rewardTokenToIndex[token] */\n      swap1\n      swap3\n      mstore\n      swap2\n      dup3\n      keccak256\n        /* \"github/nobi/staking/contracts/MultiRewardsBeefSTEAK.sol\":9446:9493  _rewardTokenToIndex[token] = _totalRewardTokens */\n      dup2\n      swap1\n      sstore\n        /* \"github/nobi/staking/contracts/MultiRewardsBeefSTEAK.sol\":9537:9570  new uint256[](_totalRewardTokens) */\n      0xffffffffffffffff\n      dup2\n      gt\n      iszero\n      tag_162\n      jumpi\n      mstore(0x00, 0x4e487b7100000000000000000000000000000000000000000000000000000000)\n      mstore(0x04, 0x41)\n      revert(0x00, 0x24)\n    tag_162:\n      mload(0x40)\n      swap1\n      dup1\n      dup3\n      mstore\n      dup1\n      0x20\n      mul\n      0x20\n      add\n      dup3\n      add\n      0x40\n      mstore\n      dup1\n      iszero\n      tag_163\n      jumpi\n      dup2\n      0x20\n      add\n      0x20\n      dup3\n      mul\n      dup1\n      calldatasize\n      dup4\n      calldatacopy\n      add\n      swap1\n      pop\n    tag_163:\n      pop\n        /* \"github/nobi/staking/contracts/MultiRewardsBeefSTEAK.sol\":9504:9570  uint256[] memory rewardAmounts = new uint256[](_totalRewardTokens) */\n      swap1\n      pop\n        /* \"github/nobi/staking/contracts/MultiRewardsBeefSTEAK.sol\":9586:9592  uint i */\n      0x00\n        /* \"github/nobi/staking/contracts/MultiRewardsBeefSTEAK.sol\":9581:9774  for (uint i = 0; i < _totalRewardTokens; i++) {... */\n    tag_164:\n        /* \"github/nobi/staking/contracts/MultiRewardsBeefSTEAK.sol\":9602:9620  _totalRewardTokens */\n      sload(0x08)\n        /* \"github/nobi/staking/contracts/MultiRewardsBeefSTEAK.sol\":9598:9599  i */\n      dup2\n        /* \"github/nobi/staking/contracts/MultiRewardsBeefSTEAK.sol\":9598:9620  i < _totalRewardTokens */\n      lt\n        /* \"github/nobi/staking/contracts/MultiRewardsBeefSTEAK.sol\":9581:9774  for (uint i = 0; i < _totalRewardTokens; i++) {... */\n      iszero\n      tag_165\n      jumpi\n        /* \"github/nobi/staking/contracts/MultiRewardsBeefSTEAK.sol\":9671:9672  1 */\n      0x01\n        /* \"github/nobi/staking/contracts/MultiRewardsBeefSTEAK.sol\":9650:9668  _totalRewardTokens */\n      sload(0x08)\n        /* \"github/nobi/staking/contracts/MultiRewardsBeefSTEAK.sol\":9650:9672  _totalRewardTokens - 1 */\n      tag_167\n      swap2\n      swap1\n      tag_168\n      jump\t// in\n    tag_167:\n        /* \"github/nobi/staking/contracts/MultiRewardsBeefSTEAK.sol\":9645:9646  i */\n      dup2\n        /* \"github/nobi/staking/contracts/MultiRewardsBeefSTEAK.sol\":9645:9672  i == _totalRewardTokens - 1 */\n      eq\n        /* \"github/nobi/staking/contracts/MultiRewardsBeefSTEAK.sol\":9641:9764  if (i == _totalRewardTokens - 1) {... */\n      iszero\n      tag_169\n      jumpi\n        /* \"github/nobi/staking/contracts/MultiRewardsBeefSTEAK.sol\":9711:9749  IERC20(token).balanceOf(address(this)) */\n      mload(0x40)\n      0x70a0823100000000000000000000000000000000000000000000000000000000\n      dup2\n      mstore\n        /* \"github/nobi/staking/contracts/MultiRewardsBeefSTEAK.sol\":9743:9747  this */\n      address\n        /* \"github/nobi/staking/contracts/MultiRewardsBeefSTEAK.sol\":9711:9749  IERC20(token).balanceOf(address(this)) */\n      0x04\n      dup3\n      add\n        /* \"#utility.yul\":2704:2778   */\n      mstore\n        /* \"github/nobi/staking/contracts/MultiRewardsBeefSTEAK.sol\":9711:9734  IERC20(token).balanceOf */\n      0xffffffffffffffffffffffffffffffffffffffff\n      dup5\n      and\n      swap1\n      0x70a08231\n      swap1\n        /* \"#utility.yul\":2677:2695   */\n      0x24\n      add\n        /* \"github/nobi/staking/contracts/MultiRewardsBeefSTEAK.sol\":9711:9749  IERC20(token).balanceOf(address(this)) */\n      0x20\n      mload(0x40)\n      dup1\n      dup4\n      sub\n      dup2\n      dup7\n      dup1\n      extcodesize\n      iszero\n      dup1\n      iszero\n      tag_171\n      jumpi\n      0x00\n      dup1\n      revert\n    tag_171:\n      pop\n      gas\n      staticcall\n      iszero\n      dup1\n      iszero\n      tag_173\n      jumpi\n      returndatasize\n      0x00\n      dup1\n      returndatacopy\n      revert(0x00, returndatasize)\n    tag_173:\n      pop\n      pop\n      pop\n      pop\n      mload(0x40)\n      returndatasize\n      not(0x1f)\n      0x1f\n      dup3\n      add\n      and\n      dup3\n      add\n      dup1\n      0x40\n      mstore\n      pop\n      dup2\n      add\n      swap1\n      tag_174\n      swap2\n      swap1\n      tag_157\n      jump\t// in\n    tag_174:\n        /* \"github/nobi/staking/contracts/MultiRewardsBeefSTEAK.sol\":9692:9705  rewardAmounts */\n      dup3\n        /* \"github/nobi/staking/contracts/MultiRewardsBeefSTEAK.sol\":9706:9707  i */\n      dup3\n        /* \"github/nobi/staking/contracts/MultiRewardsBeefSTEAK.sol\":9692:9708  rewardAmounts[i] */\n      dup2\n      mload\n      dup2\n      lt\n      tag_175\n      jumpi\n      mstore(0x00, 0x4e487b7100000000000000000000000000000000000000000000000000000000)\n      mstore(0x04, 0x32)\n      revert(0x00, 0x24)\n    tag_175:\n      0x20\n      mul\n      0x20\n      add\n      add\n        /* \"github/nobi/staking/contracts/MultiRewardsBeefSTEAK.sol\":9692:9749  rewardAmounts[i] = IERC20(token).balanceOf(address(this)) */\n      dup2\n      dup2\n      mstore\n      pop\n      pop\n        /* \"github/nobi/staking/contracts/MultiRewardsBeefSTEAK.sol\":9641:9764  if (i == _totalRewardTokens - 1) {... */\n    tag_169:\n        /* \"github/nobi/staking/contracts/MultiRewardsBeefSTEAK.sol\":9622:9625  i++ */\n      dup1\n      tag_176\n      dup2\n      tag_138\n      jump\t// in\n    tag_176:\n      swap2\n      pop\n      pop\n        /* \"github/nobi/staking/contracts/MultiRewardsBeefSTEAK.sol\":9581:9774  for (uint i = 0; i < _totalRewardTokens; i++) {... */\n      jump(tag_164)\n    tag_165:\n      pop\n        /* \"github/nobi/staking/contracts/MultiRewardsBeefSTEAK.sol\":9784:9817  notifyRewardAmount(rewardAmounts) */\n      tag_177\n        /* \"github/nobi/staking/contracts/MultiRewardsBeefSTEAK.sol\":9803:9816  rewardAmounts */\n      dup2\n        /* \"github/nobi/staking/contracts/MultiRewardsBeefSTEAK.sol\":9784:9802  notifyRewardAmount */\n      tag_109\n        /* \"github/nobi/staking/contracts/MultiRewardsBeefSTEAK.sol\":9784:9817  notifyRewardAmount(rewardAmounts) */\n      jump\t// in\n    tag_177:\n        /* \"github/nobi/staking/contracts/helpers/Ownable.sol\":1311:1312  _ */\n      pop\n        /* \"github/nobi/staking/contracts/MultiRewardsBeefSTEAK.sol\":8954:9824  function addRewardToken(address token) external onlyOwner {... */\n      pop\n      jump\t// out\n        /* \"github/nobi/staking/contracts/MultiRewardsBeefSTEAK.sol\":4571:4912  function getRewardForDuration() external view returns (uint256[] memory) {... */\n    tag_52:\n        /* \"github/nobi/staking/contracts/MultiRewardsBeefSTEAK.sol\":4626:4642  uint256[] memory */\n      0x60\n        /* \"github/nobi/staking/contracts/MultiRewardsBeefSTEAK.sol\":4654:4685  uint256[] memory currentRewards */\n      0x00\n        /* \"github/nobi/staking/contracts/MultiRewardsBeefSTEAK.sol\":4702:4720  _totalRewardTokens */\n      sload(0x08)\n        /* \"github/nobi/staking/contracts/MultiRewardsBeefSTEAK.sol\":4688:4721  new uint256[](_totalRewardTokens) */\n      0xffffffffffffffff\n      dup2\n      gt\n      iszero\n      tag_179\n      jumpi\n      mstore(0x00, 0x4e487b7100000000000000000000000000000000000000000000000000000000)\n      mstore(0x04, 0x41)\n      revert(0x00, 0x24)\n    tag_179:\n      mload(0x40)\n      swap1\n      dup1\n      dup3\n      mstore\n      dup1\n      0x20\n      mul\n      0x20\n      add\n      dup3\n      add\n      0x40\n      mstore\n      dup1\n      iszero\n      tag_180\n      jumpi\n      dup2\n      0x20\n      add\n      0x20\n      dup3\n      mul\n      dup1\n      calldatasize\n      dup4\n      calldatacopy\n      add\n      swap1\n      pop\n    tag_180:\n      pop\n        /* \"github/nobi/staking/contracts/MultiRewardsBeefSTEAK.sol\":4654:4721  uint256[] memory currentRewards = new uint256[](_totalRewardTokens) */\n      swap1\n      pop\n        /* \"github/nobi/staking/contracts/MultiRewardsBeefSTEAK.sol\":4736:4742  uint i */\n      0x00\n        /* \"github/nobi/staking/contracts/MultiRewardsBeefSTEAK.sol\":4731:4874  for (uint i = 0; i < _totalRewardTokens; i++) {... */\n    tag_181:\n        /* \"github/nobi/staking/contracts/MultiRewardsBeefSTEAK.sol\":4752:4770  _totalRewardTokens */\n      sload(0x08)\n        /* \"github/nobi/staking/contracts/MultiRewardsBeefSTEAK.sol\":4748:4749  i */\n      dup2\n        /* \"github/nobi/staking/contracts/MultiRewardsBeefSTEAK.sol\":4748:4770  i < _totalRewardTokens */\n      lt\n        /* \"github/nobi/staking/contracts/MultiRewardsBeefSTEAK.sol\":4731:4874  for (uint i = 0; i < _totalRewardTokens; i++) {... */\n      iszero\n      tag_182\n      jumpi\n        /* \"github/nobi/staking/contracts/MultiRewardsBeefSTEAK.sol\":4847:4862  rewardsDuration */\n      sload(0x04)\n        /* \"github/nobi/staking/contracts/MultiRewardsBeefSTEAK.sol\":4811:4863  _rewardTokens[i + 1].rewardRate.mul(rewardsDuration) */\n      tag_184\n      swap1\n        /* \"github/nobi/staking/contracts/MultiRewardsBeefSTEAK.sol\":4811:4824  _rewardTokens */\n      0x09\n        /* \"github/nobi/staking/contracts/MultiRewardsBeefSTEAK.sol\":4811:4831  _rewardTokens[i + 1] */\n      0x00\n        /* \"github/nobi/staking/contracts/MultiRewardsBeefSTEAK.sol\":4825:4830  i + 1 */\n      tag_185\n        /* \"github/nobi/staking/contracts/MultiRewardsBeefSTEAK.sol\":4825:4826  i */\n      dup6\n        /* \"github/nobi/staking/contracts/MultiRewardsBeefSTEAK.sol\":4829:4830  1 */\n      0x01\n        /* \"github/nobi/staking/contracts/MultiRewardsBeefSTEAK.sol\":4825:4830  i + 1 */\n      tag_126\n      jump\t// in\n    tag_185:\n        /* \"github/nobi/staking/contracts/MultiRewardsBeefSTEAK.sol\":4811:4831  _rewardTokens[i + 1] */\n      dup2\n      mstore\n      0x20\n      add\n      swap1\n      dup2\n      mstore\n      0x20\n      add\n      0x00\n      keccak256\n        /* \"github/nobi/staking/contracts/MultiRewardsBeefSTEAK.sol\":4811:4842  _rewardTokens[i + 1].rewardRate */\n      0x01\n      add\n      sload\n        /* \"github/nobi/staking/contracts/MultiRewardsBeefSTEAK.sol\":4811:4846  _rewardTokens[i + 1].rewardRate.mul */\n      tag_133\n      swap1\n        /* \"github/nobi/staking/contracts/MultiRewardsBeefSTEAK.sol\":4811:4863  _rewardTokens[i + 1].rewardRate.mul(rewardsDuration) */\n      swap2\n      swap1\n      0xffffffff\n      and\n      jump\t// in\n    tag_184:\n        /* \"github/nobi/staking/contracts/MultiRewardsBeefSTEAK.sol\":4791:4805  currentRewards */\n      dup3\n        /* \"github/nobi/staking/contracts/MultiRewardsBeefSTEAK.sol\":4806:4807  i */\n      dup3\n        /* \"github/nobi/staking/contracts/MultiRewardsBeefSTEAK.sol\":4791:4808  currentRewards[i] */\n      dup2\n      mload\n      dup2\n      lt\n      tag_186\n      jumpi\n      mstore(0x00, 0x4e487b7100000000000000000000000000000000000000000000000000000000)\n      mstore(0x04, 0x32)\n      revert(0x00, 0x24)\n    tag_186:\n      0x20\n      swap1\n      dup2\n      mul\n      swap2\n      swap1\n      swap2\n      add\n      add\n        /* \"github/nobi/staking/contracts/MultiRewardsBeefSTEAK.sol\":4791:4863  currentRewards[i] = _rewardTokens[i + 1].rewardRate.mul(rewardsDuration) */\n      mstore\n        /* \"github/nobi/staking/contracts/MultiRewardsBeefSTEAK.sol\":4772:4775  i++ */\n      dup1\n      tag_187\n      dup2\n      tag_138\n      jump\t// in\n    tag_187:\n      swap2\n      pop\n      pop\n        /* \"github/nobi/staking/contracts/MultiRewardsBeefSTEAK.sol\":4731:4874  for (uint i = 0; i < _totalRewardTokens; i++) {... */\n      jump(tag_181)\n    tag_182:\n      pop\n        /* \"github/nobi/staking/contracts/MultiRewardsBeefSTEAK.sol\":4891:4905  currentRewards */\n      swap2\n        /* \"github/nobi/staking/contracts/MultiRewardsBeefSTEAK.sol\":4571:4912  function getRewardForDuration() external view returns (uint256[] memory) {... */\n      swap1\n      pop\n      jump\t// out\n        /* \"github/nobi/staking/contracts/MultiRewardsBeefSTEAK.sol\":5525:5876  function withdraw(uint256 amount) public nonReentrant updateReward(msg.sender) {... */\n    tag_57:\n        /* \"github/nobi/staking/contracts/helpers/ReentrancyGuard.sol\":1744:1745  2 */\n      0x02\n        /* \"github/nobi/staking/contracts/helpers/ReentrancyGuard.sol\":2325:2332  _status */\n      sload(0x00)\n        /* \"github/nobi/staking/contracts/helpers/ReentrancyGuard.sol\":2325:2344  _status != _ENTERED */\n      eq\n      iszero\n        /* \"github/nobi/staking/contracts/helpers/ReentrancyGuard.sol\":2317:2380  require(_status != _ENTERED, \"ReentrancyGuard: reentrant call\") */\n      tag_189\n      jumpi\n      mload(0x40)\n      0x08c379a000000000000000000000000000000000000000000000000000000000\n      dup2\n      mstore\n        /* \"#utility.yul\":10651:10653   */\n      0x20\n        /* \"github/nobi/staking/contracts/helpers/ReentrancyGuard.sol\":2317:2380  require(_status != _ENTERED, \"ReentrancyGuard: reentrant call\") */\n      0x04\n      dup3\n      add\n        /* \"#utility.yul\":10633:10654   */\n      mstore\n        /* \"#utility.yul\":10690:10692   */\n      0x1f\n        /* \"#utility.yul\":10670:10688   */\n      0x24\n      dup3\n      add\n        /* \"#utility.yul\":10663:10693   */\n      mstore\n        /* \"#utility.yul\":10729:10762   */\n      0x5265656e7472616e637947756172643a207265656e7472616e742063616c6c00\n        /* \"#utility.yul\":10709:10727   */\n      0x44\n      dup3\n      add\n        /* \"#utility.yul\":10702:10763   */\n      mstore\n        /* \"#utility.yul\":10780:10798   */\n      0x64\n      add\n        /* \"github/nobi/staking/contracts/helpers/ReentrancyGuard.sol\":2317:2380  require(_status != _ENTERED, \"ReentrancyGuard: reentrant call\") */\n      tag_146\n        /* \"#utility.yul\":10623:10804   */\n      jump\n        /* \"github/nobi/staking/contracts/helpers/ReentrancyGuard.sol\":2317:2380  require(_status != _ENTERED, \"ReentrancyGuard: reentrant call\") */\n    tag_189:\n        /* \"github/nobi/staking/contracts/helpers/ReentrancyGuard.sol\":1744:1745  2 */\n      0x02\n        /* \"github/nobi/staking/contracts/helpers/ReentrancyGuard.sol\":2455:2462  _status */\n      0x00\n        /* \"github/nobi/staking/contracts/helpers/ReentrancyGuard.sol\":2455:2473  _status = _ENTERED */\n      swap1\n      dup2\n      sstore\n        /* \"github/nobi/staking/contracts/MultiRewardsBeefSTEAK.sol\":5592:5602  msg.sender */\n      caller\n      swap1\n        /* \"github/nobi/staking/contracts/MultiRewardsBeefSTEAK.sol\":11107:11123  rewardPerToken() */\n      tag_193\n        /* \"github/nobi/staking/contracts/MultiRewardsBeefSTEAK.sol\":11107:11121  rewardPerToken */\n      tag_105\n        /* \"github/nobi/staking/contracts/MultiRewardsBeefSTEAK.sol\":11107:11123  rewardPerToken() */\n      jump\t// in\n    tag_193:\n        /* \"github/nobi/staking/contracts/MultiRewardsBeefSTEAK.sol\":11072:11123  uint256[] memory rewardsPerToken = rewardPerToken() */\n      swap1\n      pop\n        /* \"github/nobi/staking/contracts/MultiRewardsBeefSTEAK.sol\":11133:11165  uint256[] memory currentEarnings */\n      0x00\n        /* \"github/nobi/staking/contracts/MultiRewardsBeefSTEAK.sol\":11168:11183  earned(account) */\n      tag_194\n        /* \"github/nobi/staking/contracts/MultiRewardsBeefSTEAK.sol\":11175:11182  account */\n      dup4\n        /* \"github/nobi/staking/contracts/MultiRewardsBeefSTEAK.sol\":11168:11174  earned */\n      tag_38\n        /* \"github/nobi/staking/contracts/MultiRewardsBeefSTEAK.sol\":11168:11183  earned(account) */\n      jump\t// in\n    tag_194:\n        /* \"github/nobi/staking/contracts/MultiRewardsBeefSTEAK.sol\":11133:11183  uint256[] memory currentEarnings = earned(account) */\n      swap1\n      pop\n        /* \"github/nobi/staking/contracts/MultiRewardsBeefSTEAK.sol\":11210:11236  lastTimeRewardApplicable() */\n      tag_195\n        /* \"github/nobi/staking/contracts/MultiRewardsBeefSTEAK.sol\":11210:11234  lastTimeRewardApplicable */\n      tag_84\n        /* \"github/nobi/staking/contracts/MultiRewardsBeefSTEAK.sol\":11210:11236  lastTimeRewardApplicable() */\n      jump\t// in\n    tag_195:\n        /* \"github/nobi/staking/contracts/MultiRewardsBeefSTEAK.sol\":11193:11207  lastUpdateTime */\n      0x05\n        /* \"github/nobi/staking/contracts/MultiRewardsBeefSTEAK.sol\":11193:11236  lastUpdateTime = lastTimeRewardApplicable() */\n      sstore\n        /* \"github/nobi/staking/contracts/MultiRewardsBeefSTEAK.sol\":11251:11257  uint i */\n      0x00\n        /* \"github/nobi/staking/contracts/MultiRewardsBeefSTEAK.sol\":11246:11674  for (uint i = 0; i < _totalRewardTokens; i++) {... */\n    tag_196:\n        /* \"github/nobi/staking/contracts/MultiRewardsBeefSTEAK.sol\":11267:11285  _totalRewardTokens */\n      sload(0x08)\n        /* \"github/nobi/staking/contracts/MultiRewardsBeefSTEAK.sol\":11263:11264  i */\n      dup2\n        /* \"github/nobi/staking/contracts/MultiRewardsBeefSTEAK.sol\":11263:11285  i < _totalRewardTokens */\n      lt\n        /* \"github/nobi/staking/contracts/MultiRewardsBeefSTEAK.sol\":11246:11674  for (uint i = 0; i < _totalRewardTokens; i++) {... */\n      iszero\n      tag_197\n      jumpi\n        /* \"github/nobi/staking/contracts/MultiRewardsBeefSTEAK.sol\":11306:11337  RewardToken storage rewardToken */\n      0x00\n        /* \"github/nobi/staking/contracts/MultiRewardsBeefSTEAK.sol\":11340:11353  _rewardTokens */\n      0x09\n        /* \"github/nobi/staking/contracts/MultiRewardsBeefSTEAK.sol\":11306:11337  RewardToken storage rewardToken */\n      dup2\n        /* \"github/nobi/staking/contracts/MultiRewardsBeefSTEAK.sol\":11354:11359  i + 1 */\n      tag_199\n        /* \"github/nobi/staking/contracts/MultiRewardsBeefSTEAK.sol\":11354:11355  i */\n      dup5\n        /* \"github/nobi/staking/contracts/MultiRewardsBeefSTEAK.sol\":11358:11359  1 */\n      0x01\n        /* \"github/nobi/staking/contracts/MultiRewardsBeefSTEAK.sol\":11354:11359  i + 1 */\n      tag_126\n      jump\t// in\n    tag_199:\n        /* \"github/nobi/staking/contracts/MultiRewardsBeefSTEAK.sol\":11340:11360  _rewardTokens[i + 1] */\n      dup2\n      mstore\n      0x20\n      add\n      swap1\n      dup2\n      mstore\n      0x20\n      add\n      0x00\n      keccak256\n        /* \"github/nobi/staking/contracts/MultiRewardsBeefSTEAK.sol\":11306:11360  RewardToken storage rewardToken = _rewardTokens[i + 1] */\n      swap1\n      pop\n        /* \"github/nobi/staking/contracts/MultiRewardsBeefSTEAK.sol\":11409:11424  rewardsPerToken */\n      dup4\n        /* \"github/nobi/staking/contracts/MultiRewardsBeefSTEAK.sol\":11425:11426  i */\n      dup3\n        /* \"github/nobi/staking/contracts/MultiRewardsBeefSTEAK.sol\":11409:11427  rewardsPerToken[i] */\n      dup2\n      mload\n      dup2\n      lt\n      tag_200\n      jumpi\n      mstore(0x00, 0x4e487b7100000000000000000000000000000000000000000000000000000000)\n      mstore(0x04, 0x32)\n      revert(0x00, 0x24)\n    tag_200:\n      0x20\n      swap1\n      dup2\n      mul\n      swap2\n      swap1\n      swap2\n      add\n      add\n      mload\n        /* \"github/nobi/staking/contracts/MultiRewardsBeefSTEAK.sol\":11374:11406  rewardToken.rewardPerTokenStored */\n      0x02\n      dup3\n      add\n        /* \"github/nobi/staking/contracts/MultiRewardsBeefSTEAK.sol\":11374:11427  rewardToken.rewardPerTokenStored = rewardsPerToken[i] */\n      sstore\n        /* \"github/nobi/staking/contracts/MultiRewardsBeefSTEAK.sol\":11445:11466  account != address(0) */\n      0xffffffffffffffffffffffffffffffffffffffff\n      dup6\n      and\n      iszero\n        /* \"github/nobi/staking/contracts/MultiRewardsBeefSTEAK.sol\":11441:11664  if (account != address(0)) {... */\n      tag_201\n      jumpi\n        /* \"github/nobi/staking/contracts/MultiRewardsBeefSTEAK.sol\":11525:11540  currentEarnings */\n      dup3\n        /* \"github/nobi/staking/contracts/MultiRewardsBeefSTEAK.sol\":11541:11542  i */\n      dup3\n        /* \"github/nobi/staking/contracts/MultiRewardsBeefSTEAK.sol\":11525:11543  currentEarnings[i] */\n      dup2\n      mload\n      dup2\n      lt\n      tag_202\n      jumpi\n      mstore(0x00, 0x4e487b7100000000000000000000000000000000000000000000000000000000)\n      mstore(0x04, 0x32)\n      revert(0x00, 0x24)\n    tag_202:\n      0x20\n      swap1\n      dup2\n      mul\n      swap2\n      swap1\n      swap2\n      add\n      dup2\n      add\n      mload\n        /* \"github/nobi/staking/contracts/MultiRewardsBeefSTEAK.sol\":11486:11503  _rewards[account] */\n      0xffffffffffffffffffffffffffffffffffffffff\n      dup1\n      dup9\n      and\n      0x00\n      swap1\n      dup2\n      mstore\n        /* \"github/nobi/staking/contracts/MultiRewardsBeefSTEAK.sol\":11486:11494  _rewards */\n      0x07\n        /* \"github/nobi/staking/contracts/MultiRewardsBeefSTEAK.sol\":11486:11503  _rewards[account] */\n      dup5\n      mstore\n      0x40\n      dup1\n      dup3\n      keccak256\n        /* \"github/nobi/staking/contracts/MultiRewardsBeefSTEAK.sol\":11504:11521  rewardToken.token */\n      dup7\n      sload\n      swap1\n      swap4\n      and\n        /* \"github/nobi/staking/contracts/MultiRewardsBeefSTEAK.sol\":11486:11522  _rewards[account][rewardToken.token] */\n      dup3\n      mstore\n      swap2\n      swap1\n      swap4\n      mstore\n      swap1\n      swap2\n      keccak256\n        /* \"github/nobi/staking/contracts/MultiRewardsBeefSTEAK.sol\":11486:11543  _rewards[account][rewardToken.token] = currentEarnings[i] */\n      sstore\n        /* \"github/nobi/staking/contracts/MultiRewardsBeefSTEAK.sol\":11615:11633  rewardsPerToken[i] */\n      dup4\n      mload\n        /* \"github/nobi/staking/contracts/MultiRewardsBeefSTEAK.sol\":11615:11630  rewardsPerToken */\n      dup5\n      swap1\n        /* \"github/nobi/staking/contracts/MultiRewardsBeefSTEAK.sol\":11631:11632  i */\n      dup4\n      swap1\n        /* \"github/nobi/staking/contracts/MultiRewardsBeefSTEAK.sol\":11615:11633  rewardsPerToken[i] */\n      dup2\n      lt\n      tag_203\n      jumpi\n      mstore(0x00, 0x4e487b7100000000000000000000000000000000000000000000000000000000)\n      mstore(0x04, 0x32)\n      revert(0x00, 0x24)\n    tag_203:\n      0x20\n      swap1\n      dup2\n      mul\n      swap2\n      swap1\n      swap2\n      add\n      dup2\n      add\n      mload\n        /* \"github/nobi/staking/contracts/MultiRewardsBeefSTEAK.sol\":11561:11593  _userRewardPerTokenPaid[account] */\n      0xffffffffffffffffffffffffffffffffffffffff\n      dup1\n      dup9\n      and\n      0x00\n      swap1\n      dup2\n      mstore\n        /* \"github/nobi/staking/contracts/MultiRewardsBeefSTEAK.sol\":11561:11584  _userRewardPerTokenPaid */\n      0x06\n        /* \"github/nobi/staking/contracts/MultiRewardsBeefSTEAK.sol\":11561:11593  _userRewardPerTokenPaid[account] */\n      dup5\n      mstore\n      0x40\n      dup1\n      dup3\n      keccak256\n        /* \"github/nobi/staking/contracts/MultiRewardsBeefSTEAK.sol\":11594:11611  rewardToken.token */\n      dup7\n      sload\n      swap1\n      swap4\n      and\n        /* \"github/nobi/staking/contracts/MultiRewardsBeefSTEAK.sol\":11561:11612  _userRewardPerTokenPaid[account][rewardToken.token] */\n      dup3\n      mstore\n      swap2\n      swap1\n      swap4\n      mstore\n      swap1\n      swap2\n      keccak256\n        /* \"github/nobi/staking/contracts/MultiRewardsBeefSTEAK.sol\":11561:11633  _userRewardPerTokenPaid[account][rewardToken.token] = rewardsPerToken[i] */\n      sstore\n        /* \"github/nobi/staking/contracts/MultiRewardsBeefSTEAK.sol\":11441:11664  if (account != address(0)) {... */\n    tag_201:\n      pop\n        /* \"github/nobi/staking/contracts/MultiRewardsBeefSTEAK.sol\":11287:11290  i++ */\n      dup1\n      tag_204\n      dup2\n      tag_138\n      jump\t// in\n    tag_204:\n      swap2\n      pop\n      pop\n        /* \"github/nobi/staking/contracts/MultiRewardsBeefSTEAK.sol\":11246:11674  for (uint i = 0; i < _totalRewardTokens; i++) {... */\n      jump(tag_196)\n    tag_197:\n      pop\n        /* \"github/nobi/staking/contracts/MultiRewardsBeefSTEAK.sol\":5631:5632  0 */\n      0x00\n        /* \"github/nobi/staking/contracts/MultiRewardsBeefSTEAK.sol\":5622:5628  amount */\n      dup5\n        /* \"github/nobi/staking/contracts/MultiRewardsBeefSTEAK.sol\":5622:5632  amount > 0 */\n      gt\n        /* \"github/nobi/staking/contracts/MultiRewardsBeefSTEAK.sol\":5614:5654  require(amount > 0, \"Cannot withdraw 0\") */\n      tag_206\n      jumpi\n      mload(0x40)\n      0x08c379a000000000000000000000000000000000000000000000000000000000\n      dup2\n      mstore\n        /* \"#utility.yul\":8831:8833   */\n      0x20\n        /* \"github/nobi/staking/contracts/MultiRewardsBeefSTEAK.sol\":5614:5654  require(amount > 0, \"Cannot withdraw 0\") */\n      0x04\n      dup3\n      add\n        /* \"#utility.yul\":8813:8834   */\n      mstore\n        /* \"#utility.yul\":8870:8872   */\n      0x11\n        /* \"#utility.yul\":8850:8868   */\n      0x24\n      dup3\n      add\n        /* \"#utility.yul\":8843:8873   */\n      mstore\n        /* \"#utility.yul\":8909:8928   */\n      0x43616e6e6f742077697468647261772030000000000000000000000000000000\n        /* \"#utility.yul\":8889:8907   */\n      0x44\n      dup3\n      add\n        /* \"#utility.yul\":8882:8929   */\n      mstore\n        /* \"#utility.yul\":8946:8964   */\n      0x64\n      add\n        /* \"github/nobi/staking/contracts/MultiRewardsBeefSTEAK.sol\":5614:5654  require(amount > 0, \"Cannot withdraw 0\") */\n      tag_146\n        /* \"#utility.yul\":8803:8970   */\n      jump\n        /* \"github/nobi/staking/contracts/MultiRewardsBeefSTEAK.sol\":5614:5654  require(amount > 0, \"Cannot withdraw 0\") */\n    tag_206:\n        /* \"github/nobi/staking/contracts/MultiRewardsBeefSTEAK.sol\":5679:5691  _totalSupply */\n      sload(0x0b)\n        /* \"github/nobi/staking/contracts/MultiRewardsBeefSTEAK.sol\":5679:5703  _totalSupply.sub(amount) */\n      tag_209\n      swap1\n        /* \"github/nobi/staking/contracts/MultiRewardsBeefSTEAK.sol\":5696:5702  amount */\n      dup6\n        /* \"github/nobi/staking/contracts/MultiRewardsBeefSTEAK.sol\":5679:5695  _totalSupply.sub */\n      tag_132\n        /* \"github/nobi/staking/contracts/MultiRewardsBeefSTEAK.sol\":5679:5703  _totalSupply.sub(amount) */\n      jump\t// in\n    tag_209:\n        /* \"github/nobi/staking/contracts/MultiRewardsBeefSTEAK.sol\":5664:5676  _totalSupply */\n      0x0b\n        /* \"github/nobi/staking/contracts/MultiRewardsBeefSTEAK.sol\":5664:5703  _totalSupply = _totalSupply.sub(amount) */\n      sstore\n        /* \"github/nobi/staking/contracts/MultiRewardsBeefSTEAK.sol\":5747:5757  msg.sender */\n      caller\n        /* \"github/nobi/staking/contracts/MultiRewardsBeefSTEAK.sol\":5737:5758  _balances[msg.sender] */\n      0x00\n      swap1\n      dup2\n      mstore\n        /* \"github/nobi/staking/contracts/MultiRewardsBeefSTEAK.sol\":5737:5746  _balances */\n      0x0c\n        /* \"github/nobi/staking/contracts/MultiRewardsBeefSTEAK.sol\":5737:5758  _balances[msg.sender] */\n      0x20\n      mstore\n      0x40\n      swap1\n      keccak256\n      sload\n        /* \"github/nobi/staking/contracts/MultiRewardsBeefSTEAK.sol\":5737:5770  _balances[msg.sender].sub(amount) */\n      tag_210\n      swap1\n        /* \"github/nobi/staking/contracts/MultiRewardsBeefSTEAK.sol\":5763:5769  amount */\n      dup6\n        /* \"github/nobi/staking/contracts/MultiRewardsBeefSTEAK.sol\":5737:5762  _balances[msg.sender].sub */\n      tag_132\n        /* \"github/nobi/staking/contracts/MultiRewardsBeefSTEAK.sol\":5737:5770  _balances[msg.sender].sub(amount) */\n      jump\t// in\n    tag_210:\n        /* \"github/nobi/staking/contracts/MultiRewardsBeefSTEAK.sol\":5723:5733  msg.sender */\n      caller\n        /* \"github/nobi/staking/contracts/MultiRewardsBeefSTEAK.sol\":5713:5734  _balances[msg.sender] */\n      0x00\n      dup2\n      dup2\n      mstore\n        /* \"github/nobi/staking/contracts/MultiRewardsBeefSTEAK.sol\":5713:5722  _balances */\n      0x0c\n        /* \"github/nobi/staking/contracts/MultiRewardsBeefSTEAK.sol\":5713:5734  _balances[msg.sender] */\n      0x20\n      mstore\n      0x40\n      swap1\n      keccak256\n        /* \"github/nobi/staking/contracts/MultiRewardsBeefSTEAK.sol\":5713:5770  _balances[msg.sender] = _balances[msg.sender].sub(amount) */\n      swap2\n      swap1\n      swap2\n      sstore\n        /* \"github/nobi/staking/contracts/MultiRewardsBeefSTEAK.sol\":5780:5792  stakingToken */\n      sload(0x02)\n        /* \"github/nobi/staking/contracts/MultiRewardsBeefSTEAK.sol\":5780:5825  stakingToken.safeTransfer(msg.sender, amount) */\n      tag_211\n      swap2\n        /* \"github/nobi/staking/contracts/MultiRewardsBeefSTEAK.sol\":5713:5734  _balances[msg.sender] */\n      0xffffffffffffffffffffffffffffffffffffffff\n        /* \"github/nobi/staking/contracts/MultiRewardsBeefSTEAK.sol\":5780:5792  stakingToken */\n      swap1\n      swap2\n      and\n      swap1\n        /* \"github/nobi/staking/contracts/MultiRewardsBeefSTEAK.sol\":5818:5824  amount */\n      dup7\n        /* \"github/nobi/staking/contracts/MultiRewardsBeefSTEAK.sol\":5780:5805  stakingToken.safeTransfer */\n      tag_212\n        /* \"github/nobi/staking/contracts/MultiRewardsBeefSTEAK.sol\":5780:5825  stakingToken.safeTransfer(msg.sender, amount) */\n      jump\t// in\n    tag_211:\n        /* \"github/nobi/staking/contracts/MultiRewardsBeefSTEAK.sol\":5840:5869  Withdrawn(msg.sender, amount) */\n      mload(0x40)\n        /* \"#utility.yul\":11308:11333   */\n      dup5\n      dup2\n      mstore\n        /* \"github/nobi/staking/contracts/MultiRewardsBeefSTEAK.sol\":5850:5860  msg.sender */\n      caller\n      swap1\n        /* \"github/nobi/staking/contracts/MultiRewardsBeefSTEAK.sol\":5840:5869  Withdrawn(msg.sender, amount) */\n      0x7084f5476618d8e60b11ef0d7d3f06914655adb8793e28ff7f018d4c76d505d5\n      swap1\n        /* \"#utility.yul\":11296:11298   */\n      0x20\n        /* \"#utility.yul\":11281:11299   */\n      add\n        /* \"github/nobi/staking/contracts/MultiRewardsBeefSTEAK.sol\":5840:5869  Withdrawn(msg.sender, amount) */\n      mload(0x40)\n      dup1\n      swap2\n      sub\n      swap1\n      log2\n      pop\n      pop\n        /* \"github/nobi/staking/contracts/helpers/ReentrancyGuard.sol\":1701:1702  1 */\n      0x01\n        /* \"github/nobi/staking/contracts/helpers/ReentrancyGuard.sol\":2628:2635  _status */\n      0x00\n        /* \"github/nobi/staking/contracts/helpers/ReentrancyGuard.sol\":2628:2650  _status = _NOT_ENTERED */\n      sstore\n      pop\n      pop\n        /* \"github/nobi/staking/contracts/MultiRewardsBeefSTEAK.sol\":5525:5876  function withdraw(uint256 amount) public nonReentrant updateReward(msg.sender) {... */\n      jump\t// out\n        /* \"github/nobi/staking/contracts/MultiRewardsBeefSTEAK.sol\":5882:6380  function getReward() public nonReentrant updateReward(msg.sender) {... */\n    tag_62:\n        /* \"github/nobi/staking/contracts/helpers/ReentrancyGuard.sol\":1744:1745  2 */\n      0x02\n        /* \"github/nobi/staking/contracts/helpers/ReentrancyGuard.sol\":2325:2332  _status */\n      sload(0x00)\n        /* \"github/nobi/staking/contracts/helpers/ReentrancyGuard.sol\":2325:2344  _status != _ENTERED */\n      eq\n      iszero\n        /* \"github/nobi/staking/contracts/helpers/ReentrancyGuard.sol\":2317:2380  require(_status != _ENTERED, \"ReentrancyGuard: reentrant call\") */\n      tag_215\n      jumpi\n      mload(0x40)\n      0x08c379a000000000000000000000000000000000000000000000000000000000\n      dup2\n      mstore\n        /* \"#utility.yul\":10651:10653   */\n      0x20\n        /* \"github/nobi/staking/contracts/helpers/ReentrancyGuard.sol\":2317:2380  require(_status != _ENTERED, \"ReentrancyGuard: reentrant call\") */\n      0x04\n      dup3\n      add\n        /* \"#utility.yul\":10633:10654   */\n      mstore\n        /* \"#utility.yul\":10690:10692   */\n      0x1f\n        /* \"#utility.yul\":10670:10688   */\n      0x24\n      dup3\n      add\n        /* \"#utility.yul\":10663:10693   */\n      mstore\n        /* \"#utility.yul\":10729:10762   */\n      0x5265656e7472616e637947756172643a207265656e7472616e742063616c6c00\n        /* \"#utility.yul\":10709:10727   */\n      0x44\n      dup3\n      add\n        /* \"#utility.yul\":10702:10763   */\n      mstore\n        /* \"#utility.yul\":10780:10798   */\n      0x64\n      add\n        /* \"github/nobi/staking/contracts/helpers/ReentrancyGuard.sol\":2317:2380  require(_status != _ENTERED, \"ReentrancyGuard: reentrant call\") */\n      tag_146\n        /* \"#utility.yul\":10623:10804   */\n      jump\n        /* \"github/nobi/staking/contracts/helpers/ReentrancyGuard.sol\":2317:2380  require(_status != _ENTERED, \"ReentrancyGuard: reentrant call\") */\n    tag_215:\n        /* \"github/nobi/staking/contracts/helpers/ReentrancyGuard.sol\":1744:1745  2 */\n      0x02\n        /* \"github/nobi/staking/contracts/helpers/ReentrancyGuard.sol\":2455:2462  _status */\n      0x00\n        /* \"github/nobi/staking/contracts/helpers/ReentrancyGuard.sol\":2455:2473  _status = _ENTERED */\n      swap1\n      dup2\n      sstore\n        /* \"github/nobi/staking/contracts/MultiRewardsBeefSTEAK.sol\":5936:5946  msg.sender */\n      caller\n      swap1\n        /* \"github/nobi/staking/contracts/MultiRewardsBeefSTEAK.sol\":11107:11123  rewardPerToken() */\n      tag_218\n        /* \"github/nobi/staking/contracts/MultiRewardsBeefSTEAK.sol\":11107:11121  rewardPerToken */\n      tag_105\n        /* \"github/nobi/staking/contracts/MultiRewardsBeefSTEAK.sol\":11107:11123  rewardPerToken() */\n      jump\t// in\n    tag_218:\n        /* \"github/nobi/staking/contracts/MultiRewardsBeefSTEAK.sol\":11072:11123  uint256[] memory rewardsPerToken = rewardPerToken() */\n      swap1\n      pop\n        /* \"github/nobi/staking/contracts/MultiRewardsBeefSTEAK.sol\":11133:11165  uint256[] memory currentEarnings */\n      0x00\n        /* \"github/nobi/staking/contracts/MultiRewardsBeefSTEAK.sol\":11168:11183  earned(account) */\n      tag_219\n        /* \"github/nobi/staking/contracts/MultiRewardsBeefSTEAK.sol\":11175:11182  account */\n      dup4\n        /* \"github/nobi/staking/contracts/MultiRewardsBeefSTEAK.sol\":11168:11174  earned */\n      tag_38\n        /* \"github/nobi/staking/contracts/MultiRewardsBeefSTEAK.sol\":11168:11183  earned(account) */\n      jump\t// in\n    tag_219:\n        /* \"github/nobi/staking/contracts/MultiRewardsBeefSTEAK.sol\":11133:11183  uint256[] memory currentEarnings = earned(account) */\n      swap1\n      pop\n        /* \"github/nobi/staking/contracts/MultiRewardsBeefSTEAK.sol\":11210:11236  lastTimeRewardApplicable() */\n      tag_220\n        /* \"github/nobi/staking/contracts/MultiRewardsBeefSTEAK.sol\":11210:11234  lastTimeRewardApplicable */\n      tag_84\n        /* \"github/nobi/staking/contracts/MultiRewardsBeefSTEAK.sol\":11210:11236  lastTimeRewardApplicable() */\n      jump\t// in\n    tag_220:\n        /* \"github/nobi/staking/contracts/MultiRewardsBeefSTEAK.sol\":11193:11207  lastUpdateTime */\n      0x05\n        /* \"github/nobi/staking/contracts/MultiRewardsBeefSTEAK.sol\":11193:11236  lastUpdateTime = lastTimeRewardApplicable() */\n      sstore\n        /* \"github/nobi/staking/contracts/MultiRewardsBeefSTEAK.sol\":11251:11257  uint i */\n      0x00\n        /* \"github/nobi/staking/contracts/MultiRewardsBeefSTEAK.sol\":11246:11674  for (uint i = 0; i < _totalRewardTokens; i++) {... */\n    tag_221:\n        /* \"github/nobi/staking/contracts/MultiRewardsBeefSTEAK.sol\":11267:11285  _totalRewardTokens */\n      sload(0x08)\n        /* \"github/nobi/staking/contracts/MultiRewardsBeefSTEAK.sol\":11263:11264  i */\n      dup2\n        /* \"github/nobi/staking/contracts/MultiRewardsBeefSTEAK.sol\":11263:11285  i < _totalRewardTokens */\n      lt\n        /* \"github/nobi/staking/contracts/MultiRewardsBeefSTEAK.sol\":11246:11674  for (uint i = 0; i < _totalRewardTokens; i++) {... */\n      iszero\n      tag_222\n      jumpi\n        /* \"github/nobi/staking/contracts/MultiRewardsBeefSTEAK.sol\":11306:11337  RewardToken storage rewardToken */\n      0x00\n        /* \"github/nobi/staking/contracts/MultiRewardsBeefSTEAK.sol\":11340:11353  _rewardTokens */\n      0x09\n        /* \"github/nobi/staking/contracts/MultiRewardsBeefSTEAK.sol\":11306:11337  RewardToken storage rewardToken */\n      dup2\n        /* \"github/nobi/staking/contracts/MultiRewardsBeefSTEAK.sol\":11354:11359  i + 1 */\n      tag_224\n        /* \"github/nobi/staking/contracts/MultiRewardsBeefSTEAK.sol\":11354:11355  i */\n      dup5\n        /* \"github/nobi/staking/contracts/MultiRewardsBeefSTEAK.sol\":11358:11359  1 */\n      0x01\n        /* \"github/nobi/staking/contracts/MultiRewardsBeefSTEAK.sol\":11354:11359  i + 1 */\n      tag_126\n      jump\t// in\n    tag_224:\n        /* \"github/nobi/staking/contracts/MultiRewardsBeefSTEAK.sol\":11340:11360  _rewardTokens[i + 1] */\n      dup2\n      mstore\n      0x20\n      add\n      swap1\n      dup2\n      mstore\n      0x20\n      add\n      0x00\n      keccak256\n        /* \"github/nobi/staking/contracts/MultiRewardsBeefSTEAK.sol\":11306:11360  RewardToken storage rewardToken = _rewardTokens[i + 1] */\n      swap1\n      pop\n        /* \"github/nobi/staking/contracts/MultiRewardsBeefSTEAK.sol\":11409:11424  rewardsPerToken */\n      dup4\n        /* \"github/nobi/staking/contracts/MultiRewardsBeefSTEAK.sol\":11425:11426  i */\n      dup3\n        /* \"github/nobi/staking/contracts/MultiRewardsBeefSTEAK.sol\":11409:11427  rewardsPerToken[i] */\n      dup2\n      mload\n      dup2\n      lt\n      tag_225\n      jumpi\n      mstore(0x00, 0x4e487b7100000000000000000000000000000000000000000000000000000000)\n      mstore(0x04, 0x32)\n      revert(0x00, 0x24)\n    tag_225:\n      0x20\n      swap1\n      dup2\n      mul\n      swap2\n      swap1\n      swap2\n      add\n      add\n      mload\n        /* \"github/nobi/staking/contracts/MultiRewardsBeefSTEAK.sol\":11374:11406  rewardToken.rewardPerTokenStored */\n      0x02\n      dup3\n      add\n        /* \"github/nobi/staking/contracts/MultiRewardsBeefSTEAK.sol\":11374:11427  rewardToken.rewardPerTokenStored = rewardsPerToken[i] */\n      sstore\n        /* \"github/nobi/staking/contracts/MultiRewardsBeefSTEAK.sol\":11445:11466  account != address(0) */\n      0xffffffffffffffffffffffffffffffffffffffff\n      dup6\n      and\n      iszero\n        /* \"github/nobi/staking/contracts/MultiRewardsBeefSTEAK.sol\":11441:11664  if (account != address(0)) {... */\n      tag_226\n      jumpi\n        /* \"github/nobi/staking/contracts/MultiRewardsBeefSTEAK.sol\":11525:11540  currentEarnings */\n      dup3\n        /* \"github/nobi/staking/contracts/MultiRewardsBeefSTEAK.sol\":11541:11542  i */\n      dup3\n        /* \"github/nobi/staking/contracts/MultiRewardsBeefSTEAK.sol\":11525:11543  currentEarnings[i] */\n      dup2\n      mload\n      dup2\n      lt\n      tag_227\n      jumpi\n      mstore(0x00, 0x4e487b7100000000000000000000000000000000000000000000000000000000)\n      mstore(0x04, 0x32)\n      revert(0x00, 0x24)\n    tag_227:\n      0x20\n      swap1\n      dup2\n      mul\n      swap2\n      swap1\n      swap2\n      add\n      dup2\n      add\n      mload\n        /* \"github/nobi/staking/contracts/MultiRewardsBeefSTEAK.sol\":11486:11503  _rewards[account] */\n      0xffffffffffffffffffffffffffffffffffffffff\n      dup1\n      dup9\n      and\n      0x00\n      swap1\n      dup2\n      mstore\n        /* \"github/nobi/staking/contracts/MultiRewardsBeefSTEAK.sol\":11486:11494  _rewards */\n      0x07\n        /* \"github/nobi/staking/contracts/MultiRewardsBeefSTEAK.sol\":11486:11503  _rewards[account] */\n      dup5\n      mstore\n      0x40\n      dup1\n      dup3\n      keccak256\n        /* \"github/nobi/staking/contracts/MultiRewardsBeefSTEAK.sol\":11504:11521  rewardToken.token */\n      dup7\n      sload\n      swap1\n      swap4\n      and\n        /* \"github/nobi/staking/contracts/MultiRewardsBeefSTEAK.sol\":11486:11522  _rewards[account][rewardToken.token] */\n      dup3\n      mstore\n      swap2\n      swap1\n      swap4\n      mstore\n      swap1\n      swap2\n      keccak256\n        /* \"github/nobi/staking/contracts/MultiRewardsBeefSTEAK.sol\":11486:11543  _rewards[account][rewardToken.token] = currentEarnings[i] */\n      sstore\n        /* \"github/nobi/staking/contracts/MultiRewardsBeefSTEAK.sol\":11615:11633  rewardsPerToken[i] */\n      dup4\n      mload\n        /* \"github/nobi/staking/contracts/MultiRewardsBeefSTEAK.sol\":11615:11630  rewardsPerToken */\n      dup5\n      swap1\n        /* \"github/nobi/staking/contracts/MultiRewardsBeefSTEAK.sol\":11631:11632  i */\n      dup4\n      swap1\n        /* \"github/nobi/staking/contracts/MultiRewardsBeefSTEAK.sol\":11615:11633  rewardsPerToken[i] */\n      dup2\n      lt\n      tag_228\n      jumpi\n      mstore(0x00, 0x4e487b7100000000000000000000000000000000000000000000000000000000)\n      mstore(0x04, 0x32)\n      revert(0x00, 0x24)\n    tag_228:\n      0x20\n      swap1\n      dup2\n      mul\n      swap2\n      swap1\n      swap2\n      add\n      dup2\n      add\n      mload\n        /* \"github/nobi/staking/contracts/MultiRewardsBeefSTEAK.sol\":11561:11593  _userRewardPerTokenPaid[account] */\n      0xffffffffffffffffffffffffffffffffffffffff\n      dup1\n      dup9\n      and\n      0x00\n      swap1\n      dup2\n      mstore\n        /* \"github/nobi/staking/contracts/MultiRewardsBeefSTEAK.sol\":11561:11584  _userRewardPerTokenPaid */\n      0x06\n        /* \"github/nobi/staking/contracts/MultiRewardsBeefSTEAK.sol\":11561:11593  _userRewardPerTokenPaid[account] */\n      dup5\n      mstore\n      0x40\n      dup1\n      dup3\n      keccak256\n        /* \"github/nobi/staking/contracts/MultiRewardsBeefSTEAK.sol\":11594:11611  rewardToken.token */\n      dup7\n      sload\n      swap1\n      swap4\n      and\n        /* \"github/nobi/staking/contracts/MultiRewardsBeefSTEAK.sol\":11561:11612  _userRewardPerTokenPaid[account][rewardToken.token] */\n      dup3\n      mstore\n      swap2\n      swap1\n      swap4\n      mstore\n      swap1\n      swap2\n      keccak256\n        /* \"github/nobi/staking/contracts/MultiRewardsBeefSTEAK.sol\":11561:11633  _userRewardPerTokenPaid[account][rewardToken.token] = rewardsPerToken[i] */\n      sstore\n        /* \"github/nobi/staking/contracts/MultiRewardsBeefSTEAK.sol\":11441:11664  if (account != address(0)) {... */\n    tag_226:\n      pop\n        /* \"github/nobi/staking/contracts/MultiRewardsBeefSTEAK.sol\":11287:11290  i++ */\n      dup1\n      tag_229\n      dup2\n      tag_138\n      jump\t// in\n    tag_229:\n      swap2\n      pop\n      pop\n        /* \"github/nobi/staking/contracts/MultiRewardsBeefSTEAK.sol\":11246:11674  for (uint i = 0; i < _totalRewardTokens; i++) {... */\n      jump(tag_221)\n    tag_222:\n      pop\n        /* \"github/nobi/staking/contracts/MultiRewardsBeefSTEAK.sol\":5963:5969  uint i */\n      0x00\n        /* \"github/nobi/staking/contracts/MultiRewardsBeefSTEAK.sol\":5958:6374  for (uint i = 0; i < _totalRewardTokens; i++) {... */\n    tag_231:\n        /* \"github/nobi/staking/contracts/MultiRewardsBeefSTEAK.sol\":5979:5997  _totalRewardTokens */\n      sload(0x08)\n        /* \"github/nobi/staking/contracts/MultiRewardsBeefSTEAK.sol\":5975:5976  i */\n      dup2\n        /* \"github/nobi/staking/contracts/MultiRewardsBeefSTEAK.sol\":5975:5997  i < _totalRewardTokens */\n      lt\n        /* \"github/nobi/staking/contracts/MultiRewardsBeefSTEAK.sol\":5958:6374  for (uint i = 0; i < _totalRewardTokens; i++) {... */\n      iszero\n      tag_232\n      jumpi\n        /* \"github/nobi/staking/contracts/MultiRewardsBeefSTEAK.sol\":6051:6061  msg.sender */\n      caller\n        /* \"github/nobi/staking/contracts/MultiRewardsBeefSTEAK.sol\":6018:6039  uint256 currentReward */\n      0x00\n        /* \"github/nobi/staking/contracts/MultiRewardsBeefSTEAK.sol\":6042:6062  _rewards[msg.sender] */\n      swap1\n      dup2\n      mstore\n        /* \"github/nobi/staking/contracts/MultiRewardsBeefSTEAK.sol\":6042:6050  _rewards */\n      0x07\n        /* \"github/nobi/staking/contracts/MultiRewardsBeefSTEAK.sol\":6042:6062  _rewards[msg.sender] */\n      0x20\n      mstore\n      0x40\n      dup2\n      keccak256\n        /* \"github/nobi/staking/contracts/MultiRewardsBeefSTEAK.sol\":6018:6039  uint256 currentReward */\n      dup2\n        /* \"github/nobi/staking/contracts/MultiRewardsBeefSTEAK.sol\":6063:6076  _rewardTokens */\n      0x09\n        /* \"github/nobi/staking/contracts/MultiRewardsBeefSTEAK.sol\":6018:6039  uint256 currentReward */\n      dup2\n        /* \"github/nobi/staking/contracts/MultiRewardsBeefSTEAK.sol\":6077:6082  i + 1 */\n      tag_234\n        /* \"github/nobi/staking/contracts/MultiRewardsBeefSTEAK.sol\":6077:6078  i */\n      dup7\n        /* \"github/nobi/staking/contracts/MultiRewardsBeefSTEAK.sol\":6081:6082  1 */\n      0x01\n        /* \"github/nobi/staking/contracts/MultiRewardsBeefSTEAK.sol\":6077:6082  i + 1 */\n      tag_126\n      jump\t// in\n    tag_234:\n        /* \"github/nobi/staking/contracts/MultiRewardsBeefSTEAK.sol\":6063:6083  _rewardTokens[i + 1] */\n      dup2\n      mstore\n      0x20\n      dup1\n      dup3\n      add\n      swap3\n      swap1\n      swap3\n      mstore\n      0x40\n      swap1\n      dup2\n      add\n      0x00\n      swap1\n      dup2\n      keccak256\n        /* \"github/nobi/staking/contracts/MultiRewardsBeefSTEAK.sol\":6063:6089  _rewardTokens[i + 1].token */\n      sload\n      0xffffffffffffffffffffffffffffffffffffffff\n      and\n        /* \"github/nobi/staking/contracts/MultiRewardsBeefSTEAK.sol\":6042:6090  _rewards[msg.sender][_rewardTokens[i + 1].token] */\n      dup5\n      mstore\n      swap2\n      dup4\n      add\n      swap4\n      swap1\n      swap4\n      mstore\n      swap2\n      add\n      swap1\n      keccak256\n      sload\n      swap1\n      pop\n        /* \"github/nobi/staking/contracts/MultiRewardsBeefSTEAK.sol\":6108:6125  currentReward > 0 */\n      dup1\n      iszero\n        /* \"github/nobi/staking/contracts/MultiRewardsBeefSTEAK.sol\":6104:6364  if (currentReward > 0) {... */\n      tag_235\n      jumpi\n        /* \"github/nobi/staking/contracts/MultiRewardsBeefSTEAK.sol\":6154:6164  msg.sender */\n      caller\n        /* \"github/nobi/staking/contracts/MultiRewardsBeefSTEAK.sol\":6196:6197  0 */\n      0x00\n        /* \"github/nobi/staking/contracts/MultiRewardsBeefSTEAK.sol\":6145:6165  _rewards[msg.sender] */\n      swap1\n      dup2\n      mstore\n        /* \"github/nobi/staking/contracts/MultiRewardsBeefSTEAK.sol\":6145:6153  _rewards */\n      0x07\n        /* \"github/nobi/staking/contracts/MultiRewardsBeefSTEAK.sol\":6145:6165  _rewards[msg.sender] */\n      0x20\n      mstore\n      0x40\n      dup2\n      keccak256\n        /* \"github/nobi/staking/contracts/MultiRewardsBeefSTEAK.sol\":6196:6197  0 */\n      dup2\n        /* \"github/nobi/staking/contracts/MultiRewardsBeefSTEAK.sol\":6166:6179  _rewardTokens */\n      0x09\n        /* \"github/nobi/staking/contracts/MultiRewardsBeefSTEAK.sol\":6196:6197  0 */\n      dup2\n        /* \"github/nobi/staking/contracts/MultiRewardsBeefSTEAK.sol\":6180:6185  i + 1 */\n      tag_236\n        /* \"github/nobi/staking/contracts/MultiRewardsBeefSTEAK.sol\":6180:6181  i */\n      dup8\n        /* \"github/nobi/staking/contracts/MultiRewardsBeefSTEAK.sol\":6184:6185  1 */\n      0x01\n        /* \"github/nobi/staking/contracts/MultiRewardsBeefSTEAK.sol\":6180:6185  i + 1 */\n      tag_126\n      jump\t// in\n    tag_236:\n        /* \"github/nobi/staking/contracts/MultiRewardsBeefSTEAK.sol\":6166:6186  _rewardTokens[i + 1] */\n      dup2\n      mstore\n      0x20\n      dup1\n      dup3\n      add\n      swap3\n      swap1\n      swap3\n      mstore\n      0x40\n      swap1\n      dup2\n      add\n      0x00\n      swap1\n      dup2\n      keccak256\n        /* \"github/nobi/staking/contracts/MultiRewardsBeefSTEAK.sol\":6166:6192  _rewardTokens[i + 1].token */\n      sload\n      0xffffffffffffffffffffffffffffffffffffffff\n      and\n        /* \"github/nobi/staking/contracts/MultiRewardsBeefSTEAK.sol\":6145:6193  _rewards[msg.sender][_rewardTokens[i + 1].token] */\n      dup5\n      mstore\n      swap2\n      dup4\n      add\n      swap4\n      swap1\n      swap4\n      mstore\n      swap2\n      add\n      dup2\n      keccak256\n        /* \"github/nobi/staking/contracts/MultiRewardsBeefSTEAK.sol\":6145:6197  _rewards[msg.sender][_rewardTokens[i + 1].token] = 0 */\n      swap2\n      swap1\n      swap2\n      sstore\n        /* \"github/nobi/staking/contracts/MultiRewardsBeefSTEAK.sol\":6215:6289  IERC20(_rewardTokens[i + 1].token).safeTransfer(msg.sender, currentReward) */\n      tag_237\n      swap1\n        /* \"github/nobi/staking/contracts/MultiRewardsBeefSTEAK.sol\":6263:6273  msg.sender */\n      caller\n      swap1\n        /* \"github/nobi/staking/contracts/MultiRewardsBeefSTEAK.sol\":6275:6288  currentReward */\n      dup4\n      swap1\n        /* \"github/nobi/staking/contracts/MultiRewardsBeefSTEAK.sol\":6222:6235  _rewardTokens */\n      0x09\n      swap1\n        /* \"github/nobi/staking/contracts/MultiRewardsBeefSTEAK.sol\":6236:6241  i + 1 */\n      tag_238\n        /* \"github/nobi/staking/contracts/MultiRewardsBeefSTEAK.sol\":6236:6237  i */\n      dup8\n        /* \"github/nobi/staking/contracts/MultiRewardsBeefSTEAK.sol\":6166:6192  _rewardTokens[i + 1].token */\n      0x01\n        /* \"github/nobi/staking/contracts/MultiRewardsBeefSTEAK.sol\":6236:6241  i + 1 */\n      tag_126\n      jump\t// in\n    tag_238:\n        /* \"github/nobi/staking/contracts/MultiRewardsBeefSTEAK.sol\":6222:6242  _rewardTokens[i + 1] */\n      dup2\n      mstore\n      0x20\n      dup2\n      add\n      swap2\n      swap1\n      swap2\n      mstore\n      0x40\n      add\n      0x00\n      keccak256\n        /* \"github/nobi/staking/contracts/MultiRewardsBeefSTEAK.sol\":6222:6248  _rewardTokens[i + 1].token */\n      sload\n      0xffffffffffffffffffffffffffffffffffffffff\n      and\n      swap2\n        /* \"github/nobi/staking/contracts/MultiRewardsBeefSTEAK.sol\":6215:6289  IERC20(_rewardTokens[i + 1].token).safeTransfer(msg.sender, currentReward) */\n      swap1\n        /* \"github/nobi/staking/contracts/MultiRewardsBeefSTEAK.sol\":6215:6262  IERC20(_rewardTokens[i + 1].token).safeTransfer */\n      tag_212\n        /* \"github/nobi/staking/contracts/MultiRewardsBeefSTEAK.sol\":6215:6289  IERC20(_rewardTokens[i + 1].token).safeTransfer(msg.sender, currentReward) */\n      jump\t// in\n    tag_237:\n        /* \"github/nobi/staking/contracts/MultiRewardsBeefSTEAK.sol\":6312:6349  RewardPaid(msg.sender, currentReward) */\n      mload(0x40)\n        /* \"#utility.yul\":11308:11333   */\n      dup2\n      dup2\n      mstore\n        /* \"github/nobi/staking/contracts/MultiRewardsBeefSTEAK.sol\":6323:6333  msg.sender */\n      caller\n      swap1\n        /* \"github/nobi/staking/contracts/MultiRewardsBeefSTEAK.sol\":6312:6349  RewardPaid(msg.sender, currentReward) */\n      0xe2403640ba68fed3a2f88b7557551d1993f84b99bb10ff833f0cf8db0c5e0486\n      swap1\n        /* \"#utility.yul\":11296:11298   */\n      0x20\n        /* \"#utility.yul\":11281:11299   */\n      add\n        /* \"github/nobi/staking/contracts/MultiRewardsBeefSTEAK.sol\":6312:6349  RewardPaid(msg.sender, currentReward) */\n      mload(0x40)\n      dup1\n      swap2\n      sub\n      swap1\n      log2\n        /* \"github/nobi/staking/contracts/MultiRewardsBeefSTEAK.sol\":6104:6364  if (currentReward > 0) {... */\n    tag_235:\n      pop\n        /* \"github/nobi/staking/contracts/MultiRewardsBeefSTEAK.sol\":5999:6002  i++ */\n      dup1\n      tag_240\n      dup2\n      tag_138\n      jump\t// in\n    tag_240:\n      swap2\n      pop\n      pop\n        /* \"github/nobi/staking/contracts/MultiRewardsBeefSTEAK.sol\":5958:6374  for (uint i = 0; i < _totalRewardTokens; i++) {... */\n      jump(tag_231)\n    tag_232:\n      pop\n      pop\n        /* \"github/nobi/staking/contracts/helpers/ReentrancyGuard.sol\":1701:1702  1 */\n      0x01\n        /* \"github/nobi/staking/contracts/helpers/ReentrancyGuard.sol\":2628:2635  _status */\n      0x00\n        /* \"github/nobi/staking/contracts/helpers/ReentrancyGuard.sol\":2628:2650  _status = _NOT_ENTERED */\n      sstore\n      pop\n      pop\n        /* \"github/nobi/staking/contracts/MultiRewardsBeefSTEAK.sol\":5882:6380  function getReward() public nonReentrant updateReward(msg.sender) {... */\n      jump\t// out\n        /* \"github/nobi/staking/contracts/MultiRewardsBeefSTEAK.sol\":9830:10679  function removeRewardToken(address token) public onlyOwner updateReward(address(0)) {... */\n    tag_65:\n        /* \"github/nobi/staking/contracts/helpers/Ownable.sol\":1101:1107  _owner */\n      sload(0x01)\n        /* \"github/nobi/staking/contracts/helpers/Ownable.sol\":1241:1264  owner() == _msgSender() */\n      0xffffffffffffffffffffffffffffffffffffffff\n        /* \"github/nobi/staking/contracts/helpers/Ownable.sol\":1101:1107  _owner */\n      and\n        /* \"github/nobi/staking/contracts/helpers/Context.sol\":719:729  msg.sender */\n      caller\n        /* \"github/nobi/staking/contracts/helpers/Ownable.sol\":1241:1264  owner() == _msgSender() */\n      eq\n        /* \"github/nobi/staking/contracts/helpers/Ownable.sol\":1233:1301  require(owner() == _msgSender(), \"Ownable: caller is not the owner\") */\n      tag_244\n      jumpi\n      mload(0x40)\n      0x08c379a000000000000000000000000000000000000000000000000000000000\n      dup2\n      mstore\n        /* \"#utility.yul\":9177:9179   */\n      0x20\n        /* \"github/nobi/staking/contracts/helpers/Ownable.sol\":1233:1301  require(owner() == _msgSender(), \"Ownable: caller is not the owner\") */\n      0x04\n      dup3\n      add\n        /* \"#utility.yul\":9159:9180   */\n      dup2\n      swap1\n      mstore\n        /* \"#utility.yul\":9196:9214   */\n      0x24\n      dup3\n      add\n        /* \"#utility.yul\":9189:9219   */\n      mstore\n        /* \"#utility.yul\":9255:9289   */\n      0x4f776e61626c653a2063616c6c6572206973206e6f7420746865206f776e6572\n        /* \"#utility.yul\":9235:9253   */\n      0x44\n      dup3\n      add\n        /* \"#utility.yul\":9228:9290   */\n      mstore\n        /* \"#utility.yul\":9307:9325   */\n      0x64\n      add\n        /* \"github/nobi/staking/contracts/helpers/Ownable.sol\":1233:1301  require(owner() == _msgSender(), \"Ownable: caller is not the owner\") */\n      tag_146\n        /* \"#utility.yul\":9149:9331   */\n      jump\n        /* \"github/nobi/staking/contracts/helpers/Ownable.sol\":1233:1301  require(owner() == _msgSender(), \"Ownable: caller is not the owner\") */\n    tag_244:\n        /* \"github/nobi/staking/contracts/MultiRewardsBeefSTEAK.sol\":9910:9911  0 */\n      0x00\n        /* \"github/nobi/staking/contracts/MultiRewardsBeefSTEAK.sol\":11072:11104  uint256[] memory rewardsPerToken */\n      dup1\n        /* \"github/nobi/staking/contracts/MultiRewardsBeefSTEAK.sol\":11107:11123  rewardPerToken() */\n      tag_247\n        /* \"github/nobi/staking/contracts/MultiRewardsBeefSTEAK.sol\":11107:11121  rewardPerToken */\n      tag_105\n        /* \"github/nobi/staking/contracts/MultiRewardsBeefSTEAK.sol\":11107:11123  rewardPerToken() */\n      jump\t// in\n    tag_247:\n        /* \"github/nobi/staking/contracts/MultiRewardsBeefSTEAK.sol\":11072:11123  uint256[] memory rewardsPerToken = rewardPerToken() */\n      swap1\n      pop\n        /* \"github/nobi/staking/contracts/MultiRewardsBeefSTEAK.sol\":11133:11165  uint256[] memory currentEarnings */\n      0x00\n        /* \"github/nobi/staking/contracts/MultiRewardsBeefSTEAK.sol\":11168:11183  earned(account) */\n      tag_248\n        /* \"github/nobi/staking/contracts/MultiRewardsBeefSTEAK.sol\":11175:11182  account */\n      dup4\n        /* \"github/nobi/staking/contracts/MultiRewardsBeefSTEAK.sol\":11168:11174  earned */\n      tag_38\n        /* \"github/nobi/staking/contracts/MultiRewardsBeefSTEAK.sol\":11168:11183  earned(account) */\n      jump\t// in\n    tag_248:\n        /* \"github/nobi/staking/contracts/MultiRewardsBeefSTEAK.sol\":11133:11183  uint256[] memory currentEarnings = earned(account) */\n      swap1\n      pop\n        /* \"github/nobi/staking/contracts/MultiRewardsBeefSTEAK.sol\":11210:11236  lastTimeRewardApplicable() */\n      tag_249\n        /* \"github/nobi/staking/contracts/MultiRewardsBeefSTEAK.sol\":11210:11234  lastTimeRewardApplicable */\n      tag_84\n        /* \"github/nobi/staking/contracts/MultiRewardsBeefSTEAK.sol\":11210:11236  lastTimeRewardApplicable() */\n      jump\t// in\n    tag_249:\n        /* \"github/nobi/staking/contracts/MultiRewardsBeefSTEAK.sol\":11193:11207  lastUpdateTime */\n      0x05\n        /* \"github/nobi/staking/contracts/MultiRewardsBeefSTEAK.sol\":11193:11236  lastUpdateTime = lastTimeRewardApplicable() */\n      sstore\n        /* \"github/nobi/staking/contracts/MultiRewardsBeefSTEAK.sol\":11251:11257  uint i */\n      0x00\n        /* \"github/nobi/staking/contracts/MultiRewardsBeefSTEAK.sol\":11246:11674  for (uint i = 0; i < _totalRewardTokens; i++) {... */\n    tag_250:\n        /* \"github/nobi/staking/contracts/MultiRewardsBeefSTEAK.sol\":11267:11285  _totalRewardTokens */\n      sload(0x08)\n        /* \"github/nobi/staking/contracts/MultiRewardsBeefSTEAK.sol\":11263:11264  i */\n      dup2\n        /* \"github/nobi/staking/contracts/MultiRewardsBeefSTEAK.sol\":11263:11285  i < _totalRewardTokens */\n      lt\n        /* \"github/nobi/staking/contracts/MultiRewardsBeefSTEAK.sol\":11246:11674  for (uint i = 0; i < _totalRewardTokens; i++) {... */\n      iszero\n      tag_251\n      jumpi\n        /* \"github/nobi/staking/contracts/MultiRewardsBeefSTEAK.sol\":11306:11337  RewardToken storage rewardToken */\n      0x00\n        /* \"github/nobi/staking/contracts/MultiRewardsBeefSTEAK.sol\":11340:11353  _rewardTokens */\n      0x09\n        /* \"github/nobi/staking/contracts/MultiRewardsBeefSTEAK.sol\":11306:11337  RewardToken storage rewardToken */\n      dup2\n        /* \"github/nobi/staking/contracts/MultiRewardsBeefSTEAK.sol\":11354:11359  i + 1 */\n      tag_253\n        /* \"github/nobi/staking/contracts/MultiRewardsBeefSTEAK.sol\":11354:11355  i */\n      dup5\n        /* \"github/nobi/staking/contracts/MultiRewardsBeefSTEAK.sol\":11358:11359  1 */\n      0x01\n        /* \"github/nobi/staking/contracts/MultiRewardsBeefSTEAK.sol\":11354:11359  i + 1 */\n      tag_126\n      jump\t// in\n    tag_253:\n        /* \"github/nobi/staking/contracts/MultiRewardsBeefSTEAK.sol\":11340:11360  _rewardTokens[i + 1] */\n      dup2\n      mstore\n      0x20\n      add\n      swap1\n      dup2\n      mstore\n      0x20\n      add\n      0x00\n      keccak256\n        /* \"github/nobi/staking/contracts/MultiRewardsBeefSTEAK.sol\":11306:11360  RewardToken storage rewardToken = _rewardTokens[i + 1] */\n      swap1\n      pop\n        /* \"github/nobi/staking/contracts/MultiRewardsBeefSTEAK.sol\":11409:11424  rewardsPerToken */\n      dup4\n        /* \"github/nobi/staking/contracts/MultiRewardsBeefSTEAK.sol\":11425:11426  i */\n      dup3\n        /* \"github/nobi/staking/contracts/MultiRewardsBeefSTEAK.sol\":11409:11427  rewardsPerToken[i] */\n      dup2\n      mload\n      dup2\n      lt\n      tag_254\n      jumpi\n      mstore(0x00, 0x4e487b7100000000000000000000000000000000000000000000000000000000)\n      mstore(0x04, 0x32)\n      revert(0x00, 0x24)\n    tag_254:\n      0x20\n      swap1\n      dup2\n      mul\n      swap2\n      swap1\n      swap2\n      add\n      add\n      mload\n        /* \"github/nobi/staking/contracts/MultiRewardsBeefSTEAK.sol\":11374:11406  rewardToken.rewardPerTokenStored */\n      0x02\n      dup3\n      add\n        /* \"github/nobi/staking/contracts/MultiRewardsBeefSTEAK.sol\":11374:11427  rewardToken.rewardPerTokenStored = rewardsPerToken[i] */\n      sstore\n        /* \"github/nobi/staking/contracts/MultiRewardsBeefSTEAK.sol\":11445:11466  account != address(0) */\n      0xffffffffffffffffffffffffffffffffffffffff\n      dup6\n      and\n      iszero\n        /* \"github/nobi/staking/contracts/MultiRewardsBeefSTEAK.sol\":11441:11664  if (account != address(0)) {... */\n      tag_255\n      jumpi\n        /* \"github/nobi/staking/contracts/MultiRewardsBeefSTEAK.sol\":11525:11540  currentEarnings */\n      dup3\n        /* \"github/nobi/staking/contracts/MultiRewardsBeefSTEAK.sol\":11541:11542  i */\n      dup3\n        /* \"github/nobi/staking/contracts/MultiRewardsBeefSTEAK.sol\":11525:11543  currentEarnings[i] */\n      dup2\n      mload\n      dup2\n      lt\n      tag_256\n      jumpi\n      mstore(0x00, 0x4e487b7100000000000000000000000000000000000000000000000000000000)\n      mstore(0x04, 0x32)\n      revert(0x00, 0x24)\n    tag_256:\n      0x20\n      swap1\n      dup2\n      mul\n      swap2\n      swap1\n      swap2\n      add\n      dup2\n      add\n      mload\n        /* \"github/nobi/staking/contracts/MultiRewardsBeefSTEAK.sol\":11486:11503  _rewards[account] */\n      0xffffffffffffffffffffffffffffffffffffffff\n      dup1\n      dup9\n      and\n      0x00\n      swap1\n      dup2\n      mstore\n        /* \"github/nobi/staking/contracts/MultiRewardsBeefSTEAK.sol\":11486:11494  _rewards */\n      0x07\n        /* \"github/nobi/staking/contracts/MultiRewardsBeefSTEAK.sol\":11486:11503  _rewards[account] */\n      dup5\n      mstore\n      0x40\n      dup1\n      dup3\n      keccak256\n        /* \"github/nobi/staking/contracts/MultiRewardsBeefSTEAK.sol\":11504:11521  rewardToken.token */\n      dup7\n      sload\n      swap1\n      swap4\n      and\n        /* \"github/nobi/staking/contracts/MultiRewardsBeefSTEAK.sol\":11486:11522  _rewards[account][rewardToken.token] */\n      dup3\n      mstore\n      swap2\n      swap1\n      swap4\n      mstore\n      swap1\n      swap2\n      keccak256\n        /* \"github/nobi/staking/contracts/MultiRewardsBeefSTEAK.sol\":11486:11543  _rewards[account][rewardToken.token] = currentEarnings[i] */\n      sstore\n        /* \"github/nobi/staking/contracts/MultiRewardsBeefSTEAK.sol\":11615:11633  rewardsPerToken[i] */\n      dup4\n      mload\n        /* \"github/nobi/staking/contracts/MultiRewardsBeefSTEAK.sol\":11615:11630  rewardsPerToken */\n      dup5\n      swap1\n        /* \"github/nobi/staking/contracts/MultiRewardsBeefSTEAK.sol\":11631:11632  i */\n      dup4\n      swap1\n        /* \"github/nobi/staking/contracts/MultiRewardsBeefSTEAK.sol\":11615:11633  rewardsPerToken[i] */\n      dup2\n      lt\n      tag_257\n      jumpi\n      mstore(0x00, 0x4e487b7100000000000000000000000000000000000000000000000000000000)\n      mstore(0x04, 0x32)\n      revert(0x00, 0x24)\n    tag_257:\n      0x20\n      swap1\n      dup2\n      mul\n      swap2\n      swap1\n      swap2\n      add\n      dup2\n      add\n      mload\n        /* \"github/nobi/staking/contracts/MultiRewardsBeefSTEAK.sol\":11561:11593  _userRewardPerTokenPaid[account] */\n      0xffffffffffffffffffffffffffffffffffffffff\n      dup1\n      dup9\n      and\n      0x00\n      swap1\n      dup2\n      mstore\n        /* \"github/nobi/staking/contracts/MultiRewardsBeefSTEAK.sol\":11561:11584  _userRewardPerTokenPaid */\n      0x06\n        /* \"github/nobi/staking/contracts/MultiRewardsBeefSTEAK.sol\":11561:11593  _userRewardPerTokenPaid[account] */\n      dup5\n      mstore\n      0x40\n      dup1\n      dup3\n      keccak256\n        /* \"github/nobi/staking/contracts/MultiRewardsBeefSTEAK.sol\":11594:11611  rewardToken.token */\n      dup7\n      sload\n      swap1\n      swap4\n      and\n        /* \"github/nobi/staking/contracts/MultiRewardsBeefSTEAK.sol\":11561:11612  _userRewardPerTokenPaid[account][rewardToken.token] */\n      dup3\n      mstore\n      swap2\n      swap1\n      swap4\n      mstore\n      swap1\n      swap2\n      keccak256\n        /* \"github/nobi/staking/contracts/MultiRewardsBeefSTEAK.sol\":11561:11633  _userRewardPerTokenPaid[account][rewardToken.token] = rewardsPerToken[i] */\n      sstore\n        /* \"github/nobi/staking/contracts/MultiRewardsBeefSTEAK.sol\":11441:11664  if (account != address(0)) {... */\n    tag_255:\n      pop\n        /* \"github/nobi/staking/contracts/MultiRewardsBeefSTEAK.sol\":11287:11290  i++ */\n      dup1\n      tag_258\n      dup2\n      tag_138\n      jump\t// in\n    tag_258:\n      swap2\n      pop\n      pop\n        /* \"github/nobi/staking/contracts/MultiRewardsBeefSTEAK.sol\":11246:11674  for (uint i = 0; i < _totalRewardTokens; i++) {... */\n      jump(tag_250)\n    tag_251:\n      pop\n        /* \"github/nobi/staking/contracts/MultiRewardsBeefSTEAK.sol\":9953:9954  1 */\n      0x01\n        /* \"github/nobi/staking/contracts/MultiRewardsBeefSTEAK.sol\":9932:9950  _totalRewardTokens */\n      sload(0x08)\n        /* \"github/nobi/staking/contracts/MultiRewardsBeefSTEAK.sol\":9932:9954  _totalRewardTokens > 1 */\n      gt\n        /* \"github/nobi/staking/contracts/MultiRewardsBeefSTEAK.sol\":9924:9986  require(_totalRewardTokens > 1, \"Cannot have 0 reward tokens\") */\n      tag_260\n      jumpi\n      mload(0x40)\n      0x08c379a000000000000000000000000000000000000000000000000000000000\n      dup2\n      mstore\n        /* \"#utility.yul\":7027:7029   */\n      0x20\n        /* \"github/nobi/staking/contracts/MultiRewardsBeefSTEAK.sol\":9924:9986  require(_totalRewardTokens > 1, \"Cannot have 0 reward tokens\") */\n      0x04\n      dup3\n      add\n        /* \"#utility.yul\":7009:7030   */\n      mstore\n        /* \"#utility.yul\":7066:7068   */\n      0x1b\n        /* \"#utility.yul\":7046:7064   */\n      0x24\n      dup3\n      add\n        /* \"#utility.yul\":7039:7069   */\n      mstore\n        /* \"#utility.yul\":7105:7134   */\n      0x43616e6e6f74206861766520302072657761726420746f6b656e730000000000\n        /* \"#utility.yul\":7085:7103   */\n      0x44\n      dup3\n      add\n        /* \"#utility.yul\":7078:7135   */\n      mstore\n        /* \"#utility.yul\":7152:7170   */\n      0x64\n      add\n        /* \"github/nobi/staking/contracts/MultiRewardsBeefSTEAK.sol\":9924:9986  require(_totalRewardTokens > 1, \"Cannot have 0 reward tokens\") */\n      tag_146\n        /* \"#utility.yul\":6999:7176   */\n      jump\n        /* \"github/nobi/staking/contracts/MultiRewardsBeefSTEAK.sol\":9924:9986  require(_totalRewardTokens > 1, \"Cannot have 0 reward tokens\") */\n    tag_260:\n        /* \"github/nobi/staking/contracts/MultiRewardsBeefSTEAK.sol\":10061:10087  _rewardTokenToIndex[token] */\n      0xffffffffffffffffffffffffffffffffffffffff\n      dup5\n      and\n        /* \"github/nobi/staking/contracts/MultiRewardsBeefSTEAK.sol\":10040:10058  uint indexToDelete */\n      0x00\n        /* \"github/nobi/staking/contracts/MultiRewardsBeefSTEAK.sol\":10061:10087  _rewardTokenToIndex[token] */\n      swap1\n      dup2\n      mstore\n        /* \"github/nobi/staking/contracts/MultiRewardsBeefSTEAK.sol\":10061:10080  _rewardTokenToIndex */\n      0x0a\n        /* \"github/nobi/staking/contracts/MultiRewardsBeefSTEAK.sol\":10061:10087  _rewardTokenToIndex[token] */\n      0x20\n      mstore\n      0x40\n      swap1\n      keccak256\n      sload\n      dup1\n        /* \"github/nobi/staking/contracts/MultiRewardsBeefSTEAK.sol\":10191:10639  for (uint i = indexToDelete; i <= _totalRewardTokens; i++) {... */\n    tag_263:\n        /* \"github/nobi/staking/contracts/MultiRewardsBeefSTEAK.sol\":10225:10243  _totalRewardTokens */\n      sload(0x08)\n        /* \"github/nobi/staking/contracts/MultiRewardsBeefSTEAK.sol\":10220:10221  i */\n      dup2\n        /* \"github/nobi/staking/contracts/MultiRewardsBeefSTEAK.sol\":10220:10243  i <= _totalRewardTokens */\n      gt\n        /* \"github/nobi/staking/contracts/MultiRewardsBeefSTEAK.sol\":10191:10639  for (uint i = indexToDelete; i <= _totalRewardTokens; i++) {... */\n      tag_264\n      jumpi\n        /* \"github/nobi/staking/contracts/MultiRewardsBeefSTEAK.sol\":10308:10339  RewardToken storage rewardToken */\n      0x00\n        /* \"github/nobi/staking/contracts/MultiRewardsBeefSTEAK.sol\":10342:10355  _rewardTokens */\n      0x09\n        /* \"github/nobi/staking/contracts/MultiRewardsBeefSTEAK.sol\":10308:10339  RewardToken storage rewardToken */\n      dup2\n        /* \"github/nobi/staking/contracts/MultiRewardsBeefSTEAK.sol\":10356:10361  i + 1 */\n      tag_266\n        /* \"github/nobi/staking/contracts/MultiRewardsBeefSTEAK.sol\":10356:10357  i */\n      dup5\n        /* \"github/nobi/staking/contracts/MultiRewardsBeefSTEAK.sol\":10360:10361  1 */\n      0x01\n        /* \"github/nobi/staking/contracts/MultiRewardsBeefSTEAK.sol\":10356:10361  i + 1 */\n      tag_126\n      jump\t// in\n    tag_266:\n        /* \"github/nobi/staking/contracts/MultiRewardsBeefSTEAK.sol\":10342:10362  _rewardTokens[i + 1] */\n      dup2\n      mstore\n      0x20\n      dup1\n      dup3\n      add\n      swap3\n      swap1\n      swap3\n      mstore\n      0x40\n      swap1\n      dup2\n      add\n      0x00\n      swap1\n      dup2\n      keccak256\n        /* \"github/nobi/staking/contracts/MultiRewardsBeefSTEAK.sol\":10439:10455  _rewardTokens[i] */\n      dup6\n      dup3\n      mstore\n        /* \"github/nobi/staking/contracts/MultiRewardsBeefSTEAK.sol\":10439:10452  _rewardTokens */\n      0x09\n        /* \"github/nobi/staking/contracts/MultiRewardsBeefSTEAK.sol\":10439:10455  _rewardTokens[i] */\n      swap4\n      dup5\n      swap1\n      mstore\n      swap2\n      dup2\n      keccak256\n        /* \"github/nobi/staking/contracts/MultiRewardsBeefSTEAK.sol\":10439:10469  _rewardTokens[i] = rewardToken */\n      dup3\n      sload\n      dup2\n      sload\n      0xffffffffffffffffffffffff0000000000000000000000000000000000000000\n      and\n      0xffffffffffffffffffffffffffffffffffffffff\n      swap1\n      swap2\n      and\n      or\n      dup2\n      sstore\n      0x01\n      dup1\n      dup5\n      add\n      sload\n      dup2\n      dup4\n      add\n      sstore\n      0x02\n      dup1\n      dup6\n      add\n      sload\n      swap3\n      add\n      swap2\n      swap1\n      swap2\n      sstore\n        /* \"github/nobi/staking/contracts/MultiRewardsBeefSTEAK.sol\":10342:10362  _rewardTokens[i + 1] */\n      swap2\n      swap4\n      pop\n      swap1\n        /* \"github/nobi/staking/contracts/MultiRewardsBeefSTEAK.sol\":10536:10541  i + 1 */\n      tag_267\n      swap1\n        /* \"github/nobi/staking/contracts/MultiRewardsBeefSTEAK.sol\":10453:10454  i */\n      dup6\n      swap1\n        /* \"github/nobi/staking/contracts/MultiRewardsBeefSTEAK.sol\":10536:10541  i + 1 */\n      tag_126\n      jump\t// in\n    tag_267:\n        /* \"github/nobi/staking/contracts/MultiRewardsBeefSTEAK.sol\":10522:10542  _rewardTokens[i + 1] */\n      dup2\n      mstore\n      0x20\n      dup1\n      dup3\n      add\n      swap3\n      swap1\n      swap3\n      mstore\n      0x40\n      swap1\n      dup2\n      add\n      0x00\n      swap1\n      dup2\n      keccak256\n        /* \"github/nobi/staking/contracts/MultiRewardsBeefSTEAK.sol\":10515:10542  delete _rewardTokens[i + 1] */\n      dup1\n      sload\n      0xffffffffffffffffffffffff0000000000000000000000000000000000000000\n      and\n      dup2\n      sstore\n      0x01\n      dup2\n      add\n      dup3\n      swap1\n      sstore\n      0x02\n      add\n      dup2\n      swap1\n      sstore\n        /* \"github/nobi/staking/contracts/MultiRewardsBeefSTEAK.sol\":10606:10623  rewardToken.token */\n      swap3\n      sload\n        /* \"github/nobi/staking/contracts/MultiRewardsBeefSTEAK.sol\":10515:10542  delete _rewardTokens[i + 1] */\n      0xffffffffffffffffffffffffffffffffffffffff\n        /* \"github/nobi/staking/contracts/MultiRewardsBeefSTEAK.sol\":10606:10623  rewardToken.token */\n      and\n        /* \"github/nobi/staking/contracts/MultiRewardsBeefSTEAK.sol\":10586:10624  _rewardTokenToIndex[rewardToken.token] */\n      dup4\n      mstore\n        /* \"github/nobi/staking/contracts/MultiRewardsBeefSTEAK.sol\":10586:10605  _rewardTokenToIndex */\n      0x0a\n        /* \"github/nobi/staking/contracts/MultiRewardsBeefSTEAK.sol\":10586:10624  _rewardTokenToIndex[rewardToken.token] */\n      swap1\n      swap2\n      mstore\n      swap1\n      keccak256\n        /* \"github/nobi/staking/contracts/MultiRewardsBeefSTEAK.sol\":10586:10628  _rewardTokenToIndex[rewardToken.token] = i */\n      dup2\n      swap1\n      sstore\n        /* \"github/nobi/staking/contracts/MultiRewardsBeefSTEAK.sol\":10627:10628  i */\n      dup1\n        /* \"github/nobi/staking/contracts/MultiRewardsBeefSTEAK.sol\":10245:10248  i++ */\n      tag_268\n        /* \"github/nobi/staking/contracts/MultiRewardsBeefSTEAK.sol\":10627:10628  i */\n      dup2\n        /* \"github/nobi/staking/contracts/MultiRewardsBeefSTEAK.sol\":10245:10248  i++ */\n      tag_138\n      jump\t// in\n    tag_268:\n      swap2\n      pop\n      pop\n        /* \"github/nobi/staking/contracts/MultiRewardsBeefSTEAK.sol\":10191:10639  for (uint i = indexToDelete; i <= _totalRewardTokens; i++) {... */\n      jump(tag_263)\n    tag_264:\n      pop\n        /* \"github/nobi/staking/contracts/MultiRewardsBeefSTEAK.sol\":10671:10672  1 */\n      0x01\n        /* \"github/nobi/staking/contracts/MultiRewardsBeefSTEAK.sol\":10649:10667  _totalRewardTokens */\n      0x08\n      0x00\n        /* \"github/nobi/staking/contracts/MultiRewardsBeefSTEAK.sol\":10649:10672  _totalRewardTokens -= 1 */\n      dup3\n      dup3\n      sload\n      tag_269\n      swap2\n      swap1\n      tag_168\n      jump\t// in\n    tag_269:\n      swap1\n      swap2\n      sstore\n      pop\n      pop\n      pop\n      pop\n      pop\n      pop\n      pop\n        /* \"github/nobi/staking/contracts/MultiRewardsBeefSTEAK.sol\":9830:10679  function removeRewardToken(address token) public onlyOwner updateReward(address(0)) {... */\n      jump\t// out\n        /* \"github/nobi/staking/contracts/MultiRewardsBeefSTEAK.sol\":6526:7913  function depositRewardTokens(uint256[] memory amount) external onlyOwner {... */\n    tag_69:\n        /* \"github/nobi/staking/contracts/helpers/Ownable.sol\":1101:1107  _owner */\n      sload(0x01)\n        /* \"github/nobi/staking/contracts/helpers/Ownable.sol\":1241:1264  owner() == _msgSender() */\n      0xffffffffffffffffffffffffffffffffffffffff\n        /* \"github/nobi/staking/contracts/helpers/Ownable.sol\":1101:1107  _owner */\n      and\n        /* \"github/nobi/staking/contracts/helpers/Context.sol\":719:729  msg.sender */\n      caller\n        /* \"github/nobi/staking/contracts/helpers/Ownable.sol\":1241:1264  owner() == _msgSender() */\n      eq\n        /* \"github/nobi/staking/contracts/helpers/Ownable.sol\":1233:1301  require(owner() == _msgSender(), \"Ownable: caller is not the owner\") */\n      tag_273\n      jumpi\n      mload(0x40)\n      0x08c379a000000000000000000000000000000000000000000000000000000000\n      dup2\n      mstore\n        /* \"#utility.yul\":9177:9179   */\n      0x20\n        /* \"github/nobi/staking/contracts/helpers/Ownable.sol\":1233:1301  require(owner() == _msgSender(), \"Ownable: caller is not the owner\") */\n      0x04\n      dup3\n      add\n        /* \"#utility.yul\":9159:9180   */\n      dup2\n      swap1\n      mstore\n        /* \"#utility.yul\":9196:9214   */\n      0x24\n      dup3\n      add\n        /* \"#utility.yul\":9189:9219   */\n      mstore\n        /* \"#utility.yul\":9255:9289   */\n      0x4f776e61626c653a2063616c6c6572206973206e6f7420746865206f776e6572\n        /* \"#utility.yul\":9235:9253   */\n      0x44\n      dup3\n      add\n        /* \"#utility.yul\":9228:9290   */\n      mstore\n        /* \"#utility.yul\":9307:9325   */\n      0x64\n      add\n        /* \"github/nobi/staking/contracts/helpers/Ownable.sol\":1233:1301  require(owner() == _msgSender(), \"Ownable: caller is not the owner\") */\n      tag_146\n        /* \"#utility.yul\":9149:9331   */\n      jump\n        /* \"github/nobi/staking/contracts/helpers/Ownable.sol\":1233:1301  require(owner() == _msgSender(), \"Ownable: caller is not the owner\") */\n    tag_273:\n        /* \"github/nobi/staking/contracts/MultiRewardsBeefSTEAK.sol\":6634:6652  _totalRewardTokens */\n      sload(0x08)\n        /* \"github/nobi/staking/contracts/MultiRewardsBeefSTEAK.sol\":6617:6623  amount */\n      dup2\n        /* \"github/nobi/staking/contracts/MultiRewardsBeefSTEAK.sol\":6617:6630  amount.length */\n      mload\n        /* \"github/nobi/staking/contracts/MultiRewardsBeefSTEAK.sol\":6617:6652  amount.length == _totalRewardTokens */\n      eq\n        /* \"github/nobi/staking/contracts/MultiRewardsBeefSTEAK.sol\":6609:6670  require(amount.length == _totalRewardTokens, \"Wrong amounts\") */\n      tag_276\n      jumpi\n      mload(0x40)\n      0x08c379a000000000000000000000000000000000000000000000000000000000\n      dup2\n      mstore\n        /* \"#utility.yul\":8489:8491   */\n      0x20\n        /* \"github/nobi/staking/contracts/MultiRewardsBeefSTEAK.sol\":6609:6670  require(amount.length == _totalRewardTokens, \"Wrong amounts\") */\n      0x04\n      dup3\n      add\n        /* \"#utility.yul\":8471:8492   */\n      mstore\n        /* \"#utility.yul\":8528:8530   */\n      0x0d\n        /* \"#utility.yul\":8508:8526   */\n      0x24\n      dup3\n      add\n        /* \"#utility.yul\":8501:8531   */\n      mstore\n        /* \"#utility.yul\":8567:8582   */\n      0x57726f6e6720616d6f756e747300000000000000000000000000000000000000\n        /* \"#utility.yul\":8547:8565   */\n      0x44\n      dup3\n      add\n        /* \"#utility.yul\":8540:8583   */\n      mstore\n        /* \"#utility.yul\":8600:8618   */\n      0x64\n      add\n        /* \"github/nobi/staking/contracts/MultiRewardsBeefSTEAK.sol\":6609:6670  require(amount.length == _totalRewardTokens, \"Wrong amounts\") */\n      tag_146\n        /* \"#utility.yul\":8461:8624   */\n      jump\n        /* \"github/nobi/staking/contracts/MultiRewardsBeefSTEAK.sol\":6609:6670  require(amount.length == _totalRewardTokens, \"Wrong amounts\") */\n    tag_276:\n        /* \"github/nobi/staking/contracts/MultiRewardsBeefSTEAK.sol\":6762:6768  uint i */\n      0x00\n        /* \"github/nobi/staking/contracts/MultiRewardsBeefSTEAK.sol\":6757:7759  for (uint i = 0; i < _totalRewardTokens; i++) {... */\n    tag_279:\n        /* \"github/nobi/staking/contracts/MultiRewardsBeefSTEAK.sol\":6778:6796  _totalRewardTokens */\n      sload(0x08)\n        /* \"github/nobi/staking/contracts/MultiRewardsBeefSTEAK.sol\":6774:6775  i */\n      dup2\n        /* \"github/nobi/staking/contracts/MultiRewardsBeefSTEAK.sol\":6774:6796  i < _totalRewardTokens */\n      lt\n        /* \"github/nobi/staking/contracts/MultiRewardsBeefSTEAK.sol\":6757:7759  for (uint i = 0; i < _totalRewardTokens; i++) {... */\n      iszero\n      tag_280\n      jumpi\n        /* \"github/nobi/staking/contracts/MultiRewardsBeefSTEAK.sol\":6817:6848  RewardToken storage rewardToken */\n      0x00\n        /* \"github/nobi/staking/contracts/MultiRewardsBeefSTEAK.sol\":6851:6864  _rewardTokens */\n      0x09\n        /* \"github/nobi/staking/contracts/MultiRewardsBeefSTEAK.sol\":6817:6848  RewardToken storage rewardToken */\n      dup2\n        /* \"github/nobi/staking/contracts/MultiRewardsBeefSTEAK.sol\":6865:6870  i + 1 */\n      tag_282\n        /* \"github/nobi/staking/contracts/MultiRewardsBeefSTEAK.sol\":6865:6866  i */\n      dup5\n        /* \"github/nobi/staking/contracts/MultiRewardsBeefSTEAK.sol\":6869:6870  1 */\n      0x01\n        /* \"github/nobi/staking/contracts/MultiRewardsBeefSTEAK.sol\":6865:6870  i + 1 */\n      tag_126\n      jump\t// in\n    tag_282:\n        /* \"github/nobi/staking/contracts/MultiRewardsBeefSTEAK.sol\":6851:6871  _rewardTokens[i + 1] */\n      dup2\n      mstore\n      0x20\n      dup2\n      add\n      swap2\n      swap1\n      swap2\n      mstore\n      0x40\n      swap1\n      dup2\n      add\n      0x00\n      swap1\n      dup2\n      keccak256\n        /* \"github/nobi/staking/contracts/MultiRewardsBeefSTEAK.sol\":6914:6931  rewardToken.token */\n      dup1\n      sload\n        /* \"github/nobi/staking/contracts/MultiRewardsBeefSTEAK.sol\":6907:6957  IERC20(rewardToken.token).balanceOf(address(this)) */\n      swap3\n      mload\n      0x70a0823100000000000000000000000000000000000000000000000000000000\n      dup2\n      mstore\n        /* \"github/nobi/staking/contracts/MultiRewardsBeefSTEAK.sol\":6951:6955  this */\n      address\n        /* \"github/nobi/staking/contracts/MultiRewardsBeefSTEAK.sol\":6907:6957  IERC20(rewardToken.token).balanceOf(address(this)) */\n      0x04\n      dup3\n      add\n        /* \"#utility.yul\":2704:2778   */\n      mstore\n        /* \"github/nobi/staking/contracts/MultiRewardsBeefSTEAK.sol\":6851:6871  _rewardTokens[i + 1] */\n      swap1\n      swap4\n      pop\n      swap1\n      swap2\n        /* \"github/nobi/staking/contracts/MultiRewardsBeefSTEAK.sol\":6914:6931  rewardToken.token */\n      0xffffffffffffffffffffffffffffffffffffffff\n      and\n      swap1\n        /* \"github/nobi/staking/contracts/MultiRewardsBeefSTEAK.sol\":6907:6942  IERC20(rewardToken.token).balanceOf */\n      0x70a08231\n      swap1\n        /* \"#utility.yul\":2677:2695   */\n      0x24\n      add\n        /* \"github/nobi/staking/contracts/MultiRewardsBeefSTEAK.sol\":6907:6957  IERC20(rewardToken.token).balanceOf(address(this)) */\n      0x20\n      mload(0x40)\n      dup1\n      dup4\n      sub\n      dup2\n      dup7\n      dup1\n      extcodesize\n      iszero\n      dup1\n      iszero\n      tag_284\n      jumpi\n      0x00\n      dup1\n      revert\n    tag_284:\n      pop\n      gas\n      staticcall\n      iszero\n      dup1\n      iszero\n      tag_286\n      jumpi\n      returndatasize\n      0x00\n      dup1\n      returndatacopy\n      revert(0x00, returndatasize)\n    tag_286:\n      pop\n      pop\n      pop\n      pop\n      mload(0x40)\n      returndatasize\n      not(0x1f)\n      0x1f\n      dup3\n      add\n      and\n      dup3\n      add\n      dup1\n      0x40\n      mstore\n      pop\n      dup2\n      add\n      swap1\n      tag_287\n      swap2\n      swap1\n      tag_157\n      jump\t// in\n    tag_287:\n        /* \"github/nobi/staking/contracts/MultiRewardsBeefSTEAK.sol\":6885:6957  uint256 prevBalance = IERC20(rewardToken.token).balanceOf(address(this)) */\n      swap1\n      pop\n        /* \"github/nobi/staking/contracts/MultiRewardsBeefSTEAK.sol\":6971:7051  IERC20(rewardToken.token).safeTransferFrom(msg.sender, address(this), amount[i]) */\n      tag_288\n        /* \"github/nobi/staking/contracts/MultiRewardsBeefSTEAK.sol\":7014:7024  msg.sender */\n      caller\n        /* \"github/nobi/staking/contracts/MultiRewardsBeefSTEAK.sol\":7034:7038  this */\n      address\n        /* \"github/nobi/staking/contracts/MultiRewardsBeefSTEAK.sol\":7041:7047  amount */\n      dup7\n        /* \"github/nobi/staking/contracts/MultiRewardsBeefSTEAK.sol\":7048:7049  i */\n      dup7\n        /* \"github/nobi/staking/contracts/MultiRewardsBeefSTEAK.sol\":7041:7050  amount[i] */\n      dup2\n      mload\n      dup2\n      lt\n      tag_289\n      jumpi\n      mstore(0x00, 0x4e487b7100000000000000000000000000000000000000000000000000000000)\n      mstore(0x04, 0x32)\n      revert(0x00, 0x24)\n    tag_289:\n      0x20\n      swap1\n      dup2\n      mul\n      swap2\n      swap1\n      swap2\n      add\n      add\n      mload\n        /* \"github/nobi/staking/contracts/MultiRewardsBeefSTEAK.sol\":6978:6995  rewardToken.token */\n      dup6\n      sload\n      0xffffffffffffffffffffffffffffffffffffffff\n      and\n      swap3\n        /* \"github/nobi/staking/contracts/MultiRewardsBeefSTEAK.sol\":6971:7051  IERC20(rewardToken.token).safeTransferFrom(msg.sender, address(this), amount[i]) */\n      swap2\n      swap1\n        /* \"github/nobi/staking/contracts/MultiRewardsBeefSTEAK.sol\":6971:7013  IERC20(rewardToken.token).safeTransferFrom */\n      tag_290\n        /* \"github/nobi/staking/contracts/MultiRewardsBeefSTEAK.sol\":6971:7051  IERC20(rewardToken.token).safeTransferFrom(msg.sender, address(this), amount[i]) */\n      jump\t// in\n    tag_288:\n        /* \"github/nobi/staking/contracts/MultiRewardsBeefSTEAK.sol\":7086:7103  rewardToken.token */\n      dup2\n      sload\n        /* \"github/nobi/staking/contracts/MultiRewardsBeefSTEAK.sol\":7079:7129  IERC20(rewardToken.token).balanceOf(address(this)) */\n      mload(0x40)\n      0x70a0823100000000000000000000000000000000000000000000000000000000\n      dup2\n      mstore\n        /* \"github/nobi/staking/contracts/MultiRewardsBeefSTEAK.sol\":7123:7127  this */\n      address\n        /* \"github/nobi/staking/contracts/MultiRewardsBeefSTEAK.sol\":7079:7129  IERC20(rewardToken.token).balanceOf(address(this)) */\n      0x04\n      dup3\n      add\n        /* \"#utility.yul\":2704:2778   */\n      mstore\n        /* \"github/nobi/staking/contracts/MultiRewardsBeefSTEAK.sol\":7065:7076  uint reward */\n      0x00\n      swap2\n        /* \"github/nobi/staking/contracts/MultiRewardsBeefSTEAK.sol\":7079:7146  IERC20(rewardToken.token).balanceOf(address(this)).sub(prevBalance) */\n      tag_291\n      swap2\n        /* \"github/nobi/staking/contracts/MultiRewardsBeefSTEAK.sol\":7134:7145  prevBalance */\n      dup5\n      swap2\n        /* \"github/nobi/staking/contracts/MultiRewardsBeefSTEAK.sol\":7086:7103  rewardToken.token */\n      0xffffffffffffffffffffffffffffffffffffffff\n      and\n      swap1\n        /* \"github/nobi/staking/contracts/MultiRewardsBeefSTEAK.sol\":7079:7114  IERC20(rewardToken.token).balanceOf */\n      0x70a08231\n      swap1\n        /* \"#utility.yul\":2677:2695   */\n      0x24\n      add\n        /* \"github/nobi/staking/contracts/MultiRewardsBeefSTEAK.sol\":7079:7129  IERC20(rewardToken.token).balanceOf(address(this)) */\n      0x20\n      mload(0x40)\n      dup1\n      dup4\n      sub\n      dup2\n      dup7\n      dup1\n      extcodesize\n      iszero\n      dup1\n      iszero\n      tag_293\n      jumpi\n      0x00\n      dup1\n      revert\n    tag_293:\n      pop\n      gas\n      staticcall\n      iszero\n      dup1\n      iszero\n      tag_295\n      jumpi\n      returndatasize\n      0x00\n      dup1\n      returndatacopy\n      revert(0x00, returndatasize)\n    tag_295:\n      pop\n      pop\n      pop\n      pop\n      mload(0x40)\n      returndatasize\n      not(0x1f)\n      0x1f\n      dup3\n      add\n      and\n      dup3\n      add\n      dup1\n      0x40\n      mstore\n      pop\n      dup2\n      add\n      swap1\n      tag_296\n      swap2\n      swap1\n      tag_157\n      jump\t// in\n    tag_296:\n        /* \"github/nobi/staking/contracts/MultiRewardsBeefSTEAK.sol\":7079:7133  IERC20(rewardToken.token).balanceOf(address(this)).sub */\n      swap1\n      tag_132\n        /* \"github/nobi/staking/contracts/MultiRewardsBeefSTEAK.sol\":7079:7146  IERC20(rewardToken.token).balanceOf(address(this)).sub(prevBalance) */\n      jump\t// in\n    tag_291:\n        /* \"github/nobi/staking/contracts/MultiRewardsBeefSTEAK.sol\":7065:7146  uint reward = IERC20(rewardToken.token).balanceOf(address(this)).sub(prevBalance) */\n      swap1\n      pop\n        /* \"github/nobi/staking/contracts/MultiRewardsBeefSTEAK.sol\":7183:7195  periodFinish */\n      sload(0x03)\n        /* \"github/nobi/staking/contracts/MultiRewardsBeefSTEAK.sol\":7164:7179  block.timestamp */\n      timestamp\n        /* \"github/nobi/staking/contracts/MultiRewardsBeefSTEAK.sol\":7164:7195  block.timestamp >= periodFinish */\n      lt\n        /* \"github/nobi/staking/contracts/MultiRewardsBeefSTEAK.sol\":7160:7532  if (block.timestamp >= periodFinish) {... */\n      tag_297\n      jumpi\n        /* \"github/nobi/staking/contracts/MultiRewardsBeefSTEAK.sol\":7251:7266  rewardsDuration */\n      sload(0x04)\n        /* \"github/nobi/staking/contracts/MultiRewardsBeefSTEAK.sol\":7240:7267  reward.div(rewardsDuration) */\n      tag_298\n      swap1\n        /* \"github/nobi/staking/contracts/MultiRewardsBeefSTEAK.sol\":7240:7246  reward */\n      dup3\n      swap1\n        /* \"github/nobi/staking/contracts/MultiRewardsBeefSTEAK.sol\":7240:7250  reward.div */\n      tag_134\n        /* \"github/nobi/staking/contracts/MultiRewardsBeefSTEAK.sol\":7240:7267  reward.div(rewardsDuration) */\n      jump\t// in\n    tag_298:\n        /* \"github/nobi/staking/contracts/MultiRewardsBeefSTEAK.sol\":7215:7237  rewardToken.rewardRate */\n      0x01\n      dup5\n      add\n        /* \"github/nobi/staking/contracts/MultiRewardsBeefSTEAK.sol\":7215:7267  rewardToken.rewardRate = reward.div(rewardsDuration) */\n      sstore\n        /* \"github/nobi/staking/contracts/MultiRewardsBeefSTEAK.sol\":7160:7532  if (block.timestamp >= periodFinish) {... */\n      jump(tag_299)\n    tag_297:\n        /* \"github/nobi/staking/contracts/MultiRewardsBeefSTEAK.sol\":7326:7338  periodFinish */\n      sload(0x03)\n        /* \"github/nobi/staking/contracts/MultiRewardsBeefSTEAK.sol\":7306:7323  uint256 remaining */\n      0x00\n      swap1\n        /* \"github/nobi/staking/contracts/MultiRewardsBeefSTEAK.sol\":7326:7359  periodFinish.sub(block.timestamp) */\n      tag_300\n      swap1\n        /* \"github/nobi/staking/contracts/MultiRewardsBeefSTEAK.sol\":7343:7358  block.timestamp */\n      timestamp\n        /* \"github/nobi/staking/contracts/MultiRewardsBeefSTEAK.sol\":7326:7342  periodFinish.sub */\n      tag_132\n        /* \"github/nobi/staking/contracts/MultiRewardsBeefSTEAK.sol\":7326:7359  periodFinish.sub(block.timestamp) */\n      jump\t// in\n    tag_300:\n        /* \"github/nobi/staking/contracts/MultiRewardsBeefSTEAK.sol\":7306:7359  uint256 remaining = periodFinish.sub(block.timestamp) */\n      swap1\n      pop\n        /* \"github/nobi/staking/contracts/MultiRewardsBeefSTEAK.sol\":7377:7393  uint256 leftover */\n      0x00\n        /* \"github/nobi/staking/contracts/MultiRewardsBeefSTEAK.sol\":7396:7433  remaining.mul(rewardToken.rewardRate) */\n      tag_301\n        /* \"github/nobi/staking/contracts/MultiRewardsBeefSTEAK.sol\":7410:7421  rewardToken */\n      dup6\n        /* \"github/nobi/staking/contracts/MultiRewardsBeefSTEAK.sol\":7410:7432  rewardToken.rewardRate */\n      0x01\n      add\n      sload\n        /* \"github/nobi/staking/contracts/MultiRewardsBeefSTEAK.sol\":7396:7405  remaining */\n      dup4\n        /* \"github/nobi/staking/contracts/MultiRewardsBeefSTEAK.sol\":7396:7409  remaining.mul */\n      tag_133\n      swap1\n        /* \"github/nobi/staking/contracts/MultiRewardsBeefSTEAK.sol\":7396:7433  remaining.mul(rewardToken.rewardRate) */\n      swap2\n      swap1\n      0xffffffff\n      and\n      jump\t// in\n    tag_301:\n        /* \"github/nobi/staking/contracts/MultiRewardsBeefSTEAK.sol\":7501:7516  rewardsDuration */\n      sload(0x04)\n        /* \"github/nobi/staking/contracts/MultiRewardsBeefSTEAK.sol\":7377:7433  uint256 leftover = remaining.mul(rewardToken.rewardRate) */\n      swap1\n      swap2\n      pop\n        /* \"github/nobi/staking/contracts/MultiRewardsBeefSTEAK.sol\":7476:7517  reward.add(leftover).div(rewardsDuration) */\n      tag_302\n      swap1\n        /* \"github/nobi/staking/contracts/MultiRewardsBeefSTEAK.sol\":7476:7496  reward.add(leftover) */\n      tag_129\n        /* \"github/nobi/staking/contracts/MultiRewardsBeefSTEAK.sol\":7476:7482  reward */\n      dup6\n        /* \"github/nobi/staking/contracts/MultiRewardsBeefSTEAK.sol\":7377:7433  uint256 leftover = remaining.mul(rewardToken.rewardRate) */\n      dup5\n        /* \"github/nobi/staking/contracts/MultiRewardsBeefSTEAK.sol\":7476:7486  reward.add */\n      tag_135\n        /* \"github/nobi/staking/contracts/MultiRewardsBeefSTEAK.sol\":7476:7496  reward.add(leftover) */\n      jump\t// in\n        /* \"github/nobi/staking/contracts/MultiRewardsBeefSTEAK.sol\":7476:7517  reward.add(leftover).div(rewardsDuration) */\n    tag_302:\n        /* \"github/nobi/staking/contracts/MultiRewardsBeefSTEAK.sol\":7451:7473  rewardToken.rewardRate */\n      0x01\n      dup7\n      add\n        /* \"github/nobi/staking/contracts/MultiRewardsBeefSTEAK.sol\":7451:7517  rewardToken.rewardRate = reward.add(leftover).div(rewardsDuration) */\n      sstore\n      pop\n      pop\n        /* \"github/nobi/staking/contracts/MultiRewardsBeefSTEAK.sol\":7160:7532  if (block.timestamp >= periodFinish) {... */\n    tag_299:\n        /* \"github/nobi/staking/contracts/MultiRewardsBeefSTEAK.sol\":7571:7588  rewardToken.token */\n      dup3\n      sload\n        /* \"github/nobi/staking/contracts/MultiRewardsBeefSTEAK.sol\":7564:7614  IERC20(rewardToken.token).balanceOf(address(this)) */\n      mload(0x40)\n      0x70a0823100000000000000000000000000000000000000000000000000000000\n      dup2\n      mstore\n        /* \"github/nobi/staking/contracts/MultiRewardsBeefSTEAK.sol\":7608:7612  this */\n      address\n        /* \"github/nobi/staking/contracts/MultiRewardsBeefSTEAK.sol\":7564:7614  IERC20(rewardToken.token).balanceOf(address(this)) */\n      0x04\n      dup3\n      add\n        /* \"#utility.yul\":2704:2778   */\n      mstore\n        /* \"github/nobi/staking/contracts/MultiRewardsBeefSTEAK.sol\":7546:7561  uint256 balance */\n      0x00\n      swap2\n        /* \"github/nobi/staking/contracts/MultiRewardsBeefSTEAK.sol\":7571:7588  rewardToken.token */\n      0xffffffffffffffffffffffffffffffffffffffff\n      and\n      swap1\n        /* \"github/nobi/staking/contracts/MultiRewardsBeefSTEAK.sol\":7564:7599  IERC20(rewardToken.token).balanceOf */\n      0x70a08231\n      swap1\n        /* \"#utility.yul\":2677:2695   */\n      0x24\n      add\n        /* \"github/nobi/staking/contracts/MultiRewardsBeefSTEAK.sol\":7564:7614  IERC20(rewardToken.token).balanceOf(address(this)) */\n      0x20\n      mload(0x40)\n      dup1\n      dup4\n      sub\n      dup2\n      dup7\n      dup1\n      extcodesize\n      iszero\n      dup1\n      iszero\n      tag_305\n      jumpi\n      0x00\n      dup1\n      revert\n    tag_305:\n      pop\n      gas\n      staticcall\n      iszero\n      dup1\n      iszero\n      tag_307\n      jumpi\n      returndatasize\n      0x00\n      dup1\n      returndatacopy\n      revert(0x00, returndatasize)\n    tag_307:\n      pop\n      pop\n      pop\n      pop\n      mload(0x40)\n      returndatasize\n      not(0x1f)\n      0x1f\n      dup3\n      add\n      and\n      dup3\n      add\n      dup1\n      0x40\n      mstore\n      pop\n      dup2\n      add\n      swap1\n      tag_308\n      swap2\n      swap1\n      tag_157\n      jump\t// in\n    tag_308:\n        /* \"github/nobi/staking/contracts/MultiRewardsBeefSTEAK.sol\":7546:7614  uint256 balance = IERC20(rewardToken.token).balanceOf(address(this)) */\n      swap1\n      pop\n        /* \"github/nobi/staking/contracts/MultiRewardsBeefSTEAK.sol\":7662:7690  balance.div(rewardsDuration) */\n      tag_309\n        /* \"github/nobi/staking/contracts/MultiRewardsBeefSTEAK.sol\":7674:7689  rewardsDuration */\n      sload(0x04)\n        /* \"github/nobi/staking/contracts/MultiRewardsBeefSTEAK.sol\":7662:7669  balance */\n      dup3\n        /* \"github/nobi/staking/contracts/MultiRewardsBeefSTEAK.sol\":7662:7673  balance.div */\n      tag_134\n      swap1\n        /* \"github/nobi/staking/contracts/MultiRewardsBeefSTEAK.sol\":7662:7690  balance.div(rewardsDuration) */\n      swap2\n      swap1\n      0xffffffff\n      and\n      jump\t// in\n    tag_309:\n        /* \"github/nobi/staking/contracts/MultiRewardsBeefSTEAK.sol\":7636:7647  rewardToken */\n      dup5\n        /* \"github/nobi/staking/contracts/MultiRewardsBeefSTEAK.sol\":7636:7658  rewardToken.rewardRate */\n      0x01\n      add\n      sload\n        /* \"github/nobi/staking/contracts/MultiRewardsBeefSTEAK.sol\":7636:7690  rewardToken.rewardRate <= balance.div(rewardsDuration) */\n      gt\n      iszero\n        /* \"github/nobi/staking/contracts/MultiRewardsBeefSTEAK.sol\":7628:7710  require(rewardToken.rewardRate <= balance.div(rewardsDuration), \"Reward too high\") */\n      tag_310\n      jumpi\n      mload(0x40)\n      0x08c379a000000000000000000000000000000000000000000000000000000000\n      dup2\n      mstore\n        /* \"#utility.yul\":9896:9898   */\n      0x20\n        /* \"github/nobi/staking/contracts/MultiRewardsBeefSTEAK.sol\":7628:7710  require(rewardToken.rewardRate <= balance.div(rewardsDuration), \"Reward too high\") */\n      0x04\n      dup3\n      add\n        /* \"#utility.yul\":9878:9899   */\n      mstore\n        /* \"#utility.yul\":9935:9937   */\n      0x0f\n        /* \"#utility.yul\":9915:9933   */\n      0x24\n      dup3\n      add\n        /* \"#utility.yul\":9908:9938   */\n      mstore\n        /* \"#utility.yul\":9974:9991   */\n      0x52657761726420746f6f20686967680000000000000000000000000000000000\n        /* \"#utility.yul\":9954:9972   */\n      0x44\n      dup3\n      add\n        /* \"#utility.yul\":9947:9992   */\n      mstore\n        /* \"#utility.yul\":10009:10027   */\n      0x64\n      add\n        /* \"github/nobi/staking/contracts/MultiRewardsBeefSTEAK.sol\":7628:7710  require(rewardToken.rewardRate <= balance.div(rewardsDuration), \"Reward too high\") */\n      tag_146\n        /* \"#utility.yul\":9868:10033   */\n      jump\n        /* \"github/nobi/staking/contracts/MultiRewardsBeefSTEAK.sol\":7628:7710  require(rewardToken.rewardRate <= balance.div(rewardsDuration), \"Reward too high\") */\n    tag_310:\n        /* \"github/nobi/staking/contracts/MultiRewardsBeefSTEAK.sol\":7729:7748  RewardAdded(reward) */\n      mload(0x40)\n        /* \"#utility.yul\":11308:11333   */\n      dup3\n      dup2\n      mstore\n        /* \"github/nobi/staking/contracts/MultiRewardsBeefSTEAK.sol\":7729:7748  RewardAdded(reward) */\n      0xde88a922e0d3b88b24e9623efeb464919c6bf9f66857a65e2bfcf2ce87a9433d\n      swap1\n        /* \"#utility.yul\":11296:11298   */\n      0x20\n        /* \"#utility.yul\":11281:11299   */\n      add\n        /* \"github/nobi/staking/contracts/MultiRewardsBeefSTEAK.sol\":7729:7748  RewardAdded(reward) */\n      mload(0x40)\n      dup1\n      swap2\n      sub\n      swap1\n      log1\n        /* \"github/nobi/staking/contracts/MultiRewardsBeefSTEAK.sol\":6757:7759  for (uint i = 0; i < _totalRewardTokens; i++) {... */\n      pop\n      pop\n      pop\n      pop\n        /* \"github/nobi/staking/contracts/MultiRewardsBeefSTEAK.sol\":6798:6801  i++ */\n      dup1\n      dup1\n      tag_314\n      swap1\n      tag_138\n      jump\t// in\n    tag_314:\n      swap2\n      pop\n      pop\n        /* \"github/nobi/staking/contracts/MultiRewardsBeefSTEAK.sol\":6757:7759  for (uint i = 0; i < _totalRewardTokens; i++) {... */\n      jump(tag_279)\n    tag_280:\n      pop\n        /* \"github/nobi/staking/contracts/MultiRewardsBeefSTEAK.sol\":7786:7801  block.timestamp */\n      timestamp\n        /* \"github/nobi/staking/contracts/MultiRewardsBeefSTEAK.sol\":7769:7783  lastUpdateTime */\n      0x05\n        /* \"github/nobi/staking/contracts/MultiRewardsBeefSTEAK.sol\":7769:7801  lastUpdateTime = block.timestamp */\n      dup2\n      swap1\n      sstore\n        /* \"github/nobi/staking/contracts/MultiRewardsBeefSTEAK.sol\":7846:7861  rewardsDuration */\n      sload(0x04)\n        /* \"github/nobi/staking/contracts/MultiRewardsBeefSTEAK.sol\":7826:7862  block.timestamp.add(rewardsDuration) */\n      tag_315\n      swap2\n        /* \"github/nobi/staking/contracts/MultiRewardsBeefSTEAK.sol\":7786:7801  block.timestamp */\n      swap1\n        /* \"github/nobi/staking/contracts/MultiRewardsBeefSTEAK.sol\":7826:7845  block.timestamp.add */\n      tag_135\n        /* \"github/nobi/staking/contracts/MultiRewardsBeefSTEAK.sol\":7826:7862  block.timestamp.add(rewardsDuration) */\n      jump\t// in\n    tag_315:\n        /* \"github/nobi/staking/contracts/MultiRewardsBeefSTEAK.sol\":7811:7823  periodFinish */\n      0x03\n        /* \"github/nobi/staking/contracts/MultiRewardsBeefSTEAK.sol\":7811:7862  periodFinish = block.timestamp.add(rewardsDuration) */\n      sstore\n      pop\n        /* \"github/nobi/staking/contracts/MultiRewardsBeefSTEAK.sol\":6526:7913  function depositRewardTokens(uint256[] memory amount) external onlyOwner {... */\n      jump\t// out\n        /* \"github/nobi/staking/contracts/MultiRewardsBeefSTEAK.sol\":10685:10988  function emergencyWithdrawal(address token) external onlyOwner updateReward(address(0)) {... */\n    tag_72:\n        /* \"github/nobi/staking/contracts/helpers/Ownable.sol\":1101:1107  _owner */\n      sload(0x01)\n        /* \"github/nobi/staking/contracts/helpers/Ownable.sol\":1241:1264  owner() == _msgSender() */\n      0xffffffffffffffffffffffffffffffffffffffff\n        /* \"github/nobi/staking/contracts/helpers/Ownable.sol\":1101:1107  _owner */\n      and\n        /* \"github/nobi/staking/contracts/helpers/Context.sol\":719:729  msg.sender */\n      caller\n        /* \"github/nobi/staking/contracts/helpers/Ownable.sol\":1241:1264  owner() == _msgSender() */\n      eq\n        /* \"github/nobi/staking/contracts/helpers/Ownable.sol\":1233:1301  require(owner() == _msgSender(), \"Ownable: caller is not the owner\") */\n      tag_319\n      jumpi\n      mload(0x40)\n      0x08c379a000000000000000000000000000000000000000000000000000000000\n      dup2\n      mstore\n        /* \"#utility.yul\":9177:9179   */\n      0x20\n        /* \"github/nobi/staking/contracts/helpers/Ownable.sol\":1233:1301  require(owner() == _msgSender(), \"Ownable: caller is not the owner\") */\n      0x04\n      dup3\n      add\n        /* \"#utility.yul\":9159:9180   */\n      dup2\n      swap1\n      mstore\n        /* \"#utility.yul\":9196:9214   */\n      0x24\n      dup3\n      add\n        /* \"#utility.yul\":9189:9219   */\n      mstore\n        /* \"#utility.yul\":9255:9289   */\n      0x4f776e61626c653a2063616c6c6572206973206e6f7420746865206f776e6572\n        /* \"#utility.yul\":9235:9253   */\n      0x44\n      dup3\n      add\n        /* \"#utility.yul\":9228:9290   */\n      mstore\n        /* \"#utility.yul\":9307:9325   */\n      0x64\n      add\n        /* \"github/nobi/staking/contracts/helpers/Ownable.sol\":1233:1301  require(owner() == _msgSender(), \"Ownable: caller is not the owner\") */\n      tag_146\n        /* \"#utility.yul\":9149:9331   */\n      jump\n        /* \"github/nobi/staking/contracts/helpers/Ownable.sol\":1233:1301  require(owner() == _msgSender(), \"Ownable: caller is not the owner\") */\n    tag_319:\n        /* \"github/nobi/staking/contracts/MultiRewardsBeefSTEAK.sol\":10769:10770  0 */\n      0x00\n        /* \"github/nobi/staking/contracts/MultiRewardsBeefSTEAK.sol\":11072:11104  uint256[] memory rewardsPerToken */\n      dup1\n        /* \"github/nobi/staking/contracts/MultiRewardsBeefSTEAK.sol\":11107:11123  rewardPerToken() */\n      tag_322\n        /* \"github/nobi/staking/contracts/MultiRewardsBeefSTEAK.sol\":11107:11121  rewardPerToken */\n      tag_105\n        /* \"github/nobi/staking/contracts/MultiRewardsBeefSTEAK.sol\":11107:11123  rewardPerToken() */\n      jump\t// in\n    tag_322:\n        /* \"github/nobi/staking/contracts/MultiRewardsBeefSTEAK.sol\":11072:11123  uint256[] memory rewardsPerToken = rewardPerToken() */\n      swap1\n      pop\n        /* \"github/nobi/staking/contracts/MultiRewardsBeefSTEAK.sol\":11133:11165  uint256[] memory currentEarnings */\n      0x00\n        /* \"github/nobi/staking/contracts/MultiRewardsBeefSTEAK.sol\":11168:11183  earned(account) */\n      tag_323\n        /* \"github/nobi/staking/contracts/MultiRewardsBeefSTEAK.sol\":11175:11182  account */\n      dup4\n        /* \"github/nobi/staking/contracts/MultiRewardsBeefSTEAK.sol\":11168:11174  earned */\n      tag_38\n        /* \"github/nobi/staking/contracts/MultiRewardsBeefSTEAK.sol\":11168:11183  earned(account) */\n      jump\t// in\n    tag_323:\n        /* \"github/nobi/staking/contracts/MultiRewardsBeefSTEAK.sol\":11133:11183  uint256[] memory currentEarnings = earned(account) */\n      swap1\n      pop\n        /* \"github/nobi/staking/contracts/MultiRewardsBeefSTEAK.sol\":11210:11236  lastTimeRewardApplicable() */\n      tag_324\n        /* \"github/nobi/staking/contracts/MultiRewardsBeefSTEAK.sol\":11210:11234  lastTimeRewardApplicable */\n      tag_84\n        /* \"github/nobi/staking/contracts/MultiRewardsBeefSTEAK.sol\":11210:11236  lastTimeRewardApplicable() */\n      jump\t// in\n    tag_324:\n        /* \"github/nobi/staking/contracts/MultiRewardsBeefSTEAK.sol\":11193:11207  lastUpdateTime */\n      0x05\n        /* \"github/nobi/staking/contracts/MultiRewardsBeefSTEAK.sol\":11193:11236  lastUpdateTime = lastTimeRewardApplicable() */\n      sstore\n        /* \"github/nobi/staking/contracts/MultiRewardsBeefSTEAK.sol\":11251:11257  uint i */\n      0x00\n        /* \"github/nobi/staking/contracts/MultiRewardsBeefSTEAK.sol\":11246:11674  for (uint i = 0; i < _totalRewardTokens; i++) {... */\n    tag_325:\n        /* \"github/nobi/staking/contracts/MultiRewardsBeefSTEAK.sol\":11267:11285  _totalRewardTokens */\n      sload(0x08)\n        /* \"github/nobi/staking/contracts/MultiRewardsBeefSTEAK.sol\":11263:11264  i */\n      dup2\n        /* \"github/nobi/staking/contracts/MultiRewardsBeefSTEAK.sol\":11263:11285  i < _totalRewardTokens */\n      lt\n        /* \"github/nobi/staking/contracts/MultiRewardsBeefSTEAK.sol\":11246:11674  for (uint i = 0; i < _totalRewardTokens; i++) {... */\n      iszero\n      tag_326\n      jumpi\n        /* \"github/nobi/staking/contracts/MultiRewardsBeefSTEAK.sol\":11306:11337  RewardToken storage rewardToken */\n      0x00\n        /* \"github/nobi/staking/contracts/MultiRewardsBeefSTEAK.sol\":11340:11353  _rewardTokens */\n      0x09\n        /* \"github/nobi/staking/contracts/MultiRewardsBeefSTEAK.sol\":11306:11337  RewardToken storage rewardToken */\n      dup2\n        /* \"github/nobi/staking/contracts/MultiRewardsBeefSTEAK.sol\":11354:11359  i + 1 */\n      tag_328\n        /* \"github/nobi/staking/contracts/MultiRewardsBeefSTEAK.sol\":11354:11355  i */\n      dup5\n        /* \"github/nobi/staking/contracts/MultiRewardsBeefSTEAK.sol\":11358:11359  1 */\n      0x01\n        /* \"github/nobi/staking/contracts/MultiRewardsBeefSTEAK.sol\":11354:11359  i + 1 */\n      tag_126\n      jump\t// in\n    tag_328:\n        /* \"github/nobi/staking/contracts/MultiRewardsBeefSTEAK.sol\":11340:11360  _rewardTokens[i + 1] */\n      dup2\n      mstore\n      0x20\n      add\n      swap1\n      dup2\n      mstore\n      0x20\n      add\n      0x00\n      keccak256\n        /* \"github/nobi/staking/contracts/MultiRewardsBeefSTEAK.sol\":11306:11360  RewardToken storage rewardToken = _rewardTokens[i + 1] */\n      swap1\n      pop\n        /* \"github/nobi/staking/contracts/MultiRewardsBeefSTEAK.sol\":11409:11424  rewardsPerToken */\n      dup4\n        /* \"github/nobi/staking/contracts/MultiRewardsBeefSTEAK.sol\":11425:11426  i */\n      dup3\n        /* \"github/nobi/staking/contracts/MultiRewardsBeefSTEAK.sol\":11409:11427  rewardsPerToken[i] */\n      dup2\n      mload\n      dup2\n      lt\n      tag_329\n      jumpi\n      mstore(0x00, 0x4e487b7100000000000000000000000000000000000000000000000000000000)\n      mstore(0x04, 0x32)\n      revert(0x00, 0x24)\n    tag_329:\n      0x20\n      swap1\n      dup2\n      mul\n      swap2\n      swap1\n      swap2\n      add\n      add\n      mload\n        /* \"github/nobi/staking/contracts/MultiRewardsBeefSTEAK.sol\":11374:11406  rewardToken.rewardPerTokenStored */\n      0x02\n      dup3\n      add\n        /* \"github/nobi/staking/contracts/MultiRewardsBeefSTEAK.sol\":11374:11427  rewardToken.rewardPerTokenStored = rewardsPerToken[i] */\n      sstore\n        /* \"github/nobi/staking/contracts/MultiRewardsBeefSTEAK.sol\":11445:11466  account != address(0) */\n      0xffffffffffffffffffffffffffffffffffffffff\n      dup6\n      and\n      iszero\n        /* \"github/nobi/staking/contracts/MultiRewardsBeefSTEAK.sol\":11441:11664  if (account != address(0)) {... */\n      tag_330\n      jumpi\n        /* \"github/nobi/staking/contracts/MultiRewardsBeefSTEAK.sol\":11525:11540  currentEarnings */\n      dup3\n        /* \"github/nobi/staking/contracts/MultiRewardsBeefSTEAK.sol\":11541:11542  i */\n      dup3\n        /* \"github/nobi/staking/contracts/MultiRewardsBeefSTEAK.sol\":11525:11543  currentEarnings[i] */\n      dup2\n      mload\n      dup2\n      lt\n      tag_331\n      jumpi\n      mstore(0x00, 0x4e487b7100000000000000000000000000000000000000000000000000000000)\n      mstore(0x04, 0x32)\n      revert(0x00, 0x24)\n    tag_331:\n      0x20\n      swap1\n      dup2\n      mul\n      swap2\n      swap1\n      swap2\n      add\n      dup2\n      add\n      mload\n        /* \"github/nobi/staking/contracts/MultiRewardsBeefSTEAK.sol\":11486:11503  _rewards[account] */\n      0xffffffffffffffffffffffffffffffffffffffff\n      dup1\n      dup9\n      and\n      0x00\n      swap1\n      dup2\n      mstore\n        /* \"github/nobi/staking/contracts/MultiRewardsBeefSTEAK.sol\":11486:11494  _rewards */\n      0x07\n        /* \"github/nobi/staking/contracts/MultiRewardsBeefSTEAK.sol\":11486:11503  _rewards[account] */\n      dup5\n      mstore\n      0x40\n      dup1\n      dup3\n      keccak256\n        /* \"github/nobi/staking/contracts/MultiRewardsBeefSTEAK.sol\":11504:11521  rewardToken.token */\n      dup7\n      sload\n      swap1\n      swap4\n      and\n        /* \"github/nobi/staking/contracts/MultiRewardsBeefSTEAK.sol\":11486:11522  _rewards[account][rewardToken.token] */\n      dup3\n      mstore\n      swap2\n      swap1\n      swap4\n      mstore\n      swap1\n      swap2\n      keccak256\n        /* \"github/nobi/staking/contracts/MultiRewardsBeefSTEAK.sol\":11486:11543  _rewards[account][rewardToken.token] = currentEarnings[i] */\n      sstore\n        /* \"github/nobi/staking/contracts/MultiRewardsBeefSTEAK.sol\":11615:11633  rewardsPerToken[i] */\n      dup4\n      mload\n        /* \"github/nobi/staking/contracts/MultiRewardsBeefSTEAK.sol\":11615:11630  rewardsPerToken */\n      dup5\n      swap1\n        /* \"github/nobi/staking/contracts/MultiRewardsBeefSTEAK.sol\":11631:11632  i */\n      dup4\n      swap1\n        /* \"github/nobi/staking/contracts/MultiRewardsBeefSTEAK.sol\":11615:11633  rewardsPerToken[i] */\n      dup2\n      lt\n      tag_332\n      jumpi\n      mstore(0x00, 0x4e487b7100000000000000000000000000000000000000000000000000000000)\n      mstore(0x04, 0x32)\n      revert(0x00, 0x24)\n    tag_332:\n      0x20\n      swap1\n      dup2\n      mul\n      swap2\n      swap1\n      swap2\n      add\n      dup2\n      add\n      mload\n        /* \"github/nobi/staking/contracts/MultiRewardsBeefSTEAK.sol\":11561:11593  _userRewardPerTokenPaid[account] */\n      0xffffffffffffffffffffffffffffffffffffffff\n      dup1\n      dup9\n      and\n      0x00\n      swap1\n      dup2\n      mstore\n        /* \"github/nobi/staking/contracts/MultiRewardsBeefSTEAK.sol\":11561:11584  _userRewardPerTokenPaid */\n      0x06\n        /* \"github/nobi/staking/contracts/MultiRewardsBeefSTEAK.sol\":11561:11593  _userRewardPerTokenPaid[account] */\n      dup5\n      mstore\n      0x40\n      dup1\n      dup3\n      keccak256\n        /* \"github/nobi/staking/contracts/MultiRewardsBeefSTEAK.sol\":11594:11611  rewardToken.token */\n      dup7\n      sload\n      swap1\n      swap4\n      and\n        /* \"github/nobi/staking/contracts/MultiRewardsBeefSTEAK.sol\":11561:11612  _userRewardPerTokenPaid[account][rewardToken.token] */\n      dup3\n      mstore\n      swap2\n      swap1\n      swap4\n      mstore\n      swap1\n      swap2\n      keccak256\n        /* \"github/nobi/staking/contracts/MultiRewardsBeefSTEAK.sol\":11561:11633  _userRewardPerTokenPaid[account][rewardToken.token] = rewardsPerToken[i] */\n      sstore\n        /* \"github/nobi/staking/contracts/MultiRewardsBeefSTEAK.sol\":11441:11664  if (account != address(0)) {... */\n    tag_330:\n      pop\n        /* \"github/nobi/staking/contracts/MultiRewardsBeefSTEAK.sol\":11287:11290  i++ */\n      dup1\n      tag_333\n      dup2\n      tag_138\n      jump\t// in\n    tag_333:\n      swap2\n      pop\n      pop\n        /* \"github/nobi/staking/contracts/MultiRewardsBeefSTEAK.sol\":11246:11674  for (uint i = 0; i < _totalRewardTokens; i++) {... */\n      jump(tag_325)\n    tag_326:\n      pop\n        /* \"github/nobi/staking/contracts/MultiRewardsBeefSTEAK.sol\":10801:10839  IERC20(token).balanceOf(address(this)) */\n      mload(0x40)\n      0x70a0823100000000000000000000000000000000000000000000000000000000\n      dup2\n      mstore\n        /* \"github/nobi/staking/contracts/MultiRewardsBeefSTEAK.sol\":10833:10837  this */\n      address\n        /* \"github/nobi/staking/contracts/MultiRewardsBeefSTEAK.sol\":10801:10839  IERC20(token).balanceOf(address(this)) */\n      0x04\n      dup3\n      add\n        /* \"#utility.yul\":2704:2778   */\n      mstore\n        /* \"github/nobi/staking/contracts/MultiRewardsBeefSTEAK.sol\":10783:10798  uint256 balance */\n      0x00\n      swap1\n        /* \"github/nobi/staking/contracts/MultiRewardsBeefSTEAK.sol\":10801:10824  IERC20(token).balanceOf */\n      0xffffffffffffffffffffffffffffffffffffffff\n      dup7\n      and\n      swap1\n      0x70a08231\n      swap1\n        /* \"#utility.yul\":2677:2695   */\n      0x24\n      add\n        /* \"github/nobi/staking/contracts/MultiRewardsBeefSTEAK.sol\":10801:10839  IERC20(token).balanceOf(address(this)) */\n      0x20\n      mload(0x40)\n      dup1\n      dup4\n      sub\n      dup2\n      dup7\n      dup1\n      extcodesize\n      iszero\n      dup1\n      iszero\n      tag_336\n      jumpi\n      0x00\n      dup1\n      revert\n    tag_336:\n      pop\n      gas\n      staticcall\n      iszero\n      dup1\n      iszero\n      tag_338\n      jumpi\n      returndatasize\n      0x00\n      dup1\n      returndatacopy\n      revert(0x00, returndatasize)\n    tag_338:\n      pop\n      pop\n      pop\n      pop\n      mload(0x40)\n      returndatasize\n      not(0x1f)\n      0x1f\n      dup3\n      add\n      and\n      dup3\n      add\n      dup1\n      0x40\n      mstore\n      pop\n      dup2\n      add\n      swap1\n      tag_339\n      swap2\n      swap1\n      tag_157\n      jump\t// in\n    tag_339:\n        /* \"github/nobi/staking/contracts/MultiRewardsBeefSTEAK.sol\":10783:10839  uint256 balance = IERC20(token).balanceOf(address(this)) */\n      swap1\n      pop\n        /* \"github/nobi/staking/contracts/MultiRewardsBeefSTEAK.sol\":10867:10868  0 */\n      0x00\n        /* \"github/nobi/staking/contracts/MultiRewardsBeefSTEAK.sol\":10857:10864  balance */\n      dup2\n        /* \"github/nobi/staking/contracts/MultiRewardsBeefSTEAK.sol\":10857:10868  balance > 0 */\n      gt\n        /* \"github/nobi/staking/contracts/MultiRewardsBeefSTEAK.sol\":10849:10897  require(balance > 0, \"Contract holds no tokens\") */\n      tag_340\n      jumpi\n      mload(0x40)\n      0x08c379a000000000000000000000000000000000000000000000000000000000\n      dup2\n      mstore\n        /* \"#utility.yul\":11011:11013   */\n      0x20\n        /* \"github/nobi/staking/contracts/MultiRewardsBeefSTEAK.sol\":10849:10897  require(balance > 0, \"Contract holds no tokens\") */\n      0x04\n      dup3\n      add\n        /* \"#utility.yul\":10993:11014   */\n      mstore\n        /* \"#utility.yul\":11050:11052   */\n      0x18\n        /* \"#utility.yul\":11030:11048   */\n      0x24\n      dup3\n      add\n        /* \"#utility.yul\":11023:11053   */\n      mstore\n        /* \"#utility.yul\":11089:11115   */\n      0x436f6e747261637420686f6c6473206e6f20746f6b656e730000000000000000\n        /* \"#utility.yul\":11069:11087   */\n      0x44\n      dup3\n      add\n        /* \"#utility.yul\":11062:11116   */\n      mstore\n        /* \"#utility.yul\":11133:11151   */\n      0x64\n      add\n        /* \"github/nobi/staking/contracts/MultiRewardsBeefSTEAK.sol\":10849:10897  require(balance > 0, \"Contract holds no tokens\") */\n      tag_146\n        /* \"#utility.yul\":10983:11157   */\n      jump\n        /* \"github/nobi/staking/contracts/MultiRewardsBeefSTEAK.sol\":10849:10897  require(balance > 0, \"Contract holds no tokens\") */\n    tag_340:\n        /* \"github/nobi/staking/contracts/MultiRewardsBeefSTEAK.sol\":10914:10919  token */\n      dup5\n        /* \"github/nobi/staking/contracts/MultiRewardsBeefSTEAK.sol\":10907:10929  IERC20(token).transfer */\n      0xffffffffffffffffffffffffffffffffffffffff\n      and\n      0xa9059cbb\n        /* \"github/nobi/staking/contracts/MultiRewardsBeefSTEAK.sol\":10930:10937  owner() */\n      tag_343\n        /* \"github/nobi/staking/contracts/helpers/Ownable.sol\":1101:1107  _owner */\n      and(0xffffffffffffffffffffffffffffffffffffffff, sload(0x01))\n      swap1\n        /* \"github/nobi/staking/contracts/helpers/Ownable.sol\":1029:1114  function owner() public view virtual returns (address) {... */\n      jump\n        /* \"github/nobi/staking/contracts/MultiRewardsBeefSTEAK.sol\":10930:10937  owner() */\n    tag_343:\n        /* \"github/nobi/staking/contracts/MultiRewardsBeefSTEAK.sol\":10907:10947  IERC20(token).transfer(owner(), balance) */\n      mload(0x40)\n      0xffffffff00000000000000000000000000000000000000000000000000000000\n      0xe0\n      dup5\n      swap1\n      shl\n      and\n      dup2\n      mstore\n        /* \"#utility.yul\":3396:3438   */\n      0xffffffffffffffffffffffffffffffffffffffff\n        /* \"#utility.yul\":3384:3439   */\n      swap1\n      swap2\n      and\n        /* \"github/nobi/staking/contracts/MultiRewardsBeefSTEAK.sol\":10907:10947  IERC20(token).transfer(owner(), balance) */\n      0x04\n      dup3\n      add\n        /* \"#utility.yul\":3366:3440   */\n      mstore\n        /* \"#utility.yul\":3456:3474   */\n      0x24\n      dup2\n      add\n        /* \"#utility.yul\":3449:3483   */\n      dup5\n      swap1\n      mstore\n        /* \"#utility.yul\":3339:3357   */\n      0x44\n      add\n        /* \"github/nobi/staking/contracts/MultiRewardsBeefSTEAK.sol\":10907:10947  IERC20(token).transfer(owner(), balance) */\n      0x20\n      mload(0x40)\n      dup1\n      dup4\n      sub\n      dup2\n      0x00\n      dup8\n      dup1\n      extcodesize\n      iszero\n      dup1\n      iszero\n      tag_346\n      jumpi\n      0x00\n      dup1\n      revert\n    tag_346:\n      pop\n      gas\n      call\n      iszero\n      dup1\n      iszero\n      tag_348\n      jumpi\n      returndatasize\n      0x00\n      dup1\n      returndatacopy\n      revert(0x00, returndatasize)\n    tag_348:\n      pop\n      pop\n      pop\n      pop\n      mload(0x40)\n      returndatasize\n      not(0x1f)\n      0x1f\n      dup3\n      add\n      and\n      dup3\n      add\n      dup1\n      0x40\n      mstore\n      pop\n      dup2\n      add\n      swap1\n      tag_349\n      swap2\n      swap1\n      tag_350\n      jump\t// in\n    tag_349:\n      pop\n        /* \"github/nobi/staking/contracts/MultiRewardsBeefSTEAK.sol\":10957:10981  removeRewardToken(token) */\n      tag_351\n        /* \"github/nobi/staking/contracts/MultiRewardsBeefSTEAK.sol\":10975:10980  token */\n      dup6\n        /* \"github/nobi/staking/contracts/MultiRewardsBeefSTEAK.sol\":10957:10974  removeRewardToken */\n      tag_65\n        /* \"github/nobi/staking/contracts/MultiRewardsBeefSTEAK.sol\":10957:10981  removeRewardToken(token) */\n      jump\t// in\n    tag_351:\n        /* \"github/nobi/staking/contracts/MultiRewardsBeefSTEAK.sol\":11683:11684  _ */\n      pop\n        /* \"github/nobi/staking/contracts/helpers/Ownable.sol\":1311:1312  _ */\n      pop\n      pop\n      pop\n        /* \"github/nobi/staking/contracts/MultiRewardsBeefSTEAK.sol\":10685:10988  function emergencyWithdrawal(address token) external onlyOwner updateReward(address(0)) {... */\n      pop\n      jump\t// out\n        /* \"github/nobi/staking/contracts/helpers/Ownable.sol\":1661:1762  function renounceOwnership() public virtual onlyOwner {... */\n    tag_78:\n        /* \"github/nobi/staking/contracts/helpers/Ownable.sol\":1101:1107  _owner */\n      sload(0x01)\n        /* \"github/nobi/staking/contracts/helpers/Ownable.sol\":1241:1264  owner() == _msgSender() */\n      0xffffffffffffffffffffffffffffffffffffffff\n        /* \"github/nobi/staking/contracts/helpers/Ownable.sol\":1101:1107  _owner */\n      and\n        /* \"github/nobi/staking/contracts/helpers/Context.sol\":719:729  msg.sender */\n      caller\n        /* \"github/nobi/staking/contracts/helpers/Ownable.sol\":1241:1264  owner() == _msgSender() */\n      eq\n        /* \"github/nobi/staking/contracts/helpers/Ownable.sol\":1233:1301  require(owner() == _msgSender(), \"Ownable: caller is not the owner\") */\n      tag_356\n      jumpi\n      mload(0x40)\n      0x08c379a000000000000000000000000000000000000000000000000000000000\n      dup2\n      mstore\n        /* \"#utility.yul\":9177:9179   */\n      0x20\n        /* \"github/nobi/staking/contracts/helpers/Ownable.sol\":1233:1301  require(owner() == _msgSender(), \"Ownable: caller is not the owner\") */\n      0x04\n      dup3\n      add\n        /* \"#utility.yul\":9159:9180   */\n      dup2\n      swap1\n      mstore\n        /* \"#utility.yul\":9196:9214   */\n      0x24\n      dup3\n      add\n        /* \"#utility.yul\":9189:9219   */\n      mstore\n        /* \"#utility.yul\":9255:9289   */\n      0x4f776e61626c653a2063616c6c6572206973206e6f7420746865206f776e6572\n        /* \"#utility.yul\":9235:9253   */\n      0x44\n      dup3\n      add\n        /* \"#utility.yul\":9228:9290   */\n      mstore\n        /* \"#utility.yul\":9307:9325   */\n      0x64\n      add\n        /* \"github/nobi/staking/contracts/helpers/Ownable.sol\":1233:1301  require(owner() == _msgSender(), \"Ownable: caller is not the owner\") */\n      tag_146\n        /* \"#utility.yul\":9149:9331   */\n      jump\n        /* \"github/nobi/staking/contracts/helpers/Ownable.sol\":1233:1301  require(owner() == _msgSender(), \"Ownable: caller is not the owner\") */\n    tag_356:\n        /* \"github/nobi/staking/contracts/helpers/Ownable.sol\":1725:1755  _transferOwnership(address(0)) */\n      tag_359\n        /* \"github/nobi/staking/contracts/helpers/Ownable.sol\":1752:1753  0 */\n      0x00\n        /* \"github/nobi/staking/contracts/helpers/Ownable.sol\":1725:1743  _transferOwnership */\n      tag_360\n        /* \"github/nobi/staking/contracts/helpers/Ownable.sol\":1725:1755  _transferOwnership(address(0)) */\n      jump\t// in\n    tag_359:\n        /* \"github/nobi/staking/contracts/helpers/Ownable.sol\":1661:1762  function renounceOwnership() public virtual onlyOwner {... */\n      jump\t// out\n        /* \"github/nobi/staking/contracts/MultiRewardsBeefSTEAK.sol\":1986:2115  function lastTimeRewardApplicable() public view returns (uint256) {... */\n    tag_84:\n        /* \"github/nobi/staking/contracts/MultiRewardsBeefSTEAK.sol\":2043:2050  uint256 */\n      0x00\n        /* \"github/nobi/staking/contracts/MultiRewardsBeefSTEAK.sol\":2069:2108  Math.min(block.timestamp, periodFinish) */\n      tag_362\n        /* \"github/nobi/staking/contracts/MultiRewardsBeefSTEAK.sol\":2078:2093  block.timestamp */\n      timestamp\n        /* \"github/nobi/staking/contracts/MultiRewardsBeefSTEAK.sol\":2095:2107  periodFinish */\n      sload(0x03)\n        /* \"github/nobi/staking/contracts/MultiRewardsBeefSTEAK.sol\":2069:2077  Math.min */\n      tag_363\n        /* \"github/nobi/staking/contracts/MultiRewardsBeefSTEAK.sol\":2069:2108  Math.min(block.timestamp, periodFinish) */\n      jump\t// in\n    tag_362:\n        /* \"github/nobi/staking/contracts/MultiRewardsBeefSTEAK.sol\":2062:2108  return Math.min(block.timestamp, periodFinish) */\n      swap1\n      pop\n        /* \"github/nobi/staking/contracts/MultiRewardsBeefSTEAK.sol\":1986:2115  function lastTimeRewardApplicable() public view returns (uint256) {... */\n      swap1\n      jump\t// out\n        /* \"github/nobi/staking/contracts/MultiRewardsBeefSTEAK.sol\":3126:3653  function rewardForToken(address token) public view returns (uint256) {... */\n    tag_92:\n        /* \"github/nobi/staking/contracts/MultiRewardsBeefSTEAK.sol\":3221:3247  _rewardTokenToIndex[token] */\n      0xffffffffffffffffffffffffffffffffffffffff\n      dup2\n      and\n        /* \"github/nobi/staking/contracts/MultiRewardsBeefSTEAK.sol\":3186:3193  uint256 */\n      0x00\n        /* \"github/nobi/staking/contracts/MultiRewardsBeefSTEAK.sol\":3221:3247  _rewardTokenToIndex[token] */\n      swap1\n      dup2\n      mstore\n        /* \"github/nobi/staking/contracts/MultiRewardsBeefSTEAK.sol\":3221:3240  _rewardTokenToIndex */\n      0x0a\n        /* \"github/nobi/staking/contracts/MultiRewardsBeefSTEAK.sol\":3221:3247  _rewardTokenToIndex[token] */\n      0x20\n      mstore\n      0x40\n      dup2\n      keccak256\n      sload\n        /* \"github/nobi/staking/contracts/MultiRewardsBeefSTEAK.sol\":3261:3273  _totalSupply */\n      sload(0x0b)\n        /* \"github/nobi/staking/contracts/MultiRewardsBeefSTEAK.sol\":3257:3647  if (_totalSupply == 0) {... */\n      tag_366\n      jumpi\n        /* \"github/nobi/staking/contracts/MultiRewardsBeefSTEAK.sol\":3301:3321  _rewardTokens[index] */\n      0x00\n      swap1\n      dup2\n      mstore\n        /* \"github/nobi/staking/contracts/MultiRewardsBeefSTEAK.sol\":3301:3314  _rewardTokens */\n      0x09\n        /* \"github/nobi/staking/contracts/MultiRewardsBeefSTEAK.sol\":3301:3321  _rewardTokens[index] */\n      0x20\n      mstore\n      0x40\n      swap1\n      keccak256\n        /* \"github/nobi/staking/contracts/MultiRewardsBeefSTEAK.sol\":3301:3342  _rewardTokens[index].rewardPerTokenStored */\n      0x02\n      add\n      sload\n      swap3\n        /* \"github/nobi/staking/contracts/MultiRewardsBeefSTEAK.sol\":3126:3653  function rewardForToken(address token) public view returns (uint256) {... */\n      swap2\n      pop\n      pop\n      jump\t// out\n        /* \"github/nobi/staking/contracts/MultiRewardsBeefSTEAK.sol\":3257:3647  if (_totalSupply == 0) {... */\n    tag_366:\n        /* \"github/nobi/staking/contracts/MultiRewardsBeefSTEAK.sol\":3380:3636  _rewardTokens[index].rewardPerTokenStored.add(... */\n      tag_368\n        /* \"github/nobi/staking/contracts/MultiRewardsBeefSTEAK.sol\":3443:3622  lastTimeRewardApplicable()... */\n      tag_369\n        /* \"github/nobi/staking/contracts/MultiRewardsBeefSTEAK.sol\":3609:3621  _totalSupply */\n      sload(0x0b)\n        /* \"github/nobi/staking/contracts/MultiRewardsBeefSTEAK.sol\":3443:3587  lastTimeRewardApplicable()... */\n      tag_129\n        /* \"github/nobi/staking/contracts/MultiRewardsBeefSTEAK.sol\":3582:3586  1e18 */\n      0x0de0b6b3a7640000\n        /* \"github/nobi/staking/contracts/MultiRewardsBeefSTEAK.sol\":3443:3560  lastTimeRewardApplicable()... */\n      tag_372\n        /* \"github/nobi/staking/contracts/MultiRewardsBeefSTEAK.sol\":3528:3541  _rewardTokens */\n      0x09\n        /* \"github/nobi/staking/contracts/MultiRewardsBeefSTEAK.sol\":3528:3548  _rewardTokens[index] */\n      0x00\n        /* \"github/nobi/staking/contracts/MultiRewardsBeefSTEAK.sol\":3542:3547  index */\n      dup9\n        /* \"github/nobi/staking/contracts/MultiRewardsBeefSTEAK.sol\":3528:3548  _rewardTokens[index] */\n      dup2\n      mstore\n      0x20\n      add\n      swap1\n      dup2\n      mstore\n      0x20\n      add\n      0x00\n      keccak256\n        /* \"github/nobi/staking/contracts/MultiRewardsBeefSTEAK.sol\":3528:3559  _rewardTokens[index].rewardRate */\n      0x01\n      add\n      sload\n        /* \"github/nobi/staking/contracts/MultiRewardsBeefSTEAK.sol\":3443:3506  lastTimeRewardApplicable()... */\n      tag_372\n        /* \"github/nobi/staking/contracts/MultiRewardsBeefSTEAK.sol\":3491:3505  lastUpdateTime */\n      sload(0x05)\n        /* \"github/nobi/staking/contracts/MultiRewardsBeefSTEAK.sol\":3443:3469  lastTimeRewardApplicable() */\n      tag_296\n        /* \"github/nobi/staking/contracts/MultiRewardsBeefSTEAK.sol\":3443:3467  lastTimeRewardApplicable */\n      tag_84\n        /* \"github/nobi/staking/contracts/MultiRewardsBeefSTEAK.sol\":3443:3469  lastTimeRewardApplicable() */\n      jump\t// in\n        /* \"github/nobi/staking/contracts/MultiRewardsBeefSTEAK.sol\":3443:3506  lastTimeRewardApplicable()... */\n    tag_372:\n        /* \"github/nobi/staking/contracts/MultiRewardsBeefSTEAK.sol\":3443:3527  lastTimeRewardApplicable()... */\n      swap1\n      tag_133\n        /* \"github/nobi/staking/contracts/MultiRewardsBeefSTEAK.sol\":3443:3560  lastTimeRewardApplicable()... */\n      jump\t// in\n        /* \"github/nobi/staking/contracts/MultiRewardsBeefSTEAK.sol\":3443:3622  lastTimeRewardApplicable()... */\n    tag_369:\n        /* \"github/nobi/staking/contracts/MultiRewardsBeefSTEAK.sol\":3380:3400  _rewardTokens[index] */\n      0x00\n      dup4\n      dup2\n      mstore\n        /* \"github/nobi/staking/contracts/MultiRewardsBeefSTEAK.sol\":3380:3393  _rewardTokens */\n      0x09\n        /* \"github/nobi/staking/contracts/MultiRewardsBeefSTEAK.sol\":3380:3400  _rewardTokens[index] */\n      0x20\n      mstore\n      0x40\n      swap1\n      keccak256\n        /* \"github/nobi/staking/contracts/MultiRewardsBeefSTEAK.sol\":3380:3421  _rewardTokens[index].rewardPerTokenStored */\n      0x02\n      add\n      sload\n      swap1\n        /* \"github/nobi/staking/contracts/MultiRewardsBeefSTEAK.sol\":3380:3425  _rewardTokens[index].rewardPerTokenStored.add */\n      tag_135\n        /* \"github/nobi/staking/contracts/MultiRewardsBeefSTEAK.sol\":3380:3636  _rewardTokens[index].rewardPerTokenStored.add(... */\n      jump\t// in\n    tag_368:\n        /* \"github/nobi/staking/contracts/MultiRewardsBeefSTEAK.sol\":3373:3636  return _rewardTokens[index].rewardPerTokenStored.add(... */\n      swap4\n        /* \"github/nobi/staking/contracts/MultiRewardsBeefSTEAK.sol\":3126:3653  function rewardForToken(address token) public view returns (uint256) {... */\n      swap3\n      pop\n      pop\n      pop\n      jump\t// out\n        /* \"github/nobi/staking/contracts/MultiRewardsBeefSTEAK.sol\":4947:5519  function stake(uint256 amount) external nonReentrant updateReward(msg.sender) {... */\n    tag_96:\n        /* \"github/nobi/staking/contracts/helpers/ReentrancyGuard.sol\":1744:1745  2 */\n      0x02\n        /* \"github/nobi/staking/contracts/helpers/ReentrancyGuard.sol\":2325:2332  _status */\n      sload(0x00)\n        /* \"github/nobi/staking/contracts/helpers/ReentrancyGuard.sol\":2325:2344  _status != _ENTERED */\n      eq\n      iszero\n        /* \"github/nobi/staking/contracts/helpers/ReentrancyGuard.sol\":2317:2380  require(_status != _ENTERED, \"ReentrancyGuard: reentrant call\") */\n      tag_375\n      jumpi\n      mload(0x40)\n      0x08c379a000000000000000000000000000000000000000000000000000000000\n      dup2\n      mstore\n        /* \"#utility.yul\":10651:10653   */\n      0x20\n        /* \"github/nobi/staking/contracts/helpers/ReentrancyGuard.sol\":2317:2380  require(_status != _ENTERED, \"ReentrancyGuard: reentrant call\") */\n      0x04\n      dup3\n      add\n        /* \"#utility.yul\":10633:10654   */\n      mstore\n        /* \"#utility.yul\":10690:10692   */\n      0x1f\n        /* \"#utility.yul\":10670:10688   */\n      0x24\n      dup3\n      add\n        /* \"#utility.yul\":10663:10693   */\n      mstore\n        /* \"#utility.yul\":10729:10762   */\n      0x5265656e7472616e637947756172643a207265656e7472616e742063616c6c00\n        /* \"#utility.yul\":10709:10727   */\n      0x44\n      dup3\n      add\n        /* \"#utility.yul\":10702:10763   */\n      mstore\n        /* \"#utility.yul\":10780:10798   */\n      0x64\n      add\n        /* \"github/nobi/staking/contracts/helpers/ReentrancyGuard.sol\":2317:2380  require(_status != _ENTERED, \"ReentrancyGuard: reentrant call\") */\n      tag_146\n        /* \"#utility.yul\":10623:10804   */\n      jump\n        /* \"github/nobi/staking/contracts/helpers/ReentrancyGuard.sol\":2317:2380  require(_status != _ENTERED, \"ReentrancyGuard: reentrant call\") */\n    tag_375:\n        /* \"github/nobi/staking/contracts/helpers/ReentrancyGuard.sol\":1744:1745  2 */\n      0x02\n        /* \"github/nobi/staking/contracts/helpers/ReentrancyGuard.sol\":2455:2462  _status */\n      0x00\n        /* \"github/nobi/staking/contracts/helpers/ReentrancyGuard.sol\":2455:2473  _status = _ENTERED */\n      swap1\n      dup2\n      sstore\n        /* \"github/nobi/staking/contracts/MultiRewardsBeefSTEAK.sol\":5013:5023  msg.sender */\n      caller\n      swap1\n        /* \"github/nobi/staking/contracts/MultiRewardsBeefSTEAK.sol\":11107:11123  rewardPerToken() */\n      tag_378\n        /* \"github/nobi/staking/contracts/MultiRewardsBeefSTEAK.sol\":11107:11121  rewardPerToken */\n      tag_105\n        /* \"github/nobi/staking/contracts/MultiRewardsBeefSTEAK.sol\":11107:11123  rewardPerToken() */\n      jump\t// in\n    tag_378:\n        /* \"github/nobi/staking/contracts/MultiRewardsBeefSTEAK.sol\":11072:11123  uint256[] memory rewardsPerToken = rewardPerToken() */\n      swap1\n      pop\n        /* \"github/nobi/staking/contracts/MultiRewardsBeefSTEAK.sol\":11133:11165  uint256[] memory currentEarnings */\n      0x00\n        /* \"github/nobi/staking/contracts/MultiRewardsBeefSTEAK.sol\":11168:11183  earned(account) */\n      tag_379\n        /* \"github/nobi/staking/contracts/MultiRewardsBeefSTEAK.sol\":11175:11182  account */\n      dup4\n        /* \"github/nobi/staking/contracts/MultiRewardsBeefSTEAK.sol\":11168:11174  earned */\n      tag_38\n        /* \"github/nobi/staking/contracts/MultiRewardsBeefSTEAK.sol\":11168:11183  earned(account) */\n      jump\t// in\n    tag_379:\n        /* \"github/nobi/staking/contracts/MultiRewardsBeefSTEAK.sol\":11133:11183  uint256[] memory currentEarnings = earned(account) */\n      swap1\n      pop\n        /* \"github/nobi/staking/contracts/MultiRewardsBeefSTEAK.sol\":11210:11236  lastTimeRewardApplicable() */\n      tag_380\n        /* \"github/nobi/staking/contracts/MultiRewardsBeefSTEAK.sol\":11210:11234  lastTimeRewardApplicable */\n      tag_84\n        /* \"github/nobi/staking/contracts/MultiRewardsBeefSTEAK.sol\":11210:11236  lastTimeRewardApplicable() */\n      jump\t// in\n    tag_380:\n        /* \"github/nobi/staking/contracts/MultiRewardsBeefSTEAK.sol\":11193:11207  lastUpdateTime */\n      0x05\n        /* \"github/nobi/staking/contracts/MultiRewardsBeefSTEAK.sol\":11193:11236  lastUpdateTime = lastTimeRewardApplicable() */\n      sstore\n        /* \"github/nobi/staking/contracts/MultiRewardsBeefSTEAK.sol\":11251:11257  uint i */\n      0x00\n        /* \"github/nobi/staking/contracts/MultiRewardsBeefSTEAK.sol\":11246:11674  for (uint i = 0; i < _totalRewardTokens; i++) {... */\n    tag_381:\n        /* \"github/nobi/staking/contracts/MultiRewardsBeefSTEAK.sol\":11267:11285  _totalRewardTokens */\n      sload(0x08)\n        /* \"github/nobi/staking/contracts/MultiRewardsBeefSTEAK.sol\":11263:11264  i */\n      dup2\n        /* \"github/nobi/staking/contracts/MultiRewardsBeefSTEAK.sol\":11263:11285  i < _totalRewardTokens */\n      lt\n        /* \"github/nobi/staking/contracts/MultiRewardsBeefSTEAK.sol\":11246:11674  for (uint i = 0; i < _totalRewardTokens; i++) {... */\n      iszero\n      tag_382\n      jumpi\n        /* \"github/nobi/staking/contracts/MultiRewardsBeefSTEAK.sol\":11306:11337  RewardToken storage rewardToken */\n      0x00\n        /* \"github/nobi/staking/contracts/MultiRewardsBeefSTEAK.sol\":11340:11353  _rewardTokens */\n      0x09\n        /* \"github/nobi/staking/contracts/MultiRewardsBeefSTEAK.sol\":11306:11337  RewardToken storage rewardToken */\n      dup2\n        /* \"github/nobi/staking/contracts/MultiRewardsBeefSTEAK.sol\":11354:11359  i + 1 */\n      tag_384\n        /* \"github/nobi/staking/contracts/MultiRewardsBeefSTEAK.sol\":11354:11355  i */\n      dup5\n        /* \"github/nobi/staking/contracts/MultiRewardsBeefSTEAK.sol\":11358:11359  1 */\n      0x01\n        /* \"github/nobi/staking/contracts/MultiRewardsBeefSTEAK.sol\":11354:11359  i + 1 */\n      tag_126\n      jump\t// in\n    tag_384:\n        /* \"github/nobi/staking/contracts/MultiRewardsBeefSTEAK.sol\":11340:11360  _rewardTokens[i + 1] */\n      dup2\n      mstore\n      0x20\n      add\n      swap1\n      dup2\n      mstore\n      0x20\n      add\n      0x00\n      keccak256\n        /* \"github/nobi/staking/contracts/MultiRewardsBeefSTEAK.sol\":11306:11360  RewardToken storage rewardToken = _rewardTokens[i + 1] */\n      swap1\n      pop\n        /* \"github/nobi/staking/contracts/MultiRewardsBeefSTEAK.sol\":11409:11424  rewardsPerToken */\n      dup4\n        /* \"github/nobi/staking/contracts/MultiRewardsBeefSTEAK.sol\":11425:11426  i */\n      dup3\n        /* \"github/nobi/staking/contracts/MultiRewardsBeefSTEAK.sol\":11409:11427  rewardsPerToken[i] */\n      dup2\n      mload\n      dup2\n      lt\n      tag_385\n      jumpi\n      mstore(0x00, 0x4e487b7100000000000000000000000000000000000000000000000000000000)\n      mstore(0x04, 0x32)\n      revert(0x00, 0x24)\n    tag_385:\n      0x20\n      swap1\n      dup2\n      mul\n      swap2\n      swap1\n      swap2\n      add\n      add\n      mload\n        /* \"github/nobi/staking/contracts/MultiRewardsBeefSTEAK.sol\":11374:11406  rewardToken.rewardPerTokenStored */\n      0x02\n      dup3\n      add\n        /* \"github/nobi/staking/contracts/MultiRewardsBeefSTEAK.sol\":11374:11427  rewardToken.rewardPerTokenStored = rewardsPerToken[i] */\n      sstore\n        /* \"github/nobi/staking/contracts/MultiRewardsBeefSTEAK.sol\":11445:11466  account != address(0) */\n      0xffffffffffffffffffffffffffffffffffffffff\n      dup6\n      and\n      iszero\n        /* \"github/nobi/staking/contracts/MultiRewardsBeefSTEAK.sol\":11441:11664  if (account != address(0)) {... */\n      tag_386\n      jumpi\n        /* \"github/nobi/staking/contracts/MultiRewardsBeefSTEAK.sol\":11525:11540  currentEarnings */\n      dup3\n        /* \"github/nobi/staking/contracts/MultiRewardsBeefSTEAK.sol\":11541:11542  i */\n      dup3\n        /* \"github/nobi/staking/contracts/MultiRewardsBeefSTEAK.sol\":11525:11543  currentEarnings[i] */\n      dup2\n      mload\n      dup2\n      lt\n      tag_387\n      jumpi\n      mstore(0x00, 0x4e487b7100000000000000000000000000000000000000000000000000000000)\n      mstore(0x04, 0x32)\n      revert(0x00, 0x24)\n    tag_387:\n      0x20\n      swap1\n      dup2\n      mul\n      swap2\n      swap1\n      swap2\n      add\n      dup2\n      add\n      mload\n        /* \"github/nobi/staking/contracts/MultiRewardsBeefSTEAK.sol\":11486:11503  _rewards[account] */\n      0xffffffffffffffffffffffffffffffffffffffff\n      dup1\n      dup9\n      and\n      0x00\n      swap1\n      dup2\n      mstore\n        /* \"github/nobi/staking/contracts/MultiRewardsBeefSTEAK.sol\":11486:11494  _rewards */\n      0x07\n        /* \"github/nobi/staking/contracts/MultiRewardsBeefSTEAK.sol\":11486:11503  _rewards[account] */\n      dup5\n      mstore\n      0x40\n      dup1\n      dup3\n      keccak256\n        /* \"github/nobi/staking/contracts/MultiRewardsBeefSTEAK.sol\":11504:11521  rewardToken.token */\n      dup7\n      sload\n      swap1\n      swap4\n      and\n        /* \"github/nobi/staking/contracts/MultiRewardsBeefSTEAK.sol\":11486:11522  _rewards[account][rewardToken.token] */\n      dup3\n      mstore\n      swap2\n      swap1\n      swap4\n      mstore\n      swap1\n      swap2\n      keccak256\n        /* \"github/nobi/staking/contracts/MultiRewardsBeefSTEAK.sol\":11486:11543  _rewards[account][rewardToken.token] = currentEarnings[i] */\n      sstore\n        /* \"github/nobi/staking/contracts/MultiRewardsBeefSTEAK.sol\":11615:11633  rewardsPerToken[i] */\n      dup4\n      mload\n        /* \"github/nobi/staking/contracts/MultiRewardsBeefSTEAK.sol\":11615:11630  rewardsPerToken */\n      dup5\n      swap1\n        /* \"github/nobi/staking/contracts/MultiRewardsBeefSTEAK.sol\":11631:11632  i */\n      dup4\n      swap1\n        /* \"github/nobi/staking/contracts/MultiRewardsBeefSTEAK.sol\":11615:11633  rewardsPerToken[i] */\n      dup2\n      lt\n      tag_388\n      jumpi\n      mstore(0x00, 0x4e487b7100000000000000000000000000000000000000000000000000000000)\n      mstore(0x04, 0x32)\n      revert(0x00, 0x24)\n    tag_388:\n      0x20\n      swap1\n      dup2\n      mul\n      swap2\n      swap1\n      swap2\n      add\n      dup2\n      add\n      mload\n        /* \"github/nobi/staking/contracts/MultiRewardsBeefSTEAK.sol\":11561:11593  _userRewardPerTokenPaid[account] */\n      0xffffffffffffffffffffffffffffffffffffffff\n      dup1\n      dup9\n      and\n      0x00\n      swap1\n      dup2\n      mstore\n        /* \"github/nobi/staking/contracts/MultiRewardsBeefSTEAK.sol\":11561:11584  _userRewardPerTokenPaid */\n      0x06\n        /* \"github/nobi/staking/contracts/MultiRewardsBeefSTEAK.sol\":11561:11593  _userRewardPerTokenPaid[account] */\n      dup5\n      mstore\n      0x40\n      dup1\n      dup3\n      keccak256\n        /* \"github/nobi/staking/contracts/MultiRewardsBeefSTEAK.sol\":11594:11611  rewardToken.token */\n      dup7\n      sload\n      swap1\n      swap4\n      and\n        /* \"github/nobi/staking/contracts/MultiRewardsBeefSTEAK.sol\":11561:11612  _userRewardPerTokenPaid[account][rewardToken.token] */\n      dup3\n      mstore\n      swap2\n      swap1\n      swap4\n      mstore\n      swap1\n      swap2\n      keccak256\n        /* \"github/nobi/staking/contracts/MultiRewardsBeefSTEAK.sol\":11561:11633  _userRewardPerTokenPaid[account][rewardToken.token] = rewardsPerToken[i] */\n      sstore\n        /* \"github/nobi/staking/contracts/MultiRewardsBeefSTEAK.sol\":11441:11664  if (account != address(0)) {... */\n    tag_386:\n      pop\n        /* \"github/nobi/staking/contracts/MultiRewardsBeefSTEAK.sol\":11287:11290  i++ */\n      dup1\n      tag_389\n      dup2\n      tag_138\n      jump\t// in\n    tag_389:\n      swap2\n      pop\n      pop\n        /* \"github/nobi/staking/contracts/MultiRewardsBeefSTEAK.sol\":11246:11674  for (uint i = 0; i < _totalRewardTokens; i++) {... */\n      jump(tag_381)\n    tag_382:\n      pop\n        /* \"github/nobi/staking/contracts/MultiRewardsBeefSTEAK.sol\":5052:5053  0 */\n      0x00\n        /* \"github/nobi/staking/contracts/MultiRewardsBeefSTEAK.sol\":5043:5049  amount */\n      dup5\n        /* \"github/nobi/staking/contracts/MultiRewardsBeefSTEAK.sol\":5043:5053  amount > 0 */\n      gt\n        /* \"github/nobi/staking/contracts/MultiRewardsBeefSTEAK.sol\":5035:5072  require(amount > 0, \"Cannot stake 0\") */\n      tag_391\n      jumpi\n      mload(0x40)\n      0x08c379a000000000000000000000000000000000000000000000000000000000\n      dup2\n      mstore\n        /* \"#utility.yul\":6684:6686   */\n      0x20\n        /* \"github/nobi/staking/contracts/MultiRewardsBeefSTEAK.sol\":5035:5072  require(amount > 0, \"Cannot stake 0\") */\n      0x04\n      dup3\n      add\n        /* \"#utility.yul\":6666:6687   */\n      mstore\n        /* \"#utility.yul\":6723:6725   */\n      0x0e\n        /* \"#utility.yul\":6703:6721   */\n      0x24\n      dup3\n      add\n        /* \"#utility.yul\":6696:6726   */\n      mstore\n        /* \"#utility.yul\":6762:6778   */\n      0x43616e6e6f74207374616b652030000000000000000000000000000000000000\n        /* \"#utility.yul\":6742:6760   */\n      0x44\n      dup3\n      add\n        /* \"#utility.yul\":6735:6779   */\n      mstore\n        /* \"#utility.yul\":6796:6814   */\n      0x64\n      add\n        /* \"github/nobi/staking/contracts/MultiRewardsBeefSTEAK.sol\":5035:5072  require(amount > 0, \"Cannot stake 0\") */\n      tag_146\n        /* \"#utility.yul\":6656:6820   */\n      jump\n        /* \"github/nobi/staking/contracts/MultiRewardsBeefSTEAK.sol\":5035:5072  require(amount > 0, \"Cannot stake 0\") */\n    tag_391:\n        /* \"github/nobi/staking/contracts/MultiRewardsBeefSTEAK.sol\":5107:5119  stakingToken */\n      sload(0x02)\n        /* \"github/nobi/staking/contracts/MultiRewardsBeefSTEAK.sol\":5107:5144  stakingToken.balanceOf(address(this)) */\n      mload(0x40)\n      0x70a0823100000000000000000000000000000000000000000000000000000000\n      dup2\n      mstore\n        /* \"github/nobi/staking/contracts/MultiRewardsBeefSTEAK.sol\":5138:5142  this */\n      address\n        /* \"github/nobi/staking/contracts/MultiRewardsBeefSTEAK.sol\":5107:5144  stakingToken.balanceOf(address(this)) */\n      0x04\n      dup3\n      add\n        /* \"#utility.yul\":2704:2778   */\n      mstore\n        /* \"github/nobi/staking/contracts/MultiRewardsBeefSTEAK.sol\":5082:5104  uint256 currentBalance */\n      0x00\n      swap2\n        /* \"github/nobi/staking/contracts/MultiRewardsBeefSTEAK.sol\":5107:5119  stakingToken */\n      0xffffffffffffffffffffffffffffffffffffffff\n      and\n      swap1\n        /* \"github/nobi/staking/contracts/MultiRewardsBeefSTEAK.sol\":5107:5129  stakingToken.balanceOf */\n      0x70a08231\n      swap1\n        /* \"#utility.yul\":2677:2695   */\n      0x24\n      add\n        /* \"github/nobi/staking/contracts/MultiRewardsBeefSTEAK.sol\":5107:5144  stakingToken.balanceOf(address(this)) */\n      0x20\n      mload(0x40)\n      dup1\n      dup4\n      sub\n      dup2\n      dup7\n      dup1\n      extcodesize\n      iszero\n      dup1\n      iszero\n      tag_395\n      jumpi\n      0x00\n      dup1\n      revert\n    tag_395:\n      pop\n      gas\n      staticcall\n      iszero\n      dup1\n      iszero\n      tag_397\n      jumpi\n      returndatasize\n      0x00\n      dup1\n      returndatacopy\n      revert(0x00, returndatasize)\n    tag_397:\n      pop\n      pop\n      pop\n      pop\n      mload(0x40)\n      returndatasize\n      not(0x1f)\n      0x1f\n      dup3\n      add\n      and\n      dup3\n      add\n      dup1\n      0x40\n      mstore\n      pop\n      dup2\n      add\n      swap1\n      tag_398\n      swap2\n      swap1\n      tag_157\n      jump\t// in\n    tag_398:\n        /* \"github/nobi/staking/contracts/MultiRewardsBeefSTEAK.sol\":5154:5166  stakingToken */\n      sload(0x02)\n        /* \"github/nobi/staking/contracts/MultiRewardsBeefSTEAK.sol\":5082:5144  uint256 currentBalance = stakingToken.balanceOf(address(this)) */\n      swap1\n      swap2\n      pop\n        /* \"github/nobi/staking/contracts/MultiRewardsBeefSTEAK.sol\":5154:5218  stakingToken.safeTransferFrom(msg.sender, address(this), amount) */\n      tag_399\n      swap1\n        /* \"github/nobi/staking/contracts/MultiRewardsBeefSTEAK.sol\":5154:5166  stakingToken */\n      0xffffffffffffffffffffffffffffffffffffffff\n      and\n        /* \"github/nobi/staking/contracts/MultiRewardsBeefSTEAK.sol\":5184:5194  msg.sender */\n      caller\n        /* \"github/nobi/staking/contracts/MultiRewardsBeefSTEAK.sol\":5204:5208  this */\n      address\n        /* \"github/nobi/staking/contracts/MultiRewardsBeefSTEAK.sol\":5211:5217  amount */\n      dup9\n        /* \"github/nobi/staking/contracts/MultiRewardsBeefSTEAK.sol\":5154:5183  stakingToken.safeTransferFrom */\n      tag_290\n        /* \"github/nobi/staking/contracts/MultiRewardsBeefSTEAK.sol\":5154:5218  stakingToken.safeTransferFrom(msg.sender, address(this), amount) */\n      jump\t// in\n    tag_399:\n        /* \"github/nobi/staking/contracts/MultiRewardsBeefSTEAK.sol\":5249:5261  stakingToken */\n      sload(0x02)\n        /* \"github/nobi/staking/contracts/MultiRewardsBeefSTEAK.sol\":5249:5286  stakingToken.balanceOf(address(this)) */\n      mload(0x40)\n      0x70a0823100000000000000000000000000000000000000000000000000000000\n      dup2\n      mstore\n        /* \"github/nobi/staking/contracts/MultiRewardsBeefSTEAK.sol\":5280:5284  this */\n      address\n        /* \"github/nobi/staking/contracts/MultiRewardsBeefSTEAK.sol\":5249:5286  stakingToken.balanceOf(address(this)) */\n      0x04\n      dup3\n      add\n        /* \"#utility.yul\":2704:2778   */\n      mstore\n        /* \"github/nobi/staking/contracts/MultiRewardsBeefSTEAK.sol\":5228:5246  uint256 newBalance */\n      0x00\n      swap2\n        /* \"github/nobi/staking/contracts/MultiRewardsBeefSTEAK.sol\":5249:5261  stakingToken */\n      0xffffffffffffffffffffffffffffffffffffffff\n      and\n      swap1\n        /* \"github/nobi/staking/contracts/MultiRewardsBeefSTEAK.sol\":5249:5271  stakingToken.balanceOf */\n      0x70a08231\n      swap1\n        /* \"#utility.yul\":2677:2695   */\n      0x24\n      add\n        /* \"github/nobi/staking/contracts/MultiRewardsBeefSTEAK.sol\":5249:5286  stakingToken.balanceOf(address(this)) */\n      0x20\n      mload(0x40)\n      dup1\n      dup4\n      sub\n      dup2\n      dup7\n      dup1\n      extcodesize\n      iszero\n      dup1\n      iszero\n      tag_401\n      jumpi\n      0x00\n      dup1\n      revert\n    tag_401:\n      pop\n      gas\n      staticcall\n      iszero\n      dup1\n      iszero\n      tag_403\n      jumpi\n      returndatasize\n      0x00\n      dup1\n      returndatacopy\n      revert(0x00, returndatasize)\n    tag_403:\n      pop\n      pop\n      pop\n      pop\n      mload(0x40)\n      returndatasize\n      not(0x1f)\n      0x1f\n      dup3\n      add\n      and\n      dup3\n      add\n      dup1\n      0x40\n      mstore\n      pop\n      dup2\n      add\n      swap1\n      tag_404\n      swap2\n      swap1\n      tag_157\n      jump\t// in\n    tag_404:\n        /* \"github/nobi/staking/contracts/MultiRewardsBeefSTEAK.sol\":5228:5286  uint256 newBalance = stakingToken.balanceOf(address(this)) */\n      swap1\n      pop\n        /* \"github/nobi/staking/contracts/MultiRewardsBeefSTEAK.sol\":5296:5314  uint256 supplyDiff */\n      0x00\n        /* \"github/nobi/staking/contracts/MultiRewardsBeefSTEAK.sol\":5317:5347  newBalance.sub(currentBalance) */\n      tag_405\n        /* \"github/nobi/staking/contracts/MultiRewardsBeefSTEAK.sol\":5228:5286  uint256 newBalance = stakingToken.balanceOf(address(this)) */\n      dup3\n        /* \"github/nobi/staking/contracts/MultiRewardsBeefSTEAK.sol\":5332:5346  currentBalance */\n      dup5\n        /* \"github/nobi/staking/contracts/MultiRewardsBeefSTEAK.sol\":5317:5331  newBalance.sub */\n      tag_132\n        /* \"github/nobi/staking/contracts/MultiRewardsBeefSTEAK.sol\":5317:5347  newBalance.sub(currentBalance) */\n      jump\t// in\n    tag_405:\n        /* \"github/nobi/staking/contracts/MultiRewardsBeefSTEAK.sol\":5372:5384  _totalSupply */\n      sload(0x0b)\n        /* \"github/nobi/staking/contracts/MultiRewardsBeefSTEAK.sol\":5296:5347  uint256 supplyDiff = newBalance.sub(currentBalance) */\n      swap1\n      swap2\n      pop\n        /* \"github/nobi/staking/contracts/MultiRewardsBeefSTEAK.sol\":5372:5400  _totalSupply.add(supplyDiff) */\n      tag_406\n      swap1\n        /* \"github/nobi/staking/contracts/MultiRewardsBeefSTEAK.sol\":5296:5347  uint256 supplyDiff = newBalance.sub(currentBalance) */\n      dup3\n        /* \"github/nobi/staking/contracts/MultiRewardsBeefSTEAK.sol\":5372:5388  _totalSupply.add */\n      tag_135\n        /* \"github/nobi/staking/contracts/MultiRewardsBeefSTEAK.sol\":5372:5400  _totalSupply.add(supplyDiff) */\n      jump\t// in\n    tag_406:\n        /* \"github/nobi/staking/contracts/MultiRewardsBeefSTEAK.sol\":5357:5369  _totalSupply */\n      0x0b\n        /* \"github/nobi/staking/contracts/MultiRewardsBeefSTEAK.sol\":5357:5400  _totalSupply = _totalSupply.add(supplyDiff) */\n      sstore\n        /* \"github/nobi/staking/contracts/MultiRewardsBeefSTEAK.sol\":5444:5454  msg.sender */\n      caller\n        /* \"github/nobi/staking/contracts/MultiRewardsBeefSTEAK.sol\":5434:5455  _balances[msg.sender] */\n      0x00\n      swap1\n      dup2\n      mstore\n        /* \"github/nobi/staking/contracts/MultiRewardsBeefSTEAK.sol\":5434:5443  _balances */\n      0x0c\n        /* \"github/nobi/staking/contracts/MultiRewardsBeefSTEAK.sol\":5434:5455  _balances[msg.sender] */\n      0x20\n      mstore\n      0x40\n      swap1\n      keccak256\n      sload\n        /* \"github/nobi/staking/contracts/MultiRewardsBeefSTEAK.sol\":5434:5471  _balances[msg.sender].add(supplyDiff) */\n      tag_407\n      swap1\n        /* \"github/nobi/staking/contracts/MultiRewardsBeefSTEAK.sol\":5460:5470  supplyDiff */\n      dup3\n        /* \"github/nobi/staking/contracts/MultiRewardsBeefSTEAK.sol\":5434:5459  _balances[msg.sender].add */\n      tag_135\n        /* \"github/nobi/staking/contracts/MultiRewardsBeefSTEAK.sol\":5434:5471  _balances[msg.sender].add(supplyDiff) */\n      jump\t// in\n    tag_407:\n        /* \"github/nobi/staking/contracts/MultiRewardsBeefSTEAK.sol\":5420:5430  msg.sender */\n      caller\n        /* \"github/nobi/staking/contracts/MultiRewardsBeefSTEAK.sol\":5410:5431  _balances[msg.sender] */\n      0x00\n      dup2\n      dup2\n      mstore\n        /* \"github/nobi/staking/contracts/MultiRewardsBeefSTEAK.sol\":5410:5419  _balances */\n      0x0c\n        /* \"github/nobi/staking/contracts/MultiRewardsBeefSTEAK.sol\":5410:5431  _balances[msg.sender] */\n      0x20\n      mstore\n      0x40\n      swap1\n      dup2\n      swap1\n      keccak256\n        /* \"github/nobi/staking/contracts/MultiRewardsBeefSTEAK.sol\":5410:5471  _balances[msg.sender] = _balances[msg.sender].add(supplyDiff) */\n      swap3\n      swap1\n      swap3\n      sstore\n        /* \"github/nobi/staking/contracts/MultiRewardsBeefSTEAK.sol\":5486:5512  Staked(msg.sender, amount) */\n      swap1\n      mload\n      0x9e71bc8eea02a63969f509818f2dafb9254532904319f9dbda79b67bd34a5f3d\n      swap1\n      tag_408\n      swap1\n        /* \"github/nobi/staking/contracts/MultiRewardsBeefSTEAK.sol\":5505:5511  amount */\n      dup11\n        /* \"#utility.yul\":11308:11333   */\n      dup2\n      mstore\n        /* \"#utility.yul\":11296:11298   */\n      0x20\n        /* \"#utility.yul\":11281:11299   */\n      add\n      swap1\n        /* \"#utility.yul\":11263:11339   */\n      jump\n        /* \"github/nobi/staking/contracts/MultiRewardsBeefSTEAK.sol\":5486:5512  Staked(msg.sender, amount) */\n    tag_408:\n      mload(0x40)\n      dup1\n      swap2\n      sub\n      swap1\n      log2\n      pop\n      pop\n        /* \"github/nobi/staking/contracts/helpers/ReentrancyGuard.sol\":1701:1702  1 */\n      0x01\n        /* \"github/nobi/staking/contracts/helpers/ReentrancyGuard.sol\":2628:2635  _status */\n      0x00\n        /* \"github/nobi/staking/contracts/helpers/ReentrancyGuard.sol\":2628:2650  _status = _NOT_ENTERED */\n      sstore\n      pop\n      pop\n      pop\n      pop\n      pop\n        /* \"github/nobi/staking/contracts/MultiRewardsBeefSTEAK.sol\":4947:5519  function stake(uint256 amount) external nonReentrant updateReward(msg.sender) {... */\n      jump\t// out\n        /* \"github/nobi/staking/contracts/MultiRewardsBeefSTEAK.sol\":3659:3949  function getRewardTokens() public view returns (RewardToken[] memory) {... */\n    tag_98:\n        /* \"github/nobi/staking/contracts/MultiRewardsBeefSTEAK.sol\":3707:3727  RewardToken[] memory */\n      0x60\n        /* \"github/nobi/staking/contracts/MultiRewardsBeefSTEAK.sol\":3739:3766  RewardToken[] memory tokens */\n      0x00\n        /* \"github/nobi/staking/contracts/MultiRewardsBeefSTEAK.sol\":3787:3805  _totalRewardTokens */\n      sload(0x08)\n        /* \"github/nobi/staking/contracts/MultiRewardsBeefSTEAK.sol\":3769:3806  new RewardToken[](_totalRewardTokens) */\n      0xffffffffffffffff\n      dup2\n      gt\n      iszero\n      tag_410\n      jumpi\n      mstore(0x00, 0x4e487b7100000000000000000000000000000000000000000000000000000000)\n      mstore(0x04, 0x41)\n      revert(0x00, 0x24)\n    tag_410:\n      mload(0x40)\n      swap1\n      dup1\n      dup3\n      mstore\n      dup1\n      0x20\n      mul\n      0x20\n      add\n      dup3\n      add\n      0x40\n      mstore\n      dup1\n      iszero\n      tag_411\n      jumpi\n      dup2\n      0x20\n      add\n    tag_412:\n      tag_413\n      mload(0x40)\n      dup1\n      0x60\n      add\n      0x40\n      mstore\n      dup1\n      and(0xffffffffffffffffffffffffffffffffffffffff, 0x00)\n      dup2\n      mstore\n      0x20\n      add\n      0x00\n      dup2\n      mstore\n      0x20\n      add\n      0x00\n      dup2\n      mstore\n      pop\n      swap1\n      jump\n    tag_413:\n      dup2\n      mstore\n      0x20\n      add\n      swap1\n      0x01\n      swap1\n      sub\n      swap1\n      dup2\n      tag_412\n      jumpi\n      swap1\n      pop\n    tag_411:\n      pop\n        /* \"github/nobi/staking/contracts/MultiRewardsBeefSTEAK.sol\":3739:3806  RewardToken[] memory tokens = new RewardToken[](_totalRewardTokens) */\n      swap1\n      pop\n        /* \"github/nobi/staking/contracts/MultiRewardsBeefSTEAK.sol\":3821:3827  uint i */\n      0x00\n        /* \"github/nobi/staking/contracts/MultiRewardsBeefSTEAK.sol\":3816:3919  for (uint i = 0; i < _totalRewardTokens; i++) {... */\n    tag_415:\n        /* \"github/nobi/staking/contracts/MultiRewardsBeefSTEAK.sol\":3837:3855  _totalRewardTokens */\n      sload(0x08)\n        /* \"github/nobi/staking/contracts/MultiRewardsBeefSTEAK.sol\":3833:3834  i */\n      dup2\n        /* \"github/nobi/staking/contracts/MultiRewardsBeefSTEAK.sol\":3833:3855  i < _totalRewardTokens */\n      lt\n        /* \"github/nobi/staking/contracts/MultiRewardsBeefSTEAK.sol\":3816:3919  for (uint i = 0; i < _totalRewardTokens; i++) {... */\n      iszero\n      tag_182\n      jumpi\n        /* \"github/nobi/staking/contracts/MultiRewardsBeefSTEAK.sol\":3888:3901  _rewardTokens */\n      0x09\n        /* \"github/nobi/staking/contracts/MultiRewardsBeefSTEAK.sol\":3888:3908  _rewardTokens[i + 1] */\n      0x00\n        /* \"github/nobi/staking/contracts/MultiRewardsBeefSTEAK.sol\":3902:3907  i + 1 */\n      tag_418\n        /* \"github/nobi/staking/contracts/MultiRewardsBeefSTEAK.sol\":3902:3903  i */\n      dup4\n        /* \"github/nobi/staking/contracts/MultiRewardsBeefSTEAK.sol\":3906:3907  1 */\n      0x01\n        /* \"github/nobi/staking/contracts/MultiRewardsBeefSTEAK.sol\":3902:3907  i + 1 */\n      tag_126\n      jump\t// in\n    tag_418:\n        /* \"github/nobi/staking/contracts/MultiRewardsBeefSTEAK.sol\":3888:3908  _rewardTokens[i + 1] */\n      dup2\n      mstore\n      0x20\n      dup1\n      dup3\n      add\n      swap3\n      swap1\n      swap3\n      mstore\n      0x40\n      swap1\n      dup2\n      add\n      0x00\n      keccak256\n        /* \"github/nobi/staking/contracts/MultiRewardsBeefSTEAK.sol\":3876:3908  tokens[i] = _rewardTokens[i + 1] */\n      dup2\n      mload\n      0x60\n      dup2\n      add\n      dup4\n      mstore\n      dup2\n      sload\n      0xffffffffffffffffffffffffffffffffffffffff\n      and\n      dup2\n      mstore\n      0x01\n      dup3\n      add\n      sload\n      swap4\n      dup2\n      add\n      swap4\n      swap1\n      swap4\n      mstore\n      0x02\n      add\n      sload\n      swap1\n      dup3\n      add\n      mstore\n        /* \"github/nobi/staking/contracts/MultiRewardsBeefSTEAK.sol\":3876:3885  tokens[i] */\n      dup3\n      mload\n        /* \"github/nobi/staking/contracts/MultiRewardsBeefSTEAK.sol\":3876:3882  tokens */\n      dup4\n      swap1\n        /* \"github/nobi/staking/contracts/MultiRewardsBeefSTEAK.sol\":3883:3884  i */\n      dup4\n      swap1\n        /* \"github/nobi/staking/contracts/MultiRewardsBeefSTEAK.sol\":3876:3885  tokens[i] */\n      dup2\n      lt\n      tag_419\n      jumpi\n      mstore(0x00, 0x4e487b7100000000000000000000000000000000000000000000000000000000)\n      mstore(0x04, 0x32)\n      revert(0x00, 0x24)\n    tag_419:\n      0x20\n      mul\n      0x20\n      add\n      add\n        /* \"github/nobi/staking/contracts/MultiRewardsBeefSTEAK.sol\":3876:3908  tokens[i] = _rewardTokens[i + 1] */\n      dup2\n      swap1\n      mstore\n      pop\n        /* \"github/nobi/staking/contracts/MultiRewardsBeefSTEAK.sol\":3857:3860  i++ */\n      dup1\n      dup1\n      tag_420\n      swap1\n      tag_138\n      jump\t// in\n    tag_420:\n      swap2\n      pop\n      pop\n        /* \"github/nobi/staking/contracts/MultiRewardsBeefSTEAK.sol\":3816:3919  for (uint i = 0; i < _totalRewardTokens; i++) {... */\n      jump(tag_415)\n        /* \"github/nobi/staking/contracts/MultiRewardsBeefSTEAK.sol\":2268:3076  function rewardPerToken() public view returns (uint256[] memory) {... */\n    tag_105:\n        /* \"github/nobi/staking/contracts/MultiRewardsBeefSTEAK.sol\":2315:2331  uint256[] memory */\n      0x60\n        /* \"github/nobi/staking/contracts/MultiRewardsBeefSTEAK.sol\":2343:2366  uint256[] memory tokens */\n      0x00\n        /* \"github/nobi/staking/contracts/MultiRewardsBeefSTEAK.sol\":2383:2401  _totalRewardTokens */\n      sload(0x08)\n        /* \"github/nobi/staking/contracts/MultiRewardsBeefSTEAK.sol\":2369:2402  new uint256[](_totalRewardTokens) */\n      0xffffffffffffffff\n      dup2\n      gt\n      iszero\n      tag_422\n      jumpi\n      mstore(0x00, 0x4e487b7100000000000000000000000000000000000000000000000000000000)\n      mstore(0x04, 0x41)\n      revert(0x00, 0x24)\n    tag_422:\n      mload(0x40)\n      swap1\n      dup1\n      dup3\n      mstore\n      dup1\n      0x20\n      mul\n      0x20\n      add\n      dup3\n      add\n      0x40\n      mstore\n      dup1\n      iszero\n      tag_423\n      jumpi\n      dup2\n      0x20\n      add\n      0x20\n      dup3\n      mul\n      dup1\n      calldatasize\n      dup4\n      calldatacopy\n      add\n      swap1\n      pop\n    tag_423:\n      pop\n        /* \"github/nobi/staking/contracts/MultiRewardsBeefSTEAK.sol\":2343:2402  uint256[] memory tokens = new uint256[](_totalRewardTokens) */\n      swap1\n      pop\n        /* \"github/nobi/staking/contracts/MultiRewardsBeefSTEAK.sol\":2416:2428  _totalSupply */\n      sload(0x0b)\n        /* \"github/nobi/staking/contracts/MultiRewardsBeefSTEAK.sol\":2432:2433  0 */\n      0x00\n        /* \"github/nobi/staking/contracts/MultiRewardsBeefSTEAK.sol\":2416:2433  _totalSupply == 0 */\n      eq\n        /* \"github/nobi/staking/contracts/MultiRewardsBeefSTEAK.sol\":2412:3046  if (_totalSupply == 0) {... */\n      iszero\n      tag_424\n      jumpi\n        /* \"github/nobi/staking/contracts/MultiRewardsBeefSTEAK.sol\":2454:2460  uint i */\n      0x00\n        /* \"github/nobi/staking/contracts/MultiRewardsBeefSTEAK.sol\":2449:2581  for (uint i = 0; i < _totalRewardTokens; i++) {... */\n    tag_425:\n        /* \"github/nobi/staking/contracts/MultiRewardsBeefSTEAK.sol\":2470:2488  _totalRewardTokens */\n      sload(0x08)\n        /* \"github/nobi/staking/contracts/MultiRewardsBeefSTEAK.sol\":2466:2467  i */\n      dup2\n        /* \"github/nobi/staking/contracts/MultiRewardsBeefSTEAK.sol\":2466:2488  i < _totalRewardTokens */\n      lt\n        /* \"github/nobi/staking/contracts/MultiRewardsBeefSTEAK.sol\":2449:2581  for (uint i = 0; i < _totalRewardTokens; i++) {... */\n      iszero\n      tag_182\n      jumpi\n        /* \"github/nobi/staking/contracts/MultiRewardsBeefSTEAK.sol\":2525:2538  _rewardTokens */\n      0x09\n        /* \"github/nobi/staking/contracts/MultiRewardsBeefSTEAK.sol\":2525:2545  _rewardTokens[i + 1] */\n      0x00\n        /* \"github/nobi/staking/contracts/MultiRewardsBeefSTEAK.sol\":2539:2544  i + 1 */\n      tag_428\n        /* \"github/nobi/staking/contracts/MultiRewardsBeefSTEAK.sol\":2539:2540  i */\n      dup4\n        /* \"github/nobi/staking/contracts/MultiRewardsBeefSTEAK.sol\":2543:2544  1 */\n      0x01\n        /* \"github/nobi/staking/contracts/MultiRewardsBeefSTEAK.sol\":2539:2544  i + 1 */\n      tag_126\n      jump\t// in\n    tag_428:\n        /* \"github/nobi/staking/contracts/MultiRewardsBeefSTEAK.sol\":2525:2545  _rewardTokens[i + 1] */\n      dup2\n      mstore\n      0x20\n      add\n      swap1\n      dup2\n      mstore\n      0x20\n      add\n      0x00\n      keccak256\n        /* \"github/nobi/staking/contracts/MultiRewardsBeefSTEAK.sol\":2525:2566  _rewardTokens[i + 1].rewardPerTokenStored */\n      0x02\n      add\n      sload\n        /* \"github/nobi/staking/contracts/MultiRewardsBeefSTEAK.sol\":2513:2519  tokens */\n      dup3\n        /* \"github/nobi/staking/contracts/MultiRewardsBeefSTEAK.sol\":2520:2521  i */\n      dup3\n        /* \"github/nobi/staking/contracts/MultiRewardsBeefSTEAK.sol\":2513:2522  tokens[i] */\n      dup2\n      mload\n      dup2\n      lt\n      tag_429\n      jumpi\n      mstore(0x00, 0x4e487b7100000000000000000000000000000000000000000000000000000000)\n      mstore(0x04, 0x32)\n      revert(0x00, 0x24)\n    tag_429:\n      0x20\n      swap1\n      dup2\n      mul\n      swap2\n      swap1\n      swap2\n      add\n      add\n        /* \"github/nobi/staking/contracts/MultiRewardsBeefSTEAK.sol\":2513:2566  tokens[i] = _rewardTokens[i + 1].rewardPerTokenStored */\n      mstore\n        /* \"github/nobi/staking/contracts/MultiRewardsBeefSTEAK.sol\":2490:2493  i++ */\n      dup1\n      tag_430\n      dup2\n      tag_138\n      jump\t// in\n    tag_430:\n      swap2\n      pop\n      pop\n        /* \"github/nobi/staking/contracts/MultiRewardsBeefSTEAK.sol\":2449:2581  for (uint i = 0; i < _totalRewardTokens; i++) {... */\n      jump(tag_425)\n        /* \"github/nobi/staking/contracts/MultiRewardsBeefSTEAK.sol\":2412:3046  if (_totalSupply == 0) {... */\n    tag_424:\n        /* \"github/nobi/staking/contracts/MultiRewardsBeefSTEAK.sol\":2616:2622  uint i */\n      0x00\n        /* \"github/nobi/staking/contracts/MultiRewardsBeefSTEAK.sol\":2611:3036  for (uint i = 0; i < _totalRewardTokens; i++) {... */\n    tag_432:\n        /* \"github/nobi/staking/contracts/MultiRewardsBeefSTEAK.sol\":2632:2650  _totalRewardTokens */\n      sload(0x08)\n        /* \"github/nobi/staking/contracts/MultiRewardsBeefSTEAK.sol\":2628:2629  i */\n      dup2\n        /* \"github/nobi/staking/contracts/MultiRewardsBeefSTEAK.sol\":2628:2650  i < _totalRewardTokens */\n      lt\n        /* \"github/nobi/staking/contracts/MultiRewardsBeefSTEAK.sol\":2611:3036  for (uint i = 0; i < _totalRewardTokens; i++) {... */\n      iszero\n      tag_182\n      jumpi\n        /* \"github/nobi/staking/contracts/MultiRewardsBeefSTEAK.sol\":2675:2706  RewardToken storage rewardToken */\n      0x00\n        /* \"github/nobi/staking/contracts/MultiRewardsBeefSTEAK.sol\":2709:2722  _rewardTokens */\n      0x09\n        /* \"github/nobi/staking/contracts/MultiRewardsBeefSTEAK.sol\":2675:2706  RewardToken storage rewardToken */\n      dup2\n        /* \"github/nobi/staking/contracts/MultiRewardsBeefSTEAK.sol\":2723:2728  i + 1 */\n      tag_435\n        /* \"github/nobi/staking/contracts/MultiRewardsBeefSTEAK.sol\":2723:2724  i */\n      dup5\n        /* \"github/nobi/staking/contracts/MultiRewardsBeefSTEAK.sol\":2727:2728  1 */\n      0x01\n        /* \"github/nobi/staking/contracts/MultiRewardsBeefSTEAK.sol\":2723:2728  i + 1 */\n      tag_126\n      jump\t// in\n    tag_435:\n        /* \"github/nobi/staking/contracts/MultiRewardsBeefSTEAK.sol\":2709:2729  _rewardTokens[i + 1] */\n      dup2\n      mstore\n      0x20\n      add\n      swap1\n      dup2\n      mstore\n      0x20\n      add\n      0x00\n      keccak256\n        /* \"github/nobi/staking/contracts/MultiRewardsBeefSTEAK.sol\":2675:2729  RewardToken storage rewardToken = _rewardTokens[i + 1] */\n      swap1\n      pop\n        /* \"github/nobi/staking/contracts/MultiRewardsBeefSTEAK.sol\":2759:3021  rewardToken.rewardPerTokenStored.add(... */\n      tag_436\n        /* \"github/nobi/staking/contracts/MultiRewardsBeefSTEAK.sol\":2817:3003  lastTimeRewardApplicable()... */\n      tag_437\n        /* \"github/nobi/staking/contracts/MultiRewardsBeefSTEAK.sol\":2990:3002  _totalSupply */\n      sload(0x0b)\n        /* \"github/nobi/staking/contracts/MultiRewardsBeefSTEAK.sol\":2817:2964  lastTimeRewardApplicable()... */\n      tag_129\n        /* \"github/nobi/staking/contracts/MultiRewardsBeefSTEAK.sol\":2959:2963  1e18 */\n      0x0de0b6b3a7640000\n        /* \"github/nobi/staking/contracts/MultiRewardsBeefSTEAK.sol\":2817:2933  lastTimeRewardApplicable()... */\n      tag_372\n        /* \"github/nobi/staking/contracts/MultiRewardsBeefSTEAK.sol\":2910:2921  rewardToken */\n      dup7\n        /* \"github/nobi/staking/contracts/MultiRewardsBeefSTEAK.sol\":2910:2932  rewardToken.rewardRate */\n      0x01\n      add\n      sload\n        /* \"github/nobi/staking/contracts/MultiRewardsBeefSTEAK.sol\":2817:2884  lastTimeRewardApplicable()... */\n      tag_372\n        /* \"github/nobi/staking/contracts/MultiRewardsBeefSTEAK.sol\":2869:2883  lastUpdateTime */\n      sload(0x05)\n        /* \"github/nobi/staking/contracts/MultiRewardsBeefSTEAK.sol\":2817:2843  lastTimeRewardApplicable() */\n      tag_296\n        /* \"github/nobi/staking/contracts/MultiRewardsBeefSTEAK.sol\":2817:2841  lastTimeRewardApplicable */\n      tag_84\n        /* \"github/nobi/staking/contracts/MultiRewardsBeefSTEAK.sol\":2817:2843  lastTimeRewardApplicable() */\n      jump\t// in\n        /* \"github/nobi/staking/contracts/MultiRewardsBeefSTEAK.sol\":2817:3003  lastTimeRewardApplicable()... */\n    tag_437:\n        /* \"github/nobi/staking/contracts/MultiRewardsBeefSTEAK.sol\":2759:2791  rewardToken.rewardPerTokenStored */\n      0x02\n      dup4\n      add\n      sload\n      swap1\n        /* \"github/nobi/staking/contracts/MultiRewardsBeefSTEAK.sol\":2759:2795  rewardToken.rewardPerTokenStored.add */\n      tag_135\n        /* \"github/nobi/staking/contracts/MultiRewardsBeefSTEAK.sol\":2759:3021  rewardToken.rewardPerTokenStored.add(... */\n      jump\t// in\n    tag_436:\n        /* \"github/nobi/staking/contracts/MultiRewardsBeefSTEAK.sol\":2747:2753  tokens */\n      dup4\n        /* \"github/nobi/staking/contracts/MultiRewardsBeefSTEAK.sol\":2754:2755  i */\n      dup4\n        /* \"github/nobi/staking/contracts/MultiRewardsBeefSTEAK.sol\":2747:2756  tokens[i] */\n      dup2\n      mload\n      dup2\n      lt\n      tag_442\n      jumpi\n      mstore(0x00, 0x4e487b7100000000000000000000000000000000000000000000000000000000)\n      mstore(0x04, 0x32)\n      revert(0x00, 0x24)\n    tag_442:\n      0x20\n      swap1\n      dup2\n      mul\n      swap2\n      swap1\n      swap2\n      add\n      add\n        /* \"github/nobi/staking/contracts/MultiRewardsBeefSTEAK.sol\":2747:3021  tokens[i] = rewardToken.rewardPerTokenStored.add(... */\n      mstore\n      pop\n        /* \"github/nobi/staking/contracts/MultiRewardsBeefSTEAK.sol\":2652:2655  i++ */\n      dup1\n      tag_443\n      dup2\n      tag_138\n      jump\t// in\n    tag_443:\n      swap2\n      pop\n      pop\n        /* \"github/nobi/staking/contracts/MultiRewardsBeefSTEAK.sol\":2611:3036  for (uint i = 0; i < _totalRewardTokens; i++) {... */\n      jump(tag_432)\n        /* \"github/nobi/staking/contracts/MultiRewardsBeefSTEAK.sol\":7919:8948  function notifyRewardAmount(uint256[] memory reward) public onlyOwner updateReward(address(0)) {... */\n    tag_109:\n        /* \"github/nobi/staking/contracts/helpers/Ownable.sol\":1101:1107  _owner */\n      sload(0x01)\n        /* \"github/nobi/staking/contracts/helpers/Ownable.sol\":1241:1264  owner() == _msgSender() */\n      0xffffffffffffffffffffffffffffffffffffffff\n        /* \"github/nobi/staking/contracts/helpers/Ownable.sol\":1101:1107  _owner */\n      and\n        /* \"github/nobi/staking/contracts/helpers/Context.sol\":719:729  msg.sender */\n      caller\n        /* \"github/nobi/staking/contracts/helpers/Ownable.sol\":1241:1264  owner() == _msgSender() */\n      eq\n        /* \"github/nobi/staking/contracts/helpers/Ownable.sol\":1233:1301  require(owner() == _msgSender(), \"Ownable: caller is not the owner\") */\n      tag_447\n      jumpi\n      mload(0x40)\n      0x08c379a000000000000000000000000000000000000000000000000000000000\n      dup2\n      mstore\n        /* \"#utility.yul\":9177:9179   */\n      0x20\n        /* \"github/nobi/staking/contracts/helpers/Ownable.sol\":1233:1301  require(owner() == _msgSender(), \"Ownable: caller is not the owner\") */\n      0x04\n      dup3\n      add\n        /* \"#utility.yul\":9159:9180   */\n      dup2\n      swap1\n      mstore\n        /* \"#utility.yul\":9196:9214   */\n      0x24\n      dup3\n      add\n        /* \"#utility.yul\":9189:9219   */\n      mstore\n        /* \"#utility.yul\":9255:9289   */\n      0x4f776e61626c653a2063616c6c6572206973206e6f7420746865206f776e6572\n        /* \"#utility.yul\":9235:9253   */\n      0x44\n      dup3\n      add\n        /* \"#utility.yul\":9228:9290   */\n      mstore\n        /* \"#utility.yul\":9307:9325   */\n      0x64\n      add\n        /* \"github/nobi/staking/contracts/helpers/Ownable.sol\":1233:1301  require(owner() == _msgSender(), \"Ownable: caller is not the owner\") */\n      tag_146\n        /* \"#utility.yul\":9149:9331   */\n      jump\n        /* \"github/nobi/staking/contracts/helpers/Ownable.sol\":1233:1301  require(owner() == _msgSender(), \"Ownable: caller is not the owner\") */\n    tag_447:\n        /* \"github/nobi/staking/contracts/MultiRewardsBeefSTEAK.sol\":8010:8011  0 */\n      0x00\n        /* \"github/nobi/staking/contracts/MultiRewardsBeefSTEAK.sol\":11072:11104  uint256[] memory rewardsPerToken */\n      dup1\n        /* \"github/nobi/staking/contracts/MultiRewardsBeefSTEAK.sol\":11107:11123  rewardPerToken() */\n      tag_450\n        /* \"github/nobi/staking/contracts/MultiRewardsBeefSTEAK.sol\":11107:11121  rewardPerToken */\n      tag_105\n        /* \"github/nobi/staking/contracts/MultiRewardsBeefSTEAK.sol\":11107:11123  rewardPerToken() */\n      jump\t// in\n    tag_450:\n        /* \"github/nobi/staking/contracts/MultiRewardsBeefSTEAK.sol\":11072:11123  uint256[] memory rewardsPerToken = rewardPerToken() */\n      swap1\n      pop\n        /* \"github/nobi/staking/contracts/MultiRewardsBeefSTEAK.sol\":11133:11165  uint256[] memory currentEarnings */\n      0x00\n        /* \"github/nobi/staking/contracts/MultiRewardsBeefSTEAK.sol\":11168:11183  earned(account) */\n      tag_451\n        /* \"github/nobi/staking/contracts/MultiRewardsBeefSTEAK.sol\":11175:11182  account */\n      dup4\n        /* \"github/nobi/staking/contracts/MultiRewardsBeefSTEAK.sol\":11168:11174  earned */\n      tag_38\n        /* \"github/nobi/staking/contracts/MultiRewardsBeefSTEAK.sol\":11168:11183  earned(account) */\n      jump\t// in\n    tag_451:\n        /* \"github/nobi/staking/contracts/MultiRewardsBeefSTEAK.sol\":11133:11183  uint256[] memory currentEarnings = earned(account) */\n      swap1\n      pop\n        /* \"github/nobi/staking/contracts/MultiRewardsBeefSTEAK.sol\":11210:11236  lastTimeRewardApplicable() */\n      tag_452\n        /* \"github/nobi/staking/contracts/MultiRewardsBeefSTEAK.sol\":11210:11234  lastTimeRewardApplicable */\n      tag_84\n        /* \"github/nobi/staking/contracts/MultiRewardsBeefSTEAK.sol\":11210:11236  lastTimeRewardApplicable() */\n      jump\t// in\n    tag_452:\n        /* \"github/nobi/staking/contracts/MultiRewardsBeefSTEAK.sol\":11193:11207  lastUpdateTime */\n      0x05\n        /* \"github/nobi/staking/contracts/MultiRewardsBeefSTEAK.sol\":11193:11236  lastUpdateTime = lastTimeRewardApplicable() */\n      sstore\n        /* \"github/nobi/staking/contracts/MultiRewardsBeefSTEAK.sol\":11251:11257  uint i */\n      0x00\n        /* \"github/nobi/staking/contracts/MultiRewardsBeefSTEAK.sol\":11246:11674  for (uint i = 0; i < _totalRewardTokens; i++) {... */\n    tag_453:\n        /* \"github/nobi/staking/contracts/MultiRewardsBeefSTEAK.sol\":11267:11285  _totalRewardTokens */\n      sload(0x08)\n        /* \"github/nobi/staking/contracts/MultiRewardsBeefSTEAK.sol\":11263:11264  i */\n      dup2\n        /* \"github/nobi/staking/contracts/MultiRewardsBeefSTEAK.sol\":11263:11285  i < _totalRewardTokens */\n      lt\n        /* \"github/nobi/staking/contracts/MultiRewardsBeefSTEAK.sol\":11246:11674  for (uint i = 0; i < _totalRewardTokens; i++) {... */\n      iszero\n      tag_454\n      jumpi\n        /* \"github/nobi/staking/contracts/MultiRewardsBeefSTEAK.sol\":11306:11337  RewardToken storage rewardToken */\n      0x00\n        /* \"github/nobi/staking/contracts/MultiRewardsBeefSTEAK.sol\":11340:11353  _rewardTokens */\n      0x09\n        /* \"github/nobi/staking/contracts/MultiRewardsBeefSTEAK.sol\":11306:11337  RewardToken storage rewardToken */\n      dup2\n        /* \"github/nobi/staking/contracts/MultiRewardsBeefSTEAK.sol\":11354:11359  i + 1 */\n      tag_456\n        /* \"github/nobi/staking/contracts/MultiRewardsBeefSTEAK.sol\":11354:11355  i */\n      dup5\n        /* \"github/nobi/staking/contracts/MultiRewardsBeefSTEAK.sol\":11358:11359  1 */\n      0x01\n        /* \"github/nobi/staking/contracts/MultiRewardsBeefSTEAK.sol\":11354:11359  i + 1 */\n      tag_126\n      jump\t// in\n    tag_456:\n        /* \"github/nobi/staking/contracts/MultiRewardsBeefSTEAK.sol\":11340:11360  _rewardTokens[i + 1] */\n      dup2\n      mstore\n      0x20\n      add\n      swap1\n      dup2\n      mstore\n      0x20\n      add\n      0x00\n      keccak256\n        /* \"github/nobi/staking/contracts/MultiRewardsBeefSTEAK.sol\":11306:11360  RewardToken storage rewardToken = _rewardTokens[i + 1] */\n      swap1\n      pop\n        /* \"github/nobi/staking/contracts/MultiRewardsBeefSTEAK.sol\":11409:11424  rewardsPerToken */\n      dup4\n        /* \"github/nobi/staking/contracts/MultiRewardsBeefSTEAK.sol\":11425:11426  i */\n      dup3\n        /* \"github/nobi/staking/contracts/MultiRewardsBeefSTEAK.sol\":11409:11427  rewardsPerToken[i] */\n      dup2\n      mload\n      dup2\n      lt\n      tag_457\n      jumpi\n      mstore(0x00, 0x4e487b7100000000000000000000000000000000000000000000000000000000)\n      mstore(0x04, 0x32)\n      revert(0x00, 0x24)\n    tag_457:\n      0x20\n      swap1\n      dup2\n      mul\n      swap2\n      swap1\n      swap2\n      add\n      add\n      mload\n        /* \"github/nobi/staking/contracts/MultiRewardsBeefSTEAK.sol\":11374:11406  rewardToken.rewardPerTokenStored */\n      0x02\n      dup3\n      add\n        /* \"github/nobi/staking/contracts/MultiRewardsBeefSTEAK.sol\":11374:11427  rewardToken.rewardPerTokenStored = rewardsPerToken[i] */\n      sstore\n        /* \"github/nobi/staking/contracts/MultiRewardsBeefSTEAK.sol\":11445:11466  account != address(0) */\n      0xffffffffffffffffffffffffffffffffffffffff\n      dup6\n      and\n      iszero\n        /* \"github/nobi/staking/contracts/MultiRewardsBeefSTEAK.sol\":11441:11664  if (account != address(0)) {... */\n      tag_458\n      jumpi\n        /* \"github/nobi/staking/contracts/MultiRewardsBeefSTEAK.sol\":11525:11540  currentEarnings */\n      dup3\n        /* \"github/nobi/staking/contracts/MultiRewardsBeefSTEAK.sol\":11541:11542  i */\n      dup3\n        /* \"github/nobi/staking/contracts/MultiRewardsBeefSTEAK.sol\":11525:11543  currentEarnings[i] */\n      dup2\n      mload\n      dup2\n      lt\n      tag_459\n      jumpi\n      mstore(0x00, 0x4e487b7100000000000000000000000000000000000000000000000000000000)\n      mstore(0x04, 0x32)\n      revert(0x00, 0x24)\n    tag_459:\n      0x20\n      swap1\n      dup2\n      mul\n      swap2\n      swap1\n      swap2\n      add\n      dup2\n      add\n      mload\n        /* \"github/nobi/staking/contracts/MultiRewardsBeefSTEAK.sol\":11486:11503  _rewards[account] */\n      0xffffffffffffffffffffffffffffffffffffffff\n      dup1\n      dup9\n      and\n      0x00\n      swap1\n      dup2\n      mstore\n        /* \"github/nobi/staking/contracts/MultiRewardsBeefSTEAK.sol\":11486:11494  _rewards */\n      0x07\n        /* \"github/nobi/staking/contracts/MultiRewardsBeefSTEAK.sol\":11486:11503  _rewards[account] */\n      dup5\n      mstore\n      0x40\n      dup1\n      dup3\n      keccak256\n        /* \"github/nobi/staking/contracts/MultiRewardsBeefSTEAK.sol\":11504:11521  rewardToken.token */\n      dup7\n      sload\n      swap1\n      swap4\n      and\n        /* \"github/nobi/staking/contracts/MultiRewardsBeefSTEAK.sol\":11486:11522  _rewards[account][rewardToken.token] */\n      dup3\n      mstore\n      swap2\n      swap1\n      swap4\n      mstore\n      swap1\n      swap2\n      keccak256\n        /* \"github/nobi/staking/contracts/MultiRewardsBeefSTEAK.sol\":11486:11543  _rewards[account][rewardToken.token] = currentEarnings[i] */\n      sstore\n        /* \"github/nobi/staking/contracts/MultiRewardsBeefSTEAK.sol\":11615:11633  rewardsPerToken[i] */\n      dup4\n      mload\n        /* \"github/nobi/staking/contracts/MultiRewardsBeefSTEAK.sol\":11615:11630  rewardsPerToken */\n      dup5\n      swap1\n        /* \"github/nobi/staking/contracts/MultiRewardsBeefSTEAK.sol\":11631:11632  i */\n      dup4\n      swap1\n        /* \"github/nobi/staking/contracts/MultiRewardsBeefSTEAK.sol\":11615:11633  rewardsPerToken[i] */\n      dup2\n      lt\n      tag_460\n      jumpi\n      mstore(0x00, 0x4e487b7100000000000000000000000000000000000000000000000000000000)\n      mstore(0x04, 0x32)\n      revert(0x00, 0x24)\n    tag_460:\n      0x20\n      swap1\n      dup2\n      mul\n      swap2\n      swap1\n      swap2\n      add\n      dup2\n      add\n      mload\n        /* \"github/nobi/staking/contracts/MultiRewardsBeefSTEAK.sol\":11561:11593  _userRewardPerTokenPaid[account] */\n      0xffffffffffffffffffffffffffffffffffffffff\n      dup1\n      dup9\n      and\n      0x00\n      swap1\n      dup2\n      mstore\n        /* \"github/nobi/staking/contracts/MultiRewardsBeefSTEAK.sol\":11561:11584  _userRewardPerTokenPaid */\n      0x06\n        /* \"github/nobi/staking/contracts/MultiRewardsBeefSTEAK.sol\":11561:11593  _userRewardPerTokenPaid[account] */\n      dup5\n      mstore\n      0x40\n      dup1\n      dup3\n      keccak256\n        /* \"github/nobi/staking/contracts/MultiRewardsBeefSTEAK.sol\":11594:11611  rewardToken.token */\n      dup7\n      sload\n      swap1\n      swap4\n      and\n        /* \"github/nobi/staking/contracts/MultiRewardsBeefSTEAK.sol\":11561:11612  _userRewardPerTokenPaid[account][rewardToken.token] */\n      dup3\n      mstore\n      swap2\n      swap1\n      swap4\n      mstore\n      swap1\n      swap2\n      keccak256\n        /* \"github/nobi/staking/contracts/MultiRewardsBeefSTEAK.sol\":11561:11633  _userRewardPerTokenPaid[account][rewardToken.token] = rewardsPerToken[i] */\n      sstore\n        /* \"github/nobi/staking/contracts/MultiRewardsBeefSTEAK.sol\":11441:11664  if (account != address(0)) {... */\n    tag_458:\n      pop\n        /* \"github/nobi/staking/contracts/MultiRewardsBeefSTEAK.sol\":11287:11290  i++ */\n      dup1\n      tag_461\n      dup2\n      tag_138\n      jump\t// in\n    tag_461:\n      swap2\n      pop\n      pop\n        /* \"github/nobi/staking/contracts/MultiRewardsBeefSTEAK.sol\":11246:11674  for (uint i = 0; i < _totalRewardTokens; i++) {... */\n      jump(tag_453)\n    tag_454:\n      pop\n        /* \"github/nobi/staking/contracts/MultiRewardsBeefSTEAK.sol\":8049:8067  _totalRewardTokens */\n      sload(0x08)\n        /* \"github/nobi/staking/contracts/MultiRewardsBeefSTEAK.sol\":8032:8038  reward */\n      dup5\n        /* \"github/nobi/staking/contracts/MultiRewardsBeefSTEAK.sol\":8032:8045  reward.length */\n      mload\n        /* \"github/nobi/staking/contracts/MultiRewardsBeefSTEAK.sol\":8032:8067  reward.length == _totalRewardTokens */\n      eq\n        /* \"github/nobi/staking/contracts/MultiRewardsBeefSTEAK.sol\":8024:8092  require(reward.length == _totalRewardTokens, \"Wrong reward amounts\") */\n      tag_463\n      jumpi\n      mload(0x40)\n      0x08c379a000000000000000000000000000000000000000000000000000000000\n      dup2\n      mstore\n        /* \"#utility.yul\":8140:8142   */\n      0x20\n        /* \"github/nobi/staking/contracts/MultiRewardsBeefSTEAK.sol\":8024:8092  require(reward.length == _totalRewardTokens, \"Wrong reward amounts\") */\n      0x04\n      dup3\n      add\n        /* \"#utility.yul\":8122:8143   */\n      mstore\n        /* \"#utility.yul\":8179:8181   */\n      0x14\n        /* \"#utility.yul\":8159:8177   */\n      0x24\n      dup3\n      add\n        /* \"#utility.yul\":8152:8182   */\n      mstore\n        /* \"#utility.yul\":8218:8240   */\n      0x57726f6e672072657761726420616d6f756e7473000000000000000000000000\n        /* \"#utility.yul\":8198:8216   */\n      0x44\n      dup3\n      add\n        /* \"#utility.yul\":8191:8241   */\n      mstore\n        /* \"#utility.yul\":8258:8276   */\n      0x64\n      add\n        /* \"github/nobi/staking/contracts/MultiRewardsBeefSTEAK.sol\":8024:8092  require(reward.length == _totalRewardTokens, \"Wrong reward amounts\") */\n      tag_146\n        /* \"#utility.yul\":8112:8282   */\n      jump\n        /* \"github/nobi/staking/contracts/MultiRewardsBeefSTEAK.sol\":8024:8092  require(reward.length == _totalRewardTokens, \"Wrong reward amounts\") */\n    tag_463:\n        /* \"github/nobi/staking/contracts/MultiRewardsBeefSTEAK.sol\":8107:8113  uint i */\n      0x00\n        /* \"github/nobi/staking/contracts/MultiRewardsBeefSTEAK.sol\":8102:8838  for (uint i = 0; i < _totalRewardTokens; i++) {... */\n    tag_466:\n        /* \"github/nobi/staking/contracts/MultiRewardsBeefSTEAK.sol\":8123:8141  _totalRewardTokens */\n      sload(0x08)\n        /* \"github/nobi/staking/contracts/MultiRewardsBeefSTEAK.sol\":8119:8120  i */\n      dup2\n        /* \"github/nobi/staking/contracts/MultiRewardsBeefSTEAK.sol\":8119:8141  i < _totalRewardTokens */\n      lt\n        /* \"github/nobi/staking/contracts/MultiRewardsBeefSTEAK.sol\":8102:8838  for (uint i = 0; i < _totalRewardTokens; i++) {... */\n      iszero\n      tag_467\n      jumpi\n        /* \"github/nobi/staking/contracts/MultiRewardsBeefSTEAK.sol\":8162:8193  RewardToken storage rewardToken */\n      0x00\n        /* \"github/nobi/staking/contracts/MultiRewardsBeefSTEAK.sol\":8196:8209  _rewardTokens */\n      0x09\n        /* \"github/nobi/staking/contracts/MultiRewardsBeefSTEAK.sol\":8162:8193  RewardToken storage rewardToken */\n      dup2\n        /* \"github/nobi/staking/contracts/MultiRewardsBeefSTEAK.sol\":8210:8215  i + 1 */\n      tag_469\n        /* \"github/nobi/staking/contracts/MultiRewardsBeefSTEAK.sol\":8210:8211  i */\n      dup5\n        /* \"github/nobi/staking/contracts/MultiRewardsBeefSTEAK.sol\":8214:8215  1 */\n      0x01\n        /* \"github/nobi/staking/contracts/MultiRewardsBeefSTEAK.sol\":8210:8215  i + 1 */\n      tag_126\n      jump\t// in\n    tag_469:\n        /* \"github/nobi/staking/contracts/MultiRewardsBeefSTEAK.sol\":8196:8216  _rewardTokens[i + 1] */\n      dup2\n      mstore\n      0x20\n      add\n      swap1\n      dup2\n      mstore\n      0x20\n      add\n      0x00\n      keccak256\n        /* \"github/nobi/staking/contracts/MultiRewardsBeefSTEAK.sol\":8162:8216  RewardToken storage rewardToken = _rewardTokens[i + 1] */\n      swap1\n      pop\n        /* \"github/nobi/staking/contracts/MultiRewardsBeefSTEAK.sol\":8253:8265  periodFinish */\n      sload(0x03)\n        /* \"github/nobi/staking/contracts/MultiRewardsBeefSTEAK.sol\":8234:8249  block.timestamp */\n      timestamp\n        /* \"github/nobi/staking/contracts/MultiRewardsBeefSTEAK.sol\":8234:8265  block.timestamp >= periodFinish */\n      lt\n        /* \"github/nobi/staking/contracts/MultiRewardsBeefSTEAK.sol\":8230:8608  if (block.timestamp >= periodFinish) {... */\n      tag_470\n      jumpi\n        /* \"github/nobi/staking/contracts/MultiRewardsBeefSTEAK.sol\":8310:8340  reward[i].div(rewardsDuration) */\n      tag_471\n        /* \"github/nobi/staking/contracts/MultiRewardsBeefSTEAK.sol\":8324:8339  rewardsDuration */\n      sload(0x04)\n        /* \"github/nobi/staking/contracts/MultiRewardsBeefSTEAK.sol\":8310:8316  reward */\n      dup8\n        /* \"github/nobi/staking/contracts/MultiRewardsBeefSTEAK.sol\":8317:8318  i */\n      dup5\n        /* \"github/nobi/staking/contracts/MultiRewardsBeefSTEAK.sol\":8310:8319  reward[i] */\n      dup2\n      mload\n      dup2\n      lt\n      tag_472\n      jumpi\n      mstore(0x00, 0x4e487b7100000000000000000000000000000000000000000000000000000000)\n      mstore(0x04, 0x32)\n      revert(0x00, 0x24)\n    tag_472:\n      0x20\n      mul\n      0x20\n      add\n      add\n      mload\n        /* \"github/nobi/staking/contracts/MultiRewardsBeefSTEAK.sol\":8310:8323  reward[i].div */\n      tag_134\n      swap1\n        /* \"github/nobi/staking/contracts/MultiRewardsBeefSTEAK.sol\":8310:8340  reward[i].div(rewardsDuration) */\n      swap2\n      swap1\n      0xffffffff\n      and\n      jump\t// in\n    tag_471:\n        /* \"github/nobi/staking/contracts/MultiRewardsBeefSTEAK.sol\":8285:8307  rewardToken.rewardRate */\n      0x01\n      dup3\n      add\n        /* \"github/nobi/staking/contracts/MultiRewardsBeefSTEAK.sol\":8285:8340  rewardToken.rewardRate = reward[i].div(rewardsDuration) */\n      sstore\n        /* \"github/nobi/staking/contracts/MultiRewardsBeefSTEAK.sol\":8230:8608  if (block.timestamp >= periodFinish) {... */\n      jump(tag_473)\n    tag_470:\n        /* \"github/nobi/staking/contracts/MultiRewardsBeefSTEAK.sol\":8399:8411  periodFinish */\n      sload(0x03)\n        /* \"github/nobi/staking/contracts/MultiRewardsBeefSTEAK.sol\":8379:8396  uint256 remaining */\n      0x00\n      swap1\n        /* \"github/nobi/staking/contracts/MultiRewardsBeefSTEAK.sol\":8399:8432  periodFinish.sub(block.timestamp) */\n      tag_474\n      swap1\n        /* \"github/nobi/staking/contracts/MultiRewardsBeefSTEAK.sol\":8416:8431  block.timestamp */\n      timestamp\n        /* \"github/nobi/staking/contracts/MultiRewardsBeefSTEAK.sol\":8399:8415  periodFinish.sub */\n      tag_132\n        /* \"github/nobi/staking/contracts/MultiRewardsBeefSTEAK.sol\":8399:8432  periodFinish.sub(block.timestamp) */\n      jump\t// in\n    tag_474:\n        /* \"github/nobi/staking/contracts/MultiRewardsBeefSTEAK.sol\":8379:8432  uint256 remaining = periodFinish.sub(block.timestamp) */\n      swap1\n      pop\n        /* \"github/nobi/staking/contracts/MultiRewardsBeefSTEAK.sol\":8450:8466  uint256 leftover */\n      0x00\n        /* \"github/nobi/staking/contracts/MultiRewardsBeefSTEAK.sol\":8469:8506  remaining.mul(rewardToken.rewardRate) */\n      tag_475\n        /* \"github/nobi/staking/contracts/MultiRewardsBeefSTEAK.sol\":8483:8494  rewardToken */\n      dup4\n        /* \"github/nobi/staking/contracts/MultiRewardsBeefSTEAK.sol\":8483:8505  rewardToken.rewardRate */\n      0x01\n      add\n      sload\n        /* \"github/nobi/staking/contracts/MultiRewardsBeefSTEAK.sol\":8469:8478  remaining */\n      dup4\n        /* \"github/nobi/staking/contracts/MultiRewardsBeefSTEAK.sol\":8469:8482  remaining.mul */\n      tag_133\n      swap1\n        /* \"github/nobi/staking/contracts/MultiRewardsBeefSTEAK.sol\":8469:8506  remaining.mul(rewardToken.rewardRate) */\n      swap2\n      swap1\n      0xffffffff\n      and\n      jump\t// in\n    tag_475:\n        /* \"github/nobi/staking/contracts/MultiRewardsBeefSTEAK.sol\":8450:8506  uint256 leftover = remaining.mul(rewardToken.rewardRate) */\n      swap1\n      pop\n        /* \"github/nobi/staking/contracts/MultiRewardsBeefSTEAK.sol\":8549:8593  reward[i].add(leftover).div(rewardsDuration) */\n      tag_476\n        /* \"github/nobi/staking/contracts/MultiRewardsBeefSTEAK.sol\":8577:8592  rewardsDuration */\n      sload(0x04)\n        /* \"github/nobi/staking/contracts/MultiRewardsBeefSTEAK.sol\":8549:8572  reward[i].add(leftover) */\n      tag_129\n        /* \"github/nobi/staking/contracts/MultiRewardsBeefSTEAK.sol\":8563:8571  leftover */\n      dup4\n        /* \"github/nobi/staking/contracts/MultiRewardsBeefSTEAK.sol\":8549:8555  reward */\n      dup12\n        /* \"github/nobi/staking/contracts/MultiRewardsBeefSTEAK.sol\":8556:8557  i */\n      dup9\n        /* \"github/nobi/staking/contracts/MultiRewardsBeefSTEAK.sol\":8549:8558  reward[i] */\n      dup2\n      mload\n      dup2\n      lt\n      tag_478\n      jumpi\n      mstore(0x00, 0x4e487b7100000000000000000000000000000000000000000000000000000000)\n      mstore(0x04, 0x32)\n      revert(0x00, 0x24)\n    tag_478:\n      0x20\n      mul\n      0x20\n      add\n      add\n      mload\n        /* \"github/nobi/staking/contracts/MultiRewardsBeefSTEAK.sol\":8549:8562  reward[i].add */\n      tag_135\n      swap1\n        /* \"github/nobi/staking/contracts/MultiRewardsBeefSTEAK.sol\":8549:8572  reward[i].add(leftover) */\n      swap2\n      swap1\n      0xffffffff\n      and\n      jump\t// in\n        /* \"github/nobi/staking/contracts/MultiRewardsBeefSTEAK.sol\":8549:8593  reward[i].add(leftover).div(rewardsDuration) */\n    tag_476:\n        /* \"github/nobi/staking/contracts/MultiRewardsBeefSTEAK.sol\":8524:8546  rewardToken.rewardRate */\n      0x01\n      dup5\n      add\n        /* \"github/nobi/staking/contracts/MultiRewardsBeefSTEAK.sol\":8524:8593  rewardToken.rewardRate = reward[i].add(leftover).div(rewardsDuration) */\n      sstore\n      pop\n      pop\n        /* \"github/nobi/staking/contracts/MultiRewardsBeefSTEAK.sol\":8230:8608  if (block.timestamp >= periodFinish) {... */\n    tag_473:\n        /* \"github/nobi/staking/contracts/MultiRewardsBeefSTEAK.sol\":8647:8664  rewardToken.token */\n      dup1\n      sload\n        /* \"github/nobi/staking/contracts/MultiRewardsBeefSTEAK.sol\":8640:8690  IERC20(rewardToken.token).balanceOf(address(this)) */\n      mload(0x40)\n      0x70a0823100000000000000000000000000000000000000000000000000000000\n      dup2\n      mstore\n        /* \"github/nobi/staking/contracts/MultiRewardsBeefSTEAK.sol\":8684:8688  this */\n      address\n        /* \"github/nobi/staking/contracts/MultiRewardsBeefSTEAK.sol\":8640:8690  IERC20(rewardToken.token).balanceOf(address(this)) */\n      0x04\n      dup3\n      add\n        /* \"#utility.yul\":2704:2778   */\n      mstore\n        /* \"github/nobi/staking/contracts/MultiRewardsBeefSTEAK.sol\":8622:8637  uint256 balance */\n      0x00\n      swap2\n        /* \"github/nobi/staking/contracts/MultiRewardsBeefSTEAK.sol\":8647:8664  rewardToken.token */\n      0xffffffffffffffffffffffffffffffffffffffff\n      and\n      swap1\n        /* \"github/nobi/staking/contracts/MultiRewardsBeefSTEAK.sol\":8640:8675  IERC20(rewardToken.token).balanceOf */\n      0x70a08231\n      swap1\n        /* \"#utility.yul\":2677:2695   */\n      0x24\n      add\n        /* \"github/nobi/staking/contracts/MultiRewardsBeefSTEAK.sol\":8640:8690  IERC20(rewardToken.token).balanceOf(address(this)) */\n      0x20\n      mload(0x40)\n      dup1\n      dup4\n      sub\n      dup2\n      dup7\n      dup1\n      extcodesize\n      iszero\n      dup1\n      iszero\n      tag_480\n      jumpi\n      0x00\n      dup1\n      revert\n    tag_480:\n      pop\n      gas\n      staticcall\n      iszero\n      dup1\n      iszero\n      tag_482\n      jumpi\n      returndatasize\n      0x00\n      dup1\n      returndatacopy\n      revert(0x00, returndatasize)\n    tag_482:\n      pop\n      pop\n      pop\n      pop\n      mload(0x40)\n      returndatasize\n      not(0x1f)\n      0x1f\n      dup3\n      add\n      and\n      dup3\n      add\n      dup1\n      0x40\n      mstore\n      pop\n      dup2\n      add\n      swap1\n      tag_483\n      swap2\n      swap1\n      tag_157\n      jump\t// in\n    tag_483:\n        /* \"github/nobi/staking/contracts/MultiRewardsBeefSTEAK.sol\":8622:8690  uint256 balance = IERC20(rewardToken.token).balanceOf(address(this)) */\n      swap1\n      pop\n        /* \"github/nobi/staking/contracts/MultiRewardsBeefSTEAK.sol\":8738:8766  balance.div(rewardsDuration) */\n      tag_484\n        /* \"github/nobi/staking/contracts/MultiRewardsBeefSTEAK.sol\":8750:8765  rewardsDuration */\n      sload(0x04)\n        /* \"github/nobi/staking/contracts/MultiRewardsBeefSTEAK.sol\":8738:8745  balance */\n      dup3\n        /* \"github/nobi/staking/contracts/MultiRewardsBeefSTEAK.sol\":8738:8749  balance.div */\n      tag_134\n      swap1\n        /* \"github/nobi/staking/contracts/MultiRewardsBeefSTEAK.sol\":8738:8766  balance.div(rewardsDuration) */\n      swap2\n      swap1\n      0xffffffff\n      and\n      jump\t// in\n    tag_484:\n        /* \"github/nobi/staking/contracts/MultiRewardsBeefSTEAK.sol\":8712:8723  rewardToken */\n      dup3\n        /* \"github/nobi/staking/contracts/MultiRewardsBeefSTEAK.sol\":8712:8734  rewardToken.rewardRate */\n      0x01\n      add\n      sload\n        /* \"github/nobi/staking/contracts/MultiRewardsBeefSTEAK.sol\":8712:8766  rewardToken.rewardRate <= balance.div(rewardsDuration) */\n      gt\n      iszero\n        /* \"github/nobi/staking/contracts/MultiRewardsBeefSTEAK.sol\":8704:8786  require(rewardToken.rewardRate <= balance.div(rewardsDuration), \"Reward too high\") */\n      tag_485\n      jumpi\n      mload(0x40)\n      0x08c379a000000000000000000000000000000000000000000000000000000000\n      dup2\n      mstore\n        /* \"#utility.yul\":9896:9898   */\n      0x20\n        /* \"github/nobi/staking/contracts/MultiRewardsBeefSTEAK.sol\":8704:8786  require(rewardToken.rewardRate <= balance.div(rewardsDuration), \"Reward too high\") */\n      0x04\n      dup3\n      add\n        /* \"#utility.yul\":9878:9899   */\n      mstore\n        /* \"#utility.yul\":9935:9937   */\n      0x0f\n        /* \"#utility.yul\":9915:9933   */\n      0x24\n      dup3\n      add\n        /* \"#utility.yul\":9908:9938   */\n      mstore\n        /* \"#utility.yul\":9974:9991   */\n      0x52657761726420746f6f20686967680000000000000000000000000000000000\n        /* \"#utility.yul\":9954:9972   */\n      0x44\n      dup3\n      add\n        /* \"#utility.yul\":9947:9992   */\n      mstore\n        /* \"#utility.yul\":10009:10027   */\n      0x64\n      add\n        /* \"github/nobi/staking/contracts/MultiRewardsBeefSTEAK.sol\":8704:8786  require(rewardToken.rewardRate <= balance.div(rewardsDuration), \"Reward too high\") */\n      tag_146\n        /* \"#utility.yul\":9868:10033   */\n      jump\n        /* \"github/nobi/staking/contracts/MultiRewardsBeefSTEAK.sol\":8704:8786  require(rewardToken.rewardRate <= balance.div(rewardsDuration), \"Reward too high\") */\n    tag_485:\n        /* \"github/nobi/staking/contracts/MultiRewardsBeefSTEAK.sol\":8805:8827  RewardAdded(reward[i]) */\n      0xde88a922e0d3b88b24e9623efeb464919c6bf9f66857a65e2bfcf2ce87a9433d\n        /* \"github/nobi/staking/contracts/MultiRewardsBeefSTEAK.sol\":8817:8823  reward */\n      dup8\n        /* \"github/nobi/staking/contracts/MultiRewardsBeefSTEAK.sol\":8824:8825  i */\n      dup5\n        /* \"github/nobi/staking/contracts/MultiRewardsBeefSTEAK.sol\":8817:8826  reward[i] */\n      dup2\n      mload\n      dup2\n      lt\n      tag_487\n      jumpi\n      mstore(0x00, 0x4e487b7100000000000000000000000000000000000000000000000000000000)\n      mstore(0x04, 0x32)\n      revert(0x00, 0x24)\n    tag_487:\n      0x20\n      mul\n      0x20\n      add\n      add\n      mload\n        /* \"github/nobi/staking/contracts/MultiRewardsBeefSTEAK.sol\":8805:8827  RewardAdded(reward[i]) */\n      mload(0x40)\n      tag_488\n      swap2\n        /* \"#utility.yul\":11308:11333   */\n      dup2\n      mstore\n        /* \"#utility.yul\":11296:11298   */\n      0x20\n        /* \"#utility.yul\":11281:11299   */\n      add\n      swap1\n        /* \"#utility.yul\":11263:11339   */\n      jump\n        /* \"github/nobi/staking/contracts/MultiRewardsBeefSTEAK.sol\":8805:8827  RewardAdded(reward[i]) */\n    tag_488:\n      mload(0x40)\n      dup1\n      swap2\n      sub\n      swap1\n      log1\n        /* \"github/nobi/staking/contracts/MultiRewardsBeefSTEAK.sol\":8102:8838  for (uint i = 0; i < _totalRewardTokens; i++) {... */\n      pop\n      pop\n        /* \"github/nobi/staking/contracts/MultiRewardsBeefSTEAK.sol\":8143:8146  i++ */\n      dup1\n      dup1\n      tag_489\n      swap1\n      tag_138\n      jump\t// in\n    tag_489:\n      swap2\n      pop\n      pop\n        /* \"github/nobi/staking/contracts/MultiRewardsBeefSTEAK.sol\":8102:8838  for (uint i = 0; i < _totalRewardTokens; i++) {... */\n      jump(tag_466)\n    tag_467:\n      pop\n        /* \"github/nobi/staking/contracts/MultiRewardsBeefSTEAK.sol\":8865:8880  block.timestamp */\n      timestamp\n        /* \"github/nobi/staking/contracts/MultiRewardsBeefSTEAK.sol\":8848:8862  lastUpdateTime */\n      0x05\n        /* \"github/nobi/staking/contracts/MultiRewardsBeefSTEAK.sol\":8848:8880  lastUpdateTime = block.timestamp */\n      dup2\n      swap1\n      sstore\n        /* \"github/nobi/staking/contracts/MultiRewardsBeefSTEAK.sol\":8925:8940  rewardsDuration */\n      sload(0x04)\n        /* \"github/nobi/staking/contracts/MultiRewardsBeefSTEAK.sol\":8905:8941  block.timestamp.add(rewardsDuration) */\n      tag_490\n      swap2\n        /* \"github/nobi/staking/contracts/MultiRewardsBeefSTEAK.sol\":8865:8880  block.timestamp */\n      swap1\n        /* \"github/nobi/staking/contracts/MultiRewardsBeefSTEAK.sol\":8905:8924  block.timestamp.add */\n      tag_135\n        /* \"github/nobi/staking/contracts/MultiRewardsBeefSTEAK.sol\":8905:8941  block.timestamp.add(rewardsDuration) */\n      jump\t// in\n    tag_490:\n        /* \"github/nobi/staking/contracts/MultiRewardsBeefSTEAK.sol\":8890:8902  periodFinish */\n      0x03\n        /* \"github/nobi/staking/contracts/MultiRewardsBeefSTEAK.sol\":8890:8941  periodFinish = block.timestamp.add(rewardsDuration) */\n      sstore\n      pop\n      pop\n      pop\n      pop\n        /* \"github/nobi/staking/contracts/MultiRewardsBeefSTEAK.sol\":7919:8948  function notifyRewardAmount(uint256[] memory reward) public onlyOwner updateReward(address(0)) {... */\n      jump\t// out\n        /* \"github/nobi/staking/contracts/MultiRewardsBeefSTEAK.sol\":6386:6480  function exit() external {... */\n    tag_111:\n        /* \"github/nobi/staking/contracts/MultiRewardsBeefSTEAK.sol\":6440:6450  msg.sender */\n      caller\n        /* \"github/nobi/staking/contracts/MultiRewardsBeefSTEAK.sol\":6430:6451  _balances[msg.sender] */\n      0x00\n      swap1\n      dup2\n      mstore\n        /* \"github/nobi/staking/contracts/MultiRewardsBeefSTEAK.sol\":6430:6439  _balances */\n      0x0c\n        /* \"github/nobi/staking/contracts/MultiRewardsBeefSTEAK.sol\":6430:6451  _balances[msg.sender] */\n      0x20\n      mstore\n      0x40\n      swap1\n      keccak256\n      sload\n        /* \"github/nobi/staking/contracts/MultiRewardsBeefSTEAK.sol\":6421:6452  withdraw(_balances[msg.sender]) */\n      tag_492\n      swap1\n        /* \"github/nobi/staking/contracts/MultiRewardsBeefSTEAK.sol\":6421:6429  withdraw */\n      tag_57\n        /* \"github/nobi/staking/contracts/MultiRewardsBeefSTEAK.sol\":6421:6452  withdraw(_balances[msg.sender]) */\n      jump\t// in\n    tag_492:\n        /* \"github/nobi/staking/contracts/MultiRewardsBeefSTEAK.sol\":6462:6473  getReward() */\n      tag_359\n        /* \"github/nobi/staking/contracts/MultiRewardsBeefSTEAK.sol\":6462:6471  getReward */\n      tag_62\n        /* \"github/nobi/staking/contracts/MultiRewardsBeefSTEAK.sol\":6462:6473  getReward() */\n      jump\t// in\n        /* \"github/nobi/staking/contracts/helpers/Ownable.sol\":1911:2109  function transferOwnership(address newOwner) public virtual onlyOwner {... */\n    tag_117:\n        /* \"github/nobi/staking/contracts/helpers/Ownable.sol\":1101:1107  _owner */\n      sload(0x01)\n        /* \"github/nobi/staking/contracts/helpers/Ownable.sol\":1241:1264  owner() == _msgSender() */\n      0xffffffffffffffffffffffffffffffffffffffff\n        /* \"github/nobi/staking/contracts/helpers/Ownable.sol\":1101:1107  _owner */\n      and\n        /* \"github/nobi/staking/contracts/helpers/Context.sol\":719:729  msg.sender */\n      caller\n        /* \"github/nobi/staking/contracts/helpers/Ownable.sol\":1241:1264  owner() == _msgSender() */\n      eq\n        /* \"github/nobi/staking/contracts/helpers/Ownable.sol\":1233:1301  require(owner() == _msgSender(), \"Ownable: caller is not the owner\") */\n      tag_497\n      jumpi\n      mload(0x40)\n      0x08c379a000000000000000000000000000000000000000000000000000000000\n      dup2\n      mstore\n        /* \"#utility.yul\":9177:9179   */\n      0x20\n        /* \"github/nobi/staking/contracts/helpers/Ownable.sol\":1233:1301  require(owner() == _msgSender(), \"Ownable: caller is not the owner\") */\n      0x04\n      dup3\n      add\n        /* \"#utility.yul\":9159:9180   */\n      dup2\n      swap1\n      mstore\n        /* \"#utility.yul\":9196:9214   */\n      0x24\n      dup3\n      add\n        /* \"#utility.yul\":9189:9219   */\n      mstore\n        /* \"#utility.yul\":9255:9289   */\n      0x4f776e61626c653a2063616c6c6572206973206e6f7420746865206f776e6572\n        /* \"#utility.yul\":9235:9253   */\n      0x44\n      dup3\n      add\n        /* \"#utility.yul\":9228:9290   */\n      mstore\n        /* \"#utility.yul\":9307:9325   */\n      0x64\n      add\n        /* \"github/nobi/staking/contracts/helpers/Ownable.sol\":1233:1301  require(owner() == _msgSender(), \"Ownable: caller is not the owner\") */\n      tag_146\n        /* \"#utility.yul\":9149:9331   */\n      jump\n        /* \"github/nobi/staking/contracts/helpers/Ownable.sol\":1233:1301  require(owner() == _msgSender(), \"Ownable: caller is not the owner\") */\n    tag_497:\n        /* \"github/nobi/staking/contracts/helpers/Ownable.sol\":1999:2021  newOwner != address(0) */\n      0xffffffffffffffffffffffffffffffffffffffff\n      dup2\n      and\n        /* \"github/nobi/staking/contracts/helpers/Ownable.sol\":1991:2064  require(newOwner != address(0), \"Ownable: new owner is the zero address\") */\n      tag_500\n      jumpi\n      mload(0x40)\n      0x08c379a000000000000000000000000000000000000000000000000000000000\n      dup2\n      mstore\n        /* \"#utility.yul\":5933:5935   */\n      0x20\n        /* \"github/nobi/staking/contracts/helpers/Ownable.sol\":1991:2064  require(newOwner != address(0), \"Ownable: new owner is the zero address\") */\n      0x04\n      dup3\n      add\n        /* \"#utility.yul\":5915:5936   */\n      mstore\n        /* \"#utility.yul\":5972:5974   */\n      0x26\n        /* \"#utility.yul\":5952:5970   */\n      0x24\n      dup3\n      add\n        /* \"#utility.yul\":5945:5975   */\n      mstore\n        /* \"#utility.yul\":6011:6045   */\n      0x4f776e61626c653a206e6577206f776e657220697320746865207a65726f2061\n        /* \"#utility.yul\":5991:6009   */\n      0x44\n      dup3\n      add\n        /* \"#utility.yul\":5984:6046   */\n      mstore\n        /* \"#utility.yul\":6082:6090   */\n      0x6464726573730000000000000000000000000000000000000000000000000000\n        /* \"#utility.yul\":6062:6080   */\n      0x64\n      dup3\n      add\n        /* \"#utility.yul\":6055:6091   */\n      mstore\n        /* \"#utility.yul\":6108:6127   */\n      0x84\n      add\n        /* \"github/nobi/staking/contracts/helpers/Ownable.sol\":1991:2064  require(newOwner != address(0), \"Ownable: new owner is the zero address\") */\n      tag_146\n        /* \"#utility.yul\":5905:6133   */\n      jump\n        /* \"github/nobi/staking/contracts/helpers/Ownable.sol\":1991:2064  require(newOwner != address(0), \"Ownable: new owner is the zero address\") */\n    tag_500:\n        /* \"github/nobi/staking/contracts/helpers/Ownable.sol\":2074:2102  _transferOwnership(newOwner) */\n      tag_503\n        /* \"github/nobi/staking/contracts/helpers/Ownable.sol\":2093:2101  newOwner */\n      dup2\n        /* \"github/nobi/staking/contracts/helpers/Ownable.sol\":2074:2092  _transferOwnership */\n      tag_360\n        /* \"github/nobi/staking/contracts/helpers/Ownable.sol\":2074:2102  _transferOwnership(newOwner) */\n      jump\t// in\n    tag_503:\n        /* \"github/nobi/staking/contracts/helpers/Ownable.sol\":1911:2109  function transferOwnership(address newOwner) public virtual onlyOwner {... */\n      pop\n      jump\t// out\n        /* \"github/nobi/staking/contracts/libraries/SafeMath.sol\":3108:3204  function sub(uint256 a, uint256 b) internal pure returns (uint256) {... */\n    tag_132:\n        /* \"github/nobi/staking/contracts/libraries/SafeMath.sol\":3166:3173  uint256 */\n      0x00\n        /* \"github/nobi/staking/contracts/libraries/SafeMath.sol\":3192:3197  a - b */\n      tag_368\n        /* \"github/nobi/staking/contracts/libraries/SafeMath.sol\":3196:3197  b */\n      dup3\n        /* \"github/nobi/staking/contracts/libraries/SafeMath.sol\":3192:3193  a */\n      dup5\n        /* \"github/nobi/staking/contracts/libraries/SafeMath.sol\":3192:3197  a - b */\n      tag_168\n      jump\t// in\n        /* \"github/nobi/staking/contracts/libraries/SafeMath.sol\":3451:3547  function mul(uint256 a, uint256 b) internal pure returns (uint256) {... */\n    tag_133:\n        /* \"github/nobi/staking/contracts/libraries/SafeMath.sol\":3509:3516  uint256 */\n      0x00\n        /* \"github/nobi/staking/contracts/libraries/SafeMath.sol\":3535:3540  a * b */\n      tag_368\n        /* \"github/nobi/staking/contracts/libraries/SafeMath.sol\":3539:3540  b */\n      dup3\n        /* \"github/nobi/staking/contracts/libraries/SafeMath.sol\":3535:3536  a */\n      dup5\n        /* \"github/nobi/staking/contracts/libraries/SafeMath.sol\":3535:3540  a * b */\n      tag_508\n      jump\t// in\n        /* \"github/nobi/staking/contracts/libraries/SafeMath.sol\":3836:3932  function div(uint256 a, uint256 b) internal pure returns (uint256) {... */\n    tag_134:\n        /* \"github/nobi/staking/contracts/libraries/SafeMath.sol\":3894:3901  uint256 */\n      0x00\n        /* \"github/nobi/staking/contracts/libraries/SafeMath.sol\":3920:3925  a / b */\n      tag_368\n        /* \"github/nobi/staking/contracts/libraries/SafeMath.sol\":3924:3925  b */\n      dup3\n        /* \"github/nobi/staking/contracts/libraries/SafeMath.sol\":3920:3921  a */\n      dup5\n        /* \"github/nobi/staking/contracts/libraries/SafeMath.sol\":3920:3925  a / b */\n      tag_511\n      jump\t// in\n        /* \"github/nobi/staking/contracts/libraries/SafeMath.sol\":2741:2837  function add(uint256 a, uint256 b) internal pure returns (uint256) {... */\n    tag_135:\n        /* \"github/nobi/staking/contracts/libraries/SafeMath.sol\":2799:2806  uint256 */\n      0x00\n        /* \"github/nobi/staking/contracts/libraries/SafeMath.sol\":2825:2830  a + b */\n      tag_368\n        /* \"github/nobi/staking/contracts/libraries/SafeMath.sol\":2829:2830  b */\n      dup3\n        /* \"github/nobi/staking/contracts/libraries/SafeMath.sol\":2825:2826  a */\n      dup5\n        /* \"github/nobi/staking/contracts/libraries/SafeMath.sol\":2825:2830  a + b */\n      tag_126\n      jump\t// in\n        /* \"github/nobi/staking/contracts/libraries/SafeERC20.sol\":699:904  function safeTransfer(... */\n    tag_212:\n        /* \"github/nobi/staking/contracts/libraries/SafeERC20.sol\":838:896  abi.encodeWithSelector(token.transfer.selector, to, value) */\n      mload(0x40)\n        /* \"#utility.yul\":3396:3438   */\n      0xffffffffffffffffffffffffffffffffffffffff\n        /* \"#utility.yul\":3384:3439   */\n      dup4\n      and\n        /* \"github/nobi/staking/contracts/libraries/SafeERC20.sol\":838:896  abi.encodeWithSelector(token.transfer.selector, to, value) */\n      0x24\n      dup3\n      add\n        /* \"#utility.yul\":3366:3440   */\n      mstore\n        /* \"#utility.yul\":3456:3474   */\n      0x44\n      dup2\n      add\n        /* \"#utility.yul\":3449:3483   */\n      dup3\n      swap1\n      mstore\n        /* \"github/nobi/staking/contracts/libraries/SafeERC20.sol\":811:897  _callOptionalReturn(token, abi.encodeWithSelector(token.transfer.selector, to, value)) */\n      tag_516\n      swap1\n        /* \"github/nobi/staking/contracts/libraries/SafeERC20.sol\":831:836  token */\n      dup5\n      swap1\n        /* \"github/nobi/staking/contracts/libraries/SafeERC20.sol\":861:884  token.transfer.selector */\n      0xa9059cbb00000000000000000000000000000000000000000000000000000000\n      swap1\n        /* \"#utility.yul\":3339:3357   */\n      0x64\n      add\n        /* \"github/nobi/staking/contracts/libraries/SafeERC20.sol\":838:896  abi.encodeWithSelector(token.transfer.selector, to, value) */\n    tag_517:\n      0x40\n      dup1\n      mload\n      0xffffffffffffffffffffffffffffffffffffffffffffffffffffffffffffffe0\n      dup2\n      dup5\n      sub\n      add\n      dup2\n      mstore\n      swap2\n      swap1\n      mstore\n      0x20\n      dup2\n      add\n      dup1\n      mload\n      0xffffffffffffffffffffffffffffffffffffffffffffffffffffffff\n      and\n      0xffffffff00000000000000000000000000000000000000000000000000000000\n      swap1\n      swap4\n      and\n      swap3\n      swap1\n      swap3\n      or\n      swap1\n      swap2\n      mstore\n        /* \"github/nobi/staking/contracts/libraries/SafeERC20.sol\":811:830  _callOptionalReturn */\n      tag_518\n        /* \"github/nobi/staking/contracts/libraries/SafeERC20.sol\":811:897  _callOptionalReturn(token, abi.encodeWithSelector(token.transfer.selector, to, value)) */\n      jump\t// in\n    tag_516:\n        /* \"github/nobi/staking/contracts/libraries/SafeERC20.sol\":699:904  function safeTransfer(... */\n      pop\n      pop\n      pop\n      jump\t// out\n        /* \"github/nobi/staking/contracts/libraries/SafeERC20.sol\":910:1151  function safeTransferFrom(... */\n    tag_290:\n        /* \"github/nobi/staking/contracts/libraries/SafeERC20.sol\":1075:1143  abi.encodeWithSelector(token.transferFrom.selector, from, to, value) */\n      mload(0x40)\n        /* \"#utility.yul\":3001:3043   */\n      0xffffffffffffffffffffffffffffffffffffffff\n        /* \"#utility.yul\":3070:3085   */\n      dup1\n      dup6\n      and\n        /* \"github/nobi/staking/contracts/libraries/SafeERC20.sol\":1075:1143  abi.encodeWithSelector(token.transferFrom.selector, from, to, value) */\n      0x24\n      dup4\n      add\n        /* \"#utility.yul\":3052:3086   */\n      mstore\n        /* \"#utility.yul\":3122:3137   */\n      dup4\n      and\n        /* \"#utility.yul\":3102:3120   */\n      0x44\n      dup3\n      add\n        /* \"#utility.yul\":3095:3138   */\n      mstore\n        /* \"#utility.yul\":3154:3172   */\n      0x64\n      dup2\n      add\n        /* \"#utility.yul\":3147:3181   */\n      dup3\n      swap1\n      mstore\n        /* \"github/nobi/staking/contracts/libraries/SafeERC20.sol\":1048:1144  _callOptionalReturn(token, abi.encodeWithSelector(token.transferFrom.selector, from, to, value)) */\n      tag_520\n      swap1\n        /* \"github/nobi/staking/contracts/libraries/SafeERC20.sol\":1068:1073  token */\n      dup6\n      swap1\n        /* \"github/nobi/staking/contracts/libraries/SafeERC20.sol\":1098:1125  token.transferFrom.selector */\n      0x23b872dd00000000000000000000000000000000000000000000000000000000\n      swap1\n        /* \"#utility.yul\":2964:2982   */\n      0x84\n      add\n        /* \"github/nobi/staking/contracts/libraries/SafeERC20.sol\":1075:1143  abi.encodeWithSelector(token.transferFrom.selector, from, to, value) */\n      tag_517\n        /* \"#utility.yul\":2946:3187   */\n      jump\n        /* \"github/nobi/staking/contracts/libraries/SafeERC20.sol\":1048:1144  _callOptionalReturn(token, abi.encodeWithSelector(token.transferFrom.selector, from, to, value)) */\n    tag_520:\n        /* \"github/nobi/staking/contracts/libraries/SafeERC20.sol\":910:1151  function safeTransferFrom(... */\n      pop\n      pop\n      pop\n      pop\n      jump\t// out\n        /* \"github/nobi/staking/contracts/helpers/Ownable.sol\":2263:2450  function _transferOwnership(address newOwner) internal virtual {... */\n    tag_360:\n        /* \"github/nobi/staking/contracts/helpers/Ownable.sol\":2355:2361  _owner */\n      0x01\n      dup1\n      sload\n      0xffffffffffffffffffffffffffffffffffffffff\n        /* \"github/nobi/staking/contracts/helpers/Ownable.sol\":2371:2388  _owner = newOwner */\n      dup4\n      dup2\n      and\n      0xffffffffffffffffffffffff0000000000000000000000000000000000000000\n      dup4\n      and\n      dup2\n      or\n      swap1\n      swap4\n      sstore\n        /* \"github/nobi/staking/contracts/helpers/Ownable.sol\":2403:2443  OwnershipTransferred(oldOwner, newOwner) */\n      mload(0x40)\n        /* \"github/nobi/staking/contracts/helpers/Ownable.sol\":2355:2361  _owner */\n      swap2\n      and\n      swap2\n        /* \"github/nobi/staking/contracts/helpers/Ownable.sol\":2371:2388  _owner = newOwner */\n      swap1\n        /* \"github/nobi/staking/contracts/helpers/Ownable.sol\":2355:2361  _owner */\n      dup3\n      swap1\n        /* \"github/nobi/staking/contracts/helpers/Ownable.sol\":2403:2443  OwnershipTransferred(oldOwner, newOwner) */\n      0x8be0079c531659141344cd1fd0a4f28419497f9722a3daafe3b4186f6b6457e0\n      swap1\n        /* \"github/nobi/staking/contracts/helpers/Ownable.sol\":2336:2352  address oldOwner */\n      0x00\n      swap1\n        /* \"github/nobi/staking/contracts/helpers/Ownable.sol\":2403:2443  OwnershipTransferred(oldOwner, newOwner) */\n      log3\n        /* \"github/nobi/staking/contracts/helpers/Ownable.sol\":2263:2450  function _transferOwnership(address newOwner) internal virtual {... */\n      pop\n      pop\n      jump\t// out\n        /* \"github/nobi/staking/contracts/libraries/Math.sol\":446:550  function min(uint256 a, uint256 b) internal pure returns (uint256) {... */\n    tag_363:\n        /* \"github/nobi/staking/contracts/libraries/Math.sol\":504:511  uint256 */\n      0x00\n        /* \"github/nobi/staking/contracts/libraries/Math.sol\":534:535  b */\n      dup2\n        /* \"github/nobi/staking/contracts/libraries/Math.sol\":530:531  a */\n      dup4\n        /* \"github/nobi/staking/contracts/libraries/Math.sol\":530:535  a < b */\n      lt\n        /* \"github/nobi/staking/contracts/libraries/Math.sol\":530:543  a < b ? a : b */\n      tag_525\n      jumpi\n        /* \"github/nobi/staking/contracts/libraries/Math.sol\":542:543  b */\n      dup2\n        /* \"github/nobi/staking/contracts/libraries/Math.sol\":530:543  a < b ? a : b */\n      jump(tag_368)\n    tag_525:\n      pop\n        /* \"github/nobi/staking/contracts/libraries/Math.sol\":538:539  a */\n      swap1\n      swap2\n        /* \"github/nobi/staking/contracts/libraries/Math.sol\":446:550  function min(uint256 a, uint256 b) internal pure returns (uint256) {... */\n      swap1\n      pop\n      jump\t// out\n        /* \"github/nobi/staking/contracts/libraries/SafeERC20.sol\":3205:3911  function _callOptionalReturn(IERC20 token, bytes memory data) private {... */\n    tag_518:\n        /* \"github/nobi/staking/contracts/libraries/SafeERC20.sol\":3624:3647  bytes memory returndata */\n      0x00\n        /* \"github/nobi/staking/contracts/libraries/SafeERC20.sol\":3650:3719  address(token).functionCall(data, \"SafeERC20: low-level call failed\") */\n      tag_528\n        /* \"github/nobi/staking/contracts/libraries/SafeERC20.sol\":3678:3682  data */\n      dup3\n        /* \"github/nobi/staking/contracts/libraries/SafeERC20.sol\":3650:3719  address(token).functionCall(data, \"SafeERC20: low-level call failed\") */\n      mload(0x40)\n      dup1\n      0x40\n      add\n      0x40\n      mstore\n      dup1\n      0x20\n      dup2\n      mstore\n      0x20\n      add\n      0x5361666545524332303a206c6f772d6c6576656c2063616c6c206661696c6564\n      dup2\n      mstore\n      pop\n        /* \"github/nobi/staking/contracts/libraries/SafeERC20.sol\":3658:3663  token */\n      dup6\n        /* \"github/nobi/staking/contracts/libraries/SafeERC20.sol\":3650:3677  address(token).functionCall */\n      0xffffffffffffffffffffffffffffffffffffffff\n      and\n      tag_529\n      swap1\n        /* \"github/nobi/staking/contracts/libraries/SafeERC20.sol\":3650:3719  address(token).functionCall(data, \"SafeERC20: low-level call failed\") */\n      swap3\n      swap2\n      swap1\n      0xffffffff\n      and\n      jump\t// in\n    tag_528:\n        /* \"github/nobi/staking/contracts/libraries/SafeERC20.sol\":3733:3750  returndata.length */\n      dup1\n      mload\n        /* \"github/nobi/staking/contracts/libraries/SafeERC20.sol\":3624:3719  bytes memory returndata = address(token).functionCall(data, \"SafeERC20: low-level call failed\") */\n      swap1\n      swap2\n      pop\n        /* \"github/nobi/staking/contracts/libraries/SafeERC20.sol\":3733:3754  returndata.length > 0 */\n      iszero\n        /* \"github/nobi/staking/contracts/libraries/SafeERC20.sol\":3729:3905  if (returndata.length > 0) {... */\n      tag_516\n      jumpi\n        /* \"github/nobi/staking/contracts/libraries/SafeERC20.sol\":3828:3838  returndata */\n      dup1\n        /* \"github/nobi/staking/contracts/libraries/SafeERC20.sol\":3817:3847  abi.decode(returndata, (bool)) */\n      dup1\n      0x20\n      add\n      swap1\n      mload\n      dup2\n      add\n      swap1\n      tag_531\n      swap2\n      swap1\n      tag_350\n      jump\t// in\n    tag_531:\n        /* \"github/nobi/staking/contracts/libraries/SafeERC20.sol\":3809:3894  require(abi.decode(returndata, (bool)), \"SafeERC20: ERC20 operation did not succeed\") */\n      tag_516\n      jumpi\n      mload(0x40)\n      0x08c379a000000000000000000000000000000000000000000000000000000000\n      dup2\n      mstore\n        /* \"#utility.yul\":10240:10242   */\n      0x20\n        /* \"github/nobi/staking/contracts/libraries/SafeERC20.sol\":3809:3894  require(abi.decode(returndata, (bool)), \"SafeERC20: ERC20 operation did not succeed\") */\n      0x04\n      dup3\n      add\n        /* \"#utility.yul\":10222:10243   */\n      mstore\n        /* \"#utility.yul\":10279:10281   */\n      0x2a\n        /* \"#utility.yul\":10259:10277   */\n      0x24\n      dup3\n      add\n        /* \"#utility.yul\":10252:10282   */\n      mstore\n        /* \"#utility.yul\":10318:10352   */\n      0x5361666545524332303a204552433230206f7065726174696f6e20646964206e\n        /* \"#utility.yul\":10298:10316   */\n      0x44\n      dup3\n      add\n        /* \"#utility.yul\":10291:10353   */\n      mstore\n        /* \"#utility.yul\":10389:10401   */\n      0x6f74207375636365656400000000000000000000000000000000000000000000\n        /* \"#utility.yul\":10369:10387   */\n      0x64\n      dup3\n      add\n        /* \"#utility.yul\":10362:10402   */\n      mstore\n        /* \"#utility.yul\":10419:10438   */\n      0x84\n      add\n        /* \"github/nobi/staking/contracts/libraries/SafeERC20.sol\":3809:3894  require(abi.decode(returndata, (bool)), \"SafeERC20: ERC20 operation did not succeed\") */\n      tag_146\n        /* \"#utility.yul\":10212:10444   */\n      jump\n        /* \"github/nobi/staking/contracts/libraries/Address.sol\":3846:4069  function functionCall(... */\n    tag_529:\n        /* \"github/nobi/staking/contracts/libraries/Address.sol\":3979:3991  bytes memory */\n      0x60\n        /* \"github/nobi/staking/contracts/libraries/Address.sol\":4010:4062  functionCallWithValue(target, data, 0, errorMessage) */\n      tag_536\n        /* \"github/nobi/staking/contracts/libraries/Address.sol\":4032:4038  target */\n      dup5\n        /* \"github/nobi/staking/contracts/libraries/Address.sol\":4040:4044  data */\n      dup5\n        /* \"github/nobi/staking/contracts/libraries/Address.sol\":4046:4047  0 */\n      0x00\n        /* \"github/nobi/staking/contracts/libraries/Address.sol\":4049:4061  errorMessage */\n      dup6\n        /* \"github/nobi/staking/contracts/libraries/Address.sol\":4010:4031  functionCallWithValue */\n      tag_537\n        /* \"github/nobi/staking/contracts/libraries/Address.sol\":4010:4062  functionCallWithValue(target, data, 0, errorMessage) */\n      jump\t// in\n    tag_536:\n        /* \"github/nobi/staking/contracts/libraries/Address.sol\":4003:4062  return functionCallWithValue(target, data, 0, errorMessage) */\n      swap5\n        /* \"github/nobi/staking/contracts/libraries/Address.sol\":3846:4069  function functionCall(... */\n      swap4\n      pop\n      pop\n      pop\n      pop\n      jump\t// out\n        /* \"github/nobi/staking/contracts/libraries/Address.sol\":4933:5432  function functionCallWithValue(... */\n    tag_537:\n        /* \"github/nobi/staking/contracts/libraries/Address.sol\":5098:5110  bytes memory */\n      0x60\n        /* \"github/nobi/staking/contracts/libraries/Address.sol\":5155:5160  value */\n      dup3\n        /* \"github/nobi/staking/contracts/libraries/Address.sol\":5130:5151  address(this).balance */\n      selfbalance\n        /* \"github/nobi/staking/contracts/libraries/Address.sol\":5130:5160  address(this).balance >= value */\n      lt\n      iszero\n        /* \"github/nobi/staking/contracts/libraries/Address.sol\":5122:5203  require(address(this).balance >= value, \"Address: insufficient balance for call\") */\n      tag_539\n      jumpi\n      mload(0x40)\n      0x08c379a000000000000000000000000000000000000000000000000000000000\n      dup2\n      mstore\n        /* \"#utility.yul\":7383:7385   */\n      0x20\n        /* \"github/nobi/staking/contracts/libraries/Address.sol\":5122:5203  require(address(this).balance >= value, \"Address: insufficient balance for call\") */\n      0x04\n      dup3\n      add\n        /* \"#utility.yul\":7365:7386   */\n      mstore\n        /* \"#utility.yul\":7422:7424   */\n      0x26\n        /* \"#utility.yul\":7402:7420   */\n      0x24\n      dup3\n      add\n        /* \"#utility.yul\":7395:7425   */\n      mstore\n        /* \"#utility.yul\":7461:7495   */\n      0x416464726573733a20696e73756666696369656e742062616c616e636520666f\n        /* \"#utility.yul\":7441:7459   */\n      0x44\n      dup3\n      add\n        /* \"#utility.yul\":7434:7496   */\n      mstore\n        /* \"#utility.yul\":7532:7540   */\n      0x722063616c6c0000000000000000000000000000000000000000000000000000\n        /* \"#utility.yul\":7512:7530   */\n      0x64\n      dup3\n      add\n        /* \"#utility.yul\":7505:7541   */\n      mstore\n        /* \"#utility.yul\":7558:7577   */\n      0x84\n      add\n        /* \"github/nobi/staking/contracts/libraries/Address.sol\":5122:5203  require(address(this).balance >= value, \"Address: insufficient balance for call\") */\n      tag_146\n        /* \"#utility.yul\":7355:7583   */\n      jump\n        /* \"github/nobi/staking/contracts/libraries/Address.sol\":5122:5203  require(address(this).balance >= value, \"Address: insufficient balance for call\") */\n    tag_539:\n        /* \"github/nobi/staking/contracts/libraries/Address.sol\":1450:1469  account.code.length */\n      0xffffffffffffffffffffffffffffffffffffffff\n      dup6\n      and\n      extcodesize\n        /* \"github/nobi/staking/contracts/libraries/Address.sol\":5213:5273  require(isContract(target), \"Address: call to non-contract\") */\n      tag_544\n      jumpi\n      mload(0x40)\n      0x08c379a000000000000000000000000000000000000000000000000000000000\n      dup2\n      mstore\n        /* \"#utility.yul\":9538:9540   */\n      0x20\n        /* \"github/nobi/staking/contracts/libraries/Address.sol\":5213:5273  require(isContract(target), \"Address: call to non-contract\") */\n      0x04\n      dup3\n      add\n        /* \"#utility.yul\":9520:9541   */\n      mstore\n        /* \"#utility.yul\":9577:9579   */\n      0x1d\n        /* \"#utility.yul\":9557:9575   */\n      0x24\n      dup3\n      add\n        /* \"#utility.yul\":9550:9580   */\n      mstore\n        /* \"#utility.yul\":9616:9647   */\n      0x416464726573733a2063616c6c20746f206e6f6e2d636f6e7472616374000000\n        /* \"#utility.yul\":9596:9614   */\n      0x44\n      dup3\n      add\n        /* \"#utility.yul\":9589:9648   */\n      mstore\n        /* \"#utility.yul\":9665:9683   */\n      0x64\n      add\n        /* \"github/nobi/staking/contracts/libraries/Address.sol\":5213:5273  require(isContract(target), \"Address: call to non-contract\") */\n      tag_146\n        /* \"#utility.yul\":9510:9689   */\n      jump\n        /* \"github/nobi/staking/contracts/libraries/Address.sol\":5213:5273  require(isContract(target), \"Address: call to non-contract\") */\n    tag_544:\n        /* \"github/nobi/staking/contracts/libraries/Address.sol\":5285:5297  bool success */\n      0x00\n        /* \"github/nobi/staking/contracts/libraries/Address.sol\":5299:5322  bytes memory returndata */\n      dup1\n        /* \"github/nobi/staking/contracts/libraries/Address.sol\":5326:5332  target */\n      dup7\n        /* \"github/nobi/staking/contracts/libraries/Address.sol\":5326:5337  target.call */\n      0xffffffffffffffffffffffffffffffffffffffff\n      and\n        /* \"github/nobi/staking/contracts/libraries/Address.sol\":5345:5350  value */\n      dup6\n        /* \"github/nobi/staking/contracts/libraries/Address.sol\":5352:5356  data */\n      dup8\n        /* \"github/nobi/staking/contracts/libraries/Address.sol\":5326:5357  target.call{value: value}(data) */\n      mload(0x40)\n      tag_547\n      swap2\n      swap1\n      tag_548\n      jump\t// in\n    tag_547:\n      0x00\n      mload(0x40)\n      dup1\n      dup4\n      sub\n      dup2\n      dup6\n      dup8\n      gas\n      call\n      swap3\n      pop\n      pop\n      pop\n      returndatasize\n      dup1\n      0x00\n      dup2\n      eq\n      tag_551\n      jumpi\n      mload(0x40)\n      swap2\n      pop\n      and(add(returndatasize, 0x3f), not(0x1f))\n      dup3\n      add\n      0x40\n      mstore\n      returndatasize\n      dup3\n      mstore\n      returndatasize\n      0x00\n      0x20\n      dup5\n      add\n      returndatacopy\n      jump(tag_550)\n    tag_551:\n      0x60\n      swap2\n      pop\n    tag_550:\n      pop\n        /* \"github/nobi/staking/contracts/libraries/Address.sol\":5284:5357  (bool success, bytes memory returndata) = target.call{value: value}(data) */\n      swap2\n      pop\n      swap2\n      pop\n        /* \"github/nobi/staking/contracts/libraries/Address.sol\":5374:5425  verifyCallResult(success, returndata, errorMessage) */\n      tag_552\n        /* \"github/nobi/staking/contracts/libraries/Address.sol\":5391:5398  success */\n      dup3\n        /* \"github/nobi/staking/contracts/libraries/Address.sol\":5400:5410  returndata */\n      dup3\n        /* \"github/nobi/staking/contracts/libraries/Address.sol\":5412:5424  errorMessage */\n      dup7\n        /* \"github/nobi/staking/contracts/libraries/Address.sol\":5374:5390  verifyCallResult */\n      tag_553\n        /* \"github/nobi/staking/contracts/libraries/Address.sol\":5374:5425  verifyCallResult(success, returndata, errorMessage) */\n      jump\t// in\n    tag_552:\n        /* \"github/nobi/staking/contracts/libraries/Address.sol\":5367:5425  return verifyCallResult(success, returndata, errorMessage) */\n      swap8\n        /* \"github/nobi/staking/contracts/libraries/Address.sol\":4933:5432  function functionCallWithValue(... */\n      swap7\n      pop\n      pop\n      pop\n      pop\n      pop\n      pop\n      pop\n      jump\t// out\n        /* \"github/nobi/staking/contracts/libraries/Address.sol\":7546:8238  function verifyCallResult(... */\n    tag_553:\n        /* \"github/nobi/staking/contracts/libraries/Address.sol\":7692:7704  bytes memory */\n      0x60\n        /* \"github/nobi/staking/contracts/libraries/Address.sol\":7720:7727  success */\n      dup4\n        /* \"github/nobi/staking/contracts/libraries/Address.sol\":7716:8232  if (success) {... */\n      iszero\n      tag_556\n      jumpi\n      pop\n        /* \"github/nobi/staking/contracts/libraries/Address.sol\":7750:7760  returndata */\n      dup2\n        /* \"github/nobi/staking/contracts/libraries/Address.sol\":7743:7760  return returndata */\n      jump(tag_368)\n        /* \"github/nobi/staking/contracts/libraries/Address.sol\":7716:8232  if (success) {... */\n    tag_556:\n        /* \"github/nobi/staking/contracts/libraries/Address.sol\":7861:7878  returndata.length */\n      dup3\n      mload\n        /* \"github/nobi/staking/contracts/libraries/Address.sol\":7861:7882  returndata.length > 0 */\n      iszero\n        /* \"github/nobi/staking/contracts/libraries/Address.sol\":7857:8222  if (returndata.length > 0) {... */\n      tag_558\n      jumpi\n        /* \"github/nobi/staking/contracts/libraries/Address.sol\":8055:8065  returndata */\n      dup3\n        /* \"github/nobi/staking/contracts/libraries/Address.sol\":8049:8066  mload(returndata) */\n      mload\n        /* \"github/nobi/staking/contracts/libraries/Address.sol\":8115:8130  returndata_size */\n      dup1\n        /* \"github/nobi/staking/contracts/libraries/Address.sol\":8102:8112  returndata */\n      dup5\n        /* \"github/nobi/staking/contracts/libraries/Address.sol\":8098:8100  32 */\n      0x20\n        /* \"github/nobi/staking/contracts/libraries/Address.sol\":8094:8113  add(32, returndata) */\n      add\n        /* \"github/nobi/staking/contracts/libraries/Address.sol\":8087:8131  revert(add(32, returndata), returndata_size) */\n      revert\n        /* \"github/nobi/staking/contracts/libraries/Address.sol\":8004:8149  {... */\n    tag_558:\n        /* \"github/nobi/staking/contracts/libraries/Address.sol\":8194:8206  errorMessage */\n      dup2\n        /* \"github/nobi/staking/contracts/libraries/Address.sol\":8187:8207  revert(errorMessage) */\n      mload(0x40)\n      0x08c379a000000000000000000000000000000000000000000000000000000000\n      dup2\n      mstore\n      0x04\n      add\n      tag_146\n      swap2\n      swap1\n      tag_561\n      jump\t// in\n        /* \"#utility.yul\":14:343   */\n    tag_37:\n        /* \"#utility.yul\":73:79   */\n      0x00\n        /* \"#utility.yul\":126:128   */\n      0x20\n        /* \"#utility.yul\":114:123   */\n      dup3\n        /* \"#utility.yul\":105:112   */\n      dup5\n        /* \"#utility.yul\":101:124   */\n      sub\n        /* \"#utility.yul\":97:129   */\n      slt\n        /* \"#utility.yul\":94:96   */\n      iszero\n      tag_564\n      jumpi\n        /* \"#utility.yul\":147:153   */\n      dup1\n        /* \"#utility.yul\":139:145   */\n      dup2\n        /* \"#utility.yul\":132:154   */\n      revert\n        /* \"#utility.yul\":94:96   */\n    tag_564:\n        /* \"#utility.yul\":191:200   */\n      dup2\n        /* \"#utility.yul\":178:201   */\n      calldataload\n        /* \"#utility.yul\":241:283   */\n      0xffffffffffffffffffffffffffffffffffffffff\n        /* \"#utility.yul\":234:239   */\n      dup2\n        /* \"#utility.yul\":230:284   */\n      and\n        /* \"#utility.yul\":223:228   */\n      dup2\n        /* \"#utility.yul\":220:285   */\n      eq\n        /* \"#utility.yul\":210:212   */\n      tag_368\n      jumpi\n        /* \"#utility.yul\":304:310   */\n      dup2\n        /* \"#utility.yul\":296:302   */\n      dup3\n        /* \"#utility.yul\":289:311   */\n      revert\n        /* \"#utility.yul\":348:1578   */\n    tag_68:\n        /* \"#utility.yul\":432:438   */\n      0x00\n        /* \"#utility.yul\":463:465   */\n      0x20\n        /* \"#utility.yul\":506:508   */\n      dup1\n        /* \"#utility.yul\":494:503   */\n      dup4\n        /* \"#utility.yul\":485:492   */\n      dup6\n        /* \"#utility.yul\":481:504   */\n      sub\n        /* \"#utility.yul\":477:509   */\n      slt\n        /* \"#utility.yul\":474:476   */\n      iszero\n      tag_567\n      jumpi\n        /* \"#utility.yul\":527:533   */\n      dup2\n        /* \"#utility.yul\":519:525   */\n      dup3\n        /* \"#utility.yul\":512:534   */\n      revert\n        /* \"#utility.yul\":474:476   */\n    tag_567:\n        /* \"#utility.yul\":572:581   */\n      dup3\n        /* \"#utility.yul\":559:582   */\n      calldataload\n        /* \"#utility.yul\":601:619   */\n      0xffffffffffffffff\n        /* \"#utility.yul\":642:644   */\n      dup1\n        /* \"#utility.yul\":634:640   */\n      dup3\n        /* \"#utility.yul\":631:645   */\n      gt\n        /* \"#utility.yul\":628:630   */\n      iszero\n      tag_568\n      jumpi\n        /* \"#utility.yul\":663:669   */\n      dup4\n        /* \"#utility.yul\":655:661   */\n      dup5\n        /* \"#utility.yul\":648:670   */\n      revert\n        /* \"#utility.yul\":628:630   */\n    tag_568:\n        /* \"#utility.yul\":706:712   */\n      dup2\n        /* \"#utility.yul\":695:704   */\n      dup6\n        /* \"#utility.yul\":691:713   */\n      add\n        /* \"#utility.yul\":681:713   */\n      swap2\n      pop\n        /* \"#utility.yul\":751:758   */\n      dup6\n        /* \"#utility.yul\":744:748   */\n      0x1f\n        /* \"#utility.yul\":740:742   */\n      dup4\n        /* \"#utility.yul\":736:749   */\n      add\n        /* \"#utility.yul\":732:759   */\n      slt\n        /* \"#utility.yul\":722:724   */\n      tag_569\n      jumpi\n        /* \"#utility.yul\":778:784   */\n      dup4\n        /* \"#utility.yul\":770:776   */\n      dup5\n        /* \"#utility.yul\":763:785   */\n      revert\n        /* \"#utility.yul\":722:724   */\n    tag_569:\n        /* \"#utility.yul\":819:821   */\n      dup2\n        /* \"#utility.yul\":806:822   */\n      calldataload\n        /* \"#utility.yul\":841:843   */\n      dup2\n        /* \"#utility.yul\":837:839   */\n      dup2\n        /* \"#utility.yul\":834:844   */\n      gt\n        /* \"#utility.yul\":831:833   */\n      iszero\n      tag_571\n      jumpi\n        /* \"#utility.yul\":847:865   */\n      tag_571\n      tag_572\n      jump\t// in\n    tag_571:\n        /* \"#utility.yul\":893:895   */\n      dup1\n        /* \"#utility.yul\":890:891   */\n      0x05\n        /* \"#utility.yul\":886:896   */\n      shl\n        /* \"#utility.yul\":925:927   */\n      0x40\n        /* \"#utility.yul\":919:928   */\n      mload\n        /* \"#utility.yul\":984:1050   */\n      0xffffffffffffffffffffffffffffffffffffffffffffffffffffffffffffffe0\n        /* \"#utility.yul\":979:981   */\n      0x3f\n        /* \"#utility.yul\":975:977   */\n      dup4\n        /* \"#utility.yul\":971:982   */\n      add\n        /* \"#utility.yul\":967:1051   */\n      and\n        /* \"#utility.yul\":959:965   */\n      dup2\n        /* \"#utility.yul\":955:1052   */\n      add\n        /* \"#utility.yul\":1102:1108   */\n      dup2\n        /* \"#utility.yul\":1090:1100   */\n      dup2\n        /* \"#utility.yul\":1087:1109   */\n      lt\n        /* \"#utility.yul\":1082:1084   */\n      dup6\n        /* \"#utility.yul\":1070:1080   */\n      dup3\n        /* \"#utility.yul\":1067:1085   */\n      gt\n        /* \"#utility.yul\":1064:1110   */\n      or\n        /* \"#utility.yul\":1061:1063   */\n      iszero\n      tag_574\n      jumpi\n        /* \"#utility.yul\":1113:1131   */\n      tag_574\n      tag_572\n      jump\t// in\n    tag_574:\n        /* \"#utility.yul\":1149:1151   */\n      0x40\n        /* \"#utility.yul\":1142:1164   */\n      mstore\n        /* \"#utility.yul\":1199:1217   */\n      dup3\n      dup2\n      mstore\n        /* \"#utility.yul\":1233:1248   */\n      dup6\n      dup2\n      add\n      swap4\n      pop\n        /* \"#utility.yul\":1268:1279   */\n      dup5\n      dup7\n      add\n        /* \"#utility.yul\":1298:1309   */\n      dup3\n      dup7\n      add\n        /* \"#utility.yul\":1294:1314   */\n      dup8\n      add\n        /* \"#utility.yul\":1291:1324   */\n      dup11\n      lt\n        /* \"#utility.yul\":1288:1290   */\n      iszero\n      tag_575\n      jumpi\n        /* \"#utility.yul\":1342:1348   */\n      dup8\n        /* \"#utility.yul\":1334:1340   */\n      dup9\n        /* \"#utility.yul\":1327:1349   */\n      revert\n        /* \"#utility.yul\":1288:1290   */\n    tag_575:\n        /* \"#utility.yul\":1369:1375   */\n      dup8\n        /* \"#utility.yul\":1360:1375   */\n      swap6\n      pop\n        /* \"#utility.yul\":1384:1547   */\n    tag_576:\n        /* \"#utility.yul\":1398:1400   */\n      dup4\n        /* \"#utility.yul\":1395:1396   */\n      dup7\n        /* \"#utility.yul\":1392:1401   */\n      lt\n        /* \"#utility.yul\":1384:1547   */\n      iszero\n      tag_578\n      jumpi\n        /* \"#utility.yul\":1455:1472   */\n      dup1\n      calldataload\n        /* \"#utility.yul\":1443:1473   */\n      dup6\n      mstore\n        /* \"#utility.yul\":1416:1417   */\n      0x01\n        /* \"#utility.yul\":1409:1418   */\n      swap6\n      swap1\n      swap6\n      add\n      swap5\n        /* \"#utility.yul\":1493:1505   */\n      swap4\n      dup7\n      add\n      swap4\n        /* \"#utility.yul\":1525:1537   */\n      dup7\n      add\n        /* \"#utility.yul\":1384:1547   */\n      jump(tag_576)\n    tag_578:\n      pop\n        /* \"#utility.yul\":1566:1572   */\n      swap9\n        /* \"#utility.yul\":443:1578   */\n      swap8\n      pop\n      pop\n      pop\n      pop\n      pop\n      pop\n      pop\n      pop\n      jump\t// out\n        /* \"#utility.yul\":1583:1880   */\n    tag_350:\n        /* \"#utility.yul\":1650:1656   */\n      0x00\n        /* \"#utility.yul\":1703:1705   */\n      0x20\n        /* \"#utility.yul\":1691:1700   */\n      dup3\n        /* \"#utility.yul\":1682:1689   */\n      dup5\n        /* \"#utility.yul\":1678:1701   */\n      sub\n        /* \"#utility.yul\":1674:1706   */\n      slt\n        /* \"#utility.yul\":1671:1673   */\n      iszero\n      tag_580\n      jumpi\n        /* \"#utility.yul\":1724:1730   */\n      dup1\n        /* \"#utility.yul\":1716:1722   */\n      dup2\n        /* \"#utility.yul\":1709:1731   */\n      revert\n        /* \"#utility.yul\":1671:1673   */\n    tag_580:\n        /* \"#utility.yul\":1761:1770   */\n      dup2\n        /* \"#utility.yul\":1755:1771   */\n      mload\n        /* \"#utility.yul\":1814:1819   */\n      dup1\n        /* \"#utility.yul\":1807:1820   */\n      iszero\n        /* \"#utility.yul\":1800:1821   */\n      iszero\n        /* \"#utility.yul\":1793:1798   */\n      dup2\n        /* \"#utility.yul\":1790:1822   */\n      eq\n        /* \"#utility.yul\":1780:1782   */\n      tag_368\n      jumpi\n        /* \"#utility.yul\":1841:1847   */\n      dup2\n        /* \"#utility.yul\":1833:1839   */\n      dup3\n        /* \"#utility.yul\":1826:1848   */\n      revert\n        /* \"#utility.yul\":1885:2075   */\n    tag_56:\n        /* \"#utility.yul\":1944:1950   */\n      0x00\n        /* \"#utility.yul\":1997:1999   */\n      0x20\n        /* \"#utility.yul\":1985:1994   */\n      dup3\n        /* \"#utility.yul\":1976:1983   */\n      dup5\n        /* \"#utility.yul\":1972:1995   */\n      sub\n        /* \"#utility.yul\":1968:2000   */\n      slt\n        /* \"#utility.yul\":1965:1967   */\n      iszero\n      tag_583\n      jumpi\n        /* \"#utility.yul\":2018:2024   */\n      dup1\n        /* \"#utility.yul\":2010:2016   */\n      dup2\n        /* \"#utility.yul\":2003:2025   */\n      revert\n        /* \"#utility.yul\":1965:1967   */\n    tag_583:\n      pop\n        /* \"#utility.yul\":2046:2069   */\n      calldataload\n      swap2\n        /* \"#utility.yul\":1955:2075   */\n      swap1\n      pop\n      jump\t// out\n        /* \"#utility.yul\":2080:2274   */\n    tag_157:\n        /* \"#utility.yul\":2150:2156   */\n      0x00\n        /* \"#utility.yul\":2203:2205   */\n      0x20\n        /* \"#utility.yul\":2191:2200   */\n      dup3\n        /* \"#utility.yul\":2182:2189   */\n      dup5\n        /* \"#utility.yul\":2178:2201   */\n      sub\n        /* \"#utility.yul\":2174:2206   */\n      slt\n        /* \"#utility.yul\":2171:2173   */\n      iszero\n      tag_585\n      jumpi\n        /* \"#utility.yul\":2224:2230   */\n      dup1\n        /* \"#utility.yul\":2216:2222   */\n      dup2\n        /* \"#utility.yul\":2209:2231   */\n      revert\n        /* \"#utility.yul\":2171:2173   */\n    tag_585:\n      pop\n        /* \"#utility.yul\":2252:2268   */\n      mload\n      swap2\n        /* \"#utility.yul\":2161:2274   */\n      swap1\n      pop\n      jump\t// out\n        /* \"#utility.yul\":2279:2553   */\n    tag_548:\n        /* \"#utility.yul\":2408:2411   */\n      0x00\n        /* \"#utility.yul\":2446:2452   */\n      dup3\n        /* \"#utility.yul\":2440:2453   */\n      mload\n        /* \"#utility.yul\":2462:2515   */\n      tag_587\n        /* \"#utility.yul\":2508:2514   */\n      dup2\n        /* \"#utility.yul\":2503:2506   */\n      dup5\n        /* \"#utility.yul\":2496:2500   */\n      0x20\n        /* \"#utility.yul\":2488:2494   */\n      dup8\n        /* \"#utility.yul\":2484:2501   */\n      add\n        /* \"#utility.yul\":2462:2515   */\n      tag_588\n      jump\t// in\n    tag_587:\n        /* \"#utility.yul\":2531:2547   */\n      swap2\n      swap1\n      swap2\n      add\n      swap3\n        /* \"#utility.yul\":2416:2553   */\n      swap2\n      pop\n      pop\n      jump\t// out\n        /* \"#utility.yul\":3494:4393   */\n    tag_100:\n        /* \"#utility.yul\":3719:3721   */\n      0x20\n        /* \"#utility.yul\":3771:3792   */\n      dup1\n      dup3\n      mstore\n        /* \"#utility.yul\":3841:3854   */\n      dup3\n      mload\n        /* \"#utility.yul\":3744:3762   */\n      dup3\n      dup3\n      add\n        /* \"#utility.yul\":3863:3885   */\n      dup2\n      swap1\n      mstore\n        /* \"#utility.yul\":3690:3694   */\n      0x00\n      swap2\n        /* \"#utility.yul\":3719:3721   */\n      swap1\n        /* \"#utility.yul\":3904:3906   */\n      0x40\n      swap1\n        /* \"#utility.yul\":3922:3940   */\n      dup2\n      dup6\n      add\n      swap1\n        /* \"#utility.yul\":3963:3978   */\n      dup7\n      dup5\n      add\n        /* \"#utility.yul\":3690:3694   */\n      dup6\n        /* \"#utility.yul\":4009:4367   */\n    tag_593:\n        /* \"#utility.yul\":4023:4029   */\n      dup3\n        /* \"#utility.yul\":4020:4021   */\n      dup2\n        /* \"#utility.yul\":4017:4030   */\n      lt\n        /* \"#utility.yul\":4009:4367   */\n      iszero\n      tag_595\n      jumpi\n        /* \"#utility.yul\":4082:4095   */\n      dup2\n      mload\n        /* \"#utility.yul\":4124:4133   */\n      dup1\n      mload\n        /* \"#utility.yul\":4135:4177   */\n      0xffffffffffffffffffffffffffffffffffffffff\n        /* \"#utility.yul\":4120:4178   */\n      and\n        /* \"#utility.yul\":4108:4179   */\n      dup6\n      mstore\n        /* \"#utility.yul\":4219:4230   */\n      dup7\n      dup2\n      add\n        /* \"#utility.yul\":4213:4231   */\n      mload\n        /* \"#utility.yul\":4199:4211   */\n      dup8\n      dup7\n      add\n        /* \"#utility.yul\":4192:4232   */\n      mstore\n        /* \"#utility.yul\":4272:4283   */\n      dup6\n      add\n        /* \"#utility.yul\":4266:4284   */\n      mload\n        /* \"#utility.yul\":4252:4264   */\n      dup6\n      dup6\n      add\n        /* \"#utility.yul\":4245:4285   */\n      mstore\n        /* \"#utility.yul\":4314:4318   */\n      0x60\n        /* \"#utility.yul\":4305:4319   */\n      swap1\n      swap4\n      add\n      swap3\n        /* \"#utility.yul\":4342:4357   */\n      swap1\n      dup6\n      add\n      swap1\n        /* \"#utility.yul\":4045:4046   */\n      0x01\n        /* \"#utility.yul\":4038:4047   */\n      add\n        /* \"#utility.yul\":4009:4367   */\n      jump(tag_593)\n    tag_595:\n      pop\n        /* \"#utility.yul\":4384:4387   */\n      swap2\n      swap8\n        /* \"#utility.yul\":3699:4393   */\n      swap7\n      pop\n      pop\n      pop\n      pop\n      pop\n      pop\n      pop\n      jump\t// out\n        /* \"#utility.yul\":4398:5033   */\n    tag_40:\n        /* \"#utility.yul\":4569:4571   */\n      0x20\n        /* \"#utility.yul\":4621:4642   */\n      dup1\n      dup3\n      mstore\n        /* \"#utility.yul\":4691:4704   */\n      dup3\n      mload\n        /* \"#utility.yul\":4594:4612   */\n      dup3\n      dup3\n      add\n        /* \"#utility.yul\":4713:4735   */\n      dup2\n      swap1\n      mstore\n        /* \"#utility.yul\":4540:4544   */\n      0x00\n      swap2\n        /* \"#utility.yul\":4569:4571   */\n      swap1\n        /* \"#utility.yul\":4792:4807   */\n      dup5\n      dup3\n      add\n      swap1\n        /* \"#utility.yul\":4766:4768   */\n      0x40\n        /* \"#utility.yul\":4751:4769   */\n      dup6\n      add\n      swap1\n        /* \"#utility.yul\":4540:4544   */\n      dup5\n        /* \"#utility.yul\":4838:5007   */\n    tag_597:\n        /* \"#utility.yul\":4852:4858   */\n      dup2\n        /* \"#utility.yul\":4849:4850   */\n      dup2\n        /* \"#utility.yul\":4846:4859   */\n      lt\n        /* \"#utility.yul\":4838:5007   */\n      iszero\n      tag_599\n      jumpi\n        /* \"#utility.yul\":4913:4926   */\n      dup4\n      mload\n        /* \"#utility.yul\":4901:4927   */\n      dup4\n      mstore\n        /* \"#utility.yul\":4982:4997   */\n      swap3\n      dup5\n      add\n      swap3\n        /* \"#utility.yul\":4947:4959   */\n      swap2\n      dup5\n      add\n      swap2\n        /* \"#utility.yul\":4874:4875   */\n      0x01\n        /* \"#utility.yul\":4867:4876   */\n      add\n        /* \"#utility.yul\":4838:5007   */\n      jump(tag_597)\n    tag_599:\n      pop\n        /* \"#utility.yul\":5024:5027   */\n      swap1\n      swap7\n        /* \"#utility.yul\":4549:5033   */\n      swap6\n      pop\n      pop\n      pop\n      pop\n      pop\n      pop\n      jump\t// out\n        /* \"#utility.yul\":5284:5726   */\n    tag_561:\n        /* \"#utility.yul\":5433:5435   */\n      0x20\n        /* \"#utility.yul\":5422:5431   */\n      dup2\n        /* \"#utility.yul\":5415:5436   */\n      mstore\n        /* \"#utility.yul\":5396:5400   */\n      0x00\n        /* \"#utility.yul\":5465:5471   */\n      dup3\n        /* \"#utility.yul\":5459:5472   */\n      mload\n        /* \"#utility.yul\":5508:5514   */\n      dup1\n        /* \"#utility.yul\":5503:5505   */\n      0x20\n        /* \"#utility.yul\":5492:5501   */\n      dup5\n        /* \"#utility.yul\":5488:5506   */\n      add\n        /* \"#utility.yul\":5481:5515   */\n      mstore\n        /* \"#utility.yul\":5524:5590   */\n      tag_602\n        /* \"#utility.yul\":5583:5589   */\n      dup2\n        /* \"#utility.yul\":5578:5580   */\n      0x40\n        /* \"#utility.yul\":5567:5576   */\n      dup6\n        /* \"#utility.yul\":5563:5581   */\n      add\n        /* \"#utility.yul\":5558:5560   */\n      0x20\n        /* \"#utility.yul\":5550:5556   */\n      dup8\n        /* \"#utility.yul\":5546:5561   */\n      add\n        /* \"#utility.yul\":5524:5590   */\n      tag_588\n      jump\t// in\n    tag_602:\n        /* \"#utility.yul\":5642:5644   */\n      0x1f\n        /* \"#utility.yul\":5630:5645   */\n      add\n        /* \"#utility.yul\":5647:5713   */\n      0xffffffffffffffffffffffffffffffffffffffffffffffffffffffffffffffe0\n        /* \"#utility.yul\":5626:5714   */\n      and\n        /* \"#utility.yul\":5611:5715   */\n      swap2\n      swap1\n      swap2\n      add\n        /* \"#utility.yul\":5717:5719   */\n      0x40\n        /* \"#utility.yul\":5607:5720   */\n      add\n      swap3\n        /* \"#utility.yul\":5405:5726   */\n      swap2\n      pop\n      pop\n      jump\t// out\n        /* \"#utility.yul\":11344:11472   */\n    tag_126:\n        /* \"#utility.yul\":11384:11387   */\n      0x00\n        /* \"#utility.yul\":11415:11416   */\n      dup3\n        /* \"#utility.yul\":11411:11417   */\n      not\n        /* \"#utility.yul\":11408:11409   */\n      dup3\n        /* \"#utility.yul\":11405:11418   */\n      gt\n        /* \"#utility.yul\":11402:11404   */\n      iszero\n      tag_621\n      jumpi\n        /* \"#utility.yul\":11421:11439   */\n      tag_621\n      tag_622\n      jump\t// in\n    tag_621:\n      pop\n        /* \"#utility.yul\":11457:11466   */\n      add\n      swap1\n        /* \"#utility.yul\":11392:11472   */\n      jump\t// out\n        /* \"#utility.yul\":11477:11751   */\n    tag_511:\n        /* \"#utility.yul\":11517:11518   */\n      0x00\n        /* \"#utility.yul\":11543:11544   */\n      dup3\n        /* \"#utility.yul\":11533:11535   */\n      tag_624\n      jumpi\n        /* \"#utility.yul\":11578:11655   */\n      0x4e487b7100000000000000000000000000000000000000000000000000000000\n        /* \"#utility.yul\":11575:11576   */\n      dup2\n        /* \"#utility.yul\":11568:11656   */\n      mstore\n        /* \"#utility.yul\":11679:11683   */\n      0x12\n        /* \"#utility.yul\":11676:11677   */\n      0x04\n        /* \"#utility.yul\":11669:11684   */\n      mstore\n        /* \"#utility.yul\":11707:11711   */\n      0x24\n        /* \"#utility.yul\":11704:11705   */\n      dup2\n        /* \"#utility.yul\":11697:11712   */\n      revert\n        /* \"#utility.yul\":11533:11535   */\n    tag_624:\n      pop\n        /* \"#utility.yul\":11736:11745   */\n      div\n      swap1\n        /* \"#utility.yul\":11523:11751   */\n      jump\t// out\n        /* \"#utility.yul\":11756:11984   */\n    tag_508:\n        /* \"#utility.yul\":11796:11803   */\n      0x00\n        /* \"#utility.yul\":11922:11923   */\n      dup2\n        /* \"#utility.yul\":11854:11920   */\n      0xffffffffffffffffffffffffffffffffffffffffffffffffffffffffffffffff\n        /* \"#utility.yul\":11850:11924   */\n      div\n        /* \"#utility.yul\":11847:11848   */\n      dup4\n        /* \"#utility.yul\":11844:11925   */\n      gt\n        /* \"#utility.yul\":11839:11840   */\n      dup3\n        /* \"#utility.yul\":11832:11841   */\n      iszero\n        /* \"#utility.yul\":11825:11842   */\n      iszero\n        /* \"#utility.yul\":11821:11926   */\n      and\n        /* \"#utility.yul\":11818:11820   */\n      iszero\n      tag_627\n      jumpi\n        /* \"#utility.yul\":11929:11947   */\n      tag_627\n      tag_622\n      jump\t// in\n    tag_627:\n      pop\n        /* \"#utility.yul\":11969:11978   */\n      mul\n      swap1\n        /* \"#utility.yul\":11808:11984   */\n      jump\t// out\n        /* \"#utility.yul\":11989:12114   */\n    tag_168:\n        /* \"#utility.yul\":12029:12033   */\n      0x00\n        /* \"#utility.yul\":12057:12058   */\n      dup3\n        /* \"#utility.yul\":12054:12055   */\n      dup3\n        /* \"#utility.yul\":12051:12059   */\n      lt\n        /* \"#utility.yul\":12048:12050   */\n      iszero\n      tag_630\n      jumpi\n        /* \"#utility.yul\":12062:12080   */\n      tag_630\n      tag_622\n      jump\t// in\n    tag_630:\n      pop\n        /* \"#utility.yul\":12099:12108   */\n      sub\n      swap1\n        /* \"#utility.yul\":12038:12114   */\n      jump\t// out\n        /* \"#utility.yul\":12119:12377   */\n    tag_588:\n        /* \"#utility.yul\":12191:12192   */\n      0x00\n        /* \"#utility.yul\":12201:12314   */\n    tag_632:\n        /* \"#utility.yul\":12215:12221   */\n      dup4\n        /* \"#utility.yul\":12212:12213   */\n      dup2\n        /* \"#utility.yul\":12209:12222   */\n      lt\n        /* \"#utility.yul\":12201:12314   */\n      iszero\n      tag_634\n      jumpi\n        /* \"#utility.yul\":12291:12302   */\n      dup2\n      dup2\n      add\n        /* \"#utility.yul\":12285:12303   */\n      mload\n        /* \"#utility.yul\":12272:12283   */\n      dup4\n      dup3\n      add\n        /* \"#utility.yul\":12265:12304   */\n      mstore\n        /* \"#utility.yul\":12237:12239   */\n      0x20\n        /* \"#utility.yul\":12230:12240   */\n      add\n        /* \"#utility.yul\":12201:12314   */\n      jump(tag_632)\n    tag_634:\n        /* \"#utility.yul\":12332:12338   */\n      dup4\n        /* \"#utility.yul\":12329:12330   */\n      dup2\n        /* \"#utility.yul\":12326:12339   */\n      gt\n        /* \"#utility.yul\":12323:12325   */\n      iszero\n      tag_520\n      jumpi\n      pop\n      pop\n        /* \"#utility.yul\":12367:12368   */\n      0x00\n        /* \"#utility.yul\":12349:12365   */\n      swap2\n      add\n        /* \"#utility.yul\":12342:12369   */\n      mstore\n        /* \"#utility.yul\":12172:12377   */\n      jump\t// out\n        /* \"#utility.yul\":12382:12577   */\n    tag_138:\n        /* \"#utility.yul\":12421:12424   */\n      0x00\n        /* \"#utility.yul\":12452:12518   */\n      0xffffffffffffffffffffffffffffffffffffffffffffffffffffffffffffffff\n        /* \"#utility.yul\":12445:12450   */\n      dup3\n        /* \"#utility.yul\":12442:12519   */\n      eq\n        /* \"#utility.yul\":12439:12441   */\n      iszero\n      tag_638\n      jumpi\n        /* \"#utility.yul\":12522:12540   */\n      tag_638\n      tag_622\n      jump\t// in\n    tag_638:\n      pop\n        /* \"#utility.yul\":12569:12570   */\n      0x01\n        /* \"#utility.yul\":12558:12571   */\n      add\n      swap1\n        /* \"#utility.yul\":12429:12577   */\n      jump\t// out\n        /* \"#utility.yul\":12582:12766   */\n    tag_622:\n        /* \"#utility.yul\":12634:12711   */\n      0x4e487b7100000000000000000000000000000000000000000000000000000000\n        /* \"#utility.yul\":12631:12632   */\n      0x00\n        /* \"#utility.yul\":12624:12712   */\n      mstore\n        /* \"#utility.yul\":12731:12735   */\n      0x11\n        /* \"#utility.yul\":12728:12729   */\n      0x04\n        /* \"#utility.yul\":12721:12736   */\n      mstore\n        /* \"#utility.yul\":12755:12759   */\n      0x24\n        /* \"#utility.yul\":12752:12753   */\n      0x00\n        /* \"#utility.yul\":12745:12760   */\n      revert\n        /* \"#utility.yul\":12771:12955   */\n    tag_572:\n        /* \"#utility.yul\":12823:12900   */\n      0x4e487b7100000000000000000000000000000000000000000000000000000000\n        /* \"#utility.yul\":12820:12821   */\n      0x00\n        /* \"#utility.yul\":12813:12901   */\n      mstore\n        /* \"#utility.yul\":12920:12924   */\n      0x41\n        /* \"#utility.yul\":12917:12918   */\n      0x04\n        /* \"#utility.yul\":12910:12925   */\n      mstore\n        /* \"#utility.yul\":12944:12948   */\n      0x24\n        /* \"#utility.yul\":12941:12942   */\n      0x00\n        /* \"#utility.yul\":12934:12949   */\n      revert\n\n    auxdata: 0xa26469706673582212203ae163772a06288e2e25d833ddc63a13351d2de4e76e169f1ebe156eb04220c264736f6c63430008040033\n}\n",
				"bytecode": {
					"linkReferences": {},
					"object": "60806040523480156200001157600080fd5b5060405162003b5c38038062003b5c83398101604081905262000034916200020a565b600160005562000044336200019b565b600280546001600160a01b0319166001600160a01b038316179055815160085560005b82518110156200018b5760405180606001604052808483815181106200009d57634e487b7160e01b600052603260045260246000fd5b60200260200101516001600160a01b0316815260200160008152602001600081525060096000836001620000d29190620002f2565b81526020808201929092526040908101600020835181546001600160a01b0319166001600160a01b039091161781559183015160018084019190915592015160029091015562000124908290620002f2565b600a60008584815181106200014957634e487b7160e01b600052603260045260246000fd5b60200260200101516001600160a01b03166001600160a01b0316815260200190815260200160002081905550808062000182906200030d565b91505062000067565b5050621275006004555062000357565b600180546001600160a01b038381166001600160a01b0319831681179093556040519116919082907f8be0079c531659141344cd1fd0a4f28419497f9722a3daafe3b4186f6b6457e090600090a35050565b80516001600160a01b03811681146200020557600080fd5b919050565b600080604083850312156200021d578182fd5b82516001600160401b038082111562000234578384fd5b818501915085601f83011262000248578384fd5b81516020828211156200025f576200025f62000341565b8160051b604051601f19603f8301168101818110868211171562000287576200028762000341565b604052838152828101945085830182870184018b1015620002a6578889fd5b8896505b84871015620002d357620002be81620001ed565b865260019690960195948301948301620002aa565b509650620002e59050878201620001ed565b9450505050509250929050565b600082198211156200030857620003086200032b565b500190565b60006000198214156200032457620003246200032b565b5060010190565b634e487b7160e01b600052601160045260246000fd5b634e487b7160e01b600052604160045260246000fd5b6137f580620003676000396000f3fe608060405234801561001057600080fd5b50600436106101a25760003560e01c8063715018a6116100ee578063c4f59f9b11610097578063e71e7f7811610071578063e71e7f7814610359578063e9fad8ee1461036c578063ebe2b12b14610374578063f2fde38b1461037d57600080fd5b8063c4f59f9b14610333578063c8f33c9114610348578063cd3daf9d1461035157600080fd5b80638da5cb5b116100c85780638da5cb5b146102ef578063a54f5e0d1461030d578063a694fc3a1461032057600080fd5b8063715018a61461029a57806372f702f3146102a257806380faa57d146102e757600080fd5b8063386a9525116101505780636a1af3b71161012a5780636a1af3b71461023e5780636e353a1d1461025157806370a082311461026457600080fd5b8063386a95251461021a5780633d18b912146102235780633d509c971461022b57600080fd5b80631c03e6cc116101815780631c03e6cc146101ea5780631c1f78eb146101ff5780632e1a7d4d1461020757600080fd5b80628cc262146101a757806318160ddd146101d05780631b0875a6146101e2575b600080fd5b6101ba6101b53660046133d5565b610390565b6040516101c791906135c2565b60405180910390f35b600b545b6040519081526020016101c7565b6008546101d4565b6101fd6101f83660046133d5565b61058b565b005b6101ba6109be565b6101fd610215366004613507565b610acf565b6101d460045481565b6101fd610e11565b6101fd6102393660046133d5565b6111a6565b6101fd61024c366004613409565b6115bb565b6101fd61025f3660046133d5565b611a86565b6101d46102723660046133d5565b73ffffffffffffffffffffffffffffffffffffffff166000908152600c602052604090205490565b6101fd611ec6565b6002546102c29073ffffffffffffffffffffffffffffffffffffffff1681565b60405173ffffffffffffffffffffffffffffffffffffffff90911681526020016101c7565b6101d4611f53565b60015473ffffffffffffffffffffffffffffffffffffffff166102c2565b6101d461031b3660046133d5565b611f66565b6101fd61032e366004613507565b61200d565b61033b6124af565b6040516101c79190613553565b6101d460055481565b6101ba612621565b6101fd610367366004613409565b6127dc565b6101fd612d7e565b6101d460035481565b6101fd61038b3660046133d5565b612d9f565b6060600060085467ffffffffffffffff8111156103d6577f4e487b7100000000000000000000000000000000000000000000000000000000600052604160045260246000fd5b6040519080825280602002602001820160405280156103ff578160200160208202803683370190505b509050600061040c612621565b905060005b60085481101561058257600060098161042b846001613657565b8152602080820192909252604090810160009081205473ffffffffffffffffffffffffffffffffffffffff8a81168084526007865284842091909216808452908552838320549183526006855283832081845290945291902054855192935061052b9261052591670de0b6b3a76400009161051f916104f3918a908a9081106104dd577f4e487b7100000000000000000000000000000000000000000000000000000000600052603260045260246000fd5b6020026020010151612ecf90919063ffffffff16565b73ffffffffffffffffffffffffffffffffffffffff8c166000908152600c602052604090205490612edb565b90612ee7565b90612ef3565b848381518110610564577f4e487b7100000000000000000000000000000000000000000000000000000000600052603260045260246000fd5b6020908102919091010152508061057a81613728565b915050610411565b50909392505050565b60015473ffffffffffffffffffffffffffffffffffffffff163314610611576040517f08c379a000000000000000000000000000000000000000000000000000000000815260206004820181905260248201527f4f776e61626c653a2063616c6c6572206973206e6f7420746865206f776e657260448201526064015b60405180910390fd5b60066008541061067d576040517f08c379a000000000000000000000000000000000000000000000000000000000815260206004820152600f60248201527f546f6f206d616e7920746f6b656e7300000000000000000000000000000000006044820152606401610608565b6040517f70a0823100000000000000000000000000000000000000000000000000000000815230600482015260009073ffffffffffffffffffffffffffffffffffffffff8316906370a082319060240160206040518083038186803b1580156106e557600080fd5b505afa1580156106f9573d6000803e3d6000fd5b505050506040513d601f19601f8201168201806040525081019061071d919061351f565b11610784576040517f08c379a000000000000000000000000000000000000000000000000000000000815260206004820152601560248201527f4d7573742070726566756e6420636f6e747261637400000000000000000000006044820152606401610608565b6001600860008282546107979190613657565b90915550506040805160608101825273ffffffffffffffffffffffffffffffffffffffff8381168083526000602080850182815285870183815260088054855260098452888520975188547fffffffffffffffffffffffff000000000000000000000000000000000000000016971696909617875590516001870155516002909501949094559154908252600a90925291822081905567ffffffffffffffff81111561086c577f4e487b7100000000000000000000000000000000000000000000000000000000600052604160045260246000fd5b604051908082528060200260200182016040528015610895578160200160208202803683370190505b50905060005b6008548110156109b05760016008546108b491906136e5565b81141561099e576040517f70a0823100000000000000000000000000000000000000000000000000000000815230600482015273ffffffffffffffffffffffffffffffffffffffff8416906370a082319060240160206040518083038186803b15801561092057600080fd5b505afa158015610934573d6000803e3d6000fd5b505050506040513d601f19601f82011682018060405250810190610958919061351f565b828281518110610991577f4e487b7100000000000000000000000000000000000000000000000000000000600052603260045260246000fd5b6020026020010181815250505b806109a881613728565b91505061089b565b506109ba816127dc565b5050565b6060600060085467ffffffffffffffff811115610a04577f4e487b7100000000000000000000000000000000000000000000000000000000600052604160045260246000fd5b604051908082528060200260200182016040528015610a2d578160200160208202803683370190505b50905060005b600854811015610ac957600454610a739060096000610a53856001613657565b815260200190815260200160002060010154612edb90919063ffffffff16565b828281518110610aac577f4e487b7100000000000000000000000000000000000000000000000000000000600052603260045260246000fd5b602090810291909101015280610ac181613728565b915050610a33565b50919050565b60026000541415610b3c576040517f08c379a000000000000000000000000000000000000000000000000000000000815260206004820152601f60248201527f5265656e7472616e637947756172643a207265656e7472616e742063616c6c006044820152606401610608565b600260009081553390610b4d612621565b90506000610b5a83610390565b9050610b64611f53565b60055560005b600854811015610d03576000600981610b84846001613657565b81526020019081526020016000209050838281518110610bcd577f4e487b7100000000000000000000000000000000000000000000000000000000600052603260045260246000fd5b6020908102919091010151600282015573ffffffffffffffffffffffffffffffffffffffff851615610cf057828281518110610c32577f4e487b7100000000000000000000000000000000000000000000000000000000600052603260045260246000fd5b60209081029190910181015173ffffffffffffffffffffffffffffffffffffffff80881660009081526007845260408082208654909316825291909352909120558351849083908110610cae577f4e487b7100000000000000000000000000000000000000000000000000000000600052603260045260246000fd5b60209081029190910181015173ffffffffffffffffffffffffffffffffffffffff80881660009081526006845260408082208654909316825291909352909120555b5080610cfb81613728565b915050610b6a565b5060008411610d6e576040517f08c379a000000000000000000000000000000000000000000000000000000000815260206004820152601160248201527f43616e6e6f7420776974686472617720300000000000000000000000000000006044820152606401610608565b600b54610d7b9085612ecf565b600b55336000908152600c6020526040902054610d989085612ecf565b336000818152600c6020526040902091909155600254610dd19173ffffffffffffffffffffffffffffffffffffffff9091169086612eff565b60405184815233907f7084f5476618d8e60b11ef0d7d3f06914655adb8793e28ff7f018d4c76d505d59060200160405180910390a2505060016000555050565b60026000541415610e7e576040517f08c379a000000000000000000000000000000000000000000000000000000000815260206004820152601f60248201527f5265656e7472616e637947756172643a207265656e7472616e742063616c6c006044820152606401610608565b600260009081553390610e8f612621565b90506000610e9c83610390565b9050610ea6611f53565b60055560005b600854811015611045576000600981610ec6846001613657565b81526020019081526020016000209050838281518110610f0f577f4e487b7100000000000000000000000000000000000000000000000000000000600052603260045260246000fd5b6020908102919091010151600282015573ffffffffffffffffffffffffffffffffffffffff85161561103257828281518110610f74577f4e487b7100000000000000000000000000000000000000000000000000000000600052603260045260246000fd5b60209081029190910181015173ffffffffffffffffffffffffffffffffffffffff80881660009081526007845260408082208654909316825291909352909120558351849083908110610ff0577f4e487b7100000000000000000000000000000000000000000000000000000000600052603260045260246000fd5b60209081029190910181015173ffffffffffffffffffffffffffffffffffffffff80881660009081526006845260408082208654909316825291909352909120555b508061103d81613728565b915050610eac565b5060005b60085481101561119b5733600090815260076020526040812081600981611071866001613657565b8152602080820192909252604090810160009081205473ffffffffffffffffffffffffffffffffffffffff1684529183019390935291019020549050801561118857336000908152600760205260408120816009816110d1876001613657565b8152602080820192909252604090810160009081205473ffffffffffffffffffffffffffffffffffffffff1684529183019390935291018120919091556111529033908390600990611124876001613657565b815260208101919091526040016000205473ffffffffffffffffffffffffffffffffffffffff169190612eff565b60405181815233907fe2403640ba68fed3a2f88b7557551d1993f84b99bb10ff833f0cf8db0c5e04869060200160405180910390a25b508061119381613728565b915050611049565b505060016000555050565b60015473ffffffffffffffffffffffffffffffffffffffff163314611227576040517f08c379a000000000000000000000000000000000000000000000000000000000815260206004820181905260248201527f4f776e61626c653a2063616c6c6572206973206e6f7420746865206f776e65726044820152606401610608565b600080611232612621565b9050600061123f83610390565b9050611249611f53565b60055560005b6008548110156113e8576000600981611269846001613657565b815260200190815260200160002090508382815181106112b2577f4e487b7100000000000000000000000000000000000000000000000000000000600052603260045260246000fd5b6020908102919091010151600282015573ffffffffffffffffffffffffffffffffffffffff8516156113d557828281518110611317577f4e487b7100000000000000000000000000000000000000000000000000000000600052603260045260246000fd5b60209081029190910181015173ffffffffffffffffffffffffffffffffffffffff80881660009081526007845260408082208654909316825291909352909120558351849083908110611393577f4e487b7100000000000000000000000000000000000000000000000000000000600052603260045260246000fd5b60209081029190910181015173ffffffffffffffffffffffffffffffffffffffff80881660009081526006845260408082208654909316825291909352909120555b50806113e081613728565b91505061124f565b50600160085411611455576040517f08c379a000000000000000000000000000000000000000000000000000000000815260206004820152601b60248201527f43616e6e6f74206861766520302072657761726420746f6b656e7300000000006044820152606401610608565b73ffffffffffffffffffffffffffffffffffffffff84166000908152600a6020526040902054805b600854811161159b576000600981611496846001613657565b815260208082019290925260409081016000908120858252600993849052918120825481547fffffffffffffffffffffffff00000000000000000000000000000000000000001673ffffffffffffffffffffffffffffffffffffffff909116178155600180840154818301556002808501549201919091559193509061151d908590613657565b81526020808201929092526040908101600090812080547fffffffffffffffffffffffff000000000000000000000000000000000000000016815560018101829055600201819055925473ffffffffffffffffffffffffffffffffffffffff168352600a90915290208190558061159381613728565b91505061147d565b506001600860008282546115af91906136e5565b90915550505050505050565b60015473ffffffffffffffffffffffffffffffffffffffff16331461163c576040517f08c379a000000000000000000000000000000000000000000000000000000000815260206004820181905260248201527f4f776e61626c653a2063616c6c6572206973206e6f7420746865206f776e65726044820152606401610608565b6008548151146116a8576040517f08c379a000000000000000000000000000000000000000000000000000000000815260206004820152600d60248201527f57726f6e6720616d6f756e7473000000000000000000000000000000000000006044820152606401610608565b60005b600854811015611a6c5760006009816116c5846001613657565b8152602081019190915260409081016000908120805492517f70a08231000000000000000000000000000000000000000000000000000000008152306004820152909350909173ffffffffffffffffffffffffffffffffffffffff16906370a082319060240160206040518083038186803b15801561174357600080fd5b505afa158015611757573d6000803e3d6000fd5b505050506040513d601f19601f8201168201806040525081019061177b919061351f565b90506117e633308686815181106117bb577f4e487b7100000000000000000000000000000000000000000000000000000000600052603260045260246000fd5b6020908102919091010151855473ffffffffffffffffffffffffffffffffffffffff16929190612fd8565b81546040517f70a0823100000000000000000000000000000000000000000000000000000000815230600482015260009161189391849173ffffffffffffffffffffffffffffffffffffffff16906370a082319060240160206040518083038186803b15801561185557600080fd5b505afa158015611869573d6000803e3d6000fd5b505050506040513d601f19601f8201168201806040525081019061188d919061351f565b90612ecf565b905060035442106118b6576004546118ac908290612ee7565b60018401556118fd565b6003546000906118c69042612ecf565b905060006118e1856001015483612edb90919063ffffffff16565b6004549091506118f59061051f8584612ef3565b600186015550505b82546040517f70a0823100000000000000000000000000000000000000000000000000000000815230600482015260009173ffffffffffffffffffffffffffffffffffffffff16906370a082319060240160206040518083038186803b15801561196657600080fd5b505afa15801561197a573d6000803e3d6000fd5b505050506040513d601f19601f8201168201806040525081019061199e919061351f565b90506119b560045482612ee790919063ffffffff16565b84600101541115611a22576040517f08c379a000000000000000000000000000000000000000000000000000000000815260206004820152600f60248201527f52657761726420746f6f206869676800000000000000000000000000000000006044820152606401610608565b6040518281527fde88a922e0d3b88b24e9623efeb464919c6bf9f66857a65e2bfcf2ce87a9433d9060200160405180910390a1505050508080611a6490613728565b9150506116ab565b50426005819055600454611a809190612ef3565b60035550565b60015473ffffffffffffffffffffffffffffffffffffffff163314611b07576040517f08c379a000000000000000000000000000000000000000000000000000000000815260206004820181905260248201527f4f776e61626c653a2063616c6c6572206973206e6f7420746865206f776e65726044820152606401610608565b600080611b12612621565b90506000611b1f83610390565b9050611b29611f53565b60055560005b600854811015611cc8576000600981611b49846001613657565b81526020019081526020016000209050838281518110611b92577f4e487b7100000000000000000000000000000000000000000000000000000000600052603260045260246000fd5b6020908102919091010151600282015573ffffffffffffffffffffffffffffffffffffffff851615611cb557828281518110611bf7577f4e487b7100000000000000000000000000000000000000000000000000000000600052603260045260246000fd5b60209081029190910181015173ffffffffffffffffffffffffffffffffffffffff80881660009081526007845260408082208654909316825291909352909120558351849083908110611c73577f4e487b7100000000000000000000000000000000000000000000000000000000600052603260045260246000fd5b60209081029190910181015173ffffffffffffffffffffffffffffffffffffffff80881660009081526006845260408082208654909316825291909352909120555b5080611cc081613728565b915050611b2f565b506040517f70a0823100000000000000000000000000000000000000000000000000000000815230600482015260009073ffffffffffffffffffffffffffffffffffffffff8616906370a082319060240160206040518083038186803b158015611d3157600080fd5b505afa158015611d45573d6000803e3d6000fd5b505050506040513d601f19601f82011682018060405250810190611d69919061351f565b905060008111611dd5576040517f08c379a000000000000000000000000000000000000000000000000000000000815260206004820152601860248201527f436f6e747261637420686f6c6473206e6f20746f6b656e7300000000000000006044820152606401610608565b8473ffffffffffffffffffffffffffffffffffffffff1663a9059cbb611e1060015473ffffffffffffffffffffffffffffffffffffffff1690565b6040517fffffffff0000000000000000000000000000000000000000000000000000000060e084901b16815273ffffffffffffffffffffffffffffffffffffffff909116600482015260248101849052604401602060405180830381600087803b158015611e7d57600080fd5b505af1158015611e91573d6000803e3d6000fd5b505050506040513d601f19601f82011682018060405250810190611eb591906134e7565b50611ebf856111a6565b5050505050565b60015473ffffffffffffffffffffffffffffffffffffffff163314611f47576040517f08c379a000000000000000000000000000000000000000000000000000000000815260206004820181905260248201527f4f776e61626c653a2063616c6c6572206973206e6f7420746865206f776e65726044820152606401610608565b611f51600061303c565b565b6000611f61426003546130b3565b905090565b73ffffffffffffffffffffffffffffffffffffffff81166000908152600a6020526040812054600b54611fab5760009081526009602052604090206002015492915050565b612006611fee600b5461051f670de0b6b3a7640000611fe86009600088815260200190815260200160002060010154611fe860055461188d611f53565b90612edb565b60008381526009602052604090206002015490612ef3565b9392505050565b6002600054141561207a576040517f08c379a000000000000000000000000000000000000000000000000000000000815260206004820152601f60248201527f5265656e7472616e637947756172643a207265656e7472616e742063616c6c006044820152606401610608565b60026000908155339061208b612621565b9050600061209883610390565b90506120a2611f53565b60055560005b6008548110156122415760006009816120c2846001613657565b8152602001908152602001600020905083828151811061210b577f4e487b7100000000000000000000000000000000000000000000000000000000600052603260045260246000fd5b6020908102919091010151600282015573ffffffffffffffffffffffffffffffffffffffff85161561222e57828281518110612170577f4e487b7100000000000000000000000000000000000000000000000000000000600052603260045260246000fd5b60209081029190910181015173ffffffffffffffffffffffffffffffffffffffff808816600090815260078452604080822086549093168252919093529091205583518490839081106121ec577f4e487b7100000000000000000000000000000000000000000000000000000000600052603260045260246000fd5b60209081029190910181015173ffffffffffffffffffffffffffffffffffffffff80881660009081526006845260408082208654909316825291909352909120555b508061223981613728565b9150506120a8565b50600084116122ac576040517f08c379a000000000000000000000000000000000000000000000000000000000815260206004820152600e60248201527f43616e6e6f74207374616b6520300000000000000000000000000000000000006044820152606401610608565b6002546040517f70a0823100000000000000000000000000000000000000000000000000000000815230600482015260009173ffffffffffffffffffffffffffffffffffffffff16906370a082319060240160206040518083038186803b15801561231657600080fd5b505afa15801561232a573d6000803e3d6000fd5b505050506040513d601f19601f8201168201806040525081019061234e919061351f565b6002549091506123769073ffffffffffffffffffffffffffffffffffffffff16333088612fd8565b6002546040517f70a0823100000000000000000000000000000000000000000000000000000000815230600482015260009173ffffffffffffffffffffffffffffffffffffffff16906370a082319060240160206040518083038186803b1580156123e057600080fd5b505afa1580156123f4573d6000803e3d6000fd5b505050506040513d601f19601f82011682018060405250810190612418919061351f565b905060006124268284612ecf565b600b549091506124369082612ef3565b600b55336000908152600c60205260409020546124539082612ef3565b336000818152600c6020526040908190209290925590517f9e71bc8eea02a63969f509818f2dafb9254532904319f9dbda79b67bd34a5f3d90612499908a815260200190565b60405180910390a2505060016000555050505050565b6060600060085467ffffffffffffffff8111156124f5577f4e487b7100000000000000000000000000000000000000000000000000000000600052604160045260246000fd5b60405190808252806020026020018201604052801561256057816020015b61254d6040518060600160405280600073ffffffffffffffffffffffffffffffffffffffff16815260200160008152602001600081525090565b8152602001906001900390816125135790505b50905060005b600854811015610ac9576009600061257f836001613657565b815260208082019290925260409081016000208151606081018352815473ffffffffffffffffffffffffffffffffffffffff16815260018201549381019390935260020154908201528251839083908110612603577f4e487b7100000000000000000000000000000000000000000000000000000000600052603260045260246000fd5b6020026020010181905250808061261990613728565b915050612566565b6060600060085467ffffffffffffffff811115612667577f4e487b7100000000000000000000000000000000000000000000000000000000600052604160045260246000fd5b604051908082528060200260200182016040528015612690578160200160208202803683370190505b509050600b54600014156127225760005b600854811015610ac957600960006126ba836001613657565b815260200190815260200160002060020154828281518110612705577f4e487b7100000000000000000000000000000000000000000000000000000000600052603260045260246000fd5b60209081029190910101528061271a81613728565b9150506126a1565b60005b600854811015610ac957600060098161273f846001613657565b8152602001908152602001600020905061278561277a600b5461051f670de0b6b3a7640000611fe88660010154611fe860055461188d611f53565b600283015490612ef3565b8383815181106127be577f4e487b7100000000000000000000000000000000000000000000000000000000600052603260045260246000fd5b602090810291909101015250806127d481613728565b915050612725565b60015473ffffffffffffffffffffffffffffffffffffffff16331461285d576040517f08c379a000000000000000000000000000000000000000000000000000000000815260206004820181905260248201527f4f776e61626c653a2063616c6c6572206973206e6f7420746865206f776e65726044820152606401610608565b600080612868612621565b9050600061287583610390565b905061287f611f53565b60055560005b600854811015612a1e57600060098161289f846001613657565b815260200190815260200160002090508382815181106128e8577f4e487b7100000000000000000000000000000000000000000000000000000000600052603260045260246000fd5b6020908102919091010151600282015573ffffffffffffffffffffffffffffffffffffffff851615612a0b5782828151811061294d577f4e487b7100000000000000000000000000000000000000000000000000000000600052603260045260246000fd5b60209081029190910181015173ffffffffffffffffffffffffffffffffffffffff808816600090815260078452604080822086549093168252919093529091205583518490839081106129c9577f4e487b7100000000000000000000000000000000000000000000000000000000600052603260045260246000fd5b60209081029190910181015173ffffffffffffffffffffffffffffffffffffffff80881660009081526006845260408082208654909316825291909352909120555b5080612a1681613728565b915050612885565b50600854845114612a8b576040517f08c379a000000000000000000000000000000000000000000000000000000000815260206004820152601460248201527f57726f6e672072657761726420616d6f756e74730000000000000000000000006044820152606401610608565b60005b600854811015612d61576000600981612aa8846001613657565b815260200190815260200160002090506003544210612b2057612b16600454878481518110612b00577f4e487b7100000000000000000000000000000000000000000000000000000000600052603260045260246000fd5b6020026020010151612ee790919063ffffffff16565b6001820155612bae565b600354600090612b309042612ecf565b90506000612b4b836001015483612edb90919063ffffffff16565b9050612ba660045461051f838b8881518110612b90577f4e487b7100000000000000000000000000000000000000000000000000000000600052603260045260246000fd5b6020026020010151612ef390919063ffffffff16565b600184015550505b80546040517f70a0823100000000000000000000000000000000000000000000000000000000815230600482015260009173ffffffffffffffffffffffffffffffffffffffff16906370a082319060240160206040518083038186803b158015612c1757600080fd5b505afa158015612c2b573d6000803e3d6000fd5b505050506040513d601f19601f82011682018060405250810190612c4f919061351f565b9050612c6660045482612ee790919063ffffffff16565b82600101541115612cd3576040517f08c379a000000000000000000000000000000000000000000000000000000000815260206004820152600f60248201527f52657761726420746f6f206869676800000000000000000000000000000000006044820152606401610608565b7fde88a922e0d3b88b24e9623efeb464919c6bf9f66857a65e2bfcf2ce87a9433d878481518110612d2d577f4e487b7100000000000000000000000000000000000000000000000000000000600052603260045260246000fd5b6020026020010151604051612d4491815260200190565b60405180910390a150508080612d5990613728565b915050612a8e565b50426005819055600454612d759190612ef3565b60035550505050565b336000908152600c6020526040902054612d9790610acf565b611f51610e11565b60015473ffffffffffffffffffffffffffffffffffffffff163314612e20576040517f08c379a000000000000000000000000000000000000000000000000000000000815260206004820181905260248201527f4f776e61626c653a2063616c6c6572206973206e6f7420746865206f776e65726044820152606401610608565b73ffffffffffffffffffffffffffffffffffffffff8116612ec3576040517f08c379a000000000000000000000000000000000000000000000000000000000815260206004820152602660248201527f4f776e61626c653a206e6577206f776e657220697320746865207a65726f206160448201527f64647265737300000000000000000000000000000000000000000000000000006064820152608401610608565b612ecc8161303c565b50565b600061200682846136e5565b600061200682846136a8565b6000612006828461366f565b60006120068284613657565b60405173ffffffffffffffffffffffffffffffffffffffff8316602482015260448101829052612fd39084907fa9059cbb00000000000000000000000000000000000000000000000000000000906064015b604080517fffffffffffffffffffffffffffffffffffffffffffffffffffffffffffffffe08184030181529190526020810180517bffffffffffffffffffffffffffffffffffffffffffffffffffffffff167fffffffff00000000000000000000000000000000000000000000000000000000909316929092179091526130c9565b505050565b60405173ffffffffffffffffffffffffffffffffffffffff808516602483015283166044820152606481018290526130369085907f23b872dd0000000000000000000000000000000000000000000000000000000090608401612f51565b50505050565b6001805473ffffffffffffffffffffffffffffffffffffffff8381167fffffffffffffffffffffffff0000000000000000000000000000000000000000831681179093556040519116919082907f8be0079c531659141344cd1fd0a4f28419497f9722a3daafe3b4186f6b6457e090600090a35050565b60008183106130c25781612006565b5090919050565b600061312b826040518060400160405280602081526020017f5361666545524332303a206c6f772d6c6576656c2063616c6c206661696c65648152508573ffffffffffffffffffffffffffffffffffffffff166131d59092919063ffffffff16565b805190915015612fd3578080602001905181019061314991906134e7565b612fd3576040517f08c379a000000000000000000000000000000000000000000000000000000000815260206004820152602a60248201527f5361666545524332303a204552433230206f7065726174696f6e20646964206e60448201527f6f742073756363656564000000000000000000000000000000000000000000006064820152608401610608565b60606131e484846000856131ec565b949350505050565b60608247101561327e576040517f08c379a000000000000000000000000000000000000000000000000000000000815260206004820152602660248201527f416464726573733a20696e73756666696369656e742062616c616e636520666f60448201527f722063616c6c00000000000000000000000000000000000000000000000000006064820152608401610608565b73ffffffffffffffffffffffffffffffffffffffff85163b6132fc576040517f08c379a000000000000000000000000000000000000000000000000000000000815260206004820152601d60248201527f416464726573733a2063616c6c20746f206e6f6e2d636f6e74726163740000006044820152606401610608565b6000808673ffffffffffffffffffffffffffffffffffffffff1685876040516133259190613537565b60006040518083038185875af1925050503d8060008114613362576040519150601f19603f3d011682016040523d82523d6000602084013e613367565b606091505b5091509150613377828286613382565b979650505050505050565b60608315613391575081612006565b8251156133a15782518084602001fd5b816040517f08c379a00000000000000000000000000000000000000000000000000000000081526004016106089190613606565b6000602082840312156133e6578081fd5b813573ffffffffffffffffffffffffffffffffffffffff81168114612006578182fd5b6000602080838503121561341b578182fd5b823567ffffffffffffffff80821115613432578384fd5b818501915085601f830112613445578384fd5b81358181111561345757613457613790565b8060051b6040517fffffffffffffffffffffffffffffffffffffffffffffffffffffffffffffffe0603f8301168101818110858211171561349a5761349a613790565b604052828152858101935084860182860187018a10156134b8578788fd5b8795505b838610156134da5780358552600195909501949386019386016134bc565b5098975050505050505050565b6000602082840312156134f8578081fd5b81518015158114612006578182fd5b600060208284031215613518578081fd5b5035919050565b600060208284031215613530578081fd5b5051919050565b600082516135498184602087016136fc565b9190910192915050565b602080825282518282018190526000919060409081850190868401855b828110156135b5578151805173ffffffffffffffffffffffffffffffffffffffff16855286810151878601528501518585015260609093019290850190600101613570565b5091979650505050505050565b6020808252825182820181905260009190848201906040850190845b818110156135fa578351835292840192918401916001016135de565b50909695505050505050565b60208152600082518060208401526136258160408501602087016136fc565b601f017fffffffffffffffffffffffffffffffffffffffffffffffffffffffffffffffe0169190910160400192915050565b6000821982111561366a5761366a613761565b500190565b6000826136a3577f4e487b710000000000000000000000000000000000000000000000000000000081526012600452602481fd5b500490565b6000817fffffffffffffffffffffffffffffffffffffffffffffffffffffffffffffffff04831182151516156136e0576136e0613761565b500290565b6000828210156136f7576136f7613761565b500390565b60005b838110156137175781810151838201526020016136ff565b838111156130365750506000910152565b60007fffffffffffffffffffffffffffffffffffffffffffffffffffffffffffffffff82141561375a5761375a613761565b5060010190565b7f4e487b7100000000000000000000000000000000000000000000000000000000600052601160045260246000fd5b7f4e487b7100000000000000000000000000000000000000000000000000000000600052604160045260246000fdfea26469706673582212203ae163772a06288e2e25d833ddc63a13351d2de4e76e169f1ebe156eb04220c264736f6c63430008040033",
					"opcodes": "PUSH1 0x80 PUSH1 0x40 MSTORE CALLVALUE DUP1 ISZERO PUSH3 0x11 JUMPI PUSH1 0x0 DUP1 REVERT JUMPDEST POP PUSH1 0x40 MLOAD PUSH3 0x3B5C CODESIZE SUB DUP1 PUSH3 0x3B5C DUP4 CODECOPY DUP2 ADD PUSH1 0x40 DUP2 SWAP1 MSTORE PUSH3 0x34 SWAP2 PUSH3 0x20A JUMP JUMPDEST PUSH1 0x1 PUSH1 0x0 SSTORE PUSH3 0x44 CALLER PUSH3 0x19B JUMP JUMPDEST PUSH1 0x2 DUP1 SLOAD PUSH1 0x1 PUSH1 0x1 PUSH1 0xA0 SHL SUB NOT AND PUSH1 0x1 PUSH1 0x1 PUSH1 0xA0 SHL SUB DUP4 AND OR SWAP1 SSTORE DUP2 MLOAD PUSH1 0x8 SSTORE PUSH1 0x0 JUMPDEST DUP3 MLOAD DUP2 LT ISZERO PUSH3 0x18B JUMPI PUSH1 0x40 MLOAD DUP1 PUSH1 0x60 ADD PUSH1 0x40 MSTORE DUP1 DUP5 DUP4 DUP2 MLOAD DUP2 LT PUSH3 0x9D JUMPI PUSH4 0x4E487B71 PUSH1 0xE0 SHL PUSH1 0x0 MSTORE PUSH1 0x32 PUSH1 0x4 MSTORE PUSH1 0x24 PUSH1 0x0 REVERT JUMPDEST PUSH1 0x20 MUL PUSH1 0x20 ADD ADD MLOAD PUSH1 0x1 PUSH1 0x1 PUSH1 0xA0 SHL SUB AND DUP2 MSTORE PUSH1 0x20 ADD PUSH1 0x0 DUP2 MSTORE PUSH1 0x20 ADD PUSH1 0x0 DUP2 MSTORE POP PUSH1 0x9 PUSH1 0x0 DUP4 PUSH1 0x1 PUSH3 0xD2 SWAP2 SWAP1 PUSH3 0x2F2 JUMP JUMPDEST DUP2 MSTORE PUSH1 0x20 DUP1 DUP3 ADD SWAP3 SWAP1 SWAP3 MSTORE PUSH1 0x40 SWAP1 DUP2 ADD PUSH1 0x0 KECCAK256 DUP4 MLOAD DUP2 SLOAD PUSH1 0x1 PUSH1 0x1 PUSH1 0xA0 SHL SUB NOT AND PUSH1 0x1 PUSH1 0x1 PUSH1 0xA0 SHL SUB SWAP1 SWAP2 AND OR DUP2 SSTORE SWAP2 DUP4 ADD MLOAD PUSH1 0x1 DUP1 DUP5 ADD SWAP2 SWAP1 SWAP2 SSTORE SWAP3 ADD MLOAD PUSH1 0x2 SWAP1 SWAP2 ADD SSTORE PUSH3 0x124 SWAP1 DUP3 SWAP1 PUSH3 0x2F2 JUMP JUMPDEST PUSH1 0xA PUSH1 0x0 DUP6 DUP5 DUP2 MLOAD DUP2 LT PUSH3 0x149 JUMPI PUSH4 0x4E487B71 PUSH1 0xE0 SHL PUSH1 0x0 MSTORE PUSH1 0x32 PUSH1 0x4 MSTORE PUSH1 0x24 PUSH1 0x0 REVERT JUMPDEST PUSH1 0x20 MUL PUSH1 0x20 ADD ADD MLOAD PUSH1 0x1 PUSH1 0x1 PUSH1 0xA0 SHL SUB AND PUSH1 0x1 PUSH1 0x1 PUSH1 0xA0 SHL SUB AND DUP2 MSTORE PUSH1 0x20 ADD SWAP1 DUP2 MSTORE PUSH1 0x20 ADD PUSH1 0x0 KECCAK256 DUP2 SWAP1 SSTORE POP DUP1 DUP1 PUSH3 0x182 SWAP1 PUSH3 0x30D JUMP JUMPDEST SWAP2 POP POP PUSH3 0x67 JUMP JUMPDEST POP POP PUSH3 0x127500 PUSH1 0x4 SSTORE POP PUSH3 0x357 JUMP JUMPDEST PUSH1 0x1 DUP1 SLOAD PUSH1 0x1 PUSH1 0x1 PUSH1 0xA0 SHL SUB DUP4 DUP2 AND PUSH1 0x1 PUSH1 0x1 PUSH1 0xA0 SHL SUB NOT DUP4 AND DUP2 OR SWAP1 SWAP4 SSTORE PUSH1 0x40 MLOAD SWAP2 AND SWAP2 SWAP1 DUP3 SWAP1 PUSH32 0x8BE0079C531659141344CD1FD0A4F28419497F9722A3DAAFE3B4186F6B6457E0 SWAP1 PUSH1 0x0 SWAP1 LOG3 POP POP JUMP JUMPDEST DUP1 MLOAD PUSH1 0x1 PUSH1 0x1 PUSH1 0xA0 SHL SUB DUP2 AND DUP2 EQ PUSH3 0x205 JUMPI PUSH1 0x0 DUP1 REVERT JUMPDEST SWAP2 SWAP1 POP JUMP JUMPDEST PUSH1 0x0 DUP1 PUSH1 0x40 DUP4 DUP6 SUB SLT ISZERO PUSH3 0x21D JUMPI DUP2 DUP3 REVERT JUMPDEST DUP3 MLOAD PUSH1 0x1 PUSH1 0x1 PUSH1 0x40 SHL SUB DUP1 DUP3 GT ISZERO PUSH3 0x234 JUMPI DUP4 DUP5 REVERT JUMPDEST DUP2 DUP6 ADD SWAP2 POP DUP6 PUSH1 0x1F DUP4 ADD SLT PUSH3 0x248 JUMPI DUP4 DUP5 REVERT JUMPDEST DUP2 MLOAD PUSH1 0x20 DUP3 DUP3 GT ISZERO PUSH3 0x25F JUMPI PUSH3 0x25F PUSH3 0x341 JUMP JUMPDEST DUP2 PUSH1 0x5 SHL PUSH1 0x40 MLOAD PUSH1 0x1F NOT PUSH1 0x3F DUP4 ADD AND DUP2 ADD DUP2 DUP2 LT DUP7 DUP3 GT OR ISZERO PUSH3 0x287 JUMPI PUSH3 0x287 PUSH3 0x341 JUMP JUMPDEST PUSH1 0x40 MSTORE DUP4 DUP2 MSTORE DUP3 DUP2 ADD SWAP5 POP DUP6 DUP4 ADD DUP3 DUP8 ADD DUP5 ADD DUP12 LT ISZERO PUSH3 0x2A6 JUMPI DUP9 DUP10 REVERT JUMPDEST DUP9 SWAP7 POP JUMPDEST DUP5 DUP8 LT ISZERO PUSH3 0x2D3 JUMPI PUSH3 0x2BE DUP2 PUSH3 0x1ED JUMP JUMPDEST DUP7 MSTORE PUSH1 0x1 SWAP7 SWAP1 SWAP7 ADD SWAP6 SWAP5 DUP4 ADD SWAP5 DUP4 ADD PUSH3 0x2AA JUMP JUMPDEST POP SWAP7 POP PUSH3 0x2E5 SWAP1 POP DUP8 DUP3 ADD PUSH3 0x1ED JUMP JUMPDEST SWAP5 POP POP POP POP POP SWAP3 POP SWAP3 SWAP1 POP JUMP JUMPDEST PUSH1 0x0 DUP3 NOT DUP3 GT ISZERO PUSH3 0x308 JUMPI PUSH3 0x308 PUSH3 0x32B JUMP JUMPDEST POP ADD SWAP1 JUMP JUMPDEST PUSH1 0x0 PUSH1 0x0 NOT DUP3 EQ ISZERO PUSH3 0x324 JUMPI PUSH3 0x324 PUSH3 0x32B JUMP JUMPDEST POP PUSH1 0x1 ADD SWAP1 JUMP JUMPDEST PUSH4 0x4E487B71 PUSH1 0xE0 SHL PUSH1 0x0 MSTORE PUSH1 0x11 PUSH1 0x4 MSTORE PUSH1 0x24 PUSH1 0x0 REVERT JUMPDEST PUSH4 0x4E487B71 PUSH1 0xE0 SHL PUSH1 0x0 MSTORE PUSH1 0x41 PUSH1 0x4 MSTORE PUSH1 0x24 PUSH1 0x0 REVERT JUMPDEST PUSH2 0x37F5 DUP1 PUSH3 0x367 PUSH1 0x0 CODECOPY PUSH1 0x0 RETURN INVALID PUSH1 0x80 PUSH1 0x40 MSTORE CALLVALUE DUP1 ISZERO PUSH2 0x10 JUMPI PUSH1 0x0 DUP1 REVERT JUMPDEST POP PUSH1 0x4 CALLDATASIZE LT PUSH2 0x1A2 JUMPI PUSH1 0x0 CALLDATALOAD PUSH1 0xE0 SHR DUP1 PUSH4 0x715018A6 GT PUSH2 0xEE JUMPI DUP1 PUSH4 0xC4F59F9B GT PUSH2 0x97 JUMPI DUP1 PUSH4 0xE71E7F78 GT PUSH2 0x71 JUMPI DUP1 PUSH4 0xE71E7F78 EQ PUSH2 0x359 JUMPI DUP1 PUSH4 0xE9FAD8EE EQ PUSH2 0x36C JUMPI DUP1 PUSH4 0xEBE2B12B EQ PUSH2 0x374 JUMPI DUP1 PUSH4 0xF2FDE38B EQ PUSH2 0x37D JUMPI PUSH1 0x0 DUP1 REVERT JUMPDEST DUP1 PUSH4 0xC4F59F9B EQ PUSH2 0x333 JUMPI DUP1 PUSH4 0xC8F33C91 EQ PUSH2 0x348 JUMPI DUP1 PUSH4 0xCD3DAF9D EQ PUSH2 0x351 JUMPI PUSH1 0x0 DUP1 REVERT JUMPDEST DUP1 PUSH4 0x8DA5CB5B GT PUSH2 0xC8 JUMPI DUP1 PUSH4 0x8DA5CB5B EQ PUSH2 0x2EF JUMPI DUP1 PUSH4 0xA54F5E0D EQ PUSH2 0x30D JUMPI DUP1 PUSH4 0xA694FC3A EQ PUSH2 0x320 JUMPI PUSH1 0x0 DUP1 REVERT JUMPDEST DUP1 PUSH4 0x715018A6 EQ PUSH2 0x29A JUMPI DUP1 PUSH4 0x72F702F3 EQ PUSH2 0x2A2 JUMPI DUP1 PUSH4 0x80FAA57D EQ PUSH2 0x2E7 JUMPI PUSH1 0x0 DUP1 REVERT JUMPDEST DUP1 PUSH4 0x386A9525 GT PUSH2 0x150 JUMPI DUP1 PUSH4 0x6A1AF3B7 GT PUSH2 0x12A JUMPI DUP1 PUSH4 0x6A1AF3B7 EQ PUSH2 0x23E JUMPI DUP1 PUSH4 0x6E353A1D EQ PUSH2 0x251 JUMPI DUP1 PUSH4 0x70A08231 EQ PUSH2 0x264 JUMPI PUSH1 0x0 DUP1 REVERT JUMPDEST DUP1 PUSH4 0x386A9525 EQ PUSH2 0x21A JUMPI DUP1 PUSH4 0x3D18B912 EQ PUSH2 0x223 JUMPI DUP1 PUSH4 0x3D509C97 EQ PUSH2 0x22B JUMPI PUSH1 0x0 DUP1 REVERT JUMPDEST DUP1 PUSH4 0x1C03E6CC GT PUSH2 0x181 JUMPI DUP1 PUSH4 0x1C03E6CC EQ PUSH2 0x1EA JUMPI DUP1 PUSH4 0x1C1F78EB EQ PUSH2 0x1FF JUMPI DUP1 PUSH4 0x2E1A7D4D EQ PUSH2 0x207 JUMPI PUSH1 0x0 DUP1 REVERT JUMPDEST DUP1 PUSH3 0x8CC262 EQ PUSH2 0x1A7 JUMPI DUP1 PUSH4 0x18160DDD EQ PUSH2 0x1D0 JUMPI DUP1 PUSH4 0x1B0875A6 EQ PUSH2 0x1E2 JUMPI JUMPDEST PUSH1 0x0 DUP1 REVERT JUMPDEST PUSH2 0x1BA PUSH2 0x1B5 CALLDATASIZE PUSH1 0x4 PUSH2 0x33D5 JUMP JUMPDEST PUSH2 0x390 JUMP JUMPDEST PUSH1 0x40 MLOAD PUSH2 0x1C7 SWAP2 SWAP1 PUSH2 0x35C2 JUMP JUMPDEST PUSH1 0x40 MLOAD DUP1 SWAP2 SUB SWAP1 RETURN JUMPDEST PUSH1 0xB SLOAD JUMPDEST PUSH1 0x40 MLOAD SWAP1 DUP2 MSTORE PUSH1 0x20 ADD PUSH2 0x1C7 JUMP JUMPDEST PUSH1 0x8 SLOAD PUSH2 0x1D4 JUMP JUMPDEST PUSH2 0x1FD PUSH2 0x1F8 CALLDATASIZE PUSH1 0x4 PUSH2 0x33D5 JUMP JUMPDEST PUSH2 0x58B JUMP JUMPDEST STOP JUMPDEST PUSH2 0x1BA PUSH2 0x9BE JUMP JUMPDEST PUSH2 0x1FD PUSH2 0x215 CALLDATASIZE PUSH1 0x4 PUSH2 0x3507 JUMP JUMPDEST PUSH2 0xACF JUMP JUMPDEST PUSH2 0x1D4 PUSH1 0x4 SLOAD DUP2 JUMP JUMPDEST PUSH2 0x1FD PUSH2 0xE11 JUMP JUMPDEST PUSH2 0x1FD PUSH2 0x239 CALLDATASIZE PUSH1 0x4 PUSH2 0x33D5 JUMP JUMPDEST PUSH2 0x11A6 JUMP JUMPDEST PUSH2 0x1FD PUSH2 0x24C CALLDATASIZE PUSH1 0x4 PUSH2 0x3409 JUMP JUMPDEST PUSH2 0x15BB JUMP JUMPDEST PUSH2 0x1FD PUSH2 0x25F CALLDATASIZE PUSH1 0x4 PUSH2 0x33D5 JUMP JUMPDEST PUSH2 0x1A86 JUMP JUMPDEST PUSH2 0x1D4 PUSH2 0x272 CALLDATASIZE PUSH1 0x4 PUSH2 0x33D5 JUMP JUMPDEST PUSH20 0xFFFFFFFFFFFFFFFFFFFFFFFFFFFFFFFFFFFFFFFF AND PUSH1 0x0 SWAP1 DUP2 MSTORE PUSH1 0xC PUSH1 0x20 MSTORE PUSH1 0x40 SWAP1 KECCAK256 SLOAD SWAP1 JUMP JUMPDEST PUSH2 0x1FD PUSH2 0x1EC6 JUMP JUMPDEST PUSH1 0x2 SLOAD PUSH2 0x2C2 SWAP1 PUSH20 0xFFFFFFFFFFFFFFFFFFFFFFFFFFFFFFFFFFFFFFFF AND DUP2 JUMP JUMPDEST PUSH1 0x40 MLOAD PUSH20 0xFFFFFFFFFFFFFFFFFFFFFFFFFFFFFFFFFFFFFFFF SWAP1 SWAP2 AND DUP2 MSTORE PUSH1 0x20 ADD PUSH2 0x1C7 JUMP JUMPDEST PUSH2 0x1D4 PUSH2 0x1F53 JUMP JUMPDEST PUSH1 0x1 SLOAD PUSH20 0xFFFFFFFFFFFFFFFFFFFFFFFFFFFFFFFFFFFFFFFF AND PUSH2 0x2C2 JUMP JUMPDEST PUSH2 0x1D4 PUSH2 0x31B CALLDATASIZE PUSH1 0x4 PUSH2 0x33D5 JUMP JUMPDEST PUSH2 0x1F66 JUMP JUMPDEST PUSH2 0x1FD PUSH2 0x32E CALLDATASIZE PUSH1 0x4 PUSH2 0x3507 JUMP JUMPDEST PUSH2 0x200D JUMP JUMPDEST PUSH2 0x33B PUSH2 0x24AF JUMP JUMPDEST PUSH1 0x40 MLOAD PUSH2 0x1C7 SWAP2 SWAP1 PUSH2 0x3553 JUMP JUMPDEST PUSH2 0x1D4 PUSH1 0x5 SLOAD DUP2 JUMP JUMPDEST PUSH2 0x1BA PUSH2 0x2621 JUMP JUMPDEST PUSH2 0x1FD PUSH2 0x367 CALLDATASIZE PUSH1 0x4 PUSH2 0x3409 JUMP JUMPDEST PUSH2 0x27DC JUMP JUMPDEST PUSH2 0x1FD PUSH2 0x2D7E JUMP JUMPDEST PUSH2 0x1D4 PUSH1 0x3 SLOAD DUP2 JUMP JUMPDEST PUSH2 0x1FD PUSH2 0x38B CALLDATASIZE PUSH1 0x4 PUSH2 0x33D5 JUMP JUMPDEST PUSH2 0x2D9F JUMP JUMPDEST PUSH1 0x60 PUSH1 0x0 PUSH1 0x8 SLOAD PUSH8 0xFFFFFFFFFFFFFFFF DUP2 GT ISZERO PUSH2 0x3D6 JUMPI PUSH32 0x4E487B7100000000000000000000000000000000000000000000000000000000 PUSH1 0x0 MSTORE PUSH1 0x41 PUSH1 0x4 MSTORE PUSH1 0x24 PUSH1 0x0 REVERT JUMPDEST PUSH1 0x40 MLOAD SWAP1 DUP1 DUP3 MSTORE DUP1 PUSH1 0x20 MUL PUSH1 0x20 ADD DUP3 ADD PUSH1 0x40 MSTORE DUP1 ISZERO PUSH2 0x3FF JUMPI DUP2 PUSH1 0x20 ADD PUSH1 0x20 DUP3 MUL DUP1 CALLDATASIZE DUP4 CALLDATACOPY ADD SWAP1 POP JUMPDEST POP SWAP1 POP PUSH1 0x0 PUSH2 0x40C PUSH2 0x2621 JUMP JUMPDEST SWAP1 POP PUSH1 0x0 JUMPDEST PUSH1 0x8 SLOAD DUP2 LT ISZERO PUSH2 0x582 JUMPI PUSH1 0x0 PUSH1 0x9 DUP2 PUSH2 0x42B DUP5 PUSH1 0x1 PUSH2 0x3657 JUMP JUMPDEST DUP2 MSTORE PUSH1 0x20 DUP1 DUP3 ADD SWAP3 SWAP1 SWAP3 MSTORE PUSH1 0x40 SWAP1 DUP2 ADD PUSH1 0x0 SWAP1 DUP2 KECCAK256 SLOAD PUSH20 0xFFFFFFFFFFFFFFFFFFFFFFFFFFFFFFFFFFFFFFFF DUP11 DUP2 AND DUP1 DUP5 MSTORE PUSH1 0x7 DUP7 MSTORE DUP5 DUP5 KECCAK256 SWAP2 SWAP1 SWAP3 AND DUP1 DUP5 MSTORE SWAP1 DUP6 MSTORE DUP4 DUP4 KECCAK256 SLOAD SWAP2 DUP4 MSTORE PUSH1 0x6 DUP6 MSTORE DUP4 DUP4 KECCAK256 DUP2 DUP5 MSTORE SWAP1 SWAP5 MSTORE SWAP2 SWAP1 KECCAK256 SLOAD DUP6 MLOAD SWAP3 SWAP4 POP PUSH2 0x52B SWAP3 PUSH2 0x525 SWAP2 PUSH8 0xDE0B6B3A7640000 SWAP2 PUSH2 0x51F SWAP2 PUSH2 0x4F3 SWAP2 DUP11 SWAP1 DUP11 SWAP1 DUP2 LT PUSH2 0x4DD JUMPI PUSH32 0x4E487B7100000000000000000000000000000000000000000000000000000000 PUSH1 0x0 MSTORE PUSH1 0x32 PUSH1 0x4 MSTORE PUSH1 0x24 PUSH1 0x0 REVERT JUMPDEST PUSH1 0x20 MUL PUSH1 0x20 ADD ADD MLOAD PUSH2 0x2ECF SWAP1 SWAP2 SWAP1 PUSH4 0xFFFFFFFF AND JUMP JUMPDEST PUSH20 0xFFFFFFFFFFFFFFFFFFFFFFFFFFFFFFFFFFFFFFFF DUP13 AND PUSH1 0x0 SWAP1 DUP2 MSTORE PUSH1 0xC PUSH1 0x20 MSTORE PUSH1 0x40 SWAP1 KECCAK256 SLOAD SWAP1 PUSH2 0x2EDB JUMP JUMPDEST SWAP1 PUSH2 0x2EE7 JUMP JUMPDEST SWAP1 PUSH2 0x2EF3 JUMP JUMPDEST DUP5 DUP4 DUP2 MLOAD DUP2 LT PUSH2 0x564 JUMPI PUSH32 0x4E487B7100000000000000000000000000000000000000000000000000000000 PUSH1 0x0 MSTORE PUSH1 0x32 PUSH1 0x4 MSTORE PUSH1 0x24 PUSH1 0x0 REVERT JUMPDEST PUSH1 0x20 SWAP1 DUP2 MUL SWAP2 SWAP1 SWAP2 ADD ADD MSTORE POP DUP1 PUSH2 0x57A DUP2 PUSH2 0x3728 JUMP JUMPDEST SWAP2 POP POP PUSH2 0x411 JUMP JUMPDEST POP SWAP1 SWAP4 SWAP3 POP POP POP JUMP JUMPDEST PUSH1 0x1 SLOAD PUSH20 0xFFFFFFFFFFFFFFFFFFFFFFFFFFFFFFFFFFFFFFFF AND CALLER EQ PUSH2 0x611 JUMPI PUSH1 0x40 MLOAD PUSH32 0x8C379A000000000000000000000000000000000000000000000000000000000 DUP2 MSTORE PUSH1 0x20 PUSH1 0x4 DUP3 ADD DUP2 SWAP1 MSTORE PUSH1 0x24 DUP3 ADD MSTORE PUSH32 0x4F776E61626C653A2063616C6C6572206973206E6F7420746865206F776E6572 PUSH1 0x44 DUP3 ADD MSTORE PUSH1 0x64 ADD JUMPDEST PUSH1 0x40 MLOAD DUP1 SWAP2 SUB SWAP1 REVERT JUMPDEST PUSH1 0x6 PUSH1 0x8 SLOAD LT PUSH2 0x67D JUMPI PUSH1 0x40 MLOAD PUSH32 0x8C379A000000000000000000000000000000000000000000000000000000000 DUP2 MSTORE PUSH1 0x20 PUSH1 0x4 DUP3 ADD MSTORE PUSH1 0xF PUSH1 0x24 DUP3 ADD MSTORE PUSH32 0x546F6F206D616E7920746F6B656E730000000000000000000000000000000000 PUSH1 0x44 DUP3 ADD MSTORE PUSH1 0x64 ADD PUSH2 0x608 JUMP JUMPDEST PUSH1 0x40 MLOAD PUSH32 0x70A0823100000000000000000000000000000000000000000000000000000000 DUP2 MSTORE ADDRESS PUSH1 0x4 DUP3 ADD MSTORE PUSH1 0x0 SWAP1 PUSH20 0xFFFFFFFFFFFFFFFFFFFFFFFFFFFFFFFFFFFFFFFF DUP4 AND SWAP1 PUSH4 0x70A08231 SWAP1 PUSH1 0x24 ADD PUSH1 0x20 PUSH1 0x40 MLOAD DUP1 DUP4 SUB DUP2 DUP7 DUP1 EXTCODESIZE ISZERO DUP1 ISZERO PUSH2 0x6E5 JUMPI PUSH1 0x0 DUP1 REVERT JUMPDEST POP GAS STATICCALL ISZERO DUP1 ISZERO PUSH2 0x6F9 JUMPI RETURNDATASIZE PUSH1 0x0 DUP1 RETURNDATACOPY RETURNDATASIZE PUSH1 0x0 REVERT JUMPDEST POP POP POP POP PUSH1 0x40 MLOAD RETURNDATASIZE PUSH1 0x1F NOT PUSH1 0x1F DUP3 ADD AND DUP3 ADD DUP1 PUSH1 0x40 MSTORE POP DUP2 ADD SWAP1 PUSH2 0x71D SWAP2 SWAP1 PUSH2 0x351F JUMP JUMPDEST GT PUSH2 0x784 JUMPI PUSH1 0x40 MLOAD PUSH32 0x8C379A000000000000000000000000000000000000000000000000000000000 DUP2 MSTORE PUSH1 0x20 PUSH1 0x4 DUP3 ADD MSTORE PUSH1 0x15 PUSH1 0x24 DUP3 ADD MSTORE PUSH32 0x4D7573742070726566756E6420636F6E74726163740000000000000000000000 PUSH1 0x44 DUP3 ADD MSTORE PUSH1 0x64 ADD PUSH2 0x608 JUMP JUMPDEST PUSH1 0x1 PUSH1 0x8 PUSH1 0x0 DUP3 DUP3 SLOAD PUSH2 0x797 SWAP2 SWAP1 PUSH2 0x3657 JUMP JUMPDEST SWAP1 SWAP2 SSTORE POP POP PUSH1 0x40 DUP1 MLOAD PUSH1 0x60 DUP2 ADD DUP3 MSTORE PUSH20 0xFFFFFFFFFFFFFFFFFFFFFFFFFFFFFFFFFFFFFFFF DUP4 DUP2 AND DUP1 DUP4 MSTORE PUSH1 0x0 PUSH1 0x20 DUP1 DUP6 ADD DUP3 DUP2 MSTORE DUP6 DUP8 ADD DUP4 DUP2 MSTORE PUSH1 0x8 DUP1 SLOAD DUP6 MSTORE PUSH1 0x9 DUP5 MSTORE DUP9 DUP6 KECCAK256 SWAP8 MLOAD DUP9 SLOAD PUSH32 0xFFFFFFFFFFFFFFFFFFFFFFFF0000000000000000000000000000000000000000 AND SWAP8 AND SWAP7 SWAP1 SWAP7 OR DUP8 SSTORE SWAP1 MLOAD PUSH1 0x1 DUP8 ADD SSTORE MLOAD PUSH1 0x2 SWAP1 SWAP6 ADD SWAP5 SWAP1 SWAP5 SSTORE SWAP2 SLOAD SWAP1 DUP3 MSTORE PUSH1 0xA SWAP1 SWAP3 MSTORE SWAP2 DUP3 KECCAK256 DUP2 SWAP1 SSTORE PUSH8 0xFFFFFFFFFFFFFFFF DUP2 GT ISZERO PUSH2 0x86C JUMPI PUSH32 0x4E487B7100000000000000000000000000000000000000000000000000000000 PUSH1 0x0 MSTORE PUSH1 0x41 PUSH1 0x4 MSTORE PUSH1 0x24 PUSH1 0x0 REVERT JUMPDEST PUSH1 0x40 MLOAD SWAP1 DUP1 DUP3 MSTORE DUP1 PUSH1 0x20 MUL PUSH1 0x20 ADD DUP3 ADD PUSH1 0x40 MSTORE DUP1 ISZERO PUSH2 0x895 JUMPI DUP2 PUSH1 0x20 ADD PUSH1 0x20 DUP3 MUL DUP1 CALLDATASIZE DUP4 CALLDATACOPY ADD SWAP1 POP JUMPDEST POP SWAP1 POP PUSH1 0x0 JUMPDEST PUSH1 0x8 SLOAD DUP2 LT ISZERO PUSH2 0x9B0 JUMPI PUSH1 0x1 PUSH1 0x8 SLOAD PUSH2 0x8B4 SWAP2 SWAP1 PUSH2 0x36E5 JUMP JUMPDEST DUP2 EQ ISZERO PUSH2 0x99E JUMPI PUSH1 0x40 MLOAD PUSH32 0x70A0823100000000000000000000000000000000000000000000000000000000 DUP2 MSTORE ADDRESS PUSH1 0x4 DUP3 ADD MSTORE PUSH20 0xFFFFFFFFFFFFFFFFFFFFFFFFFFFFFFFFFFFFFFFF DUP5 AND SWAP1 PUSH4 0x70A08231 SWAP1 PUSH1 0x24 ADD PUSH1 0x20 PUSH1 0x40 MLOAD DUP1 DUP4 SUB DUP2 DUP7 DUP1 EXTCODESIZE ISZERO DUP1 ISZERO PUSH2 0x920 JUMPI PUSH1 0x0 DUP1 REVERT JUMPDEST POP GAS STATICCALL ISZERO DUP1 ISZERO PUSH2 0x934 JUMPI RETURNDATASIZE PUSH1 0x0 DUP1 RETURNDATACOPY RETURNDATASIZE PUSH1 0x0 REVERT JUMPDEST POP POP POP POP PUSH1 0x40 MLOAD RETURNDATASIZE PUSH1 0x1F NOT PUSH1 0x1F DUP3 ADD AND DUP3 ADD DUP1 PUSH1 0x40 MSTORE POP DUP2 ADD SWAP1 PUSH2 0x958 SWAP2 SWAP1 PUSH2 0x351F JUMP JUMPDEST DUP3 DUP3 DUP2 MLOAD DUP2 LT PUSH2 0x991 JUMPI PUSH32 0x4E487B7100000000000000000000000000000000000000000000000000000000 PUSH1 0x0 MSTORE PUSH1 0x32 PUSH1 0x4 MSTORE PUSH1 0x24 PUSH1 0x0 REVERT JUMPDEST PUSH1 0x20 MUL PUSH1 0x20 ADD ADD DUP2 DUP2 MSTORE POP POP JUMPDEST DUP1 PUSH2 0x9A8 DUP2 PUSH2 0x3728 JUMP JUMPDEST SWAP2 POP POP PUSH2 0x89B JUMP JUMPDEST POP PUSH2 0x9BA DUP2 PUSH2 0x27DC JUMP JUMPDEST POP POP JUMP JUMPDEST PUSH1 0x60 PUSH1 0x0 PUSH1 0x8 SLOAD PUSH8 0xFFFFFFFFFFFFFFFF DUP2 GT ISZERO PUSH2 0xA04 JUMPI PUSH32 0x4E487B7100000000000000000000000000000000000000000000000000000000 PUSH1 0x0 MSTORE PUSH1 0x41 PUSH1 0x4 MSTORE PUSH1 0x24 PUSH1 0x0 REVERT JUMPDEST PUSH1 0x40 MLOAD SWAP1 DUP1 DUP3 MSTORE DUP1 PUSH1 0x20 MUL PUSH1 0x20 ADD DUP3 ADD PUSH1 0x40 MSTORE DUP1 ISZERO PUSH2 0xA2D JUMPI DUP2 PUSH1 0x20 ADD PUSH1 0x20 DUP3 MUL DUP1 CALLDATASIZE DUP4 CALLDATACOPY ADD SWAP1 POP JUMPDEST POP SWAP1 POP PUSH1 0x0 JUMPDEST PUSH1 0x8 SLOAD DUP2 LT ISZERO PUSH2 0xAC9 JUMPI PUSH1 0x4 SLOAD PUSH2 0xA73 SWAP1 PUSH1 0x9 PUSH1 0x0 PUSH2 0xA53 DUP6 PUSH1 0x1 PUSH2 0x3657 JUMP JUMPDEST DUP2 MSTORE PUSH1 0x20 ADD SWAP1 DUP2 MSTORE PUSH1 0x20 ADD PUSH1 0x0 KECCAK256 PUSH1 0x1 ADD SLOAD PUSH2 0x2EDB SWAP1 SWAP2 SWAP1 PUSH4 0xFFFFFFFF AND JUMP JUMPDEST DUP3 DUP3 DUP2 MLOAD DUP2 LT PUSH2 0xAAC JUMPI PUSH32 0x4E487B7100000000000000000000000000000000000000000000000000000000 PUSH1 0x0 MSTORE PUSH1 0x32 PUSH1 0x4 MSTORE PUSH1 0x24 PUSH1 0x0 REVERT JUMPDEST PUSH1 0x20 SWAP1 DUP2 MUL SWAP2 SWAP1 SWAP2 ADD ADD MSTORE DUP1 PUSH2 0xAC1 DUP2 PUSH2 0x3728 JUMP JUMPDEST SWAP2 POP POP PUSH2 0xA33 JUMP JUMPDEST POP SWAP2 SWAP1 POP JUMP JUMPDEST PUSH1 0x2 PUSH1 0x0 SLOAD EQ ISZERO PUSH2 0xB3C JUMPI PUSH1 0x40 MLOAD PUSH32 0x8C379A000000000000000000000000000000000000000000000000000000000 DUP2 MSTORE PUSH1 0x20 PUSH1 0x4 DUP3 ADD MSTORE PUSH1 0x1F PUSH1 0x24 DUP3 ADD MSTORE PUSH32 0x5265656E7472616E637947756172643A207265656E7472616E742063616C6C00 PUSH1 0x44 DUP3 ADD MSTORE PUSH1 0x64 ADD PUSH2 0x608 JUMP JUMPDEST PUSH1 0x2 PUSH1 0x0 SWAP1 DUP2 SSTORE CALLER SWAP1 PUSH2 0xB4D PUSH2 0x2621 JUMP JUMPDEST SWAP1 POP PUSH1 0x0 PUSH2 0xB5A DUP4 PUSH2 0x390 JUMP JUMPDEST SWAP1 POP PUSH2 0xB64 PUSH2 0x1F53 JUMP JUMPDEST PUSH1 0x5 SSTORE PUSH1 0x0 JUMPDEST PUSH1 0x8 SLOAD DUP2 LT ISZERO PUSH2 0xD03 JUMPI PUSH1 0x0 PUSH1 0x9 DUP2 PUSH2 0xB84 DUP5 PUSH1 0x1 PUSH2 0x3657 JUMP JUMPDEST DUP2 MSTORE PUSH1 0x20 ADD SWAP1 DUP2 MSTORE PUSH1 0x20 ADD PUSH1 0x0 KECCAK256 SWAP1 POP DUP4 DUP3 DUP2 MLOAD DUP2 LT PUSH2 0xBCD JUMPI PUSH32 0x4E487B7100000000000000000000000000000000000000000000000000000000 PUSH1 0x0 MSTORE PUSH1 0x32 PUSH1 0x4 MSTORE PUSH1 0x24 PUSH1 0x0 REVERT JUMPDEST PUSH1 0x20 SWAP1 DUP2 MUL SWAP2 SWAP1 SWAP2 ADD ADD MLOAD PUSH1 0x2 DUP3 ADD SSTORE PUSH20 0xFFFFFFFFFFFFFFFFFFFFFFFFFFFFFFFFFFFFFFFF DUP6 AND ISZERO PUSH2 0xCF0 JUMPI DUP3 DUP3 DUP2 MLOAD DUP2 LT PUSH2 0xC32 JUMPI PUSH32 0x4E487B7100000000000000000000000000000000000000000000000000000000 PUSH1 0x0 MSTORE PUSH1 0x32 PUSH1 0x4 MSTORE PUSH1 0x24 PUSH1 0x0 REVERT JUMPDEST PUSH1 0x20 SWAP1 DUP2 MUL SWAP2 SWAP1 SWAP2 ADD DUP2 ADD MLOAD PUSH20 0xFFFFFFFFFFFFFFFFFFFFFFFFFFFFFFFFFFFFFFFF DUP1 DUP9 AND PUSH1 0x0 SWAP1 DUP2 MSTORE PUSH1 0x7 DUP5 MSTORE PUSH1 0x40 DUP1 DUP3 KECCAK256 DUP7 SLOAD SWAP1 SWAP4 AND DUP3 MSTORE SWAP2 SWAP1 SWAP4 MSTORE SWAP1 SWAP2 KECCAK256 SSTORE DUP4 MLOAD DUP5 SWAP1 DUP4 SWAP1 DUP2 LT PUSH2 0xCAE JUMPI PUSH32 0x4E487B7100000000000000000000000000000000000000000000000000000000 PUSH1 0x0 MSTORE PUSH1 0x32 PUSH1 0x4 MSTORE PUSH1 0x24 PUSH1 0x0 REVERT JUMPDEST PUSH1 0x20 SWAP1 DUP2 MUL SWAP2 SWAP1 SWAP2 ADD DUP2 ADD MLOAD PUSH20 0xFFFFFFFFFFFFFFFFFFFFFFFFFFFFFFFFFFFFFFFF DUP1 DUP9 AND PUSH1 0x0 SWAP1 DUP2 MSTORE PUSH1 0x6 DUP5 MSTORE PUSH1 0x40 DUP1 DUP3 KECCAK256 DUP7 SLOAD SWAP1 SWAP4 AND DUP3 MSTORE SWAP2 SWAP1 SWAP4 MSTORE SWAP1 SWAP2 KECCAK256 SSTORE JUMPDEST POP DUP1 PUSH2 0xCFB DUP2 PUSH2 0x3728 JUMP JUMPDEST SWAP2 POP POP PUSH2 0xB6A JUMP JUMPDEST POP PUSH1 0x0 DUP5 GT PUSH2 0xD6E JUMPI PUSH1 0x40 MLOAD PUSH32 0x8C379A000000000000000000000000000000000000000000000000000000000 DUP2 MSTORE PUSH1 0x20 PUSH1 0x4 DUP3 ADD MSTORE PUSH1 0x11 PUSH1 0x24 DUP3 ADD MSTORE PUSH32 0x43616E6E6F742077697468647261772030000000000000000000000000000000 PUSH1 0x44 DUP3 ADD MSTORE PUSH1 0x64 ADD PUSH2 0x608 JUMP JUMPDEST PUSH1 0xB SLOAD PUSH2 0xD7B SWAP1 DUP6 PUSH2 0x2ECF JUMP JUMPDEST PUSH1 0xB SSTORE CALLER PUSH1 0x0 SWAP1 DUP2 MSTORE PUSH1 0xC PUSH1 0x20 MSTORE PUSH1 0x40 SWAP1 KECCAK256 SLOAD PUSH2 0xD98 SWAP1 DUP6 PUSH2 0x2ECF JUMP JUMPDEST CALLER PUSH1 0x0 DUP2 DUP2 MSTORE PUSH1 0xC PUSH1 0x20 MSTORE PUSH1 0x40 SWAP1 KECCAK256 SWAP2 SWAP1 SWAP2 SSTORE PUSH1 0x2 SLOAD PUSH2 0xDD1 SWAP2 PUSH20 0xFFFFFFFFFFFFFFFFFFFFFFFFFFFFFFFFFFFFFFFF SWAP1 SWAP2 AND SWAP1 DUP7 PUSH2 0x2EFF JUMP JUMPDEST PUSH1 0x40 MLOAD DUP5 DUP2 MSTORE CALLER SWAP1 PUSH32 0x7084F5476618D8E60B11EF0D7D3F06914655ADB8793E28FF7F018D4C76D505D5 SWAP1 PUSH1 0x20 ADD PUSH1 0x40 MLOAD DUP1 SWAP2 SUB SWAP1 LOG2 POP POP PUSH1 0x1 PUSH1 0x0 SSTORE POP POP JUMP JUMPDEST PUSH1 0x2 PUSH1 0x0 SLOAD EQ ISZERO PUSH2 0xE7E JUMPI PUSH1 0x40 MLOAD PUSH32 0x8C379A000000000000000000000000000000000000000000000000000000000 DUP2 MSTORE PUSH1 0x20 PUSH1 0x4 DUP3 ADD MSTORE PUSH1 0x1F PUSH1 0x24 DUP3 ADD MSTORE PUSH32 0x5265656E7472616E637947756172643A207265656E7472616E742063616C6C00 PUSH1 0x44 DUP3 ADD MSTORE PUSH1 0x64 ADD PUSH2 0x608 JUMP JUMPDEST PUSH1 0x2 PUSH1 0x0 SWAP1 DUP2 SSTORE CALLER SWAP1 PUSH2 0xE8F PUSH2 0x2621 JUMP JUMPDEST SWAP1 POP PUSH1 0x0 PUSH2 0xE9C DUP4 PUSH2 0x390 JUMP JUMPDEST SWAP1 POP PUSH2 0xEA6 PUSH2 0x1F53 JUMP JUMPDEST PUSH1 0x5 SSTORE PUSH1 0x0 JUMPDEST PUSH1 0x8 SLOAD DUP2 LT ISZERO PUSH2 0x1045 JUMPI PUSH1 0x0 PUSH1 0x9 DUP2 PUSH2 0xEC6 DUP5 PUSH1 0x1 PUSH2 0x3657 JUMP JUMPDEST DUP2 MSTORE PUSH1 0x20 ADD SWAP1 DUP2 MSTORE PUSH1 0x20 ADD PUSH1 0x0 KECCAK256 SWAP1 POP DUP4 DUP3 DUP2 MLOAD DUP2 LT PUSH2 0xF0F JUMPI PUSH32 0x4E487B7100000000000000000000000000000000000000000000000000000000 PUSH1 0x0 MSTORE PUSH1 0x32 PUSH1 0x4 MSTORE PUSH1 0x24 PUSH1 0x0 REVERT JUMPDEST PUSH1 0x20 SWAP1 DUP2 MUL SWAP2 SWAP1 SWAP2 ADD ADD MLOAD PUSH1 0x2 DUP3 ADD SSTORE PUSH20 0xFFFFFFFFFFFFFFFFFFFFFFFFFFFFFFFFFFFFFFFF DUP6 AND ISZERO PUSH2 0x1032 JUMPI DUP3 DUP3 DUP2 MLOAD DUP2 LT PUSH2 0xF74 JUMPI PUSH32 0x4E487B7100000000000000000000000000000000000000000000000000000000 PUSH1 0x0 MSTORE PUSH1 0x32 PUSH1 0x4 MSTORE PUSH1 0x24 PUSH1 0x0 REVERT JUMPDEST PUSH1 0x20 SWAP1 DUP2 MUL SWAP2 SWAP1 SWAP2 ADD DUP2 ADD MLOAD PUSH20 0xFFFFFFFFFFFFFFFFFFFFFFFFFFFFFFFFFFFFFFFF DUP1 DUP9 AND PUSH1 0x0 SWAP1 DUP2 MSTORE PUSH1 0x7 DUP5 MSTORE PUSH1 0x40 DUP1 DUP3 KECCAK256 DUP7 SLOAD SWAP1 SWAP4 AND DUP3 MSTORE SWAP2 SWAP1 SWAP4 MSTORE SWAP1 SWAP2 KECCAK256 SSTORE DUP4 MLOAD DUP5 SWAP1 DUP4 SWAP1 DUP2 LT PUSH2 0xFF0 JUMPI PUSH32 0x4E487B7100000000000000000000000000000000000000000000000000000000 PUSH1 0x0 MSTORE PUSH1 0x32 PUSH1 0x4 MSTORE PUSH1 0x24 PUSH1 0x0 REVERT JUMPDEST PUSH1 0x20 SWAP1 DUP2 MUL SWAP2 SWAP1 SWAP2 ADD DUP2 ADD MLOAD PUSH20 0xFFFFFFFFFFFFFFFFFFFFFFFFFFFFFFFFFFFFFFFF DUP1 DUP9 AND PUSH1 0x0 SWAP1 DUP2 MSTORE PUSH1 0x6 DUP5 MSTORE PUSH1 0x40 DUP1 DUP3 KECCAK256 DUP7 SLOAD SWAP1 SWAP4 AND DUP3 MSTORE SWAP2 SWAP1 SWAP4 MSTORE SWAP1 SWAP2 KECCAK256 SSTORE JUMPDEST POP DUP1 PUSH2 0x103D DUP2 PUSH2 0x3728 JUMP JUMPDEST SWAP2 POP POP PUSH2 0xEAC JUMP JUMPDEST POP PUSH1 0x0 JUMPDEST PUSH1 0x8 SLOAD DUP2 LT ISZERO PUSH2 0x119B JUMPI CALLER PUSH1 0x0 SWAP1 DUP2 MSTORE PUSH1 0x7 PUSH1 0x20 MSTORE PUSH1 0x40 DUP2 KECCAK256 DUP2 PUSH1 0x9 DUP2 PUSH2 0x1071 DUP7 PUSH1 0x1 PUSH2 0x3657 JUMP JUMPDEST DUP2 MSTORE PUSH1 0x20 DUP1 DUP3 ADD SWAP3 SWAP1 SWAP3 MSTORE PUSH1 0x40 SWAP1 DUP2 ADD PUSH1 0x0 SWAP1 DUP2 KECCAK256 SLOAD PUSH20 0xFFFFFFFFFFFFFFFFFFFFFFFFFFFFFFFFFFFFFFFF AND DUP5 MSTORE SWAP2 DUP4 ADD SWAP4 SWAP1 SWAP4 MSTORE SWAP2 ADD SWAP1 KECCAK256 SLOAD SWAP1 POP DUP1 ISZERO PUSH2 0x1188 JUMPI CALLER PUSH1 0x0 SWAP1 DUP2 MSTORE PUSH1 0x7 PUSH1 0x20 MSTORE PUSH1 0x40 DUP2 KECCAK256 DUP2 PUSH1 0x9 DUP2 PUSH2 0x10D1 DUP8 PUSH1 0x1 PUSH2 0x3657 JUMP JUMPDEST DUP2 MSTORE PUSH1 0x20 DUP1 DUP3 ADD SWAP3 SWAP1 SWAP3 MSTORE PUSH1 0x40 SWAP1 DUP2 ADD PUSH1 0x0 SWAP1 DUP2 KECCAK256 SLOAD PUSH20 0xFFFFFFFFFFFFFFFFFFFFFFFFFFFFFFFFFFFFFFFF AND DUP5 MSTORE SWAP2 DUP4 ADD SWAP4 SWAP1 SWAP4 MSTORE SWAP2 ADD DUP2 KECCAK256 SWAP2 SWAP1 SWAP2 SSTORE PUSH2 0x1152 SWAP1 CALLER SWAP1 DUP4 SWAP1 PUSH1 0x9 SWAP1 PUSH2 0x1124 DUP8 PUSH1 0x1 PUSH2 0x3657 JUMP JUMPDEST DUP2 MSTORE PUSH1 0x20 DUP2 ADD SWAP2 SWAP1 SWAP2 MSTORE PUSH1 0x40 ADD PUSH1 0x0 KECCAK256 SLOAD PUSH20 0xFFFFFFFFFFFFFFFFFFFFFFFFFFFFFFFFFFFFFFFF AND SWAP2 SWAP1 PUSH2 0x2EFF JUMP JUMPDEST PUSH1 0x40 MLOAD DUP2 DUP2 MSTORE CALLER SWAP1 PUSH32 0xE2403640BA68FED3A2F88B7557551D1993F84B99BB10FF833F0CF8DB0C5E0486 SWAP1 PUSH1 0x20 ADD PUSH1 0x40 MLOAD DUP1 SWAP2 SUB SWAP1 LOG2 JUMPDEST POP DUP1 PUSH2 0x1193 DUP2 PUSH2 0x3728 JUMP JUMPDEST SWAP2 POP POP PUSH2 0x1049 JUMP JUMPDEST POP POP PUSH1 0x1 PUSH1 0x0 SSTORE POP POP JUMP JUMPDEST PUSH1 0x1 SLOAD PUSH20 0xFFFFFFFFFFFFFFFFFFFFFFFFFFFFFFFFFFFFFFFF AND CALLER EQ PUSH2 0x1227 JUMPI PUSH1 0x40 MLOAD PUSH32 0x8C379A000000000000000000000000000000000000000000000000000000000 DUP2 MSTORE PUSH1 0x20 PUSH1 0x4 DUP3 ADD DUP2 SWAP1 MSTORE PUSH1 0x24 DUP3 ADD MSTORE PUSH32 0x4F776E61626C653A2063616C6C6572206973206E6F7420746865206F776E6572 PUSH1 0x44 DUP3 ADD MSTORE PUSH1 0x64 ADD PUSH2 0x608 JUMP JUMPDEST PUSH1 0x0 DUP1 PUSH2 0x1232 PUSH2 0x2621 JUMP JUMPDEST SWAP1 POP PUSH1 0x0 PUSH2 0x123F DUP4 PUSH2 0x390 JUMP JUMPDEST SWAP1 POP PUSH2 0x1249 PUSH2 0x1F53 JUMP JUMPDEST PUSH1 0x5 SSTORE PUSH1 0x0 JUMPDEST PUSH1 0x8 SLOAD DUP2 LT ISZERO PUSH2 0x13E8 JUMPI PUSH1 0x0 PUSH1 0x9 DUP2 PUSH2 0x1269 DUP5 PUSH1 0x1 PUSH2 0x3657 JUMP JUMPDEST DUP2 MSTORE PUSH1 0x20 ADD SWAP1 DUP2 MSTORE PUSH1 0x20 ADD PUSH1 0x0 KECCAK256 SWAP1 POP DUP4 DUP3 DUP2 MLOAD DUP2 LT PUSH2 0x12B2 JUMPI PUSH32 0x4E487B7100000000000000000000000000000000000000000000000000000000 PUSH1 0x0 MSTORE PUSH1 0x32 PUSH1 0x4 MSTORE PUSH1 0x24 PUSH1 0x0 REVERT JUMPDEST PUSH1 0x20 SWAP1 DUP2 MUL SWAP2 SWAP1 SWAP2 ADD ADD MLOAD PUSH1 0x2 DUP3 ADD SSTORE PUSH20 0xFFFFFFFFFFFFFFFFFFFFFFFFFFFFFFFFFFFFFFFF DUP6 AND ISZERO PUSH2 0x13D5 JUMPI DUP3 DUP3 DUP2 MLOAD DUP2 LT PUSH2 0x1317 JUMPI PUSH32 0x4E487B7100000000000000000000000000000000000000000000000000000000 PUSH1 0x0 MSTORE PUSH1 0x32 PUSH1 0x4 MSTORE PUSH1 0x24 PUSH1 0x0 REVERT JUMPDEST PUSH1 0x20 SWAP1 DUP2 MUL SWAP2 SWAP1 SWAP2 ADD DUP2 ADD MLOAD PUSH20 0xFFFFFFFFFFFFFFFFFFFFFFFFFFFFFFFFFFFFFFFF DUP1 DUP9 AND PUSH1 0x0 SWAP1 DUP2 MSTORE PUSH1 0x7 DUP5 MSTORE PUSH1 0x40 DUP1 DUP3 KECCAK256 DUP7 SLOAD SWAP1 SWAP4 AND DUP3 MSTORE SWAP2 SWAP1 SWAP4 MSTORE SWAP1 SWAP2 KECCAK256 SSTORE DUP4 MLOAD DUP5 SWAP1 DUP4 SWAP1 DUP2 LT PUSH2 0x1393 JUMPI PUSH32 0x4E487B7100000000000000000000000000000000000000000000000000000000 PUSH1 0x0 MSTORE PUSH1 0x32 PUSH1 0x4 MSTORE PUSH1 0x24 PUSH1 0x0 REVERT JUMPDEST PUSH1 0x20 SWAP1 DUP2 MUL SWAP2 SWAP1 SWAP2 ADD DUP2 ADD MLOAD PUSH20 0xFFFFFFFFFFFFFFFFFFFFFFFFFFFFFFFFFFFFFFFF DUP1 DUP9 AND PUSH1 0x0 SWAP1 DUP2 MSTORE PUSH1 0x6 DUP5 MSTORE PUSH1 0x40 DUP1 DUP3 KECCAK256 DUP7 SLOAD SWAP1 SWAP4 AND DUP3 MSTORE SWAP2 SWAP1 SWAP4 MSTORE SWAP1 SWAP2 KECCAK256 SSTORE JUMPDEST POP DUP1 PUSH2 0x13E0 DUP2 PUSH2 0x3728 JUMP JUMPDEST SWAP2 POP POP PUSH2 0x124F JUMP JUMPDEST POP PUSH1 0x1 PUSH1 0x8 SLOAD GT PUSH2 0x1455 JUMPI PUSH1 0x40 MLOAD PUSH32 0x8C379A000000000000000000000000000000000000000000000000000000000 DUP2 MSTORE PUSH1 0x20 PUSH1 0x4 DUP3 ADD MSTORE PUSH1 0x1B PUSH1 0x24 DUP3 ADD MSTORE PUSH32 0x43616E6E6F74206861766520302072657761726420746F6B656E730000000000 PUSH1 0x44 DUP3 ADD MSTORE PUSH1 0x64 ADD PUSH2 0x608 JUMP JUMPDEST PUSH20 0xFFFFFFFFFFFFFFFFFFFFFFFFFFFFFFFFFFFFFFFF DUP5 AND PUSH1 0x0 SWAP1 DUP2 MSTORE PUSH1 0xA PUSH1 0x20 MSTORE PUSH1 0x40 SWAP1 KECCAK256 SLOAD DUP1 JUMPDEST PUSH1 0x8 SLOAD DUP2 GT PUSH2 0x159B JUMPI PUSH1 0x0 PUSH1 0x9 DUP2 PUSH2 0x1496 DUP5 PUSH1 0x1 PUSH2 0x3657 JUMP JUMPDEST DUP2 MSTORE PUSH1 0x20 DUP1 DUP3 ADD SWAP3 SWAP1 SWAP3 MSTORE PUSH1 0x40 SWAP1 DUP2 ADD PUSH1 0x0 SWAP1 DUP2 KECCAK256 DUP6 DUP3 MSTORE PUSH1 0x9 SWAP4 DUP5 SWAP1 MSTORE SWAP2 DUP2 KECCAK256 DUP3 SLOAD DUP2 SLOAD PUSH32 0xFFFFFFFFFFFFFFFFFFFFFFFF0000000000000000000000000000000000000000 AND PUSH20 0xFFFFFFFFFFFFFFFFFFFFFFFFFFFFFFFFFFFFFFFF SWAP1 SWAP2 AND OR DUP2 SSTORE PUSH1 0x1 DUP1 DUP5 ADD SLOAD DUP2 DUP4 ADD SSTORE PUSH1 0x2 DUP1 DUP6 ADD SLOAD SWAP3 ADD SWAP2 SWAP1 SWAP2 SSTORE SWAP2 SWAP4 POP SWAP1 PUSH2 0x151D SWAP1 DUP6 SWAP1 PUSH2 0x3657 JUMP JUMPDEST DUP2 MSTORE PUSH1 0x20 DUP1 DUP3 ADD SWAP3 SWAP1 SWAP3 MSTORE PUSH1 0x40 SWAP1 DUP2 ADD PUSH1 0x0 SWAP1 DUP2 KECCAK256 DUP1 SLOAD PUSH32 0xFFFFFFFFFFFFFFFFFFFFFFFF0000000000000000000000000000000000000000 AND DUP2 SSTORE PUSH1 0x1 DUP2 ADD DUP3 SWAP1 SSTORE PUSH1 0x2 ADD DUP2 SWAP1 SSTORE SWAP3 SLOAD PUSH20 0xFFFFFFFFFFFFFFFFFFFFFFFFFFFFFFFFFFFFFFFF AND DUP4 MSTORE PUSH1 0xA SWAP1 SWAP2 MSTORE SWAP1 KECCAK256 DUP2 SWAP1 SSTORE DUP1 PUSH2 0x1593 DUP2 PUSH2 0x3728 JUMP JUMPDEST SWAP2 POP POP PUSH2 0x147D JUMP JUMPDEST POP PUSH1 0x1 PUSH1 0x8 PUSH1 0x0 DUP3 DUP3 SLOAD PUSH2 0x15AF SWAP2 SWAP1 PUSH2 0x36E5 JUMP JUMPDEST SWAP1 SWAP2 SSTORE POP POP POP POP POP POP POP JUMP JUMPDEST PUSH1 0x1 SLOAD PUSH20 0xFFFFFFFFFFFFFFFFFFFFFFFFFFFFFFFFFFFFFFFF AND CALLER EQ PUSH2 0x163C JUMPI PUSH1 0x40 MLOAD PUSH32 0x8C379A000000000000000000000000000000000000000000000000000000000 DUP2 MSTORE PUSH1 0x20 PUSH1 0x4 DUP3 ADD DUP2 SWAP1 MSTORE PUSH1 0x24 DUP3 ADD MSTORE PUSH32 0x4F776E61626C653A2063616C6C6572206973206E6F7420746865206F776E6572 PUSH1 0x44 DUP3 ADD MSTORE PUSH1 0x64 ADD PUSH2 0x608 JUMP JUMPDEST PUSH1 0x8 SLOAD DUP2 MLOAD EQ PUSH2 0x16A8 JUMPI PUSH1 0x40 MLOAD PUSH32 0x8C379A000000000000000000000000000000000000000000000000000000000 DUP2 MSTORE PUSH1 0x20 PUSH1 0x4 DUP3 ADD MSTORE PUSH1 0xD PUSH1 0x24 DUP3 ADD MSTORE PUSH32 0x57726F6E6720616D6F756E747300000000000000000000000000000000000000 PUSH1 0x44 DUP3 ADD MSTORE PUSH1 0x64 ADD PUSH2 0x608 JUMP JUMPDEST PUSH1 0x0 JUMPDEST PUSH1 0x8 SLOAD DUP2 LT ISZERO PUSH2 0x1A6C JUMPI PUSH1 0x0 PUSH1 0x9 DUP2 PUSH2 0x16C5 DUP5 PUSH1 0x1 PUSH2 0x3657 JUMP JUMPDEST DUP2 MSTORE PUSH1 0x20 DUP2 ADD SWAP2 SWAP1 SWAP2 MSTORE PUSH1 0x40 SWAP1 DUP2 ADD PUSH1 0x0 SWAP1 DUP2 KECCAK256 DUP1 SLOAD SWAP3 MLOAD PUSH32 0x70A0823100000000000000000000000000000000000000000000000000000000 DUP2 MSTORE ADDRESS PUSH1 0x4 DUP3 ADD MSTORE SWAP1 SWAP4 POP SWAP1 SWAP2 PUSH20 0xFFFFFFFFFFFFFFFFFFFFFFFFFFFFFFFFFFFFFFFF AND SWAP1 PUSH4 0x70A08231 SWAP1 PUSH1 0x24 ADD PUSH1 0x20 PUSH1 0x40 MLOAD DUP1 DUP4 SUB DUP2 DUP7 DUP1 EXTCODESIZE ISZERO DUP1 ISZERO PUSH2 0x1743 JUMPI PUSH1 0x0 DUP1 REVERT JUMPDEST POP GAS STATICCALL ISZERO DUP1 ISZERO PUSH2 0x1757 JUMPI RETURNDATASIZE PUSH1 0x0 DUP1 RETURNDATACOPY RETURNDATASIZE PUSH1 0x0 REVERT JUMPDEST POP POP POP POP PUSH1 0x40 MLOAD RETURNDATASIZE PUSH1 0x1F NOT PUSH1 0x1F DUP3 ADD AND DUP3 ADD DUP1 PUSH1 0x40 MSTORE POP DUP2 ADD SWAP1 PUSH2 0x177B SWAP2 SWAP1 PUSH2 0x351F JUMP JUMPDEST SWAP1 POP PUSH2 0x17E6 CALLER ADDRESS DUP7 DUP7 DUP2 MLOAD DUP2 LT PUSH2 0x17BB JUMPI PUSH32 0x4E487B7100000000000000000000000000000000000000000000000000000000 PUSH1 0x0 MSTORE PUSH1 0x32 PUSH1 0x4 MSTORE PUSH1 0x24 PUSH1 0x0 REVERT JUMPDEST PUSH1 0x20 SWAP1 DUP2 MUL SWAP2 SWAP1 SWAP2 ADD ADD MLOAD DUP6 SLOAD PUSH20 0xFFFFFFFFFFFFFFFFFFFFFFFFFFFFFFFFFFFFFFFF AND SWAP3 SWAP2 SWAP1 PUSH2 0x2FD8 JUMP JUMPDEST DUP2 SLOAD PUSH1 0x40 MLOAD PUSH32 0x70A0823100000000000000000000000000000000000000000000000000000000 DUP2 MSTORE ADDRESS PUSH1 0x4 DUP3 ADD MSTORE PUSH1 0x0 SWAP2 PUSH2 0x1893 SWAP2 DUP5 SWAP2 PUSH20 0xFFFFFFFFFFFFFFFFFFFFFFFFFFFFFFFFFFFFFFFF AND SWAP1 PUSH4 0x70A08231 SWAP1 PUSH1 0x24 ADD PUSH1 0x20 PUSH1 0x40 MLOAD DUP1 DUP4 SUB DUP2 DUP7 DUP1 EXTCODESIZE ISZERO DUP1 ISZERO PUSH2 0x1855 JUMPI PUSH1 0x0 DUP1 REVERT JUMPDEST POP GAS STATICCALL ISZERO DUP1 ISZERO PUSH2 0x1869 JUMPI RETURNDATASIZE PUSH1 0x0 DUP1 RETURNDATACOPY RETURNDATASIZE PUSH1 0x0 REVERT JUMPDEST POP POP POP POP PUSH1 0x40 MLOAD RETURNDATASIZE PUSH1 0x1F NOT PUSH1 0x1F DUP3 ADD AND DUP3 ADD DUP1 PUSH1 0x40 MSTORE POP DUP2 ADD SWAP1 PUSH2 0x188D SWAP2 SWAP1 PUSH2 0x351F JUMP JUMPDEST SWAP1 PUSH2 0x2ECF JUMP JUMPDEST SWAP1 POP PUSH1 0x3 SLOAD TIMESTAMP LT PUSH2 0x18B6 JUMPI PUSH1 0x4 SLOAD PUSH2 0x18AC SWAP1 DUP3 SWAP1 PUSH2 0x2EE7 JUMP JUMPDEST PUSH1 0x1 DUP5 ADD SSTORE PUSH2 0x18FD JUMP JUMPDEST PUSH1 0x3 SLOAD PUSH1 0x0 SWAP1 PUSH2 0x18C6 SWAP1 TIMESTAMP PUSH2 0x2ECF JUMP JUMPDEST SWAP1 POP PUSH1 0x0 PUSH2 0x18E1 DUP6 PUSH1 0x1 ADD SLOAD DUP4 PUSH2 0x2EDB SWAP1 SWAP2 SWAP1 PUSH4 0xFFFFFFFF AND JUMP JUMPDEST PUSH1 0x4 SLOAD SWAP1 SWAP2 POP PUSH2 0x18F5 SWAP1 PUSH2 0x51F DUP6 DUP5 PUSH2 0x2EF3 JUMP JUMPDEST PUSH1 0x1 DUP7 ADD SSTORE POP POP JUMPDEST DUP3 SLOAD PUSH1 0x40 MLOAD PUSH32 0x70A0823100000000000000000000000000000000000000000000000000000000 DUP2 MSTORE ADDRESS PUSH1 0x4 DUP3 ADD MSTORE PUSH1 0x0 SWAP2 PUSH20 0xFFFFFFFFFFFFFFFFFFFFFFFFFFFFFFFFFFFFFFFF AND SWAP1 PUSH4 0x70A08231 SWAP1 PUSH1 0x24 ADD PUSH1 0x20 PUSH1 0x40 MLOAD DUP1 DUP4 SUB DUP2 DUP7 DUP1 EXTCODESIZE ISZERO DUP1 ISZERO PUSH2 0x1966 JUMPI PUSH1 0x0 DUP1 REVERT JUMPDEST POP GAS STATICCALL ISZERO DUP1 ISZERO PUSH2 0x197A JUMPI RETURNDATASIZE PUSH1 0x0 DUP1 RETURNDATACOPY RETURNDATASIZE PUSH1 0x0 REVERT JUMPDEST POP POP POP POP PUSH1 0x40 MLOAD RETURNDATASIZE PUSH1 0x1F NOT PUSH1 0x1F DUP3 ADD AND DUP3 ADD DUP1 PUSH1 0x40 MSTORE POP DUP2 ADD SWAP1 PUSH2 0x199E SWAP2 SWAP1 PUSH2 0x351F JUMP JUMPDEST SWAP1 POP PUSH2 0x19B5 PUSH1 0x4 SLOAD DUP3 PUSH2 0x2EE7 SWAP1 SWAP2 SWAP1 PUSH4 0xFFFFFFFF AND JUMP JUMPDEST DUP5 PUSH1 0x1 ADD SLOAD GT ISZERO PUSH2 0x1A22 JUMPI PUSH1 0x40 MLOAD PUSH32 0x8C379A000000000000000000000000000000000000000000000000000000000 DUP2 MSTORE PUSH1 0x20 PUSH1 0x4 DUP3 ADD MSTORE PUSH1 0xF PUSH1 0x24 DUP3 ADD MSTORE PUSH32 0x52657761726420746F6F20686967680000000000000000000000000000000000 PUSH1 0x44 DUP3 ADD MSTORE PUSH1 0x64 ADD PUSH2 0x608 JUMP JUMPDEST PUSH1 0x40 MLOAD DUP3 DUP2 MSTORE PUSH32 0xDE88A922E0D3B88B24E9623EFEB464919C6BF9F66857A65E2BFCF2CE87A9433D SWAP1 PUSH1 0x20 ADD PUSH1 0x40 MLOAD DUP1 SWAP2 SUB SWAP1 LOG1 POP POP POP POP DUP1 DUP1 PUSH2 0x1A64 SWAP1 PUSH2 0x3728 JUMP JUMPDEST SWAP2 POP POP PUSH2 0x16AB JUMP JUMPDEST POP TIMESTAMP PUSH1 0x5 DUP2 SWAP1 SSTORE PUSH1 0x4 SLOAD PUSH2 0x1A80 SWAP2 SWAP1 PUSH2 0x2EF3 JUMP JUMPDEST PUSH1 0x3 SSTORE POP JUMP JUMPDEST PUSH1 0x1 SLOAD PUSH20 0xFFFFFFFFFFFFFFFFFFFFFFFFFFFFFFFFFFFFFFFF AND CALLER EQ PUSH2 0x1B07 JUMPI PUSH1 0x40 MLOAD PUSH32 0x8C379A000000000000000000000000000000000000000000000000000000000 DUP2 MSTORE PUSH1 0x20 PUSH1 0x4 DUP3 ADD DUP2 SWAP1 MSTORE PUSH1 0x24 DUP3 ADD MSTORE PUSH32 0x4F776E61626C653A2063616C6C6572206973206E6F7420746865206F776E6572 PUSH1 0x44 DUP3 ADD MSTORE PUSH1 0x64 ADD PUSH2 0x608 JUMP JUMPDEST PUSH1 0x0 DUP1 PUSH2 0x1B12 PUSH2 0x2621 JUMP JUMPDEST SWAP1 POP PUSH1 0x0 PUSH2 0x1B1F DUP4 PUSH2 0x390 JUMP JUMPDEST SWAP1 POP PUSH2 0x1B29 PUSH2 0x1F53 JUMP JUMPDEST PUSH1 0x5 SSTORE PUSH1 0x0 JUMPDEST PUSH1 0x8 SLOAD DUP2 LT ISZERO PUSH2 0x1CC8 JUMPI PUSH1 0x0 PUSH1 0x9 DUP2 PUSH2 0x1B49 DUP5 PUSH1 0x1 PUSH2 0x3657 JUMP JUMPDEST DUP2 MSTORE PUSH1 0x20 ADD SWAP1 DUP2 MSTORE PUSH1 0x20 ADD PUSH1 0x0 KECCAK256 SWAP1 POP DUP4 DUP3 DUP2 MLOAD DUP2 LT PUSH2 0x1B92 JUMPI PUSH32 0x4E487B7100000000000000000000000000000000000000000000000000000000 PUSH1 0x0 MSTORE PUSH1 0x32 PUSH1 0x4 MSTORE PUSH1 0x24 PUSH1 0x0 REVERT JUMPDEST PUSH1 0x20 SWAP1 DUP2 MUL SWAP2 SWAP1 SWAP2 ADD ADD MLOAD PUSH1 0x2 DUP3 ADD SSTORE PUSH20 0xFFFFFFFFFFFFFFFFFFFFFFFFFFFFFFFFFFFFFFFF DUP6 AND ISZERO PUSH2 0x1CB5 JUMPI DUP3 DUP3 DUP2 MLOAD DUP2 LT PUSH2 0x1BF7 JUMPI PUSH32 0x4E487B7100000000000000000000000000000000000000000000000000000000 PUSH1 0x0 MSTORE PUSH1 0x32 PUSH1 0x4 MSTORE PUSH1 0x24 PUSH1 0x0 REVERT JUMPDEST PUSH1 0x20 SWAP1 DUP2 MUL SWAP2 SWAP1 SWAP2 ADD DUP2 ADD MLOAD PUSH20 0xFFFFFFFFFFFFFFFFFFFFFFFFFFFFFFFFFFFFFFFF DUP1 DUP9 AND PUSH1 0x0 SWAP1 DUP2 MSTORE PUSH1 0x7 DUP5 MSTORE PUSH1 0x40 DUP1 DUP3 KECCAK256 DUP7 SLOAD SWAP1 SWAP4 AND DUP3 MSTORE SWAP2 SWAP1 SWAP4 MSTORE SWAP1 SWAP2 KECCAK256 SSTORE DUP4 MLOAD DUP5 SWAP1 DUP4 SWAP1 DUP2 LT PUSH2 0x1C73 JUMPI PUSH32 0x4E487B7100000000000000000000000000000000000000000000000000000000 PUSH1 0x0 MSTORE PUSH1 0x32 PUSH1 0x4 MSTORE PUSH1 0x24 PUSH1 0x0 REVERT JUMPDEST PUSH1 0x20 SWAP1 DUP2 MUL SWAP2 SWAP1 SWAP2 ADD DUP2 ADD MLOAD PUSH20 0xFFFFFFFFFFFFFFFFFFFFFFFFFFFFFFFFFFFFFFFF DUP1 DUP9 AND PUSH1 0x0 SWAP1 DUP2 MSTORE PUSH1 0x6 DUP5 MSTORE PUSH1 0x40 DUP1 DUP3 KECCAK256 DUP7 SLOAD SWAP1 SWAP4 AND DUP3 MSTORE SWAP2 SWAP1 SWAP4 MSTORE SWAP1 SWAP2 KECCAK256 SSTORE JUMPDEST POP DUP1 PUSH2 0x1CC0 DUP2 PUSH2 0x3728 JUMP JUMPDEST SWAP2 POP POP PUSH2 0x1B2F JUMP JUMPDEST POP PUSH1 0x40 MLOAD PUSH32 0x70A0823100000000000000000000000000000000000000000000000000000000 DUP2 MSTORE ADDRESS PUSH1 0x4 DUP3 ADD MSTORE PUSH1 0x0 SWAP1 PUSH20 0xFFFFFFFFFFFFFFFFFFFFFFFFFFFFFFFFFFFFFFFF DUP7 AND SWAP1 PUSH4 0x70A08231 SWAP1 PUSH1 0x24 ADD PUSH1 0x20 PUSH1 0x40 MLOAD DUP1 DUP4 SUB DUP2 DUP7 DUP1 EXTCODESIZE ISZERO DUP1 ISZERO PUSH2 0x1D31 JUMPI PUSH1 0x0 DUP1 REVERT JUMPDEST POP GAS STATICCALL ISZERO DUP1 ISZERO PUSH2 0x1D45 JUMPI RETURNDATASIZE PUSH1 0x0 DUP1 RETURNDATACOPY RETURNDATASIZE PUSH1 0x0 REVERT JUMPDEST POP POP POP POP PUSH1 0x40 MLOAD RETURNDATASIZE PUSH1 0x1F NOT PUSH1 0x1F DUP3 ADD AND DUP3 ADD DUP1 PUSH1 0x40 MSTORE POP DUP2 ADD SWAP1 PUSH2 0x1D69 SWAP2 SWAP1 PUSH2 0x351F JUMP JUMPDEST SWAP1 POP PUSH1 0x0 DUP2 GT PUSH2 0x1DD5 JUMPI PUSH1 0x40 MLOAD PUSH32 0x8C379A000000000000000000000000000000000000000000000000000000000 DUP2 MSTORE PUSH1 0x20 PUSH1 0x4 DUP3 ADD MSTORE PUSH1 0x18 PUSH1 0x24 DUP3 ADD MSTORE PUSH32 0x436F6E747261637420686F6C6473206E6F20746F6B656E730000000000000000 PUSH1 0x44 DUP3 ADD MSTORE PUSH1 0x64 ADD PUSH2 0x608 JUMP JUMPDEST DUP5 PUSH20 0xFFFFFFFFFFFFFFFFFFFFFFFFFFFFFFFFFFFFFFFF AND PUSH4 0xA9059CBB PUSH2 0x1E10 PUSH1 0x1 SLOAD PUSH20 0xFFFFFFFFFFFFFFFFFFFFFFFFFFFFFFFFFFFFFFFF AND SWAP1 JUMP JUMPDEST PUSH1 0x40 MLOAD PUSH32 0xFFFFFFFF00000000000000000000000000000000000000000000000000000000 PUSH1 0xE0 DUP5 SWAP1 SHL AND DUP2 MSTORE PUSH20 0xFFFFFFFFFFFFFFFFFFFFFFFFFFFFFFFFFFFFFFFF SWAP1 SWAP2 AND PUSH1 0x4 DUP3 ADD MSTORE PUSH1 0x24 DUP2 ADD DUP5 SWAP1 MSTORE PUSH1 0x44 ADD PUSH1 0x20 PUSH1 0x40 MLOAD DUP1 DUP4 SUB DUP2 PUSH1 0x0 DUP8 DUP1 EXTCODESIZE ISZERO DUP1 ISZERO PUSH2 0x1E7D JUMPI PUSH1 0x0 DUP1 REVERT JUMPDEST POP GAS CALL ISZERO DUP1 ISZERO PUSH2 0x1E91 JUMPI RETURNDATASIZE PUSH1 0x0 DUP1 RETURNDATACOPY RETURNDATASIZE PUSH1 0x0 REVERT JUMPDEST POP POP POP POP PUSH1 0x40 MLOAD RETURNDATASIZE PUSH1 0x1F NOT PUSH1 0x1F DUP3 ADD AND DUP3 ADD DUP1 PUSH1 0x40 MSTORE POP DUP2 ADD SWAP1 PUSH2 0x1EB5 SWAP2 SWAP1 PUSH2 0x34E7 JUMP JUMPDEST POP PUSH2 0x1EBF DUP6 PUSH2 0x11A6 JUMP JUMPDEST POP POP POP POP POP JUMP JUMPDEST PUSH1 0x1 SLOAD PUSH20 0xFFFFFFFFFFFFFFFFFFFFFFFFFFFFFFFFFFFFFFFF AND CALLER EQ PUSH2 0x1F47 JUMPI PUSH1 0x40 MLOAD PUSH32 0x8C379A000000000000000000000000000000000000000000000000000000000 DUP2 MSTORE PUSH1 0x20 PUSH1 0x4 DUP3 ADD DUP2 SWAP1 MSTORE PUSH1 0x24 DUP3 ADD MSTORE PUSH32 0x4F776E61626C653A2063616C6C6572206973206E6F7420746865206F776E6572 PUSH1 0x44 DUP3 ADD MSTORE PUSH1 0x64 ADD PUSH2 0x608 JUMP JUMPDEST PUSH2 0x1F51 PUSH1 0x0 PUSH2 0x303C JUMP JUMPDEST JUMP JUMPDEST PUSH1 0x0 PUSH2 0x1F61 TIMESTAMP PUSH1 0x3 SLOAD PUSH2 0x30B3 JUMP JUMPDEST SWAP1 POP SWAP1 JUMP JUMPDEST PUSH20 0xFFFFFFFFFFFFFFFFFFFFFFFFFFFFFFFFFFFFFFFF DUP2 AND PUSH1 0x0 SWAP1 DUP2 MSTORE PUSH1 0xA PUSH1 0x20 MSTORE PUSH1 0x40 DUP2 KECCAK256 SLOAD PUSH1 0xB SLOAD PUSH2 0x1FAB JUMPI PUSH1 0x0 SWAP1 DUP2 MSTORE PUSH1 0x9 PUSH1 0x20 MSTORE PUSH1 0x40 SWAP1 KECCAK256 PUSH1 0x2 ADD SLOAD SWAP3 SWAP2 POP POP JUMP JUMPDEST PUSH2 0x2006 PUSH2 0x1FEE PUSH1 0xB SLOAD PUSH2 0x51F PUSH8 0xDE0B6B3A7640000 PUSH2 0x1FE8 PUSH1 0x9 PUSH1 0x0 DUP9 DUP2 MSTORE PUSH1 0x20 ADD SWAP1 DUP2 MSTORE PUSH1 0x20 ADD PUSH1 0x0 KECCAK256 PUSH1 0x1 ADD SLOAD PUSH2 0x1FE8 PUSH1 0x5 SLOAD PUSH2 0x188D PUSH2 0x1F53 JUMP JUMPDEST SWAP1 PUSH2 0x2EDB JUMP JUMPDEST PUSH1 0x0 DUP4 DUP2 MSTORE PUSH1 0x9 PUSH1 0x20 MSTORE PUSH1 0x40 SWAP1 KECCAK256 PUSH1 0x2 ADD SLOAD SWAP1 PUSH2 0x2EF3 JUMP JUMPDEST SWAP4 SWAP3 POP POP POP JUMP JUMPDEST PUSH1 0x2 PUSH1 0x0 SLOAD EQ ISZERO PUSH2 0x207A JUMPI PUSH1 0x40 MLOAD PUSH32 0x8C379A000000000000000000000000000000000000000000000000000000000 DUP2 MSTORE PUSH1 0x20 PUSH1 0x4 DUP3 ADD MSTORE PUSH1 0x1F PUSH1 0x24 DUP3 ADD MSTORE PUSH32 0x5265656E7472616E637947756172643A207265656E7472616E742063616C6C00 PUSH1 0x44 DUP3 ADD MSTORE PUSH1 0x64 ADD PUSH2 0x608 JUMP JUMPDEST PUSH1 0x2 PUSH1 0x0 SWAP1 DUP2 SSTORE CALLER SWAP1 PUSH2 0x208B PUSH2 0x2621 JUMP JUMPDEST SWAP1 POP PUSH1 0x0 PUSH2 0x2098 DUP4 PUSH2 0x390 JUMP JUMPDEST SWAP1 POP PUSH2 0x20A2 PUSH2 0x1F53 JUMP JUMPDEST PUSH1 0x5 SSTORE PUSH1 0x0 JUMPDEST PUSH1 0x8 SLOAD DUP2 LT ISZERO PUSH2 0x2241 JUMPI PUSH1 0x0 PUSH1 0x9 DUP2 PUSH2 0x20C2 DUP5 PUSH1 0x1 PUSH2 0x3657 JUMP JUMPDEST DUP2 MSTORE PUSH1 0x20 ADD SWAP1 DUP2 MSTORE PUSH1 0x20 ADD PUSH1 0x0 KECCAK256 SWAP1 POP DUP4 DUP3 DUP2 MLOAD DUP2 LT PUSH2 0x210B JUMPI PUSH32 0x4E487B7100000000000000000000000000000000000000000000000000000000 PUSH1 0x0 MSTORE PUSH1 0x32 PUSH1 0x4 MSTORE PUSH1 0x24 PUSH1 0x0 REVERT JUMPDEST PUSH1 0x20 SWAP1 DUP2 MUL SWAP2 SWAP1 SWAP2 ADD ADD MLOAD PUSH1 0x2 DUP3 ADD SSTORE PUSH20 0xFFFFFFFFFFFFFFFFFFFFFFFFFFFFFFFFFFFFFFFF DUP6 AND ISZERO PUSH2 0x222E JUMPI DUP3 DUP3 DUP2 MLOAD DUP2 LT PUSH2 0x2170 JUMPI PUSH32 0x4E487B7100000000000000000000000000000000000000000000000000000000 PUSH1 0x0 MSTORE PUSH1 0x32 PUSH1 0x4 MSTORE PUSH1 0x24 PUSH1 0x0 REVERT JUMPDEST PUSH1 0x20 SWAP1 DUP2 MUL SWAP2 SWAP1 SWAP2 ADD DUP2 ADD MLOAD PUSH20 0xFFFFFFFFFFFFFFFFFFFFFFFFFFFFFFFFFFFFFFFF DUP1 DUP9 AND PUSH1 0x0 SWAP1 DUP2 MSTORE PUSH1 0x7 DUP5 MSTORE PUSH1 0x40 DUP1 DUP3 KECCAK256 DUP7 SLOAD SWAP1 SWAP4 AND DUP3 MSTORE SWAP2 SWAP1 SWAP4 MSTORE SWAP1 SWAP2 KECCAK256 SSTORE DUP4 MLOAD DUP5 SWAP1 DUP4 SWAP1 DUP2 LT PUSH2 0x21EC JUMPI PUSH32 0x4E487B7100000000000000000000000000000000000000000000000000000000 PUSH1 0x0 MSTORE PUSH1 0x32 PUSH1 0x4 MSTORE PUSH1 0x24 PUSH1 0x0 REVERT JUMPDEST PUSH1 0x20 SWAP1 DUP2 MUL SWAP2 SWAP1 SWAP2 ADD DUP2 ADD MLOAD PUSH20 0xFFFFFFFFFFFFFFFFFFFFFFFFFFFFFFFFFFFFFFFF DUP1 DUP9 AND PUSH1 0x0 SWAP1 DUP2 MSTORE PUSH1 0x6 DUP5 MSTORE PUSH1 0x40 DUP1 DUP3 KECCAK256 DUP7 SLOAD SWAP1 SWAP4 AND DUP3 MSTORE SWAP2 SWAP1 SWAP4 MSTORE SWAP1 SWAP2 KECCAK256 SSTORE JUMPDEST POP DUP1 PUSH2 0x2239 DUP2 PUSH2 0x3728 JUMP JUMPDEST SWAP2 POP POP PUSH2 0x20A8 JUMP JUMPDEST POP PUSH1 0x0 DUP5 GT PUSH2 0x22AC JUMPI PUSH1 0x40 MLOAD PUSH32 0x8C379A000000000000000000000000000000000000000000000000000000000 DUP2 MSTORE PUSH1 0x20 PUSH1 0x4 DUP3 ADD MSTORE PUSH1 0xE PUSH1 0x24 DUP3 ADD MSTORE PUSH32 0x43616E6E6F74207374616B652030000000000000000000000000000000000000 PUSH1 0x44 DUP3 ADD MSTORE PUSH1 0x64 ADD PUSH2 0x608 JUMP JUMPDEST PUSH1 0x2 SLOAD PUSH1 0x40 MLOAD PUSH32 0x70A0823100000000000000000000000000000000000000000000000000000000 DUP2 MSTORE ADDRESS PUSH1 0x4 DUP3 ADD MSTORE PUSH1 0x0 SWAP2 PUSH20 0xFFFFFFFFFFFFFFFFFFFFFFFFFFFFFFFFFFFFFFFF AND SWAP1 PUSH4 0x70A08231 SWAP1 PUSH1 0x24 ADD PUSH1 0x20 PUSH1 0x40 MLOAD DUP1 DUP4 SUB DUP2 DUP7 DUP1 EXTCODESIZE ISZERO DUP1 ISZERO PUSH2 0x2316 JUMPI PUSH1 0x0 DUP1 REVERT JUMPDEST POP GAS STATICCALL ISZERO DUP1 ISZERO PUSH2 0x232A JUMPI RETURNDATASIZE PUSH1 0x0 DUP1 RETURNDATACOPY RETURNDATASIZE PUSH1 0x0 REVERT JUMPDEST POP POP POP POP PUSH1 0x40 MLOAD RETURNDATASIZE PUSH1 0x1F NOT PUSH1 0x1F DUP3 ADD AND DUP3 ADD DUP1 PUSH1 0x40 MSTORE POP DUP2 ADD SWAP1 PUSH2 0x234E SWAP2 SWAP1 PUSH2 0x351F JUMP JUMPDEST PUSH1 0x2 SLOAD SWAP1 SWAP2 POP PUSH2 0x2376 SWAP1 PUSH20 0xFFFFFFFFFFFFFFFFFFFFFFFFFFFFFFFFFFFFFFFF AND CALLER ADDRESS DUP9 PUSH2 0x2FD8 JUMP JUMPDEST PUSH1 0x2 SLOAD PUSH1 0x40 MLOAD PUSH32 0x70A0823100000000000000000000000000000000000000000000000000000000 DUP2 MSTORE ADDRESS PUSH1 0x4 DUP3 ADD MSTORE PUSH1 0x0 SWAP2 PUSH20 0xFFFFFFFFFFFFFFFFFFFFFFFFFFFFFFFFFFFFFFFF AND SWAP1 PUSH4 0x70A08231 SWAP1 PUSH1 0x24 ADD PUSH1 0x20 PUSH1 0x40 MLOAD DUP1 DUP4 SUB DUP2 DUP7 DUP1 EXTCODESIZE ISZERO DUP1 ISZERO PUSH2 0x23E0 JUMPI PUSH1 0x0 DUP1 REVERT JUMPDEST POP GAS STATICCALL ISZERO DUP1 ISZERO PUSH2 0x23F4 JUMPI RETURNDATASIZE PUSH1 0x0 DUP1 RETURNDATACOPY RETURNDATASIZE PUSH1 0x0 REVERT JUMPDEST POP POP POP POP PUSH1 0x40 MLOAD RETURNDATASIZE PUSH1 0x1F NOT PUSH1 0x1F DUP3 ADD AND DUP3 ADD DUP1 PUSH1 0x40 MSTORE POP DUP2 ADD SWAP1 PUSH2 0x2418 SWAP2 SWAP1 PUSH2 0x351F JUMP JUMPDEST SWAP1 POP PUSH1 0x0 PUSH2 0x2426 DUP3 DUP5 PUSH2 0x2ECF JUMP JUMPDEST PUSH1 0xB SLOAD SWAP1 SWAP2 POP PUSH2 0x2436 SWAP1 DUP3 PUSH2 0x2EF3 JUMP JUMPDEST PUSH1 0xB SSTORE CALLER PUSH1 0x0 SWAP1 DUP2 MSTORE PUSH1 0xC PUSH1 0x20 MSTORE PUSH1 0x40 SWAP1 KECCAK256 SLOAD PUSH2 0x2453 SWAP1 DUP3 PUSH2 0x2EF3 JUMP JUMPDEST CALLER PUSH1 0x0 DUP2 DUP2 MSTORE PUSH1 0xC PUSH1 0x20 MSTORE PUSH1 0x40 SWAP1 DUP2 SWAP1 KECCAK256 SWAP3 SWAP1 SWAP3 SSTORE SWAP1 MLOAD PUSH32 0x9E71BC8EEA02A63969F509818F2DAFB9254532904319F9DBDA79B67BD34A5F3D SWAP1 PUSH2 0x2499 SWAP1 DUP11 DUP2 MSTORE PUSH1 0x20 ADD SWAP1 JUMP JUMPDEST PUSH1 0x40 MLOAD DUP1 SWAP2 SUB SWAP1 LOG2 POP POP PUSH1 0x1 PUSH1 0x0 SSTORE POP POP POP POP POP JUMP JUMPDEST PUSH1 0x60 PUSH1 0x0 PUSH1 0x8 SLOAD PUSH8 0xFFFFFFFFFFFFFFFF DUP2 GT ISZERO PUSH2 0x24F5 JUMPI PUSH32 0x4E487B7100000000000000000000000000000000000000000000000000000000 PUSH1 0x0 MSTORE PUSH1 0x41 PUSH1 0x4 MSTORE PUSH1 0x24 PUSH1 0x0 REVERT JUMPDEST PUSH1 0x40 MLOAD SWAP1 DUP1 DUP3 MSTORE DUP1 PUSH1 0x20 MUL PUSH1 0x20 ADD DUP3 ADD PUSH1 0x40 MSTORE DUP1 ISZERO PUSH2 0x2560 JUMPI DUP2 PUSH1 0x20 ADD JUMPDEST PUSH2 0x254D PUSH1 0x40 MLOAD DUP1 PUSH1 0x60 ADD PUSH1 0x40 MSTORE DUP1 PUSH1 0x0 PUSH20 0xFFFFFFFFFFFFFFFFFFFFFFFFFFFFFFFFFFFFFFFF AND DUP2 MSTORE PUSH1 0x20 ADD PUSH1 0x0 DUP2 MSTORE PUSH1 0x20 ADD PUSH1 0x0 DUP2 MSTORE POP SWAP1 JUMP JUMPDEST DUP2 MSTORE PUSH1 0x20 ADD SWAP1 PUSH1 0x1 SWAP1 SUB SWAP1 DUP2 PUSH2 0x2513 JUMPI SWAP1 POP JUMPDEST POP SWAP1 POP PUSH1 0x0 JUMPDEST PUSH1 0x8 SLOAD DUP2 LT ISZERO PUSH2 0xAC9 JUMPI PUSH1 0x9 PUSH1 0x0 PUSH2 0x257F DUP4 PUSH1 0x1 PUSH2 0x3657 JUMP JUMPDEST DUP2 MSTORE PUSH1 0x20 DUP1 DUP3 ADD SWAP3 SWAP1 SWAP3 MSTORE PUSH1 0x40 SWAP1 DUP2 ADD PUSH1 0x0 KECCAK256 DUP2 MLOAD PUSH1 0x60 DUP2 ADD DUP4 MSTORE DUP2 SLOAD PUSH20 0xFFFFFFFFFFFFFFFFFFFFFFFFFFFFFFFFFFFFFFFF AND DUP2 MSTORE PUSH1 0x1 DUP3 ADD SLOAD SWAP4 DUP2 ADD SWAP4 SWAP1 SWAP4 MSTORE PUSH1 0x2 ADD SLOAD SWAP1 DUP3 ADD MSTORE DUP3 MLOAD DUP4 SWAP1 DUP4 SWAP1 DUP2 LT PUSH2 0x2603 JUMPI PUSH32 0x4E487B7100000000000000000000000000000000000000000000000000000000 PUSH1 0x0 MSTORE PUSH1 0x32 PUSH1 0x4 MSTORE PUSH1 0x24 PUSH1 0x0 REVERT JUMPDEST PUSH1 0x20 MUL PUSH1 0x20 ADD ADD DUP2 SWAP1 MSTORE POP DUP1 DUP1 PUSH2 0x2619 SWAP1 PUSH2 0x3728 JUMP JUMPDEST SWAP2 POP POP PUSH2 0x2566 JUMP JUMPDEST PUSH1 0x60 PUSH1 0x0 PUSH1 0x8 SLOAD PUSH8 0xFFFFFFFFFFFFFFFF DUP2 GT ISZERO PUSH2 0x2667 JUMPI PUSH32 0x4E487B7100000000000000000000000000000000000000000000000000000000 PUSH1 0x0 MSTORE PUSH1 0x41 PUSH1 0x4 MSTORE PUSH1 0x24 PUSH1 0x0 REVERT JUMPDEST PUSH1 0x40 MLOAD SWAP1 DUP1 DUP3 MSTORE DUP1 PUSH1 0x20 MUL PUSH1 0x20 ADD DUP3 ADD PUSH1 0x40 MSTORE DUP1 ISZERO PUSH2 0x2690 JUMPI DUP2 PUSH1 0x20 ADD PUSH1 0x20 DUP3 MUL DUP1 CALLDATASIZE DUP4 CALLDATACOPY ADD SWAP1 POP JUMPDEST POP SWAP1 POP PUSH1 0xB SLOAD PUSH1 0x0 EQ ISZERO PUSH2 0x2722 JUMPI PUSH1 0x0 JUMPDEST PUSH1 0x8 SLOAD DUP2 LT ISZERO PUSH2 0xAC9 JUMPI PUSH1 0x9 PUSH1 0x0 PUSH2 0x26BA DUP4 PUSH1 0x1 PUSH2 0x3657 JUMP JUMPDEST DUP2 MSTORE PUSH1 0x20 ADD SWAP1 DUP2 MSTORE PUSH1 0x20 ADD PUSH1 0x0 KECCAK256 PUSH1 0x2 ADD SLOAD DUP3 DUP3 DUP2 MLOAD DUP2 LT PUSH2 0x2705 JUMPI PUSH32 0x4E487B7100000000000000000000000000000000000000000000000000000000 PUSH1 0x0 MSTORE PUSH1 0x32 PUSH1 0x4 MSTORE PUSH1 0x24 PUSH1 0x0 REVERT JUMPDEST PUSH1 0x20 SWAP1 DUP2 MUL SWAP2 SWAP1 SWAP2 ADD ADD MSTORE DUP1 PUSH2 0x271A DUP2 PUSH2 0x3728 JUMP JUMPDEST SWAP2 POP POP PUSH2 0x26A1 JUMP JUMPDEST PUSH1 0x0 JUMPDEST PUSH1 0x8 SLOAD DUP2 LT ISZERO PUSH2 0xAC9 JUMPI PUSH1 0x0 PUSH1 0x9 DUP2 PUSH2 0x273F DUP5 PUSH1 0x1 PUSH2 0x3657 JUMP JUMPDEST DUP2 MSTORE PUSH1 0x20 ADD SWAP1 DUP2 MSTORE PUSH1 0x20 ADD PUSH1 0x0 KECCAK256 SWAP1 POP PUSH2 0x2785 PUSH2 0x277A PUSH1 0xB SLOAD PUSH2 0x51F PUSH8 0xDE0B6B3A7640000 PUSH2 0x1FE8 DUP7 PUSH1 0x1 ADD SLOAD PUSH2 0x1FE8 PUSH1 0x5 SLOAD PUSH2 0x188D PUSH2 0x1F53 JUMP JUMPDEST PUSH1 0x2 DUP4 ADD SLOAD SWAP1 PUSH2 0x2EF3 JUMP JUMPDEST DUP4 DUP4 DUP2 MLOAD DUP2 LT PUSH2 0x27BE JUMPI PUSH32 0x4E487B7100000000000000000000000000000000000000000000000000000000 PUSH1 0x0 MSTORE PUSH1 0x32 PUSH1 0x4 MSTORE PUSH1 0x24 PUSH1 0x0 REVERT JUMPDEST PUSH1 0x20 SWAP1 DUP2 MUL SWAP2 SWAP1 SWAP2 ADD ADD MSTORE POP DUP1 PUSH2 0x27D4 DUP2 PUSH2 0x3728 JUMP JUMPDEST SWAP2 POP POP PUSH2 0x2725 JUMP JUMPDEST PUSH1 0x1 SLOAD PUSH20 0xFFFFFFFFFFFFFFFFFFFFFFFFFFFFFFFFFFFFFFFF AND CALLER EQ PUSH2 0x285D JUMPI PUSH1 0x40 MLOAD PUSH32 0x8C379A000000000000000000000000000000000000000000000000000000000 DUP2 MSTORE PUSH1 0x20 PUSH1 0x4 DUP3 ADD DUP2 SWAP1 MSTORE PUSH1 0x24 DUP3 ADD MSTORE PUSH32 0x4F776E61626C653A2063616C6C6572206973206E6F7420746865206F776E6572 PUSH1 0x44 DUP3 ADD MSTORE PUSH1 0x64 ADD PUSH2 0x608 JUMP JUMPDEST PUSH1 0x0 DUP1 PUSH2 0x2868 PUSH2 0x2621 JUMP JUMPDEST SWAP1 POP PUSH1 0x0 PUSH2 0x2875 DUP4 PUSH2 0x390 JUMP JUMPDEST SWAP1 POP PUSH2 0x287F PUSH2 0x1F53 JUMP JUMPDEST PUSH1 0x5 SSTORE PUSH1 0x0 JUMPDEST PUSH1 0x8 SLOAD DUP2 LT ISZERO PUSH2 0x2A1E JUMPI PUSH1 0x0 PUSH1 0x9 DUP2 PUSH2 0x289F DUP5 PUSH1 0x1 PUSH2 0x3657 JUMP JUMPDEST DUP2 MSTORE PUSH1 0x20 ADD SWAP1 DUP2 MSTORE PUSH1 0x20 ADD PUSH1 0x0 KECCAK256 SWAP1 POP DUP4 DUP3 DUP2 MLOAD DUP2 LT PUSH2 0x28E8 JUMPI PUSH32 0x4E487B7100000000000000000000000000000000000000000000000000000000 PUSH1 0x0 MSTORE PUSH1 0x32 PUSH1 0x4 MSTORE PUSH1 0x24 PUSH1 0x0 REVERT JUMPDEST PUSH1 0x20 SWAP1 DUP2 MUL SWAP2 SWAP1 SWAP2 ADD ADD MLOAD PUSH1 0x2 DUP3 ADD SSTORE PUSH20 0xFFFFFFFFFFFFFFFFFFFFFFFFFFFFFFFFFFFFFFFF DUP6 AND ISZERO PUSH2 0x2A0B JUMPI DUP3 DUP3 DUP2 MLOAD DUP2 LT PUSH2 0x294D JUMPI PUSH32 0x4E487B7100000000000000000000000000000000000000000000000000000000 PUSH1 0x0 MSTORE PUSH1 0x32 PUSH1 0x4 MSTORE PUSH1 0x24 PUSH1 0x0 REVERT JUMPDEST PUSH1 0x20 SWAP1 DUP2 MUL SWAP2 SWAP1 SWAP2 ADD DUP2 ADD MLOAD PUSH20 0xFFFFFFFFFFFFFFFFFFFFFFFFFFFFFFFFFFFFFFFF DUP1 DUP9 AND PUSH1 0x0 SWAP1 DUP2 MSTORE PUSH1 0x7 DUP5 MSTORE PUSH1 0x40 DUP1 DUP3 KECCAK256 DUP7 SLOAD SWAP1 SWAP4 AND DUP3 MSTORE SWAP2 SWAP1 SWAP4 MSTORE SWAP1 SWAP2 KECCAK256 SSTORE DUP4 MLOAD DUP5 SWAP1 DUP4 SWAP1 DUP2 LT PUSH2 0x29C9 JUMPI PUSH32 0x4E487B7100000000000000000000000000000000000000000000000000000000 PUSH1 0x0 MSTORE PUSH1 0x32 PUSH1 0x4 MSTORE PUSH1 0x24 PUSH1 0x0 REVERT JUMPDEST PUSH1 0x20 SWAP1 DUP2 MUL SWAP2 SWAP1 SWAP2 ADD DUP2 ADD MLOAD PUSH20 0xFFFFFFFFFFFFFFFFFFFFFFFFFFFFFFFFFFFFFFFF DUP1 DUP9 AND PUSH1 0x0 SWAP1 DUP2 MSTORE PUSH1 0x6 DUP5 MSTORE PUSH1 0x40 DUP1 DUP3 KECCAK256 DUP7 SLOAD SWAP1 SWAP4 AND DUP3 MSTORE SWAP2 SWAP1 SWAP4 MSTORE SWAP1 SWAP2 KECCAK256 SSTORE JUMPDEST POP DUP1 PUSH2 0x2A16 DUP2 PUSH2 0x3728 JUMP JUMPDEST SWAP2 POP POP PUSH2 0x2885 JUMP JUMPDEST POP PUSH1 0x8 SLOAD DUP5 MLOAD EQ PUSH2 0x2A8B JUMPI PUSH1 0x40 MLOAD PUSH32 0x8C379A000000000000000000000000000000000000000000000000000000000 DUP2 MSTORE PUSH1 0x20 PUSH1 0x4 DUP3 ADD MSTORE PUSH1 0x14 PUSH1 0x24 DUP3 ADD MSTORE PUSH32 0x57726F6E672072657761726420616D6F756E7473000000000000000000000000 PUSH1 0x44 DUP3 ADD MSTORE PUSH1 0x64 ADD PUSH2 0x608 JUMP JUMPDEST PUSH1 0x0 JUMPDEST PUSH1 0x8 SLOAD DUP2 LT ISZERO PUSH2 0x2D61 JUMPI PUSH1 0x0 PUSH1 0x9 DUP2 PUSH2 0x2AA8 DUP5 PUSH1 0x1 PUSH2 0x3657 JUMP JUMPDEST DUP2 MSTORE PUSH1 0x20 ADD SWAP1 DUP2 MSTORE PUSH1 0x20 ADD PUSH1 0x0 KECCAK256 SWAP1 POP PUSH1 0x3 SLOAD TIMESTAMP LT PUSH2 0x2B20 JUMPI PUSH2 0x2B16 PUSH1 0x4 SLOAD DUP8 DUP5 DUP2 MLOAD DUP2 LT PUSH2 0x2B00 JUMPI PUSH32 0x4E487B7100000000000000000000000000000000000000000000000000000000 PUSH1 0x0 MSTORE PUSH1 0x32 PUSH1 0x4 MSTORE PUSH1 0x24 PUSH1 0x0 REVERT JUMPDEST PUSH1 0x20 MUL PUSH1 0x20 ADD ADD MLOAD PUSH2 0x2EE7 SWAP1 SWAP2 SWAP1 PUSH4 0xFFFFFFFF AND JUMP JUMPDEST PUSH1 0x1 DUP3 ADD SSTORE PUSH2 0x2BAE JUMP JUMPDEST PUSH1 0x3 SLOAD PUSH1 0x0 SWAP1 PUSH2 0x2B30 SWAP1 TIMESTAMP PUSH2 0x2ECF JUMP JUMPDEST SWAP1 POP PUSH1 0x0 PUSH2 0x2B4B DUP4 PUSH1 0x1 ADD SLOAD DUP4 PUSH2 0x2EDB SWAP1 SWAP2 SWAP1 PUSH4 0xFFFFFFFF AND JUMP JUMPDEST SWAP1 POP PUSH2 0x2BA6 PUSH1 0x4 SLOAD PUSH2 0x51F DUP4 DUP12 DUP9 DUP2 MLOAD DUP2 LT PUSH2 0x2B90 JUMPI PUSH32 0x4E487B7100000000000000000000000000000000000000000000000000000000 PUSH1 0x0 MSTORE PUSH1 0x32 PUSH1 0x4 MSTORE PUSH1 0x24 PUSH1 0x0 REVERT JUMPDEST PUSH1 0x20 MUL PUSH1 0x20 ADD ADD MLOAD PUSH2 0x2EF3 SWAP1 SWAP2 SWAP1 PUSH4 0xFFFFFFFF AND JUMP JUMPDEST PUSH1 0x1 DUP5 ADD SSTORE POP POP JUMPDEST DUP1 SLOAD PUSH1 0x40 MLOAD PUSH32 0x70A0823100000000000000000000000000000000000000000000000000000000 DUP2 MSTORE ADDRESS PUSH1 0x4 DUP3 ADD MSTORE PUSH1 0x0 SWAP2 PUSH20 0xFFFFFFFFFFFFFFFFFFFFFFFFFFFFFFFFFFFFFFFF AND SWAP1 PUSH4 0x70A08231 SWAP1 PUSH1 0x24 ADD PUSH1 0x20 PUSH1 0x40 MLOAD DUP1 DUP4 SUB DUP2 DUP7 DUP1 EXTCODESIZE ISZERO DUP1 ISZERO PUSH2 0x2C17 JUMPI PUSH1 0x0 DUP1 REVERT JUMPDEST POP GAS STATICCALL ISZERO DUP1 ISZERO PUSH2 0x2C2B JUMPI RETURNDATASIZE PUSH1 0x0 DUP1 RETURNDATACOPY RETURNDATASIZE PUSH1 0x0 REVERT JUMPDEST POP POP POP POP PUSH1 0x40 MLOAD RETURNDATASIZE PUSH1 0x1F NOT PUSH1 0x1F DUP3 ADD AND DUP3 ADD DUP1 PUSH1 0x40 MSTORE POP DUP2 ADD SWAP1 PUSH2 0x2C4F SWAP2 SWAP1 PUSH2 0x351F JUMP JUMPDEST SWAP1 POP PUSH2 0x2C66 PUSH1 0x4 SLOAD DUP3 PUSH2 0x2EE7 SWAP1 SWAP2 SWAP1 PUSH4 0xFFFFFFFF AND JUMP JUMPDEST DUP3 PUSH1 0x1 ADD SLOAD GT ISZERO PUSH2 0x2CD3 JUMPI PUSH1 0x40 MLOAD PUSH32 0x8C379A000000000000000000000000000000000000000000000000000000000 DUP2 MSTORE PUSH1 0x20 PUSH1 0x4 DUP3 ADD MSTORE PUSH1 0xF PUSH1 0x24 DUP3 ADD MSTORE PUSH32 0x52657761726420746F6F20686967680000000000000000000000000000000000 PUSH1 0x44 DUP3 ADD MSTORE PUSH1 0x64 ADD PUSH2 0x608 JUMP JUMPDEST PUSH32 0xDE88A922E0D3B88B24E9623EFEB464919C6BF9F66857A65E2BFCF2CE87A9433D DUP8 DUP5 DUP2 MLOAD DUP2 LT PUSH2 0x2D2D JUMPI PUSH32 0x4E487B7100000000000000000000000000000000000000000000000000000000 PUSH1 0x0 MSTORE PUSH1 0x32 PUSH1 0x4 MSTORE PUSH1 0x24 PUSH1 0x0 REVERT JUMPDEST PUSH1 0x20 MUL PUSH1 0x20 ADD ADD MLOAD PUSH1 0x40 MLOAD PUSH2 0x2D44 SWAP2 DUP2 MSTORE PUSH1 0x20 ADD SWAP1 JUMP JUMPDEST PUSH1 0x40 MLOAD DUP1 SWAP2 SUB SWAP1 LOG1 POP POP DUP1 DUP1 PUSH2 0x2D59 SWAP1 PUSH2 0x3728 JUMP JUMPDEST SWAP2 POP POP PUSH2 0x2A8E JUMP JUMPDEST POP TIMESTAMP PUSH1 0x5 DUP2 SWAP1 SSTORE PUSH1 0x4 SLOAD PUSH2 0x2D75 SWAP2 SWAP1 PUSH2 0x2EF3 JUMP JUMPDEST PUSH1 0x3 SSTORE POP POP POP POP JUMP JUMPDEST CALLER PUSH1 0x0 SWAP1 DUP2 MSTORE PUSH1 0xC PUSH1 0x20 MSTORE PUSH1 0x40 SWAP1 KECCAK256 SLOAD PUSH2 0x2D97 SWAP1 PUSH2 0xACF JUMP JUMPDEST PUSH2 0x1F51 PUSH2 0xE11 JUMP JUMPDEST PUSH1 0x1 SLOAD PUSH20 0xFFFFFFFFFFFFFFFFFFFFFFFFFFFFFFFFFFFFFFFF AND CALLER EQ PUSH2 0x2E20 JUMPI PUSH1 0x40 MLOAD PUSH32 0x8C379A000000000000000000000000000000000000000000000000000000000 DUP2 MSTORE PUSH1 0x20 PUSH1 0x4 DUP3 ADD DUP2 SWAP1 MSTORE PUSH1 0x24 DUP3 ADD MSTORE PUSH32 0x4F776E61626C653A2063616C6C6572206973206E6F7420746865206F776E6572 PUSH1 0x44 DUP3 ADD MSTORE PUSH1 0x64 ADD PUSH2 0x608 JUMP JUMPDEST PUSH20 0xFFFFFFFFFFFFFFFFFFFFFFFFFFFFFFFFFFFFFFFF DUP2 AND PUSH2 0x2EC3 JUMPI PUSH1 0x40 MLOAD PUSH32 0x8C379A000000000000000000000000000000000000000000000000000000000 DUP2 MSTORE PUSH1 0x20 PUSH1 0x4 DUP3 ADD MSTORE PUSH1 0x26 PUSH1 0x24 DUP3 ADD MSTORE PUSH32 0x4F776E61626C653A206E6577206F776E657220697320746865207A65726F2061 PUSH1 0x44 DUP3 ADD MSTORE PUSH32 0x6464726573730000000000000000000000000000000000000000000000000000 PUSH1 0x64 DUP3 ADD MSTORE PUSH1 0x84 ADD PUSH2 0x608 JUMP JUMPDEST PUSH2 0x2ECC DUP2 PUSH2 0x303C JUMP JUMPDEST POP JUMP JUMPDEST PUSH1 0x0 PUSH2 0x2006 DUP3 DUP5 PUSH2 0x36E5 JUMP JUMPDEST PUSH1 0x0 PUSH2 0x2006 DUP3 DUP5 PUSH2 0x36A8 JUMP JUMPDEST PUSH1 0x0 PUSH2 0x2006 DUP3 DUP5 PUSH2 0x366F JUMP JUMPDEST PUSH1 0x0 PUSH2 0x2006 DUP3 DUP5 PUSH2 0x3657 JUMP JUMPDEST PUSH1 0x40 MLOAD PUSH20 0xFFFFFFFFFFFFFFFFFFFFFFFFFFFFFFFFFFFFFFFF DUP4 AND PUSH1 0x24 DUP3 ADD MSTORE PUSH1 0x44 DUP2 ADD DUP3 SWAP1 MSTORE PUSH2 0x2FD3 SWAP1 DUP5 SWAP1 PUSH32 0xA9059CBB00000000000000000000000000000000000000000000000000000000 SWAP1 PUSH1 0x64 ADD JUMPDEST PUSH1 0x40 DUP1 MLOAD PUSH32 0xFFFFFFFFFFFFFFFFFFFFFFFFFFFFFFFFFFFFFFFFFFFFFFFFFFFFFFFFFFFFFFE0 DUP2 DUP5 SUB ADD DUP2 MSTORE SWAP2 SWAP1 MSTORE PUSH1 0x20 DUP2 ADD DUP1 MLOAD PUSH28 0xFFFFFFFFFFFFFFFFFFFFFFFFFFFFFFFFFFFFFFFFFFFFFFFFFFFFFFFF AND PUSH32 0xFFFFFFFF00000000000000000000000000000000000000000000000000000000 SWAP1 SWAP4 AND SWAP3 SWAP1 SWAP3 OR SWAP1 SWAP2 MSTORE PUSH2 0x30C9 JUMP JUMPDEST POP POP POP JUMP JUMPDEST PUSH1 0x40 MLOAD PUSH20 0xFFFFFFFFFFFFFFFFFFFFFFFFFFFFFFFFFFFFFFFF DUP1 DUP6 AND PUSH1 0x24 DUP4 ADD MSTORE DUP4 AND PUSH1 0x44 DUP3 ADD MSTORE PUSH1 0x64 DUP2 ADD DUP3 SWAP1 MSTORE PUSH2 0x3036 SWAP1 DUP6 SWAP1 PUSH32 0x23B872DD00000000000000000000000000000000000000000000000000000000 SWAP1 PUSH1 0x84 ADD PUSH2 0x2F51 JUMP JUMPDEST POP POP POP POP JUMP JUMPDEST PUSH1 0x1 DUP1 SLOAD PUSH20 0xFFFFFFFFFFFFFFFFFFFFFFFFFFFFFFFFFFFFFFFF DUP4 DUP2 AND PUSH32 0xFFFFFFFFFFFFFFFFFFFFFFFF0000000000000000000000000000000000000000 DUP4 AND DUP2 OR SWAP1 SWAP4 SSTORE PUSH1 0x40 MLOAD SWAP2 AND SWAP2 SWAP1 DUP3 SWAP1 PUSH32 0x8BE0079C531659141344CD1FD0A4F28419497F9722A3DAAFE3B4186F6B6457E0 SWAP1 PUSH1 0x0 SWAP1 LOG3 POP POP JUMP JUMPDEST PUSH1 0x0 DUP2 DUP4 LT PUSH2 0x30C2 JUMPI DUP2 PUSH2 0x2006 JUMP JUMPDEST POP SWAP1 SWAP2 SWAP1 POP JUMP JUMPDEST PUSH1 0x0 PUSH2 0x312B DUP3 PUSH1 0x40 MLOAD DUP1 PUSH1 0x40 ADD PUSH1 0x40 MSTORE DUP1 PUSH1 0x20 DUP2 MSTORE PUSH1 0x20 ADD PUSH32 0x5361666545524332303A206C6F772D6C6576656C2063616C6C206661696C6564 DUP2 MSTORE POP DUP6 PUSH20 0xFFFFFFFFFFFFFFFFFFFFFFFFFFFFFFFFFFFFFFFF AND PUSH2 0x31D5 SWAP1 SWAP3 SWAP2 SWAP1 PUSH4 0xFFFFFFFF AND JUMP JUMPDEST DUP1 MLOAD SWAP1 SWAP2 POP ISZERO PUSH2 0x2FD3 JUMPI DUP1 DUP1 PUSH1 0x20 ADD SWAP1 MLOAD DUP2 ADD SWAP1 PUSH2 0x3149 SWAP2 SWAP1 PUSH2 0x34E7 JUMP JUMPDEST PUSH2 0x2FD3 JUMPI PUSH1 0x40 MLOAD PUSH32 0x8C379A000000000000000000000000000000000000000000000000000000000 DUP2 MSTORE PUSH1 0x20 PUSH1 0x4 DUP3 ADD MSTORE PUSH1 0x2A PUSH1 0x24 DUP3 ADD MSTORE PUSH32 0x5361666545524332303A204552433230206F7065726174696F6E20646964206E PUSH1 0x44 DUP3 ADD MSTORE PUSH32 0x6F74207375636365656400000000000000000000000000000000000000000000 PUSH1 0x64 DUP3 ADD MSTORE PUSH1 0x84 ADD PUSH2 0x608 JUMP JUMPDEST PUSH1 0x60 PUSH2 0x31E4 DUP5 DUP5 PUSH1 0x0 DUP6 PUSH2 0x31EC JUMP JUMPDEST SWAP5 SWAP4 POP POP POP POP JUMP JUMPDEST PUSH1 0x60 DUP3 SELFBALANCE LT ISZERO PUSH2 0x327E JUMPI PUSH1 0x40 MLOAD PUSH32 0x8C379A000000000000000000000000000000000000000000000000000000000 DUP2 MSTORE PUSH1 0x20 PUSH1 0x4 DUP3 ADD MSTORE PUSH1 0x26 PUSH1 0x24 DUP3 ADD MSTORE PUSH32 0x416464726573733A20696E73756666696369656E742062616C616E636520666F PUSH1 0x44 DUP3 ADD MSTORE PUSH32 0x722063616C6C0000000000000000000000000000000000000000000000000000 PUSH1 0x64 DUP3 ADD MSTORE PUSH1 0x84 ADD PUSH2 0x608 JUMP JUMPDEST PUSH20 0xFFFFFFFFFFFFFFFFFFFFFFFFFFFFFFFFFFFFFFFF DUP6 AND EXTCODESIZE PUSH2 0x32FC JUMPI PUSH1 0x40 MLOAD PUSH32 0x8C379A000000000000000000000000000000000000000000000000000000000 DUP2 MSTORE PUSH1 0x20 PUSH1 0x4 DUP3 ADD MSTORE PUSH1 0x1D PUSH1 0x24 DUP3 ADD MSTORE PUSH32 0x416464726573733A2063616C6C20746F206E6F6E2D636F6E7472616374000000 PUSH1 0x44 DUP3 ADD MSTORE PUSH1 0x64 ADD PUSH2 0x608 JUMP JUMPDEST PUSH1 0x0 DUP1 DUP7 PUSH20 0xFFFFFFFFFFFFFFFFFFFFFFFFFFFFFFFFFFFFFFFF AND DUP6 DUP8 PUSH1 0x40 MLOAD PUSH2 0x3325 SWAP2 SWAP1 PUSH2 0x3537 JUMP JUMPDEST PUSH1 0x0 PUSH1 0x40 MLOAD DUP1 DUP4 SUB DUP2 DUP6 DUP8 GAS CALL SWAP3 POP POP POP RETURNDATASIZE DUP1 PUSH1 0x0 DUP2 EQ PUSH2 0x3362 JUMPI PUSH1 0x40 MLOAD SWAP2 POP PUSH1 0x1F NOT PUSH1 0x3F RETURNDATASIZE ADD AND DUP3 ADD PUSH1 0x40 MSTORE RETURNDATASIZE DUP3 MSTORE RETURNDATASIZE PUSH1 0x0 PUSH1 0x20 DUP5 ADD RETURNDATACOPY PUSH2 0x3367 JUMP JUMPDEST PUSH1 0x60 SWAP2 POP JUMPDEST POP SWAP2 POP SWAP2 POP PUSH2 0x3377 DUP3 DUP3 DUP7 PUSH2 0x3382 JUMP JUMPDEST SWAP8 SWAP7 POP POP POP POP POP POP POP JUMP JUMPDEST PUSH1 0x60 DUP4 ISZERO PUSH2 0x3391 JUMPI POP DUP2 PUSH2 0x2006 JUMP JUMPDEST DUP3 MLOAD ISZERO PUSH2 0x33A1 JUMPI DUP3 MLOAD DUP1 DUP5 PUSH1 0x20 ADD REVERT JUMPDEST DUP2 PUSH1 0x40 MLOAD PUSH32 0x8C379A000000000000000000000000000000000000000000000000000000000 DUP2 MSTORE PUSH1 0x4 ADD PUSH2 0x608 SWAP2 SWAP1 PUSH2 0x3606 JUMP JUMPDEST PUSH1 0x0 PUSH1 0x20 DUP3 DUP5 SUB SLT ISZERO PUSH2 0x33E6 JUMPI DUP1 DUP2 REVERT JUMPDEST DUP2 CALLDATALOAD PUSH20 0xFFFFFFFFFFFFFFFFFFFFFFFFFFFFFFFFFFFFFFFF DUP2 AND DUP2 EQ PUSH2 0x2006 JUMPI DUP2 DUP3 REVERT JUMPDEST PUSH1 0x0 PUSH1 0x20 DUP1 DUP4 DUP6 SUB SLT ISZERO PUSH2 0x341B JUMPI DUP2 DUP3 REVERT JUMPDEST DUP3 CALLDATALOAD PUSH8 0xFFFFFFFFFFFFFFFF DUP1 DUP3 GT ISZERO PUSH2 0x3432 JUMPI DUP4 DUP5 REVERT JUMPDEST DUP2 DUP6 ADD SWAP2 POP DUP6 PUSH1 0x1F DUP4 ADD SLT PUSH2 0x3445 JUMPI DUP4 DUP5 REVERT JUMPDEST DUP2 CALLDATALOAD DUP2 DUP2 GT ISZERO PUSH2 0x3457 JUMPI PUSH2 0x3457 PUSH2 0x3790 JUMP JUMPDEST DUP1 PUSH1 0x5 SHL PUSH1 0x40 MLOAD PUSH32 0xFFFFFFFFFFFFFFFFFFFFFFFFFFFFFFFFFFFFFFFFFFFFFFFFFFFFFFFFFFFFFFE0 PUSH1 0x3F DUP4 ADD AND DUP2 ADD DUP2 DUP2 LT DUP6 DUP3 GT OR ISZERO PUSH2 0x349A JUMPI PUSH2 0x349A PUSH2 0x3790 JUMP JUMPDEST PUSH1 0x40 MSTORE DUP3 DUP2 MSTORE DUP6 DUP2 ADD SWAP4 POP DUP5 DUP7 ADD DUP3 DUP7 ADD DUP8 ADD DUP11 LT ISZERO PUSH2 0x34B8 JUMPI DUP8 DUP9 REVERT JUMPDEST DUP8 SWAP6 POP JUMPDEST DUP4 DUP7 LT ISZERO PUSH2 0x34DA JUMPI DUP1 CALLDATALOAD DUP6 MSTORE PUSH1 0x1 SWAP6 SWAP1 SWAP6 ADD SWAP5 SWAP4 DUP7 ADD SWAP4 DUP7 ADD PUSH2 0x34BC JUMP JUMPDEST POP SWAP9 SWAP8 POP POP POP POP POP POP POP POP JUMP JUMPDEST PUSH1 0x0 PUSH1 0x20 DUP3 DUP5 SUB SLT ISZERO PUSH2 0x34F8 JUMPI DUP1 DUP2 REVERT JUMPDEST DUP2 MLOAD DUP1 ISZERO ISZERO DUP2 EQ PUSH2 0x2006 JUMPI DUP2 DUP3 REVERT JUMPDEST PUSH1 0x0 PUSH1 0x20 DUP3 DUP5 SUB SLT ISZERO PUSH2 0x3518 JUMPI DUP1 DUP2 REVERT JUMPDEST POP CALLDATALOAD SWAP2 SWAP1 POP JUMP JUMPDEST PUSH1 0x0 PUSH1 0x20 DUP3 DUP5 SUB SLT ISZERO PUSH2 0x3530 JUMPI DUP1 DUP2 REVERT JUMPDEST POP MLOAD SWAP2 SWAP1 POP JUMP JUMPDEST PUSH1 0x0 DUP3 MLOAD PUSH2 0x3549 DUP2 DUP5 PUSH1 0x20 DUP8 ADD PUSH2 0x36FC JUMP JUMPDEST SWAP2 SWAP1 SWAP2 ADD SWAP3 SWAP2 POP POP JUMP JUMPDEST PUSH1 0x20 DUP1 DUP3 MSTORE DUP3 MLOAD DUP3 DUP3 ADD DUP2 SWAP1 MSTORE PUSH1 0x0 SWAP2 SWAP1 PUSH1 0x40 SWAP1 DUP2 DUP6 ADD SWAP1 DUP7 DUP5 ADD DUP6 JUMPDEST DUP3 DUP2 LT ISZERO PUSH2 0x35B5 JUMPI DUP2 MLOAD DUP1 MLOAD PUSH20 0xFFFFFFFFFFFFFFFFFFFFFFFFFFFFFFFFFFFFFFFF AND DUP6 MSTORE DUP7 DUP2 ADD MLOAD DUP8 DUP7 ADD MSTORE DUP6 ADD MLOAD DUP6 DUP6 ADD MSTORE PUSH1 0x60 SWAP1 SWAP4 ADD SWAP3 SWAP1 DUP6 ADD SWAP1 PUSH1 0x1 ADD PUSH2 0x3570 JUMP JUMPDEST POP SWAP2 SWAP8 SWAP7 POP POP POP POP POP POP POP JUMP JUMPDEST PUSH1 0x20 DUP1 DUP3 MSTORE DUP3 MLOAD DUP3 DUP3 ADD DUP2 SWAP1 MSTORE PUSH1 0x0 SWAP2 SWAP1 DUP5 DUP3 ADD SWAP1 PUSH1 0x40 DUP6 ADD SWAP1 DUP5 JUMPDEST DUP2 DUP2 LT ISZERO PUSH2 0x35FA JUMPI DUP4 MLOAD DUP4 MSTORE SWAP3 DUP5 ADD SWAP3 SWAP2 DUP5 ADD SWAP2 PUSH1 0x1 ADD PUSH2 0x35DE JUMP JUMPDEST POP SWAP1 SWAP7 SWAP6 POP POP POP POP POP POP JUMP JUMPDEST PUSH1 0x20 DUP2 MSTORE PUSH1 0x0 DUP3 MLOAD DUP1 PUSH1 0x20 DUP5 ADD MSTORE PUSH2 0x3625 DUP2 PUSH1 0x40 DUP6 ADD PUSH1 0x20 DUP8 ADD PUSH2 0x36FC JUMP JUMPDEST PUSH1 0x1F ADD PUSH32 0xFFFFFFFFFFFFFFFFFFFFFFFFFFFFFFFFFFFFFFFFFFFFFFFFFFFFFFFFFFFFFFE0 AND SWAP2 SWAP1 SWAP2 ADD PUSH1 0x40 ADD SWAP3 SWAP2 POP POP JUMP JUMPDEST PUSH1 0x0 DUP3 NOT DUP3 GT ISZERO PUSH2 0x366A JUMPI PUSH2 0x366A PUSH2 0x3761 JUMP JUMPDEST POP ADD SWAP1 JUMP JUMPDEST PUSH1 0x0 DUP3 PUSH2 0x36A3 JUMPI PUSH32 0x4E487B7100000000000000000000000000000000000000000000000000000000 DUP2 MSTORE PUSH1 0x12 PUSH1 0x4 MSTORE PUSH1 0x24 DUP2 REVERT JUMPDEST POP DIV SWAP1 JUMP JUMPDEST PUSH1 0x0 DUP2 PUSH32 0xFFFFFFFFFFFFFFFFFFFFFFFFFFFFFFFFFFFFFFFFFFFFFFFFFFFFFFFFFFFFFFFF DIV DUP4 GT DUP3 ISZERO ISZERO AND ISZERO PUSH2 0x36E0 JUMPI PUSH2 0x36E0 PUSH2 0x3761 JUMP JUMPDEST POP MUL SWAP1 JUMP JUMPDEST PUSH1 0x0 DUP3 DUP3 LT ISZERO PUSH2 0x36F7 JUMPI PUSH2 0x36F7 PUSH2 0x3761 JUMP JUMPDEST POP SUB SWAP1 JUMP JUMPDEST PUSH1 0x0 JUMPDEST DUP4 DUP2 LT ISZERO PUSH2 0x3717 JUMPI DUP2 DUP2 ADD MLOAD DUP4 DUP3 ADD MSTORE PUSH1 0x20 ADD PUSH2 0x36FF JUMP JUMPDEST DUP4 DUP2 GT ISZERO PUSH2 0x3036 JUMPI POP POP PUSH1 0x0 SWAP2 ADD MSTORE JUMP JUMPDEST PUSH1 0x0 PUSH32 0xFFFFFFFFFFFFFFFFFFFFFFFFFFFFFFFFFFFFFFFFFFFFFFFFFFFFFFFFFFFFFFFF DUP3 EQ ISZERO PUSH2 0x375A JUMPI PUSH2 0x375A PUSH2 0x3761 JUMP JUMPDEST POP PUSH1 0x1 ADD SWAP1 JUMP JUMPDEST PUSH32 0x4E487B7100000000000000000000000000000000000000000000000000000000 PUSH1 0x0 MSTORE PUSH1 0x11 PUSH1 0x4 MSTORE PUSH1 0x24 PUSH1 0x0 REVERT JUMPDEST PUSH32 0x4E487B7100000000000000000000000000000000000000000000000000000000 PUSH1 0x0 MSTORE PUSH1 0x41 PUSH1 0x4 MSTORE PUSH1 0x24 PUSH1 0x0 REVERT INVALID LOG2 PUSH5 0x6970667358 0x22 SLT KECCAK256 GASPRICE 0xE1 PUSH4 0x772A0628 DUP15 0x2E 0x25 0xD8 CALLER 0xDD 0xC6 GASPRICE SGT CALLDATALOAD SAR 0x2D 0xE4 0xE7 PUSH15 0x169F1EBE156EB04220C264736F6C63 NUMBER STOP ADDMOD DIV STOP CALLER "
				},
				"gasEstimates": {
					"creation": {
						"codeDepositCost": "2865000",
						"executionCost": "infinite",
						"totalCost": "infinite"
					},
					"external": {
						"addRewardToken(address)": "infinite",
						"balanceOf(address)": "1267",
						"depositRewardTokens(uint256[])": "infinite",
						"earned(address)": "infinite",
						"emergencyWithdrawal(address)": "infinite",
						"exit()": "infinite",
						"getReward()": "infinite",
						"getRewardForDuration()": "infinite",
						"getRewardTokens()": "infinite",
						"lastTimeRewardApplicable()": "1183",
						"lastUpdateTime()": "1062",
						"notifyRewardAmount(uint256[])": "infinite",
						"owner()": "1052",
						"periodFinish()": "1083",
						"removeRewardToken(address)": "infinite",
						"renounceOwnership()": "23424",
						"rewardForToken(address)": "infinite",
						"rewardPerToken()": "infinite",
						"rewardsDuration()": "1041",
						"stake(uint256)": "infinite",
						"stakingToken()": "1081",
						"totalRewardTokens()": "1083",
						"totalSupply()": "1050",
						"transferOwnership(address)": "23624",
						"withdraw(uint256)": "infinite"
					}
				},
				"methodIdentifiers": {
					"addRewardToken(address)": "1c03e6cc",
					"balanceOf(address)": "70a08231",
					"depositRewardTokens(uint256[])": "6a1af3b7",
					"earned(address)": "008cc262",
					"emergencyWithdrawal(address)": "6e353a1d",
					"exit()": "e9fad8ee",
					"getReward()": "3d18b912",
					"getRewardForDuration()": "1c1f78eb",
					"getRewardTokens()": "c4f59f9b",
					"lastTimeRewardApplicable()": "80faa57d",
					"lastUpdateTime()": "c8f33c91",
					"notifyRewardAmount(uint256[])": "e71e7f78",
					"owner()": "8da5cb5b",
					"periodFinish()": "ebe2b12b",
					"removeRewardToken(address)": "3d509c97",
					"renounceOwnership()": "715018a6",
					"rewardForToken(address)": "a54f5e0d",
					"rewardPerToken()": "cd3daf9d",
					"rewardsDuration()": "386a9525",
					"stake(uint256)": "a694fc3a",
					"stakingToken()": "72f702f3",
					"totalRewardTokens()": "1b0875a6",
					"totalSupply()": "18160ddd",
					"transferOwnership(address)": "f2fde38b",
					"withdraw(uint256)": "2e1a7d4d"
				}
			},
			"storageLayout": {
				"storage": [
					{
						"astId": 1471,
						"contract": "github/nobi/staking/contracts/MultiRewardsBeefSTEAK.sol:MultiRewardsStake",
						"label": "_status",
						"offset": 0,
						"slot": "0",
						"type": "t_uint256"
					},
					{
						"astId": 1363,
						"contract": "github/nobi/staking/contracts/MultiRewardsBeefSTEAK.sol:MultiRewardsStake",
						"label": "_owner",
						"offset": 0,
						"slot": "1",
						"type": "t_address"
					},
					{
						"astId": 21,
						"contract": "github/nobi/staking/contracts/MultiRewardsBeefSTEAK.sol:MultiRewardsStake",
						"label": "stakingToken",
						"offset": 0,
						"slot": "2",
						"type": "t_contract(IERC20)1584"
					},
					{
						"astId": 23,
						"contract": "github/nobi/staking/contracts/MultiRewardsBeefSTEAK.sol:MultiRewardsStake",
						"label": "periodFinish",
						"offset": 0,
						"slot": "3",
						"type": "t_uint256"
					},
					{
						"astId": 25,
						"contract": "github/nobi/staking/contracts/MultiRewardsBeefSTEAK.sol:MultiRewardsStake",
						"label": "rewardsDuration",
						"offset": 0,
						"slot": "4",
						"type": "t_uint256"
					},
					{
						"astId": 27,
						"contract": "github/nobi/staking/contracts/MultiRewardsBeefSTEAK.sol:MultiRewardsStake",
						"label": "lastUpdateTime",
						"offset": 0,
						"slot": "5",
						"type": "t_uint256"
					},
					{
						"astId": 33,
						"contract": "github/nobi/staking/contracts/MultiRewardsBeefSTEAK.sol:MultiRewardsStake",
						"label": "_userRewardPerTokenPaid",
						"offset": 0,
						"slot": "6",
						"type": "t_mapping(t_address,t_mapping(t_address,t_uint256))"
					},
					{
						"astId": 39,
						"contract": "github/nobi/staking/contracts/MultiRewardsBeefSTEAK.sol:MultiRewardsStake",
						"label": "_rewards",
						"offset": 0,
						"slot": "7",
						"type": "t_mapping(t_address,t_mapping(t_address,t_uint256))"
					},
					{
						"astId": 41,
						"contract": "github/nobi/staking/contracts/MultiRewardsBeefSTEAK.sol:MultiRewardsStake",
						"label": "_totalRewardTokens",
						"offset": 0,
						"slot": "8",
						"type": "t_uint256"
					},
					{
						"astId": 46,
						"contract": "github/nobi/staking/contracts/MultiRewardsBeefSTEAK.sol:MultiRewardsStake",
						"label": "_rewardTokens",
						"offset": 0,
						"slot": "9",
						"type": "t_mapping(t_uint256,t_struct(RewardToken)63_storage)"
					},
					{
						"astId": 50,
						"contract": "github/nobi/staking/contracts/MultiRewardsBeefSTEAK.sol:MultiRewardsStake",
						"label": "_rewardTokenToIndex",
						"offset": 0,
						"slot": "10",
						"type": "t_mapping(t_address,t_uint256)"
					},
					{
						"astId": 52,
						"contract": "github/nobi/staking/contracts/MultiRewardsBeefSTEAK.sol:MultiRewardsStake",
						"label": "_totalSupply",
						"offset": 0,
						"slot": "11",
						"type": "t_uint256"
					},
					{
						"astId": 56,
						"contract": "github/nobi/staking/contracts/MultiRewardsBeefSTEAK.sol:MultiRewardsStake",
						"label": "_balances",
						"offset": 0,
						"slot": "12",
						"type": "t_mapping(t_address,t_uint256)"
					}
				],
				"types": {
					"t_address": {
						"encoding": "inplace",
						"label": "address",
						"numberOfBytes": "20"
					},
					"t_contract(IERC20)1584": {
						"encoding": "inplace",
						"label": "contract IERC20",
						"numberOfBytes": "20"
					},
					"t_mapping(t_address,t_mapping(t_address,t_uint256))": {
						"encoding": "mapping",
						"key": "t_address",
						"label": "mapping(address => mapping(address => uint256))",
						"numberOfBytes": "32",
						"value": "t_mapping(t_address,t_uint256)"
					},
					"t_mapping(t_address,t_uint256)": {
						"encoding": "mapping",
						"key": "t_address",
						"label": "mapping(address => uint256)",
						"numberOfBytes": "32",
						"value": "t_uint256"
					},
					"t_mapping(t_uint256,t_struct(RewardToken)63_storage)": {
						"encoding": "mapping",
						"key": "t_uint256",
						"label": "mapping(uint256 => struct MultiRewardsStake.RewardToken)",
						"numberOfBytes": "32",
						"value": "t_struct(RewardToken)63_storage"
					},
					"t_struct(RewardToken)63_storage": {
						"encoding": "inplace",
						"label": "struct MultiRewardsStake.RewardToken",
						"members": [
							{
								"astId": 58,
								"contract": "github/nobi/staking/contracts/MultiRewardsBeefSTEAK.sol:MultiRewardsStake",
								"label": "token",
								"offset": 0,
								"slot": "0",
								"type": "t_address"
							},
							{
								"astId": 60,
								"contract": "github/nobi/staking/contracts/MultiRewardsBeefSTEAK.sol:MultiRewardsStake",
								"label": "rewardRate",
								"offset": 0,
								"slot": "1",
								"type": "t_uint256"
							},
							{
								"astId": 62,
								"contract": "github/nobi/staking/contracts/MultiRewardsBeefSTEAK.sol:MultiRewardsStake",
								"label": "rewardPerTokenStored",
								"offset": 0,
								"slot": "2",
								"type": "t_uint256"
							}
						],
						"numberOfBytes": "96"
					},
					"t_uint256": {
						"encoding": "inplace",
						"label": "uint256",
						"numberOfBytes": "32"
					}
				}
			},
			"userdoc": {
				"kind": "user",
				"methods": {},
				"version": 1
			}
		}
	}
}